{
	"TokenVault.sol": {
		"TokenVault": {
			"abi": [
				{
					"inputs": [
						{
							"internalType": "contract ERC20",
							"name": "_asset",
							"type": "address"
						},
						{
							"internalType": "string",
							"name": "_name",
							"type": "string"
						},
						{
							"internalType": "string",
							"name": "_symbol",
							"type": "string"
						}
					],
					"stateMutability": "nonpayable",
					"type": "constructor"
				},
				{
					"anonymous": false,
					"inputs": [
						{
							"indexed": true,
							"internalType": "address",
							"name": "owner",
							"type": "address"
						},
						{
							"indexed": true,
							"internalType": "address",
							"name": "spender",
							"type": "address"
						},
						{
							"indexed": false,
							"internalType": "uint256",
							"name": "amount",
							"type": "uint256"
						}
					],
					"name": "Approval",
					"type": "event"
				},
				{
					"anonymous": false,
					"inputs": [
						{
							"indexed": true,
							"internalType": "address",
							"name": "caller",
							"type": "address"
						},
						{
							"indexed": true,
							"internalType": "address",
							"name": "owner",
							"type": "address"
						},
						{
							"indexed": false,
							"internalType": "uint256",
							"name": "assets",
							"type": "uint256"
						},
						{
							"indexed": false,
							"internalType": "uint256",
							"name": "shares",
							"type": "uint256"
						}
					],
					"name": "Deposit",
					"type": "event"
				},
				{
					"anonymous": false,
					"inputs": [
						{
							"indexed": true,
							"internalType": "address",
							"name": "from",
							"type": "address"
						},
						{
							"indexed": true,
							"internalType": "address",
							"name": "to",
							"type": "address"
						},
						{
							"indexed": false,
							"internalType": "uint256",
							"name": "amount",
							"type": "uint256"
						}
					],
					"name": "Transfer",
					"type": "event"
				},
				{
					"anonymous": false,
					"inputs": [
						{
							"indexed": true,
							"internalType": "address",
							"name": "caller",
							"type": "address"
						},
						{
							"indexed": true,
							"internalType": "address",
							"name": "receiver",
							"type": "address"
						},
						{
							"indexed": true,
							"internalType": "address",
							"name": "owner",
							"type": "address"
						},
						{
							"indexed": false,
							"internalType": "uint256",
							"name": "assets",
							"type": "uint256"
						},
						{
							"indexed": false,
							"internalType": "uint256",
							"name": "shares",
							"type": "uint256"
						}
					],
					"name": "Withdraw",
					"type": "event"
				},
				{
					"inputs": [],
					"name": "DOMAIN_SEPARATOR",
					"outputs": [
						{
							"internalType": "bytes32",
							"name": "",
							"type": "bytes32"
						}
					],
					"stateMutability": "view",
					"type": "function"
				},
				{
					"inputs": [
						{
							"internalType": "uint256",
							"name": "_assets",
							"type": "uint256"
						}
					],
					"name": "_deposit",
					"outputs": [],
					"stateMutability": "nonpayable",
					"type": "function"
				},
				{
					"inputs": [
						{
							"internalType": "uint256",
							"name": "_shares",
							"type": "uint256"
						},
						{
							"internalType": "address",
							"name": "_receiver",
							"type": "address"
						}
					],
					"name": "_withdraw",
					"outputs": [],
					"stateMutability": "nonpayable",
					"type": "function"
				},
				{
					"inputs": [
						{
							"internalType": "address",
							"name": "",
							"type": "address"
						},
						{
							"internalType": "address",
							"name": "",
							"type": "address"
						}
					],
					"name": "allowance",
					"outputs": [
						{
							"internalType": "uint256",
							"name": "",
							"type": "uint256"
						}
					],
					"stateMutability": "view",
					"type": "function"
				},
				{
					"inputs": [
						{
							"internalType": "address",
							"name": "spender",
							"type": "address"
						},
						{
							"internalType": "uint256",
							"name": "amount",
							"type": "uint256"
						}
					],
					"name": "approve",
					"outputs": [
						{
							"internalType": "bool",
							"name": "",
							"type": "bool"
						}
					],
					"stateMutability": "nonpayable",
					"type": "function"
				},
				{
					"inputs": [],
					"name": "asset",
					"outputs": [
						{
							"internalType": "contract ERC20",
							"name": "",
							"type": "address"
						}
					],
					"stateMutability": "view",
					"type": "function"
				},
				{
					"inputs": [
						{
							"internalType": "address",
							"name": "",
							"type": "address"
						}
					],
					"name": "balanceOf",
					"outputs": [
						{
							"internalType": "uint256",
							"name": "",
							"type": "uint256"
						}
					],
					"stateMutability": "view",
					"type": "function"
				},
				{
					"inputs": [
						{
							"internalType": "uint256",
							"name": "shares",
							"type": "uint256"
						}
					],
					"name": "convertToAssets",
					"outputs": [
						{
							"internalType": "uint256",
							"name": "",
							"type": "uint256"
						}
					],
					"stateMutability": "view",
					"type": "function"
				},
				{
					"inputs": [
						{
							"internalType": "uint256",
							"name": "assets",
							"type": "uint256"
						}
					],
					"name": "convertToShares",
					"outputs": [
						{
							"internalType": "uint256",
							"name": "",
							"type": "uint256"
						}
					],
					"stateMutability": "view",
					"type": "function"
				},
				{
					"inputs": [],
					"name": "decimals",
					"outputs": [
						{
							"internalType": "uint8",
							"name": "",
							"type": "uint8"
						}
					],
					"stateMutability": "view",
					"type": "function"
				},
				{
					"inputs": [
						{
							"internalType": "uint256",
							"name": "assets",
							"type": "uint256"
						},
						{
							"internalType": "address",
							"name": "receiver",
							"type": "address"
						}
					],
					"name": "deposit",
					"outputs": [
						{
							"internalType": "uint256",
							"name": "shares",
							"type": "uint256"
						}
					],
					"stateMutability": "nonpayable",
					"type": "function"
				},
				{
					"inputs": [
						{
							"internalType": "address",
							"name": "",
							"type": "address"
						}
					],
					"name": "maxDeposit",
					"outputs": [
						{
							"internalType": "uint256",
							"name": "",
							"type": "uint256"
						}
					],
					"stateMutability": "view",
					"type": "function"
				},
				{
					"inputs": [
						{
							"internalType": "address",
							"name": "",
							"type": "address"
						}
					],
					"name": "maxMint",
					"outputs": [
						{
							"internalType": "uint256",
							"name": "",
							"type": "uint256"
						}
					],
					"stateMutability": "view",
					"type": "function"
				},
				{
					"inputs": [
						{
							"internalType": "address",
							"name": "owner",
							"type": "address"
						}
					],
					"name": "maxRedeem",
					"outputs": [
						{
							"internalType": "uint256",
							"name": "",
							"type": "uint256"
						}
					],
					"stateMutability": "view",
					"type": "function"
				},
				{
					"inputs": [
						{
							"internalType": "address",
							"name": "owner",
							"type": "address"
						}
					],
					"name": "maxWithdraw",
					"outputs": [
						{
							"internalType": "uint256",
							"name": "",
							"type": "uint256"
						}
					],
					"stateMutability": "view",
					"type": "function"
				},
				{
					"inputs": [
						{
							"internalType": "uint256",
							"name": "shares",
							"type": "uint256"
						},
						{
							"internalType": "address",
							"name": "receiver",
							"type": "address"
						}
					],
					"name": "mint",
					"outputs": [
						{
							"internalType": "uint256",
							"name": "assets",
							"type": "uint256"
						}
					],
					"stateMutability": "nonpayable",
					"type": "function"
				},
				{
					"inputs": [],
					"name": "name",
					"outputs": [
						{
							"internalType": "string",
							"name": "",
							"type": "string"
						}
					],
					"stateMutability": "view",
					"type": "function"
				},
				{
					"inputs": [
						{
							"internalType": "address",
							"name": "",
							"type": "address"
						}
					],
					"name": "nonces",
					"outputs": [
						{
							"internalType": "uint256",
							"name": "",
							"type": "uint256"
						}
					],
					"stateMutability": "view",
					"type": "function"
				},
				{
					"inputs": [
						{
							"internalType": "address",
							"name": "owner",
							"type": "address"
						},
						{
							"internalType": "address",
							"name": "spender",
							"type": "address"
						},
						{
							"internalType": "uint256",
							"name": "value",
							"type": "uint256"
						},
						{
							"internalType": "uint256",
							"name": "deadline",
							"type": "uint256"
						},
						{
							"internalType": "uint8",
							"name": "v",
							"type": "uint8"
						},
						{
							"internalType": "bytes32",
							"name": "r",
							"type": "bytes32"
						},
						{
							"internalType": "bytes32",
							"name": "s",
							"type": "bytes32"
						}
					],
					"name": "permit",
					"outputs": [],
					"stateMutability": "nonpayable",
					"type": "function"
				},
				{
					"inputs": [
						{
							"internalType": "uint256",
							"name": "assets",
							"type": "uint256"
						}
					],
					"name": "previewDeposit",
					"outputs": [
						{
							"internalType": "uint256",
							"name": "",
							"type": "uint256"
						}
					],
					"stateMutability": "view",
					"type": "function"
				},
				{
					"inputs": [
						{
							"internalType": "uint256",
							"name": "shares",
							"type": "uint256"
						}
					],
					"name": "previewMint",
					"outputs": [
						{
							"internalType": "uint256",
							"name": "",
							"type": "uint256"
						}
					],
					"stateMutability": "view",
					"type": "function"
				},
				{
					"inputs": [
						{
							"internalType": "uint256",
							"name": "shares",
							"type": "uint256"
						}
					],
					"name": "previewRedeem",
					"outputs": [
						{
							"internalType": "uint256",
							"name": "",
							"type": "uint256"
						}
					],
					"stateMutability": "view",
					"type": "function"
				},
				{
					"inputs": [
						{
							"internalType": "uint256",
							"name": "assets",
							"type": "uint256"
						}
					],
					"name": "previewWithdraw",
					"outputs": [
						{
							"internalType": "uint256",
							"name": "",
							"type": "uint256"
						}
					],
					"stateMutability": "view",
					"type": "function"
				},
				{
					"inputs": [
						{
							"internalType": "uint256",
							"name": "shares",
							"type": "uint256"
						},
						{
							"internalType": "address",
							"name": "receiver",
							"type": "address"
						},
						{
							"internalType": "address",
							"name": "owner",
							"type": "address"
						}
					],
					"name": "redeem",
					"outputs": [
						{
							"internalType": "uint256",
							"name": "assets",
							"type": "uint256"
						}
					],
					"stateMutability": "nonpayable",
					"type": "function"
				},
				{
					"inputs": [
						{
							"internalType": "address",
							"name": "",
							"type": "address"
						}
					],
					"name": "shareHolder",
					"outputs": [
						{
							"internalType": "uint256",
							"name": "",
							"type": "uint256"
						}
					],
					"stateMutability": "view",
					"type": "function"
				},
				{
					"inputs": [],
					"name": "symbol",
					"outputs": [
						{
							"internalType": "string",
							"name": "",
							"type": "string"
						}
					],
					"stateMutability": "view",
					"type": "function"
				},
				{
					"inputs": [],
					"name": "totalAssets",
					"outputs": [
						{
							"internalType": "uint256",
							"name": "",
							"type": "uint256"
						}
					],
					"stateMutability": "view",
					"type": "function"
				},
				{
					"inputs": [
						{
							"internalType": "address",
							"name": "_user",
							"type": "address"
						}
					],
					"name": "totalAssetsOfUser",
					"outputs": [
						{
							"internalType": "uint256",
							"name": "",
							"type": "uint256"
						}
					],
					"stateMutability": "view",
					"type": "function"
				},
				{
					"inputs": [],
					"name": "totalSupply",
					"outputs": [
						{
							"internalType": "uint256",
							"name": "",
							"type": "uint256"
						}
					],
					"stateMutability": "view",
					"type": "function"
				},
				{
					"inputs": [
						{
							"internalType": "address",
							"name": "to",
							"type": "address"
						},
						{
							"internalType": "uint256",
							"name": "amount",
							"type": "uint256"
						}
					],
					"name": "transfer",
					"outputs": [
						{
							"internalType": "bool",
							"name": "",
							"type": "bool"
						}
					],
					"stateMutability": "nonpayable",
					"type": "function"
				},
				{
					"inputs": [
						{
							"internalType": "address",
							"name": "from",
							"type": "address"
						},
						{
							"internalType": "address",
							"name": "to",
							"type": "address"
						},
						{
							"internalType": "uint256",
							"name": "amount",
							"type": "uint256"
						}
					],
					"name": "transferFrom",
					"outputs": [
						{
							"internalType": "bool",
							"name": "",
							"type": "bool"
						}
					],
					"stateMutability": "nonpayable",
					"type": "function"
				},
				{
					"inputs": [
						{
							"internalType": "uint256",
							"name": "assets",
							"type": "uint256"
						},
						{
							"internalType": "address",
							"name": "receiver",
							"type": "address"
						},
						{
							"internalType": "address",
							"name": "owner",
							"type": "address"
						}
					],
					"name": "withdraw",
					"outputs": [
						{
							"internalType": "uint256",
							"name": "shares",
							"type": "uint256"
						}
					],
					"stateMutability": "nonpayable",
					"type": "function"
				}
			],
			"devdoc": {
				"kind": "dev",
				"methods": {
					"_deposit(uint256)": {
						"params": {
							"_assets": "amount of the asset token"
						}
					},
					"_withdraw(uint256,address)": {
						"params": {
							"_receiver": "address of the user who will receive the assets",
							"_shares": "amount of shares the user wants to convert"
						}
					}
				},
				"version": 1
			},
			"evm": {
				"assembly": "    /* \"TokenVault.sol\":142:2640  contract TokenVault is ERC4626 {... */\n  mstore(0x40, 0x0100)\n    /* \"TokenVault.sol\":295:429  constructor(... */\n  callvalue\n  dup1\n  iszero\n  tag_1\n  jumpi\n  0x00\n  dup1\n  revert\ntag_1:\n  pop\n  mload(0x40)\n  sub(codesize, bytecodeSize)\n  dup1\n  bytecodeSize\n  dup4\n  codecopy\n  dup2\n  dup2\n  add\n  0x40\n  mstore\n  dup2\n  add\n  swap1\n  tag_2\n  swap2\n  swap1\n  tag_3\n  jump\t// in\ntag_2:\n    /* \"TokenVault.sol\":403:409  _asset */\n  dup3\n    /* \"TokenVault.sol\":411:416  _name */\n  dup3\n    /* \"TokenVault.sol\":418:425  _symbol */\n  dup3\n    /* \"https://github.com/transmissions11/solmate/blob/main/src/tokens/ERC4626.sol\":1290:1295  _name */\n  dup2\n    /* \"https://github.com/transmissions11/solmate/blob/main/src/tokens/ERC4626.sol\":1297:1304  _symbol */\n  dup2\n    /* \"https://github.com/transmissions11/solmate/blob/main/src/tokens/ERC4626.sol\":1306:1312  _asset */\n  dup5\n    /* \"https://github.com/transmissions11/solmate/blob/main/src/tokens/ERC4626.sol\":1306:1321  _asset.decimals */\n  0xffffffffffffffffffffffffffffffffffffffff\n  and\n  0x313ce567\n    /* \"https://github.com/transmissions11/solmate/blob/main/src/tokens/ERC4626.sol\":1306:1323  _asset.decimals() */\n  mload(0x40)\n  dup2\n  0xffffffff\n  and\n  0xe0\n  shl\n  dup2\n  mstore\n  0x04\n  add\n  0x20\n  mload(0x40)\n  dup1\n  dup4\n  sub\n  dup2\n  dup7\n  dup1\n  extcodesize\n  iszero\n  dup1\n  iszero\n  tag_6\n  jumpi\n  0x00\n  dup1\n  revert\ntag_6:\n  pop\n  gas\n  staticcall\n  iszero\n  dup1\n  iszero\n  tag_8\n  jumpi\n  returndatasize\n  0x00\n  dup1\n  returndatacopy\n  revert(0x00, returndatasize)\ntag_8:\n  pop\n  pop\n  pop\n  pop\n  mload(0x40)\n  returndatasize\n  not(0x1f)\n  0x1f\n  dup3\n  add\n  and\n  dup3\n  add\n  dup1\n  0x40\n  mstore\n  pop\n  dup2\n  add\n  swap1\n  tag_9\n  swap2\n  swap1\n  tag_10\n  jump\t// in\ntag_9:\n    /* \"https://github.com/transmissions11/solmate/blob/main/src/tokens/ERC20.sol\":2101:2106  _name */\n  dup3\n    /* \"https://github.com/transmissions11/solmate/blob/main/src/tokens/ERC20.sol\":2094:2098  name */\n  0x00\n    /* \"https://github.com/transmissions11/solmate/blob/main/src/tokens/ERC20.sol\":2094:2106  name = _name */\n  swap1\n  dup1\n  mload\n  swap1\n  0x20\n  add\n  swap1\n  tag_13\n  swap3\n  swap2\n  swap1\n  tag_14\n  jump\t// in\ntag_13:\n  pop\n    /* \"https://github.com/transmissions11/solmate/blob/main/src/tokens/ERC20.sol\":2125:2132  _symbol */\n  dup2\n    /* \"https://github.com/transmissions11/solmate/blob/main/src/tokens/ERC20.sol\":2116:2122  symbol */\n  0x01\n    /* \"https://github.com/transmissions11/solmate/blob/main/src/tokens/ERC20.sol\":2116:2132  symbol = _symbol */\n  swap1\n  dup1\n  mload\n  swap1\n  0x20\n  add\n  swap1\n  tag_15\n  swap3\n  swap2\n  swap1\n  tag_14\n  jump\t// in\ntag_15:\n  pop\n    /* \"https://github.com/transmissions11/solmate/blob/main/src/tokens/ERC20.sol\":2153:2162  _decimals */\n  dup1\n    /* \"https://github.com/transmissions11/solmate/blob/main/src/tokens/ERC20.sol\":2142:2162  decimals = _decimals */\n  0xff\n  and\n  0x80\n  dup2\n  0xff\n  and\n  0xf8\n  shl\n  dup2\n  mstore\n  pop\n  pop\n    /* \"https://github.com/transmissions11/solmate/blob/main/src/tokens/ERC20.sol\":2192:2205  block.chainid */\n  chainid\n    /* \"https://github.com/transmissions11/solmate/blob/main/src/tokens/ERC20.sol\":2173:2205  INITIAL_CHAIN_ID = block.chainid */\n  0xa0\n  dup2\n  dup2\n  mstore\n  pop\n  pop\n    /* \"https://github.com/transmissions11/solmate/blob/main/src/tokens/ERC20.sol\":2242:2266  computeDomainSeparator() */\n  tag_16\n    /* \"https://github.com/transmissions11/solmate/blob/main/src/tokens/ERC20.sol\":2242:2264  computeDomainSeparator */\n  shl(0x20, tag_17)\n    /* \"https://github.com/transmissions11/solmate/blob/main/src/tokens/ERC20.sol\":2242:2266  computeDomainSeparator() */\n  0x20\n  shr\n  jump\t// in\ntag_16:\n    /* \"https://github.com/transmissions11/solmate/blob/main/src/tokens/ERC20.sol\":2215:2266  INITIAL_DOMAIN_SEPARATOR = computeDomainSeparator() */\n  0xc0\n  dup2\n  dup2\n  mstore\n  pop\n  pop\n    /* \"https://github.com/transmissions11/solmate/blob/main/src/tokens/ERC20.sol\":1981:2273  constructor(... */\n  pop\n  pop\n  pop\n    /* \"https://github.com/transmissions11/solmate/blob/main/src/tokens/ERC4626.sol\":1343:1349  _asset */\n  dup3\n    /* \"https://github.com/transmissions11/solmate/blob/main/src/tokens/ERC4626.sol\":1335:1349  asset = _asset */\n  0xffffffffffffffffffffffffffffffffffffffff\n  and\n  0xe0\n  dup2\n  0xffffffffffffffffffffffffffffffffffffffff\n  and\n  0x60\n  shl\n  dup2\n  mstore\n  pop\n  pop\n    /* \"https://github.com/transmissions11/solmate/blob/main/src/tokens/ERC4626.sol\":1184:1356  constructor(... */\n  pop\n  pop\n  pop\n    /* \"TokenVault.sol\":295:429  constructor(... */\n  pop\n  pop\n  pop\n    /* \"TokenVault.sol\":142:2640  contract TokenVault is ERC4626 {... */\n  jump(tag_20)\n    /* \"https://github.com/transmissions11/solmate/blob/main/src/tokens/ERC20.sol\":5510:5956  function computeDomainSeparator() internal view virtual returns (bytes32) {... */\ntag_17:\n    /* \"https://github.com/transmissions11/solmate/blob/main/src/tokens/ERC20.sol\":5575:5582  bytes32 */\n  0x00\n    /* \"https://github.com/transmissions11/solmate/blob/main/src/tokens/ERC20.sol\":5672:5767  keccak256(\"EIP712Domain(string name,string version,uint256 chainId,address verifyingContract)\") */\n  0x8b73c3c69bb8fe3d512ecc4cf759cc79239f7b179b0ffacaa9a75d522b39400f\n    /* \"https://github.com/transmissions11/solmate/blob/main/src/tokens/ERC20.sol\":5805:5809  name */\n  0x00\n    /* \"https://github.com/transmissions11/solmate/blob/main/src/tokens/ERC20.sol\":5789:5811  keccak256(bytes(name)) */\n  mload(0x40)\n  tag_22\n  swap2\n  swap1\n  tag_23\n  jump\t// in\ntag_22:\n  mload(0x40)\n  dup1\n  swap2\n  sub\n  swap1\n  keccak256\n    /* \"https://github.com/transmissions11/solmate/blob/main/src/tokens/ERC20.sol\":5833:5847  keccak256(\"1\") */\n  0xc89efdaa54c0f20c7adf612882df0950f5a951637e0307cdcb4c672f298b8bc6\n    /* \"https://github.com/transmissions11/solmate/blob/main/src/tokens/ERC20.sol\":5869:5882  block.chainid */\n  chainid\n    /* \"https://github.com/transmissions11/solmate/blob/main/src/tokens/ERC20.sol\":5912:5916  this */\n  address\n    /* \"https://github.com/transmissions11/solmate/blob/main/src/tokens/ERC20.sol\":5640:5935  abi.encode(... */\n  add(0x20, mload(0x40))\n  tag_24\n  swap6\n  swap5\n  swap4\n  swap3\n  swap2\n  swap1\n  tag_25\n  jump\t// in\ntag_24:\n  mload(0x40)\n  0x20\n  dup2\n  dup4\n  sub\n  sub\n  dup2\n  mstore\n  swap1\n  0x40\n  mstore\n    /* \"https://github.com/transmissions11/solmate/blob/main/src/tokens/ERC20.sol\":5613:5949  keccak256(... */\n  dup1\n  mload\n  swap1\n  0x20\n  add\n  keccak256\n    /* \"https://github.com/transmissions11/solmate/blob/main/src/tokens/ERC20.sol\":5594:5949  return... */\n  swap1\n  pop\n    /* \"https://github.com/transmissions11/solmate/blob/main/src/tokens/ERC20.sol\":5510:5956  function computeDomainSeparator() internal view virtual returns (bytes32) {... */\n  swap1\n  jump\t// out\n    /* \"TokenVault.sol\":142:2640  contract TokenVault is ERC4626 {... */\ntag_14:\n  dup3\n  dup1\n  sload\n  tag_26\n  swap1\n  tag_27\n  jump\t// in\ntag_26:\n  swap1\n  0x00\n  mstore\n  keccak256(0x00, 0x20)\n  swap1\n  0x1f\n  add\n  0x20\n  swap1\n  div\n  dup2\n  add\n  swap3\n  dup3\n  tag_29\n  jumpi\n  0x00\n  dup6\n  sstore\n  jump(tag_28)\ntag_29:\n  dup3\n  0x1f\n  lt\n  tag_30\n  jumpi\n  dup1\n  mload\n  not(0xff)\n  and\n  dup4\n  dup1\n  add\n  or\n  dup6\n  sstore\n  jump(tag_28)\ntag_30:\n  dup3\n  dup1\n  add\n  0x01\n  add\n  dup6\n  sstore\n  dup3\n  iszero\n  tag_28\n  jumpi\n  swap2\n  dup3\n  add\ntag_31:\n  dup3\n  dup2\n  gt\n  iszero\n  tag_32\n  jumpi\n  dup3\n  mload\n  dup3\n  sstore\n  swap2\n  0x20\n  add\n  swap2\n  swap1\n  0x01\n  add\n  swap1\n  jump(tag_31)\ntag_32:\ntag_28:\n  pop\n  swap1\n  pop\n  tag_33\n  swap2\n  swap1\n  tag_34\n  jump\t// in\ntag_33:\n  pop\n  swap1\n  jump\t// out\ntag_34:\ntag_35:\n  dup1\n  dup3\n  gt\n  iszero\n  tag_36\n  jumpi\n  0x00\n  dup2\n  0x00\n  swap1\n  sstore\n  pop\n  0x01\n  add\n  jump(tag_35)\ntag_36:\n  pop\n  swap1\n  jump\t// out\n    /* \"#utility.yul\":7:428   */\ntag_38:\n    /* \"#utility.yul\":96:101   */\n  0x00\n    /* \"#utility.yul\":121:187   */\n  tag_40\n    /* \"#utility.yul\":137:186   */\n  tag_41\n    /* \"#utility.yul\":179:185   */\n  dup5\n    /* \"#utility.yul\":137:186   */\n  tag_42\n  jump\t// in\ntag_41:\n    /* \"#utility.yul\":121:187   */\n  tag_43\n  jump\t// in\ntag_40:\n    /* \"#utility.yul\":112:187   */\n  swap1\n  pop\n    /* \"#utility.yul\":210:216   */\n  dup3\n    /* \"#utility.yul\":203:208   */\n  dup2\n    /* \"#utility.yul\":196:217   */\n  mstore\n    /* \"#utility.yul\":248:252   */\n  0x20\n    /* \"#utility.yul\":241:246   */\n  dup2\n    /* \"#utility.yul\":237:253   */\n  add\n    /* \"#utility.yul\":286:289   */\n  dup5\n    /* \"#utility.yul\":277:283   */\n  dup5\n    /* \"#utility.yul\":272:275   */\n  dup5\n    /* \"#utility.yul\":268:284   */\n  add\n    /* \"#utility.yul\":265:290   */\n  gt\n    /* \"#utility.yul\":262:374   */\n  iszero\n  tag_44\n  jumpi\n    /* \"#utility.yul\":293:372   */\n  tag_45\n  tag_46\n  jump\t// in\ntag_45:\n    /* \"#utility.yul\":262:374   */\ntag_44:\n    /* \"#utility.yul\":383:422   */\n  tag_47\n    /* \"#utility.yul\":415:421   */\n  dup5\n    /* \"#utility.yul\":410:413   */\n  dup3\n    /* \"#utility.yul\":405:408   */\n  dup6\n    /* \"#utility.yul\":383:422   */\n  tag_48\n  jump\t// in\ntag_47:\n    /* \"#utility.yul\":102:428   */\n  pop\n    /* \"#utility.yul\":7:428   */\n  swap4\n  swap3\n  pop\n  pop\n  pop\n  jump\t// out\n    /* \"#utility.yul\":434:603   */\ntag_49:\n    /* \"#utility.yul\":504:509   */\n  0x00\n    /* \"#utility.yul\":535:541   */\n  dup2\n    /* \"#utility.yul\":529:542   */\n  mload\n    /* \"#utility.yul\":520:542   */\n  swap1\n  pop\n    /* \"#utility.yul\":551:597   */\n  tag_51\n    /* \"#utility.yul\":591:596   */\n  dup2\n    /* \"#utility.yul\":551:597   */\n  tag_52\n  jump\t// in\ntag_51:\n    /* \"#utility.yul\":434:603   */\n  swap3\n  swap2\n  pop\n  pop\n  jump\t// out\n    /* \"#utility.yul\":623:978   */\ntag_53:\n    /* \"#utility.yul\":690:695   */\n  0x00\n    /* \"#utility.yul\":739:742   */\n  dup3\n    /* \"#utility.yul\":732:736   */\n  0x1f\n    /* \"#utility.yul\":724:730   */\n  dup4\n    /* \"#utility.yul\":720:737   */\n  add\n    /* \"#utility.yul\":716:743   */\n  slt\n    /* \"#utility.yul\":706:828   */\n  tag_55\n  jumpi\n    /* \"#utility.yul\":747:826   */\n  tag_56\n  tag_57\n  jump\t// in\ntag_56:\n    /* \"#utility.yul\":706:828   */\ntag_55:\n    /* \"#utility.yul\":857:863   */\n  dup2\n    /* \"#utility.yul\":851:864   */\n  mload\n    /* \"#utility.yul\":882:972   */\n  tag_58\n    /* \"#utility.yul\":968:971   */\n  dup5\n    /* \"#utility.yul\":960:966   */\n  dup3\n    /* \"#utility.yul\":953:957   */\n  0x20\n    /* \"#utility.yul\":945:951   */\n  dup7\n    /* \"#utility.yul\":941:958   */\n  add\n    /* \"#utility.yul\":882:972   */\n  tag_38\n  jump\t// in\ntag_58:\n    /* \"#utility.yul\":873:972   */\n  swap2\n  pop\n    /* \"#utility.yul\":696:978   */\n  pop\n    /* \"#utility.yul\":623:978   */\n  swap3\n  swap2\n  pop\n  pop\n  jump\t// out\n    /* \"#utility.yul\":984:1123   */\ntag_59:\n    /* \"#utility.yul\":1039:1044   */\n  0x00\n    /* \"#utility.yul\":1070:1076   */\n  dup2\n    /* \"#utility.yul\":1064:1077   */\n  mload\n    /* \"#utility.yul\":1055:1077   */\n  swap1\n  pop\n    /* \"#utility.yul\":1086:1117   */\n  tag_61\n    /* \"#utility.yul\":1111:1116   */\n  dup2\n    /* \"#utility.yul\":1086:1117   */\n  tag_62\n  jump\t// in\ntag_61:\n    /* \"#utility.yul\":984:1123   */\n  swap3\n  swap2\n  pop\n  pop\n  jump\t// out\n    /* \"#utility.yul\":1129:2164   */\ntag_3:\n    /* \"#utility.yul\":1250:1256   */\n  0x00\n    /* \"#utility.yul\":1258:1264   */\n  dup1\n    /* \"#utility.yul\":1266:1272   */\n  0x00\n    /* \"#utility.yul\":1315:1317   */\n  0x60\n    /* \"#utility.yul\":1303:1312   */\n  dup5\n    /* \"#utility.yul\":1294:1301   */\n  dup7\n    /* \"#utility.yul\":1290:1313   */\n  sub\n    /* \"#utility.yul\":1286:1318   */\n  slt\n    /* \"#utility.yul\":1283:1402   */\n  iszero\n  tag_64\n  jumpi\n    /* \"#utility.yul\":1321:1400   */\n  tag_65\n  tag_66\n  jump\t// in\ntag_65:\n    /* \"#utility.yul\":1283:1402   */\ntag_64:\n    /* \"#utility.yul\":1441:1442   */\n  0x00\n    /* \"#utility.yul\":1466:1543   */\n  tag_67\n    /* \"#utility.yul\":1535:1542   */\n  dup7\n    /* \"#utility.yul\":1526:1532   */\n  dup3\n    /* \"#utility.yul\":1515:1524   */\n  dup8\n    /* \"#utility.yul\":1511:1533   */\n  add\n    /* \"#utility.yul\":1466:1543   */\n  tag_49\n  jump\t// in\ntag_67:\n    /* \"#utility.yul\":1456:1543   */\n  swap4\n  pop\n    /* \"#utility.yul\":1412:1553   */\n  pop\n    /* \"#utility.yul\":1613:1615   */\n  0x20\n    /* \"#utility.yul\":1602:1611   */\n  dup5\n    /* \"#utility.yul\":1598:1616   */\n  add\n    /* \"#utility.yul\":1592:1617   */\n  mload\n    /* \"#utility.yul\":1644:1662   */\n  0xffffffffffffffff\n    /* \"#utility.yul\":1636:1642   */\n  dup2\n    /* \"#utility.yul\":1633:1663   */\n  gt\n    /* \"#utility.yul\":1630:1747   */\n  iszero\n  tag_68\n  jumpi\n    /* \"#utility.yul\":1666:1745   */\n  tag_69\n  tag_70\n  jump\t// in\ntag_69:\n    /* \"#utility.yul\":1630:1747   */\ntag_68:\n    /* \"#utility.yul\":1771:1845   */\n  tag_71\n    /* \"#utility.yul\":1837:1844   */\n  dup7\n    /* \"#utility.yul\":1828:1834   */\n  dup3\n    /* \"#utility.yul\":1817:1826   */\n  dup8\n    /* \"#utility.yul\":1813:1835   */\n  add\n    /* \"#utility.yul\":1771:1845   */\n  tag_53\n  jump\t// in\ntag_71:\n    /* \"#utility.yul\":1761:1845   */\n  swap3\n  pop\n    /* \"#utility.yul\":1563:1855   */\n  pop\n    /* \"#utility.yul\":1915:1917   */\n  0x40\n    /* \"#utility.yul\":1904:1913   */\n  dup5\n    /* \"#utility.yul\":1900:1918   */\n  add\n    /* \"#utility.yul\":1894:1919   */\n  mload\n    /* \"#utility.yul\":1946:1964   */\n  0xffffffffffffffff\n    /* \"#utility.yul\":1938:1944   */\n  dup2\n    /* \"#utility.yul\":1935:1965   */\n  gt\n    /* \"#utility.yul\":1932:2049   */\n  iszero\n  tag_72\n  jumpi\n    /* \"#utility.yul\":1968:2047   */\n  tag_73\n  tag_70\n  jump\t// in\ntag_73:\n    /* \"#utility.yul\":1932:2049   */\ntag_72:\n    /* \"#utility.yul\":2073:2147   */\n  tag_74\n    /* \"#utility.yul\":2139:2146   */\n  dup7\n    /* \"#utility.yul\":2130:2136   */\n  dup3\n    /* \"#utility.yul\":2119:2128   */\n  dup8\n    /* \"#utility.yul\":2115:2137   */\n  add\n    /* \"#utility.yul\":2073:2147   */\n  tag_53\n  jump\t// in\ntag_74:\n    /* \"#utility.yul\":2063:2147   */\n  swap2\n  pop\n    /* \"#utility.yul\":1865:2157   */\n  pop\n    /* \"#utility.yul\":1129:2164   */\n  swap3\n  pop\n  swap3\n  pop\n  swap3\n  jump\t// out\n    /* \"#utility.yul\":2170:2517   */\ntag_10:\n    /* \"#utility.yul\":2238:2244   */\n  0x00\n    /* \"#utility.yul\":2287:2289   */\n  0x20\n    /* \"#utility.yul\":2275:2284   */\n  dup3\n    /* \"#utility.yul\":2266:2273   */\n  dup5\n    /* \"#utility.yul\":2262:2285   */\n  sub\n    /* \"#utility.yul\":2258:2290   */\n  slt\n    /* \"#utility.yul\":2255:2374   */\n  iszero\n  tag_76\n  jumpi\n    /* \"#utility.yul\":2293:2372   */\n  tag_77\n  tag_66\n  jump\t// in\ntag_77:\n    /* \"#utility.yul\":2255:2374   */\ntag_76:\n    /* \"#utility.yul\":2413:2414   */\n  0x00\n    /* \"#utility.yul\":2438:2500   */\n  tag_78\n    /* \"#utility.yul\":2492:2499   */\n  dup5\n    /* \"#utility.yul\":2483:2489   */\n  dup3\n    /* \"#utility.yul\":2472:2481   */\n  dup6\n    /* \"#utility.yul\":2468:2490   */\n  add\n    /* \"#utility.yul\":2438:2500   */\n  tag_59\n  jump\t// in\ntag_78:\n    /* \"#utility.yul\":2428:2500   */\n  swap2\n  pop\n    /* \"#utility.yul\":2384:2510   */\n  pop\n    /* \"#utility.yul\":2170:2517   */\n  swap3\n  swap2\n  pop\n  pop\n  jump\t// out\n    /* \"#utility.yul\":2523:2641   */\ntag_79:\n    /* \"#utility.yul\":2610:2634   */\n  tag_81\n    /* \"#utility.yul\":2628:2633   */\n  dup2\n    /* \"#utility.yul\":2610:2634   */\n  tag_82\n  jump\t// in\ntag_81:\n    /* \"#utility.yul\":2605:2608   */\n  dup3\n    /* \"#utility.yul\":2598:2635   */\n  mstore\n    /* \"#utility.yul\":2523:2641   */\n  pop\n  pop\n  jump\t// out\n    /* \"#utility.yul\":2647:2765   */\ntag_83:\n    /* \"#utility.yul\":2734:2758   */\n  tag_85\n    /* \"#utility.yul\":2752:2757   */\n  dup2\n    /* \"#utility.yul\":2734:2758   */\n  tag_86\n  jump\t// in\ntag_85:\n    /* \"#utility.yul\":2729:2732   */\n  dup3\n    /* \"#utility.yul\":2722:2759   */\n  mstore\n    /* \"#utility.yul\":2647:2765   */\n  pop\n  pop\n  jump\t// out\n    /* \"#utility.yul\":2793:3642   */\ntag_87:\n    /* \"#utility.yul\":2898:2901   */\n  0x00\n    /* \"#utility.yul\":2935:2940   */\n  dup2\n    /* \"#utility.yul\":2929:2941   */\n  sload\n    /* \"#utility.yul\":2964:3000   */\n  tag_89\n    /* \"#utility.yul\":2990:2999   */\n  dup2\n    /* \"#utility.yul\":2964:3000   */\n  tag_27\n  jump\t// in\ntag_89:\n    /* \"#utility.yul\":3016:3104   */\n  tag_90\n    /* \"#utility.yul\":3097:3103   */\n  dup2\n    /* \"#utility.yul\":3092:3095   */\n  dup7\n    /* \"#utility.yul\":3016:3104   */\n  tag_91\n  jump\t// in\ntag_90:\n    /* \"#utility.yul\":3009:3104   */\n  swap5\n  pop\n    /* \"#utility.yul\":3135:3136   */\n  0x01\n    /* \"#utility.yul\":3124:3133   */\n  dup3\n    /* \"#utility.yul\":3120:3137   */\n  and\n    /* \"#utility.yul\":3151:3152   */\n  0x00\n    /* \"#utility.yul\":3146:3283   */\n  dup2\n  eq\n  tag_93\n  jumpi\n    /* \"#utility.yul\":3297:3298   */\n  0x01\n    /* \"#utility.yul\":3292:3636   */\n  dup2\n  eq\n  tag_94\n  jumpi\n    /* \"#utility.yul\":3113:3636   */\n  jump(tag_92)\n    /* \"#utility.yul\":3146:3283   */\ntag_93:\n    /* \"#utility.yul\":3230:3234   */\n  0xff\n    /* \"#utility.yul\":3226:3235   */\n  not\n    /* \"#utility.yul\":3215:3224   */\n  dup4\n    /* \"#utility.yul\":3211:3236   */\n  and\n    /* \"#utility.yul\":3206:3209   */\n  dup7\n    /* \"#utility.yul\":3199:3237   */\n  mstore\n    /* \"#utility.yul\":3266:3272   */\n  dup2\n    /* \"#utility.yul\":3261:3264   */\n  dup7\n    /* \"#utility.yul\":3257:3273   */\n  add\n    /* \"#utility.yul\":3250:3273   */\n  swap4\n  pop\n    /* \"#utility.yul\":3146:3283   */\n  jump(tag_92)\n    /* \"#utility.yul\":3292:3636   */\ntag_94:\n    /* \"#utility.yul\":3359:3400   */\n  tag_95\n    /* \"#utility.yul\":3394:3399   */\n  dup6\n    /* \"#utility.yul\":3359:3400   */\n  tag_96\n  jump\t// in\ntag_95:\n    /* \"#utility.yul\":3422:3423   */\n  0x00\n    /* \"#utility.yul\":3436:3590   */\ntag_97:\n    /* \"#utility.yul\":3450:3456   */\n  dup4\n    /* \"#utility.yul\":3447:3448   */\n  dup2\n    /* \"#utility.yul\":3444:3457   */\n  lt\n    /* \"#utility.yul\":3436:3590   */\n  iszero\n  tag_99\n  jumpi\n    /* \"#utility.yul\":3524:3531   */\n  dup2\n    /* \"#utility.yul\":3518:3532   */\n  sload\n    /* \"#utility.yul\":3514:3515   */\n  dup2\n    /* \"#utility.yul\":3509:3512   */\n  dup10\n    /* \"#utility.yul\":3505:3516   */\n  add\n    /* \"#utility.yul\":3498:3533   */\n  mstore\n    /* \"#utility.yul\":3574:3575   */\n  0x01\n    /* \"#utility.yul\":3565:3572   */\n  dup3\n    /* \"#utility.yul\":3561:3576   */\n  add\n    /* \"#utility.yul\":3550:3576   */\n  swap2\n  pop\n    /* \"#utility.yul\":3472:3476   */\n  0x20\n    /* \"#utility.yul\":3469:3470   */\n  dup2\n    /* \"#utility.yul\":3465:3477   */\n  add\n    /* \"#utility.yul\":3460:3477   */\n  swap1\n  pop\n    /* \"#utility.yul\":3436:3590   */\n  jump(tag_97)\ntag_99:\n    /* \"#utility.yul\":3619:3625   */\n  dup4\n    /* \"#utility.yul\":3614:3617   */\n  dup9\n    /* \"#utility.yul\":3610:3626   */\n  add\n    /* \"#utility.yul\":3603:3626   */\n  swap6\n  pop\n    /* \"#utility.yul\":3299:3636   */\n  pop\n  pop\n    /* \"#utility.yul\":3113:3636   */\ntag_92:\n  pop\n    /* \"#utility.yul\":2902:3642   */\n  pop\n  pop\n    /* \"#utility.yul\":2793:3642   */\n  swap3\n  swap2\n  pop\n  pop\n  jump\t// out\n    /* \"#utility.yul\":3648:3766   */\ntag_100:\n    /* \"#utility.yul\":3735:3759   */\n  tag_102\n    /* \"#utility.yul\":3753:3758   */\n  dup2\n    /* \"#utility.yul\":3735:3759   */\n  tag_103\n  jump\t// in\ntag_102:\n    /* \"#utility.yul\":3730:3733   */\n  dup3\n    /* \"#utility.yul\":3723:3760   */\n  mstore\n    /* \"#utility.yul\":3648:3766   */\n  pop\n  pop\n  jump\t// out\n    /* \"#utility.yul\":3772:4045   */\ntag_23:\n    /* \"#utility.yul\":3903:3906   */\n  0x00\n    /* \"#utility.yul\":3925:4019   */\n  tag_105\n    /* \"#utility.yul\":4015:4018   */\n  dup3\n    /* \"#utility.yul\":4006:4012   */\n  dup5\n    /* \"#utility.yul\":3925:4019   */\n  tag_87\n  jump\t// in\ntag_105:\n    /* \"#utility.yul\":3918:4019   */\n  swap2\n  pop\n    /* \"#utility.yul\":4036:4039   */\n  dup2\n    /* \"#utility.yul\":4029:4039   */\n  swap1\n  pop\n    /* \"#utility.yul\":3772:4045   */\n  swap3\n  swap2\n  pop\n  pop\n  jump\t// out\n    /* \"#utility.yul\":4051:4715   */\ntag_25:\n    /* \"#utility.yul\":4256:4260   */\n  0x00\n    /* \"#utility.yul\":4294:4297   */\n  0xa0\n    /* \"#utility.yul\":4283:4292   */\n  dup3\n    /* \"#utility.yul\":4279:4298   */\n  add\n    /* \"#utility.yul\":4271:4298   */\n  swap1\n  pop\n    /* \"#utility.yul\":4308:4379   */\n  tag_107\n    /* \"#utility.yul\":4376:4377   */\n  0x00\n    /* \"#utility.yul\":4365:4374   */\n  dup4\n    /* \"#utility.yul\":4361:4378   */\n  add\n    /* \"#utility.yul\":4352:4358   */\n  dup9\n    /* \"#utility.yul\":4308:4379   */\n  tag_83\n  jump\t// in\ntag_107:\n    /* \"#utility.yul\":4389:4461   */\n  tag_108\n    /* \"#utility.yul\":4457:4459   */\n  0x20\n    /* \"#utility.yul\":4446:4455   */\n  dup4\n    /* \"#utility.yul\":4442:4460   */\n  add\n    /* \"#utility.yul\":4433:4439   */\n  dup8\n    /* \"#utility.yul\":4389:4461   */\n  tag_83\n  jump\t// in\ntag_108:\n    /* \"#utility.yul\":4471:4543   */\n  tag_109\n    /* \"#utility.yul\":4539:4541   */\n  0x40\n    /* \"#utility.yul\":4528:4537   */\n  dup4\n    /* \"#utility.yul\":4524:4542   */\n  add\n    /* \"#utility.yul\":4515:4521   */\n  dup7\n    /* \"#utility.yul\":4471:4543   */\n  tag_83\n  jump\t// in\ntag_109:\n    /* \"#utility.yul\":4553:4625   */\n  tag_110\n    /* \"#utility.yul\":4621:4623   */\n  0x60\n    /* \"#utility.yul\":4610:4619   */\n  dup4\n    /* \"#utility.yul\":4606:4624   */\n  add\n    /* \"#utility.yul\":4597:4603   */\n  dup6\n    /* \"#utility.yul\":4553:4625   */\n  tag_100\n  jump\t// in\ntag_110:\n    /* \"#utility.yul\":4635:4708   */\n  tag_111\n    /* \"#utility.yul\":4703:4706   */\n  0x80\n    /* \"#utility.yul\":4692:4701   */\n  dup4\n    /* \"#utility.yul\":4688:4707   */\n  add\n    /* \"#utility.yul\":4679:4685   */\n  dup5\n    /* \"#utility.yul\":4635:4708   */\n  tag_79\n  jump\t// in\ntag_111:\n    /* \"#utility.yul\":4051:4715   */\n  swap7\n  swap6\n  pop\n  pop\n  pop\n  pop\n  pop\n  pop\n  jump\t// out\n    /* \"#utility.yul\":4721:4850   */\ntag_43:\n    /* \"#utility.yul\":4755:4761   */\n  0x00\n    /* \"#utility.yul\":4782:4802   */\n  tag_113\n  tag_114\n  jump\t// in\ntag_113:\n    /* \"#utility.yul\":4772:4802   */\n  swap1\n  pop\n    /* \"#utility.yul\":4811:4844   */\n  tag_115\n    /* \"#utility.yul\":4839:4843   */\n  dup3\n    /* \"#utility.yul\":4831:4837   */\n  dup3\n    /* \"#utility.yul\":4811:4844   */\n  tag_116\n  jump\t// in\ntag_115:\n    /* \"#utility.yul\":4721:4850   */\n  swap2\n  swap1\n  pop\n  jump\t// out\n    /* \"#utility.yul\":4856:4931   */\ntag_114:\n    /* \"#utility.yul\":4889:4895   */\n  0x00\n    /* \"#utility.yul\":4922:4924   */\n  0x40\n    /* \"#utility.yul\":4916:4925   */\n  mload\n    /* \"#utility.yul\":4906:4925   */\n  swap1\n  pop\n    /* \"#utility.yul\":4856:4931   */\n  swap1\n  jump\t// out\n    /* \"#utility.yul\":4937:5245   */\ntag_42:\n    /* \"#utility.yul\":4999:5003   */\n  0x00\n    /* \"#utility.yul\":5089:5107   */\n  0xffffffffffffffff\n    /* \"#utility.yul\":5081:5087   */\n  dup3\n    /* \"#utility.yul\":5078:5108   */\n  gt\n    /* \"#utility.yul\":5075:5131   */\n  iszero\n  tag_119\n  jumpi\n    /* \"#utility.yul\":5111:5129   */\n  tag_120\n  tag_121\n  jump\t// in\ntag_120:\n    /* \"#utility.yul\":5075:5131   */\ntag_119:\n    /* \"#utility.yul\":5149:5178   */\n  tag_122\n    /* \"#utility.yul\":5171:5177   */\n  dup3\n    /* \"#utility.yul\":5149:5178   */\n  tag_123\n  jump\t// in\ntag_122:\n    /* \"#utility.yul\":5141:5178   */\n  swap1\n  pop\n    /* \"#utility.yul\":5233:5237   */\n  0x20\n    /* \"#utility.yul\":5227:5231   */\n  dup2\n    /* \"#utility.yul\":5223:5238   */\n  add\n    /* \"#utility.yul\":5215:5238   */\n  swap1\n  pop\n    /* \"#utility.yul\":4937:5245   */\n  swap2\n  swap1\n  pop\n  jump\t// out\n    /* \"#utility.yul\":5251:5395   */\ntag_96:\n    /* \"#utility.yul\":5303:5307   */\n  0x00\n    /* \"#utility.yul\":5326:5329   */\n  dup2\n    /* \"#utility.yul\":5318:5329   */\n  swap1\n  pop\n    /* \"#utility.yul\":5349:5352   */\n  dup2\n    /* \"#utility.yul\":5346:5347   */\n  0x00\n    /* \"#utility.yul\":5339:5353   */\n  mstore\n    /* \"#utility.yul\":5383:5387   */\n  0x20\n    /* \"#utility.yul\":5380:5381   */\n  0x00\n    /* \"#utility.yul\":5370:5388   */\n  keccak256\n    /* \"#utility.yul\":5362:5388   */\n  swap1\n  pop\n    /* \"#utility.yul\":5251:5395   */\n  swap2\n  swap1\n  pop\n  jump\t// out\n    /* \"#utility.yul\":5401:5548   */\ntag_91:\n    /* \"#utility.yul\":5502:5513   */\n  0x00\n    /* \"#utility.yul\":5539:5542   */\n  dup2\n    /* \"#utility.yul\":5524:5542   */\n  swap1\n  pop\n    /* \"#utility.yul\":5401:5548   */\n  swap3\n  swap2\n  pop\n  pop\n  jump\t// out\n    /* \"#utility.yul\":5554:5650   */\ntag_82:\n    /* \"#utility.yul\":5591:5598   */\n  0x00\n    /* \"#utility.yul\":5620:5644   */\n  tag_127\n    /* \"#utility.yul\":5638:5643   */\n  dup3\n    /* \"#utility.yul\":5620:5644   */\n  tag_128\n  jump\t// in\ntag_127:\n    /* \"#utility.yul\":5609:5644   */\n  swap1\n  pop\n    /* \"#utility.yul\":5554:5650   */\n  swap2\n  swap1\n  pop\n  jump\t// out\n    /* \"#utility.yul\":5656:5733   */\ntag_86:\n    /* \"#utility.yul\":5693:5700   */\n  0x00\n    /* \"#utility.yul\":5722:5727   */\n  dup2\n    /* \"#utility.yul\":5711:5727   */\n  swap1\n  pop\n    /* \"#utility.yul\":5656:5733   */\n  swap2\n  swap1\n  pop\n  jump\t// out\n    /* \"#utility.yul\":5739:5848   */\ntag_130:\n    /* \"#utility.yul\":5789:5796   */\n  0x00\n    /* \"#utility.yul\":5818:5842   */\n  tag_132\n    /* \"#utility.yul\":5836:5841   */\n  dup3\n    /* \"#utility.yul\":5818:5842   */\n  tag_82\n  jump\t// in\ntag_132:\n    /* \"#utility.yul\":5807:5842   */\n  swap1\n  pop\n    /* \"#utility.yul\":5739:5848   */\n  swap2\n  swap1\n  pop\n  jump\t// out\n    /* \"#utility.yul\":5854:5980   */\ntag_128:\n    /* \"#utility.yul\":5891:5898   */\n  0x00\n    /* \"#utility.yul\":5931:5973   */\n  0xffffffffffffffffffffffffffffffffffffffff\n    /* \"#utility.yul\":5924:5929   */\n  dup3\n    /* \"#utility.yul\":5920:5974   */\n  and\n    /* \"#utility.yul\":5909:5974   */\n  swap1\n  pop\n    /* \"#utility.yul\":5854:5980   */\n  swap2\n  swap1\n  pop\n  jump\t// out\n    /* \"#utility.yul\":5986:6063   */\ntag_103:\n    /* \"#utility.yul\":6023:6030   */\n  0x00\n    /* \"#utility.yul\":6052:6057   */\n  dup2\n    /* \"#utility.yul\":6041:6057   */\n  swap1\n  pop\n    /* \"#utility.yul\":5986:6063   */\n  swap2\n  swap1\n  pop\n  jump\t// out\n    /* \"#utility.yul\":6069:6155   */\ntag_135:\n    /* \"#utility.yul\":6104:6111   */\n  0x00\n    /* \"#utility.yul\":6144:6148   */\n  0xff\n    /* \"#utility.yul\":6137:6142   */\n  dup3\n    /* \"#utility.yul\":6133:6149   */\n  and\n    /* \"#utility.yul\":6122:6149   */\n  swap1\n  pop\n    /* \"#utility.yul\":6069:6155   */\n  swap2\n  swap1\n  pop\n  jump\t// out\n    /* \"#utility.yul\":6161:6468   */\ntag_48:\n    /* \"#utility.yul\":6229:6230   */\n  0x00\n    /* \"#utility.yul\":6239:6352   */\ntag_138:\n    /* \"#utility.yul\":6253:6259   */\n  dup4\n    /* \"#utility.yul\":6250:6251   */\n  dup2\n    /* \"#utility.yul\":6247:6260   */\n  lt\n    /* \"#utility.yul\":6239:6352   */\n  iszero\n  tag_140\n  jumpi\n    /* \"#utility.yul\":6338:6339   */\n  dup1\n    /* \"#utility.yul\":6333:6336   */\n  dup3\n    /* \"#utility.yul\":6329:6340   */\n  add\n    /* \"#utility.yul\":6323:6341   */\n  mload\n    /* \"#utility.yul\":6319:6320   */\n  dup2\n    /* \"#utility.yul\":6314:6317   */\n  dup5\n    /* \"#utility.yul\":6310:6321   */\n  add\n    /* \"#utility.yul\":6303:6342   */\n  mstore\n    /* \"#utility.yul\":6275:6277   */\n  0x20\n    /* \"#utility.yul\":6272:6273   */\n  dup2\n    /* \"#utility.yul\":6268:6278   */\n  add\n    /* \"#utility.yul\":6263:6278   */\n  swap1\n  pop\n    /* \"#utility.yul\":6239:6352   */\n  jump(tag_138)\ntag_140:\n    /* \"#utility.yul\":6370:6376   */\n  dup4\n    /* \"#utility.yul\":6367:6368   */\n  dup2\n    /* \"#utility.yul\":6364:6377   */\n  gt\n    /* \"#utility.yul\":6361:6462   */\n  iszero\n  tag_141\n  jumpi\n    /* \"#utility.yul\":6450:6451   */\n  0x00\n    /* \"#utility.yul\":6441:6447   */\n  dup5\n    /* \"#utility.yul\":6436:6439   */\n  dup5\n    /* \"#utility.yul\":6432:6448   */\n  add\n    /* \"#utility.yul\":6425:6452   */\n  mstore\n    /* \"#utility.yul\":6361:6462   */\ntag_141:\n    /* \"#utility.yul\":6210:6468   */\n  pop\n    /* \"#utility.yul\":6161:6468   */\n  pop\n  pop\n  pop\n  jump\t// out\n    /* \"#utility.yul\":6474:6794   */\ntag_27:\n    /* \"#utility.yul\":6518:6524   */\n  0x00\n    /* \"#utility.yul\":6555:6556   */\n  0x02\n    /* \"#utility.yul\":6549:6553   */\n  dup3\n    /* \"#utility.yul\":6545:6557   */\n  div\n    /* \"#utility.yul\":6535:6557   */\n  swap1\n  pop\n    /* \"#utility.yul\":6602:6603   */\n  0x01\n    /* \"#utility.yul\":6596:6600   */\n  dup3\n    /* \"#utility.yul\":6592:6604   */\n  and\n    /* \"#utility.yul\":6623:6641   */\n  dup1\n    /* \"#utility.yul\":6613:6694   */\n  tag_143\n  jumpi\n    /* \"#utility.yul\":6679:6683   */\n  0x7f\n    /* \"#utility.yul\":6671:6677   */\n  dup3\n    /* \"#utility.yul\":6667:6684   */\n  and\n    /* \"#utility.yul\":6657:6684   */\n  swap2\n  pop\n    /* \"#utility.yul\":6613:6694   */\ntag_143:\n    /* \"#utility.yul\":6741:6743   */\n  0x20\n    /* \"#utility.yul\":6733:6739   */\n  dup3\n    /* \"#utility.yul\":6730:6744   */\n  lt\n    /* \"#utility.yul\":6710:6728   */\n  dup2\n    /* \"#utility.yul\":6707:6745   */\n  eq\n    /* \"#utility.yul\":6704:6788   */\n  iszero\n  tag_144\n  jumpi\n    /* \"#utility.yul\":6760:6778   */\n  tag_145\n  tag_146\n  jump\t// in\ntag_145:\n    /* \"#utility.yul\":6704:6788   */\ntag_144:\n    /* \"#utility.yul\":6525:6794   */\n  pop\n    /* \"#utility.yul\":6474:6794   */\n  swap2\n  swap1\n  pop\n  jump\t// out\n    /* \"#utility.yul\":6800:7081   */\ntag_116:\n    /* \"#utility.yul\":6883:6910   */\n  tag_148\n    /* \"#utility.yul\":6905:6909   */\n  dup3\n    /* \"#utility.yul\":6883:6910   */\n  tag_123\n  jump\t// in\ntag_148:\n    /* \"#utility.yul\":6875:6881   */\n  dup2\n    /* \"#utility.yul\":6871:6911   */\n  add\n    /* \"#utility.yul\":7013:7019   */\n  dup2\n    /* \"#utility.yul\":7001:7011   */\n  dup2\n    /* \"#utility.yul\":6998:7020   */\n  lt\n    /* \"#utility.yul\":6977:6995   */\n  0xffffffffffffffff\n    /* \"#utility.yul\":6965:6975   */\n  dup3\n    /* \"#utility.yul\":6962:6996   */\n  gt\n    /* \"#utility.yul\":6959:7021   */\n  or\n    /* \"#utility.yul\":6956:7044   */\n  iszero\n  tag_149\n  jumpi\n    /* \"#utility.yul\":7024:7042   */\n  tag_150\n  tag_121\n  jump\t// in\ntag_150:\n    /* \"#utility.yul\":6956:7044   */\ntag_149:\n    /* \"#utility.yul\":7064:7074   */\n  dup1\n    /* \"#utility.yul\":7060:7062   */\n  0x40\n    /* \"#utility.yul\":7053:7075   */\n  mstore\n    /* \"#utility.yul\":6843:7081   */\n  pop\n    /* \"#utility.yul\":6800:7081   */\n  pop\n  pop\n  jump\t// out\n    /* \"#utility.yul\":7087:7267   */\ntag_146:\n    /* \"#utility.yul\":7135:7212   */\n  0x4e487b7100000000000000000000000000000000000000000000000000000000\n    /* \"#utility.yul\":7132:7133   */\n  0x00\n    /* \"#utility.yul\":7125:7213   */\n  mstore\n    /* \"#utility.yul\":7232:7236   */\n  0x22\n    /* \"#utility.yul\":7229:7230   */\n  0x04\n    /* \"#utility.yul\":7222:7237   */\n  mstore\n    /* \"#utility.yul\":7256:7260   */\n  0x24\n    /* \"#utility.yul\":7253:7254   */\n  0x00\n    /* \"#utility.yul\":7246:7261   */\n  revert\n    /* \"#utility.yul\":7273:7453   */\ntag_121:\n    /* \"#utility.yul\":7321:7398   */\n  0x4e487b7100000000000000000000000000000000000000000000000000000000\n    /* \"#utility.yul\":7318:7319   */\n  0x00\n    /* \"#utility.yul\":7311:7399   */\n  mstore\n    /* \"#utility.yul\":7418:7422   */\n  0x41\n    /* \"#utility.yul\":7415:7416   */\n  0x04\n    /* \"#utility.yul\":7408:7423   */\n  mstore\n    /* \"#utility.yul\":7442:7446   */\n  0x24\n    /* \"#utility.yul\":7439:7440   */\n  0x00\n    /* \"#utility.yul\":7432:7447   */\n  revert\n    /* \"#utility.yul\":7459:7576   */\ntag_57:\n    /* \"#utility.yul\":7568:7569   */\n  0x00\n    /* \"#utility.yul\":7565:7566   */\n  dup1\n    /* \"#utility.yul\":7558:7570   */\n  revert\n    /* \"#utility.yul\":7582:7699   */\ntag_46:\n    /* \"#utility.yul\":7691:7692   */\n  0x00\n    /* \"#utility.yul\":7688:7689   */\n  dup1\n    /* \"#utility.yul\":7681:7693   */\n  revert\n    /* \"#utility.yul\":7705:7822   */\ntag_70:\n    /* \"#utility.yul\":7814:7815   */\n  0x00\n    /* \"#utility.yul\":7811:7812   */\n  dup1\n    /* \"#utility.yul\":7804:7816   */\n  revert\n    /* \"#utility.yul\":7828:7945   */\ntag_66:\n    /* \"#utility.yul\":7937:7938   */\n  0x00\n    /* \"#utility.yul\":7934:7935   */\n  dup1\n    /* \"#utility.yul\":7927:7939   */\n  revert\n    /* \"#utility.yul\":7951:8053   */\ntag_123:\n    /* \"#utility.yul\":7992:7998   */\n  0x00\n    /* \"#utility.yul\":8043:8045   */\n  0x1f\n    /* \"#utility.yul\":8039:8046   */\n  not\n    /* \"#utility.yul\":8034:8036   */\n  0x1f\n    /* \"#utility.yul\":8027:8032   */\n  dup4\n    /* \"#utility.yul\":8023:8037   */\n  add\n    /* \"#utility.yul\":8019:8047   */\n  and\n    /* \"#utility.yul\":8009:8047   */\n  swap1\n  pop\n    /* \"#utility.yul\":7951:8053   */\n  swap2\n  swap1\n  pop\n  jump\t// out\n    /* \"#utility.yul\":8059:8207   */\ntag_52:\n    /* \"#utility.yul\":8145:8182   */\n  tag_159\n    /* \"#utility.yul\":8176:8181   */\n  dup2\n    /* \"#utility.yul\":8145:8182   */\n  tag_130\n  jump\t// in\ntag_159:\n    /* \"#utility.yul\":8138:8143   */\n  dup2\n    /* \"#utility.yul\":8135:8183   */\n  eq\n    /* \"#utility.yul\":8125:8201   */\n  tag_160\n  jumpi\n    /* \"#utility.yul\":8197:8198   */\n  0x00\n    /* \"#utility.yul\":8194:8195   */\n  dup1\n    /* \"#utility.yul\":8187:8199   */\n  revert\n    /* \"#utility.yul\":8125:8201   */\ntag_160:\n    /* \"#utility.yul\":8059:8207   */\n  pop\n  jump\t// out\n    /* \"#utility.yul\":8213:8331   */\ntag_62:\n    /* \"#utility.yul\":8284:8306   */\n  tag_162\n    /* \"#utility.yul\":8300:8305   */\n  dup2\n    /* \"#utility.yul\":8284:8306   */\n  tag_135\n  jump\t// in\ntag_162:\n    /* \"#utility.yul\":8277:8282   */\n  dup2\n    /* \"#utility.yul\":8274:8307   */\n  eq\n    /* \"#utility.yul\":8264:8325   */\n  tag_163\n  jumpi\n    /* \"#utility.yul\":8321:8322   */\n  0x00\n    /* \"#utility.yul\":8318:8319   */\n  dup1\n    /* \"#utility.yul\":8311:8323   */\n  revert\n    /* \"#utility.yul\":8264:8325   */\ntag_163:\n    /* \"#utility.yul\":8213:8331   */\n  pop\n  jump\t// out\n    /* \"TokenVault.sol\":142:2640  contract TokenVault is ERC4626 {... */\ntag_20:\n  shr(0xf8, mload(0x80))\n  mload(0xa0)\n  mload(0xc0)\n  shr(0x60, mload(0xe0))\n  codecopy(0x00, dataOffset(sub_0), dataSize(sub_0))\n  0x00\n  assignImmutable(\"0xaafd67d8fa30a8ba2b905b339486b92f083802c04238abb7dce3d527c0a4c750\")\n  0x00\n  assignImmutable(\"0x9fedcbae656b90e3e39f47fe3fd17358f7efaa811276fa71a4f7681cc9e0c00a\")\n  0x00\n  assignImmutable(\"0xb82689a7170af4bc238cea9f5ed91ccb0509ae7759ce9b8df7ae215c4191abd7\")\n  0x00\n  assignImmutable(\"0x26fde711c36747908dcce028baf2d3e8303b2122f2368e04f010a3f01eaa4df4\")\n  return(0x00, dataSize(sub_0))\nstop\n\nsub_0: assembly {\n        /* \"TokenVault.sol\":142:2640  contract TokenVault is ERC4626 {... */\n      mstore(0x40, 0x80)\n      callvalue\n      dup1\n      iszero\n      tag_1\n      jumpi\n      0x00\n      dup1\n      revert\n    tag_1:\n      pop\n      jumpi(tag_2, lt(calldatasize, 0x04))\n      shr(0xe0, calldataload(0x00))\n      dup1\n      0x7ecebe00\n      gt\n      tag_35\n      jumpi\n      dup1\n      0xc63d75b6\n      gt\n      tag_36\n      jumpi\n      dup1\n      0xd905777e\n      gt\n      tag_37\n      jumpi\n      dup1\n      0xd905777e\n      eq\n      tag_31\n      jumpi\n      dup1\n      0xdd62ed3e\n      eq\n      tag_32\n      jumpi\n      dup1\n      0xef8b30f7\n      eq\n      tag_33\n      jumpi\n      dup1\n      0xf071f4fd\n      eq\n      tag_34\n      jumpi\n      jump(tag_2)\n    tag_37:\n      dup1\n      0xc63d75b6\n      eq\n      tag_27\n      jumpi\n      dup1\n      0xc6e6f592\n      eq\n      tag_28\n      jumpi\n      dup1\n      0xce96cb77\n      eq\n      tag_29\n      jumpi\n      dup1\n      0xd505accf\n      eq\n      tag_30\n      jumpi\n      jump(tag_2)\n    tag_36:\n      dup1\n      0xa9059cbb\n      gt\n      tag_38\n      jumpi\n      dup1\n      0xa9059cbb\n      eq\n      tag_23\n      jumpi\n      dup1\n      0xb3d7f6b9\n      eq\n      tag_24\n      jumpi\n      dup1\n      0xb460af94\n      eq\n      tag_25\n      jumpi\n      dup1\n      0xba087652\n      eq\n      tag_26\n      jumpi\n      jump(tag_2)\n    tag_38:\n      dup1\n      0x7ecebe00\n      eq\n      tag_19\n      jumpi\n      dup1\n      0x9213b124\n      eq\n      tag_20\n      jumpi\n      dup1\n      0x94bf804d\n      eq\n      tag_21\n      jumpi\n      dup1\n      0x95d89b41\n      eq\n      tag_22\n      jumpi\n      jump(tag_2)\n    tag_35:\n      dup1\n      0x313ce567\n      gt\n      tag_39\n      jumpi\n      dup1\n      0x45be27b6\n      gt\n      tag_40\n      jumpi\n      dup1\n      0x45be27b6\n      eq\n      tag_15\n      jumpi\n      dup1\n      0x4cdad506\n      eq\n      tag_16\n      jumpi\n      dup1\n      0x6e553f65\n      eq\n      tag_17\n      jumpi\n      dup1\n      0x70a08231\n      eq\n      tag_18\n      jumpi\n      jump(tag_2)\n    tag_40:\n      dup1\n      0x313ce567\n      eq\n      tag_11\n      jumpi\n      dup1\n      0x3644e515\n      eq\n      tag_12\n      jumpi\n      dup1\n      0x38d52e0f\n      eq\n      tag_13\n      jumpi\n      dup1\n      0x402d267d\n      eq\n      tag_14\n      jumpi\n      jump(tag_2)\n    tag_39:\n      dup1\n      0x0a28a477\n      gt\n      tag_41\n      jumpi\n      dup1\n      0x0a28a477\n      eq\n      tag_7\n      jumpi\n      dup1\n      0x18160ddd\n      eq\n      tag_8\n      jumpi\n      dup1\n      0x23b872dd\n      eq\n      tag_9\n      jumpi\n      dup1\n      0x293311ab\n      eq\n      tag_10\n      jumpi\n      jump(tag_2)\n    tag_41:\n      dup1\n      0x01e1d114\n      eq\n      tag_3\n      jumpi\n      dup1\n      0x06fdde03\n      eq\n      tag_4\n      jumpi\n      dup1\n      0x07a2d13a\n      eq\n      tag_5\n      jumpi\n      dup1\n      0x095ea7b3\n      eq\n      tag_6\n      jumpi\n    tag_2:\n      0x00\n      dup1\n      revert\n        /* \"TokenVault.sol\":2361:2477  function totalAssets() public view override returns (uint256) {... */\n    tag_3:\n      tag_42\n      tag_43\n      jump\t// in\n    tag_42:\n      mload(0x40)\n      tag_44\n      swap2\n      swap1\n      tag_45\n      jump\t// in\n    tag_44:\n      mload(0x40)\n      dup1\n      swap2\n      sub\n      swap1\n      return\n        /* \"https://github.com/transmissions11/solmate/blob/main/src/tokens/ERC20.sol\":1031:1049  string public name */\n    tag_4:\n      tag_46\n      tag_47\n      jump\t// in\n    tag_46:\n      mload(0x40)\n      tag_48\n      swap2\n      swap1\n      tag_49\n      jump\t// in\n    tag_48:\n      mload(0x40)\n      dup1\n      swap2\n      sub\n      swap1\n      return\n        /* \"https://github.com/transmissions11/solmate/blob/main/src/tokens/ERC4626.sol\":4463:4720  function convertToAssets(uint256 shares) public view virtual returns (uint256) {... */\n    tag_5:\n      tag_50\n      0x04\n      dup1\n      calldatasize\n      sub\n      dup2\n      add\n      swap1\n      tag_51\n      swap2\n      swap1\n      tag_52\n      jump\t// in\n    tag_51:\n      tag_53\n      jump\t// in\n    tag_50:\n      mload(0x40)\n      tag_54\n      swap2\n      swap1\n      tag_45\n      jump\t// in\n    tag_54:\n      mload(0x40)\n      dup1\n      swap2\n      sub\n      swap1\n      return\n        /* \"https://github.com/transmissions11/solmate/blob/main/src/tokens/ERC20.sol\":2461:2672  function approve(address spender, uint256 amount) public virtual returns (bool) {... */\n    tag_6:\n      tag_55\n      0x04\n      dup1\n      calldatasize\n      sub\n      dup2\n      add\n      swap1\n      tag_56\n      swap2\n      swap1\n      tag_57\n      jump\t// in\n    tag_56:\n      tag_58\n      jump\t// in\n    tag_55:\n      mload(0x40)\n      tag_59\n      swap2\n      swap1\n      tag_60\n      jump\t// in\n    tag_59:\n      mload(0x40)\n      dup1\n      swap2\n      sub\n      swap1\n      return\n        /* \"https://github.com/transmissions11/solmate/blob/main/src/tokens/ERC4626.sol\":5114:5369  function previewWithdraw(uint256 assets) public view virtual returns (uint256) {... */\n    tag_7:\n      tag_61\n      0x04\n      dup1\n      calldatasize\n      sub\n      dup2\n      add\n      swap1\n      tag_62\n      swap2\n      swap1\n      tag_52\n      jump\t// in\n    tag_62:\n      tag_63\n      jump\t// in\n    tag_61:\n      mload(0x40)\n      tag_64\n      swap2\n      swap1\n      tag_45\n      jump\t// in\n    tag_64:\n      mload(0x40)\n      dup1\n      swap2\n      sub\n      swap1\n      return\n        /* \"https://github.com/transmissions11/solmate/blob/main/src/tokens/ERC20.sol\":1304:1330  uint256 public totalSupply */\n    tag_8:\n      tag_65\n      tag_66\n      jump\t// in\n    tag_65:\n      mload(0x40)\n      tag_67\n      swap2\n      swap1\n      tag_45\n      jump\t// in\n    tag_67:\n      mload(0x40)\n      dup1\n      swap2\n      sub\n      swap1\n      return\n        /* \"https://github.com/transmissions11/solmate/blob/main/src/tokens/ERC20.sol\":3057:3649  function transferFrom(... */\n    tag_9:\n      tag_68\n      0x04\n      dup1\n      calldatasize\n      sub\n      dup2\n      add\n      swap1\n      tag_69\n      swap2\n      swap1\n      tag_70\n      jump\t// in\n    tag_69:\n      tag_71\n      jump\t// in\n    tag_68:\n      mload(0x40)\n      tag_72\n      swap2\n      swap1\n      tag_60\n      jump\t// in\n    tag_72:\n      mload(0x40)\n      dup1\n      swap2\n      sub\n      swap1\n      return\n        /* \"TokenVault.sol\":1230:2317  function _withdraw(uint _shares, address _receiver) public {... */\n    tag_10:\n      tag_73\n      0x04\n      dup1\n      calldatasize\n      sub\n      dup2\n      add\n      swap1\n      tag_74\n      swap2\n      swap1\n      tag_75\n      jump\t// in\n    tag_74:\n      tag_76\n      jump\t// in\n    tag_73:\n      stop\n        /* \"https://github.com/transmissions11/solmate/blob/main/src/tokens/ERC20.sol\":1083:1114  uint8 public immutable decimals */\n    tag_11:\n      tag_77\n      tag_78\n      jump\t// in\n    tag_77:\n      mload(0x40)\n      tag_79\n      swap2\n      swap1\n      tag_80\n      jump\t// in\n    tag_79:\n      mload(0x40)\n      dup1\n      swap2\n      sub\n      swap1\n      return\n        /* \"https://github.com/transmissions11/solmate/blob/main/src/tokens/ERC20.sol\":5327:5504  function DOMAIN_SEPARATOR() public view virtual returns (bytes32) {... */\n    tag_12:\n      tag_81\n      tag_82\n      jump\t// in\n    tag_81:\n      mload(0x40)\n      tag_83\n      swap2\n      swap1\n      tag_84\n      jump\t// in\n    tag_83:\n      mload(0x40)\n      dup1\n      swap2\n      sub\n      swap1\n      return\n        /* \"https://github.com/transmissions11/solmate/blob/main/src/tokens/ERC4626.sol\":1149:1177  ERC20 public immutable asset */\n    tag_13:\n      tag_85\n      tag_86\n      jump\t// in\n    tag_85:\n      mload(0x40)\n      tag_87\n      swap2\n      swap1\n      tag_88\n      jump\t// in\n    tag_87:\n      mload(0x40)\n      dup1\n      swap2\n      sub\n      swap1\n      return\n        /* \"https://github.com/transmissions11/solmate/blob/main/src/tokens/ERC4626.sol\":5696:5804  function maxDeposit(address) public view virtual returns (uint256) {... */\n    tag_14:\n      tag_89\n      0x04\n      dup1\n      calldatasize\n      sub\n      dup2\n      add\n      swap1\n      tag_90\n      swap2\n      swap1\n      tag_91\n      jump\t// in\n    tag_90:\n      tag_92\n      jump\t// in\n    tag_89:\n      mload(0x40)\n      tag_93\n      swap2\n      swap1\n      tag_45\n      jump\t// in\n    tag_93:\n      mload(0x40)\n      dup1\n      swap2\n      sub\n      swap1\n      return\n        /* \"TokenVault.sol\":2520:2638  function totalAssetsOfUser(address _user) public view returns (uint256) {... */\n    tag_15:\n      tag_94\n      0x04\n      dup1\n      calldatasize\n      sub\n      dup2\n      add\n      swap1\n      tag_95\n      swap2\n      swap1\n      tag_91\n      jump\t// in\n    tag_95:\n      tag_96\n      jump\t// in\n    tag_94:\n      mload(0x40)\n      tag_97\n      swap2\n      swap1\n      tag_45\n      jump\t// in\n    tag_97:\n      mload(0x40)\n      dup1\n      swap2\n      sub\n      swap1\n      return\n        /* \"https://github.com/transmissions11/solmate/blob/main/src/tokens/ERC4626.sol\":5375:5499  function previewRedeem(uint256 shares) public view virtual returns (uint256) {... */\n    tag_16:\n      tag_98\n      0x04\n      dup1\n      calldatasize\n      sub\n      dup2\n      add\n      swap1\n      tag_99\n      swap2\n      swap1\n      tag_52\n      jump\t// in\n    tag_99:\n      tag_100\n      jump\t// in\n    tag_98:\n      mload(0x40)\n      tag_101\n      swap2\n      swap1\n      tag_45\n      jump\t// in\n    tag_101:\n      mload(0x40)\n      dup1\n      swap2\n      sub\n      swap1\n      return\n        /* \"https://github.com/transmissions11/solmate/blob/main/src/tokens/ERC4626.sol\":1550:2066  function deposit(uint256 assets, address receiver) public virtual returns (uint256 shares) {... */\n    tag_17:\n      tag_102\n      0x04\n      dup1\n      calldatasize\n      sub\n      dup2\n      add\n      swap1\n      tag_103\n      swap2\n      swap1\n      tag_75\n      jump\t// in\n    tag_103:\n      tag_104\n      jump\t// in\n    tag_102:\n      mload(0x40)\n      tag_105\n      swap2\n      swap1\n      tag_45\n      jump\t// in\n    tag_105:\n      mload(0x40)\n      dup1\n      swap2\n      sub\n      swap1\n      return\n        /* \"https://github.com/transmissions11/solmate/blob/main/src/tokens/ERC20.sol\":1337:1381  mapping(address => uint256) public balanceOf */\n    tag_18:\n      tag_106\n      0x04\n      dup1\n      calldatasize\n      sub\n      dup2\n      add\n      swap1\n      tag_107\n      swap2\n      swap1\n      tag_91\n      jump\t// in\n    tag_107:\n      tag_108\n      jump\t// in\n    tag_106:\n      mload(0x40)\n      tag_109\n      swap2\n      swap1\n      tag_45\n      jump\t// in\n    tag_109:\n      mload(0x40)\n      dup1\n      swap2\n      sub\n      swap1\n      return\n        /* \"https://github.com/transmissions11/solmate/blob/main/src/tokens/ERC20.sol\":1751:1792  mapping(address => uint256) public nonces */\n    tag_19:\n      tag_110\n      0x04\n      dup1\n      calldatasize\n      sub\n      dup2\n      add\n      swap1\n      tag_111\n      swap2\n      swap1\n      tag_91\n      jump\t// in\n    tag_111:\n      tag_112\n      jump\t// in\n    tag_110:\n      mload(0x40)\n      tag_113\n      swap2\n      swap1\n      tag_45\n      jump\t// in\n    tag_113:\n      mload(0x40)\n      dup1\n      swap2\n      sub\n      swap1\n      return\n        /* \"TokenVault.sol\":578:979  function _deposit(uint _assets) public {... */\n    tag_20:\n      tag_114\n      0x04\n      dup1\n      calldatasize\n      sub\n      dup2\n      add\n      swap1\n      tag_115\n      swap2\n      swap1\n      tag_52\n      jump\t// in\n    tag_115:\n      tag_116\n      jump\t// in\n    tag_114:\n      stop\n        /* \"https://github.com/transmissions11/solmate/blob/main/src/tokens/ERC4626.sol\":2072:2539  function mint(uint256 shares, address receiver) public virtual returns (uint256 assets) {... */\n    tag_21:\n      tag_117\n      0x04\n      dup1\n      calldatasize\n      sub\n      dup2\n      add\n      swap1\n      tag_118\n      swap2\n      swap1\n      tag_75\n      jump\t// in\n    tag_118:\n      tag_119\n      jump\t// in\n    tag_117:\n      mload(0x40)\n      tag_120\n      swap2\n      swap1\n      tag_45\n      jump\t// in\n    tag_120:\n      mload(0x40)\n      dup1\n      swap2\n      sub\n      swap1\n      return\n        /* \"https://github.com/transmissions11/solmate/blob/main/src/tokens/ERC20.sol\":1056:1076  string public symbol */\n    tag_22:\n      tag_121\n      tag_122\n      jump\t// in\n    tag_121:\n      mload(0x40)\n      tag_123\n      swap2\n      swap1\n      tag_49\n      jump\t// in\n    tag_123:\n      mload(0x40)\n      dup1\n      swap2\n      sub\n      swap1\n      return\n        /* \"https://github.com/transmissions11/solmate/blob/main/src/tokens/ERC20.sol\":2678:3051  function transfer(address to, uint256 amount) public virtual returns (bool) {... */\n    tag_23:\n      tag_124\n      0x04\n      dup1\n      calldatasize\n      sub\n      dup2\n      add\n      swap1\n      tag_125\n      swap2\n      swap1\n      tag_57\n      jump\t// in\n    tag_125:\n      tag_126\n      jump\t// in\n    tag_124:\n      mload(0x40)\n      tag_127\n      swap2\n      swap1\n      tag_60\n      jump\t// in\n    tag_127:\n      mload(0x40)\n      dup1\n      swap2\n      sub\n      swap1\n      return\n        /* \"https://github.com/transmissions11/solmate/blob/main/src/tokens/ERC4626.sol\":4857:5108  function previewMint(uint256 shares) public view virtual returns (uint256) {... */\n    tag_24:\n      tag_128\n      0x04\n      dup1\n      calldatasize\n      sub\n      dup2\n      add\n      swap1\n      tag_129\n      swap2\n      swap1\n      tag_52\n      jump\t// in\n    tag_129:\n      tag_130\n      jump\t// in\n    tag_128:\n      mload(0x40)\n      tag_131\n      swap2\n      swap1\n      tag_45\n      jump\t// in\n    tag_131:\n      mload(0x40)\n      dup1\n      swap2\n      sub\n      swap1\n      return\n        /* \"https://github.com/transmissions11/solmate/blob/main/src/tokens/ERC4626.sol\":2545:3224  function withdraw(... */\n    tag_25:\n      tag_132\n      0x04\n      dup1\n      calldatasize\n      sub\n      dup2\n      add\n      swap1\n      tag_133\n      swap2\n      swap1\n      tag_134\n      jump\t// in\n    tag_133:\n      tag_135\n      jump\t// in\n    tag_132:\n      mload(0x40)\n      tag_136\n      swap2\n      swap1\n      tag_45\n      jump\t// in\n    tag_136:\n      mload(0x40)\n      dup1\n      swap2\n      sub\n      swap1\n      return\n        /* \"https://github.com/transmissions11/solmate/blob/main/src/tokens/ERC4626.sol\":3230:3943  function redeem(... */\n    tag_26:\n      tag_137\n      0x04\n      dup1\n      calldatasize\n      sub\n      dup2\n      add\n      swap1\n      tag_138\n      swap2\n      swap1\n      tag_134\n      jump\t// in\n    tag_138:\n      tag_139\n      jump\t// in\n    tag_137:\n      mload(0x40)\n      tag_140\n      swap2\n      swap1\n      tag_45\n      jump\t// in\n    tag_140:\n      mload(0x40)\n      dup1\n      swap2\n      sub\n      swap1\n      return\n        /* \"https://github.com/transmissions11/solmate/blob/main/src/tokens/ERC4626.sol\":5810:5915  function maxMint(address) public view virtual returns (uint256) {... */\n    tag_27:\n      tag_141\n      0x04\n      dup1\n      calldatasize\n      sub\n      dup2\n      add\n      swap1\n      tag_142\n      swap2\n      swap1\n      tag_91\n      jump\t// in\n    tag_142:\n      tag_143\n      jump\t// in\n    tag_141:\n      mload(0x40)\n      tag_144\n      swap2\n      swap1\n      tag_45\n      jump\t// in\n    tag_144:\n      mload(0x40)\n      dup1\n      swap2\n      sub\n      swap1\n      return\n        /* \"https://github.com/transmissions11/solmate/blob/main/src/tokens/ERC4626.sol\":4200:4457  function convertToShares(uint256 assets) public view virtual returns (uint256) {... */\n    tag_28:\n      tag_145\n      0x04\n      dup1\n      calldatasize\n      sub\n      dup2\n      add\n      swap1\n      tag_146\n      swap2\n      swap1\n      tag_52\n      jump\t// in\n    tag_146:\n      tag_147\n      jump\t// in\n    tag_145:\n      mload(0x40)\n      tag_148\n      swap2\n      swap1\n      tag_45\n      jump\t// in\n    tag_148:\n      mload(0x40)\n      dup1\n      swap2\n      sub\n      swap1\n      return\n        /* \"https://github.com/transmissions11/solmate/blob/main/src/tokens/ERC4626.sol\":5921:6052  function maxWithdraw(address owner) public view virtual returns (uint256) {... */\n    tag_29:\n      tag_149\n      0x04\n      dup1\n      calldatasize\n      sub\n      dup2\n      add\n      swap1\n      tag_150\n      swap2\n      swap1\n      tag_91\n      jump\t// in\n    tag_150:\n      tag_151\n      jump\t// in\n    tag_149:\n      mload(0x40)\n      tag_152\n      swap2\n      swap1\n      tag_45\n      jump\t// in\n    tag_152:\n      mload(0x40)\n      dup1\n      swap2\n      sub\n      swap1\n      return\n        /* \"https://github.com/transmissions11/solmate/blob/main/src/tokens/ERC20.sol\":3838:5321  function permit(... */\n    tag_30:\n      tag_153\n      0x04\n      dup1\n      calldatasize\n      sub\n      dup2\n      add\n      swap1\n      tag_154\n      swap2\n      swap1\n      tag_155\n      jump\t// in\n    tag_154:\n      tag_156\n      jump\t// in\n    tag_153:\n      stop\n        /* \"https://github.com/transmissions11/solmate/blob/main/src/tokens/ERC4626.sol\":6058:6170  function maxRedeem(address owner) public view virtual returns (uint256) {... */\n    tag_31:\n      tag_157\n      0x04\n      dup1\n      calldatasize\n      sub\n      dup2\n      add\n      swap1\n      tag_158\n      swap2\n      swap1\n      tag_91\n      jump\t// in\n    tag_158:\n      tag_159\n      jump\t// in\n    tag_157:\n      mload(0x40)\n      tag_160\n      swap2\n      swap1\n      tag_45\n      jump\t// in\n    tag_160:\n      mload(0x40)\n      dup1\n      swap2\n      sub\n      swap1\n      return\n        /* \"https://github.com/transmissions11/solmate/blob/main/src/tokens/ERC20.sol\":1388:1452  mapping(address => mapping(address => uint256)) public allowance */\n    tag_32:\n      tag_161\n      0x04\n      dup1\n      calldatasize\n      sub\n      dup2\n      add\n      swap1\n      tag_162\n      swap2\n      swap1\n      tag_163\n      jump\t// in\n    tag_162:\n      tag_164\n      jump\t// in\n    tag_161:\n      mload(0x40)\n      tag_165\n      swap2\n      swap1\n      tag_45\n      jump\t// in\n    tag_165:\n      mload(0x40)\n      dup1\n      swap2\n      sub\n      swap1\n      return\n        /* \"https://github.com/transmissions11/solmate/blob/main/src/tokens/ERC4626.sol\":4726:4851  function previewDeposit(uint256 assets) public view virtual returns (uint256) {... */\n    tag_33:\n      tag_166\n      0x04\n      dup1\n      calldatasize\n      sub\n      dup2\n      add\n      swap1\n      tag_167\n      swap2\n      swap1\n      tag_52\n      jump\t// in\n    tag_167:\n      tag_168\n      jump\t// in\n    tag_166:\n      mload(0x40)\n      tag_169\n      swap2\n      swap1\n      tag_45\n      jump\t// in\n    tag_169:\n      mload(0x40)\n      dup1\n      swap2\n      sub\n      swap1\n      return\n        /* \"TokenVault.sol\":242:288  mapping(address => uint256) public shareHolder */\n    tag_34:\n      tag_170\n      0x04\n      dup1\n      calldatasize\n      sub\n      dup2\n      add\n      swap1\n      tag_171\n      swap2\n      swap1\n      tag_91\n      jump\t// in\n    tag_171:\n      tag_172\n      jump\t// in\n    tag_170:\n      mload(0x40)\n      tag_173\n      swap2\n      swap1\n      tag_45\n      jump\t// in\n    tag_173:\n      mload(0x40)\n      dup1\n      swap2\n      sub\n      swap1\n      return\n        /* \"TokenVault.sol\":2361:2477  function totalAssets() public view override returns (uint256) {... */\n    tag_43:\n        /* \"TokenVault.sol\":2414:2421  uint256 */\n      0x00\n        /* \"TokenVault.sol\":2440:2445  asset */\n      immutable(\"0xaafd67d8fa30a8ba2b905b339486b92f083802c04238abb7dce3d527c0a4c750\")\n        /* \"TokenVault.sol\":2440:2455  asset.balanceOf */\n      0xffffffffffffffffffffffffffffffffffffffff\n      and\n      0x70a08231\n        /* \"TokenVault.sol\":2464:2468  this */\n      address\n        /* \"TokenVault.sol\":2440:2470  asset.balanceOf(address(this)) */\n      mload(0x40)\n      dup3\n      0xffffffff\n      and\n      0xe0\n      shl\n      dup2\n      mstore\n      0x04\n      add\n      tag_175\n      swap2\n      swap1\n      tag_176\n      jump\t// in\n    tag_175:\n      0x20\n      mload(0x40)\n      dup1\n      dup4\n      sub\n      dup2\n      dup7\n      dup1\n      extcodesize\n      iszero\n      dup1\n      iszero\n      tag_177\n      jumpi\n      0x00\n      dup1\n      revert\n    tag_177:\n      pop\n      gas\n      staticcall\n      iszero\n      dup1\n      iszero\n      tag_179\n      jumpi\n      returndatasize\n      0x00\n      dup1\n      returndatacopy\n      revert(0x00, returndatasize)\n    tag_179:\n      pop\n      pop\n      pop\n      pop\n      mload(0x40)\n      returndatasize\n      not(0x1f)\n      0x1f\n      dup3\n      add\n      and\n      dup3\n      add\n      dup1\n      0x40\n      mstore\n      pop\n      dup2\n      add\n      swap1\n      tag_180\n      swap2\n      swap1\n      tag_181\n      jump\t// in\n    tag_180:\n        /* \"TokenVault.sol\":2433:2470  return asset.balanceOf(address(this)) */\n      swap1\n      pop\n        /* \"TokenVault.sol\":2361:2477  function totalAssets() public view override returns (uint256) {... */\n      swap1\n      jump\t// out\n        /* \"https://github.com/transmissions11/solmate/blob/main/src/tokens/ERC20.sol\":1031:1049  string public name */\n    tag_47:\n      0x00\n      dup1\n      sload\n      tag_182\n      swap1\n      tag_183\n      jump\t// in\n    tag_182:\n      dup1\n      0x1f\n      add\n      0x20\n      dup1\n      swap2\n      div\n      mul\n      0x20\n      add\n      mload(0x40)\n      swap1\n      dup2\n      add\n      0x40\n      mstore\n      dup1\n      swap3\n      swap2\n      swap1\n      dup2\n      dup2\n      mstore\n      0x20\n      add\n      dup3\n      dup1\n      sload\n      tag_184\n      swap1\n      tag_183\n      jump\t// in\n    tag_184:\n      dup1\n      iszero\n      tag_185\n      jumpi\n      dup1\n      0x1f\n      lt\n      tag_186\n      jumpi\n      0x0100\n      dup1\n      dup4\n      sload\n      div\n      mul\n      dup4\n      mstore\n      swap2\n      0x20\n      add\n      swap2\n      jump(tag_185)\n    tag_186:\n      dup3\n      add\n      swap2\n      swap1\n      0x00\n      mstore\n      keccak256(0x00, 0x20)\n      swap1\n    tag_187:\n      dup2\n      sload\n      dup2\n      mstore\n      swap1\n      0x01\n      add\n      swap1\n      0x20\n      add\n      dup1\n      dup4\n      gt\n      tag_187\n      jumpi\n      dup3\n      swap1\n      sub\n      0x1f\n      and\n      dup3\n      add\n      swap2\n    tag_185:\n      pop\n      pop\n      pop\n      pop\n      pop\n      dup2\n      jump\t// out\n        /* \"https://github.com/transmissions11/solmate/blob/main/src/tokens/ERC4626.sol\":4463:4720  function convertToAssets(uint256 shares) public view virtual returns (uint256) {... */\n    tag_53:\n        /* \"https://github.com/transmissions11/solmate/blob/main/src/tokens/ERC4626.sol\":4533:4540  uint256 */\n      0x00\n        /* \"https://github.com/transmissions11/solmate/blob/main/src/tokens/ERC4626.sol\":4552:4566  uint256 supply */\n      dup1\n        /* \"https://github.com/transmissions11/solmate/blob/main/src/tokens/ERC4626.sol\":4569:4580  totalSupply */\n      sload(0x02)\n        /* \"https://github.com/transmissions11/solmate/blob/main/src/tokens/ERC4626.sol\":4552:4580  uint256 supply = totalSupply */\n      swap1\n      pop\n        /* \"https://github.com/transmissions11/solmate/blob/main/src/tokens/ERC4626.sol\":4660:4661  0 */\n      0x00\n        /* \"https://github.com/transmissions11/solmate/blob/main/src/tokens/ERC4626.sol\":4650:4656  supply */\n      dup2\n        /* \"https://github.com/transmissions11/solmate/blob/main/src/tokens/ERC4626.sol\":4650:4661  supply == 0 */\n      eq\n        /* \"https://github.com/transmissions11/solmate/blob/main/src/tokens/ERC4626.sol\":4650:4713  supply == 0 ? shares : shares.mulDivDown(totalAssets(), supply) */\n      tag_189\n      jumpi\n        /* \"https://github.com/transmissions11/solmate/blob/main/src/tokens/ERC4626.sol\":4673:4713  shares.mulDivDown(totalAssets(), supply) */\n      tag_190\n        /* \"https://github.com/transmissions11/solmate/blob/main/src/tokens/ERC4626.sol\":4691:4704  totalAssets() */\n      tag_191\n        /* \"https://github.com/transmissions11/solmate/blob/main/src/tokens/ERC4626.sol\":4691:4702  totalAssets */\n      tag_43\n        /* \"https://github.com/transmissions11/solmate/blob/main/src/tokens/ERC4626.sol\":4691:4704  totalAssets() */\n      jump\t// in\n    tag_191:\n        /* \"https://github.com/transmissions11/solmate/blob/main/src/tokens/ERC4626.sol\":4706:4712  supply */\n      dup3\n        /* \"https://github.com/transmissions11/solmate/blob/main/src/tokens/ERC4626.sol\":4673:4679  shares */\n      dup6\n        /* \"https://github.com/transmissions11/solmate/blob/main/src/tokens/ERC4626.sol\":4673:4690  shares.mulDivDown */\n      tag_192\n      swap1\n        /* \"https://github.com/transmissions11/solmate/blob/main/src/tokens/ERC4626.sol\":4673:4713  shares.mulDivDown(totalAssets(), supply) */\n      swap3\n      swap2\n      swap1\n      0xffffffff\n      and\n      jump\t// in\n    tag_190:\n        /* \"https://github.com/transmissions11/solmate/blob/main/src/tokens/ERC4626.sol\":4650:4713  supply == 0 ? shares : shares.mulDivDown(totalAssets(), supply) */\n      jump(tag_193)\n    tag_189:\n        /* \"https://github.com/transmissions11/solmate/blob/main/src/tokens/ERC4626.sol\":4664:4670  shares */\n      dup3\n        /* \"https://github.com/transmissions11/solmate/blob/main/src/tokens/ERC4626.sol\":4650:4713  supply == 0 ? shares : shares.mulDivDown(totalAssets(), supply) */\n    tag_193:\n        /* \"https://github.com/transmissions11/solmate/blob/main/src/tokens/ERC4626.sol\":4643:4713  return supply == 0 ? shares : shares.mulDivDown(totalAssets(), supply) */\n      swap2\n      pop\n      pop\n        /* \"https://github.com/transmissions11/solmate/blob/main/src/tokens/ERC4626.sol\":4463:4720  function convertToAssets(uint256 shares) public view virtual returns (uint256) {... */\n      swap2\n      swap1\n      pop\n      jump\t// out\n        /* \"https://github.com/transmissions11/solmate/blob/main/src/tokens/ERC20.sol\":2461:2672  function approve(address spender, uint256 amount) public virtual returns (bool) {... */\n    tag_58:\n        /* \"https://github.com/transmissions11/solmate/blob/main/src/tokens/ERC20.sol\":2535:2539  bool */\n      0x00\n        /* \"https://github.com/transmissions11/solmate/blob/main/src/tokens/ERC20.sol\":2584:2590  amount */\n      dup2\n        /* \"https://github.com/transmissions11/solmate/blob/main/src/tokens/ERC20.sol\":2551:2560  allowance */\n      0x04\n        /* \"https://github.com/transmissions11/solmate/blob/main/src/tokens/ERC20.sol\":2551:2572  allowance[msg.sender] */\n      0x00\n        /* \"https://github.com/transmissions11/solmate/blob/main/src/tokens/ERC20.sol\":2561:2571  msg.sender */\n      caller\n        /* \"https://github.com/transmissions11/solmate/blob/main/src/tokens/ERC20.sol\":2551:2572  allowance[msg.sender] */\n      0xffffffffffffffffffffffffffffffffffffffff\n      and\n      0xffffffffffffffffffffffffffffffffffffffff\n      and\n      dup2\n      mstore\n      0x20\n      add\n      swap1\n      dup2\n      mstore\n      0x20\n      add\n      0x00\n      keccak256\n        /* \"https://github.com/transmissions11/solmate/blob/main/src/tokens/ERC20.sol\":2551:2581  allowance[msg.sender][spender] */\n      0x00\n        /* \"https://github.com/transmissions11/solmate/blob/main/src/tokens/ERC20.sol\":2573:2580  spender */\n      dup6\n        /* \"https://github.com/transmissions11/solmate/blob/main/src/tokens/ERC20.sol\":2551:2581  allowance[msg.sender][spender] */\n      0xffffffffffffffffffffffffffffffffffffffff\n      and\n      0xffffffffffffffffffffffffffffffffffffffff\n      and\n      dup2\n      mstore\n      0x20\n      add\n      swap1\n      dup2\n      mstore\n      0x20\n      add\n      0x00\n      keccak256\n        /* \"https://github.com/transmissions11/solmate/blob/main/src/tokens/ERC20.sol\":2551:2590  allowance[msg.sender][spender] = amount */\n      dup2\n      swap1\n      sstore\n      pop\n        /* \"https://github.com/transmissions11/solmate/blob/main/src/tokens/ERC20.sol\":2627:2634  spender */\n      dup3\n        /* \"https://github.com/transmissions11/solmate/blob/main/src/tokens/ERC20.sol\":2606:2643  Approval(msg.sender, spender, amount) */\n      0xffffffffffffffffffffffffffffffffffffffff\n      and\n        /* \"https://github.com/transmissions11/solmate/blob/main/src/tokens/ERC20.sol\":2615:2625  msg.sender */\n      caller\n        /* \"https://github.com/transmissions11/solmate/blob/main/src/tokens/ERC20.sol\":2606:2643  Approval(msg.sender, spender, amount) */\n      0xffffffffffffffffffffffffffffffffffffffff\n      and\n      0x8c5be1e5ebec7d5bd14f71427d1e84f3dd0314c0f7b2291e5b200ac8c7c3b925\n        /* \"https://github.com/transmissions11/solmate/blob/main/src/tokens/ERC20.sol\":2636:2642  amount */\n      dup5\n        /* \"https://github.com/transmissions11/solmate/blob/main/src/tokens/ERC20.sol\":2606:2643  Approval(msg.sender, spender, amount) */\n      mload(0x40)\n      tag_195\n      swap2\n      swap1\n      tag_45\n      jump\t// in\n    tag_195:\n      mload(0x40)\n      dup1\n      swap2\n      sub\n      swap1\n      log3\n        /* \"https://github.com/transmissions11/solmate/blob/main/src/tokens/ERC20.sol\":2661:2665  true */\n      0x01\n        /* \"https://github.com/transmissions11/solmate/blob/main/src/tokens/ERC20.sol\":2654:2665  return true */\n      swap1\n      pop\n        /* \"https://github.com/transmissions11/solmate/blob/main/src/tokens/ERC20.sol\":2461:2672  function approve(address spender, uint256 amount) public virtual returns (bool) {... */\n      swap3\n      swap2\n      pop\n      pop\n      jump\t// out\n        /* \"https://github.com/transmissions11/solmate/blob/main/src/tokens/ERC4626.sol\":5114:5369  function previewWithdraw(uint256 assets) public view virtual returns (uint256) {... */\n    tag_63:\n        /* \"https://github.com/transmissions11/solmate/blob/main/src/tokens/ERC4626.sol\":5184:5191  uint256 */\n      0x00\n        /* \"https://github.com/transmissions11/solmate/blob/main/src/tokens/ERC4626.sol\":5203:5217  uint256 supply */\n      dup1\n        /* \"https://github.com/transmissions11/solmate/blob/main/src/tokens/ERC4626.sol\":5220:5231  totalSupply */\n      sload(0x02)\n        /* \"https://github.com/transmissions11/solmate/blob/main/src/tokens/ERC4626.sol\":5203:5231  uint256 supply = totalSupply */\n      swap1\n      pop\n        /* \"https://github.com/transmissions11/solmate/blob/main/src/tokens/ERC4626.sol\":5311:5312  0 */\n      0x00\n        /* \"https://github.com/transmissions11/solmate/blob/main/src/tokens/ERC4626.sol\":5301:5307  supply */\n      dup2\n        /* \"https://github.com/transmissions11/solmate/blob/main/src/tokens/ERC4626.sol\":5301:5312  supply == 0 */\n      eq\n        /* \"https://github.com/transmissions11/solmate/blob/main/src/tokens/ERC4626.sol\":5301:5362  supply == 0 ? assets : assets.mulDivUp(supply, totalAssets()) */\n      tag_197\n      jumpi\n        /* \"https://github.com/transmissions11/solmate/blob/main/src/tokens/ERC4626.sol\":5324:5362  assets.mulDivUp(supply, totalAssets()) */\n      tag_198\n        /* \"https://github.com/transmissions11/solmate/blob/main/src/tokens/ERC4626.sol\":5340:5346  supply */\n      dup2\n        /* \"https://github.com/transmissions11/solmate/blob/main/src/tokens/ERC4626.sol\":5348:5361  totalAssets() */\n      tag_199\n        /* \"https://github.com/transmissions11/solmate/blob/main/src/tokens/ERC4626.sol\":5348:5359  totalAssets */\n      tag_43\n        /* \"https://github.com/transmissions11/solmate/blob/main/src/tokens/ERC4626.sol\":5348:5361  totalAssets() */\n      jump\t// in\n    tag_199:\n        /* \"https://github.com/transmissions11/solmate/blob/main/src/tokens/ERC4626.sol\":5324:5330  assets */\n      dup6\n        /* \"https://github.com/transmissions11/solmate/blob/main/src/tokens/ERC4626.sol\":5324:5339  assets.mulDivUp */\n      tag_200\n      swap1\n        /* \"https://github.com/transmissions11/solmate/blob/main/src/tokens/ERC4626.sol\":5324:5362  assets.mulDivUp(supply, totalAssets()) */\n      swap3\n      swap2\n      swap1\n      0xffffffff\n      and\n      jump\t// in\n    tag_198:\n        /* \"https://github.com/transmissions11/solmate/blob/main/src/tokens/ERC4626.sol\":5301:5362  supply == 0 ? assets : assets.mulDivUp(supply, totalAssets()) */\n      jump(tag_201)\n    tag_197:\n        /* \"https://github.com/transmissions11/solmate/blob/main/src/tokens/ERC4626.sol\":5315:5321  assets */\n      dup3\n        /* \"https://github.com/transmissions11/solmate/blob/main/src/tokens/ERC4626.sol\":5301:5362  supply == 0 ? assets : assets.mulDivUp(supply, totalAssets()) */\n    tag_201:\n        /* \"https://github.com/transmissions11/solmate/blob/main/src/tokens/ERC4626.sol\":5294:5362  return supply == 0 ? assets : assets.mulDivUp(supply, totalAssets()) */\n      swap2\n      pop\n      pop\n        /* \"https://github.com/transmissions11/solmate/blob/main/src/tokens/ERC4626.sol\":5114:5369  function previewWithdraw(uint256 assets) public view virtual returns (uint256) {... */\n      swap2\n      swap1\n      pop\n      jump\t// out\n        /* \"https://github.com/transmissions11/solmate/blob/main/src/tokens/ERC20.sol\":1304:1330  uint256 public totalSupply */\n    tag_66:\n      sload(0x02)\n      dup2\n      jump\t// out\n        /* \"https://github.com/transmissions11/solmate/blob/main/src/tokens/ERC20.sol\":3057:3649  function transferFrom(... */\n    tag_71:\n        /* \"https://github.com/transmissions11/solmate/blob/main/src/tokens/ERC20.sol\":3175:3179  bool */\n      0x00\n        /* \"https://github.com/transmissions11/solmate/blob/main/src/tokens/ERC20.sol\":3191:3206  uint256 allowed */\n      dup1\n        /* \"https://github.com/transmissions11/solmate/blob/main/src/tokens/ERC20.sol\":3209:3218  allowance */\n      0x04\n        /* \"https://github.com/transmissions11/solmate/blob/main/src/tokens/ERC20.sol\":3209:3224  allowance[from] */\n      0x00\n        /* \"https://github.com/transmissions11/solmate/blob/main/src/tokens/ERC20.sol\":3219:3223  from */\n      dup7\n        /* \"https://github.com/transmissions11/solmate/blob/main/src/tokens/ERC20.sol\":3209:3224  allowance[from] */\n      0xffffffffffffffffffffffffffffffffffffffff\n      and\n      0xffffffffffffffffffffffffffffffffffffffff\n      and\n      dup2\n      mstore\n      0x20\n      add\n      swap1\n      dup2\n      mstore\n      0x20\n      add\n      0x00\n      keccak256\n        /* \"https://github.com/transmissions11/solmate/blob/main/src/tokens/ERC20.sol\":3209:3236  allowance[from][msg.sender] */\n      0x00\n        /* \"https://github.com/transmissions11/solmate/blob/main/src/tokens/ERC20.sol\":3225:3235  msg.sender */\n      caller\n        /* \"https://github.com/transmissions11/solmate/blob/main/src/tokens/ERC20.sol\":3209:3236  allowance[from][msg.sender] */\n      0xffffffffffffffffffffffffffffffffffffffff\n      and\n      0xffffffffffffffffffffffffffffffffffffffff\n      and\n      dup2\n      mstore\n      0x20\n      add\n      swap1\n      dup2\n      mstore\n      0x20\n      add\n      0x00\n      keccak256\n      sload\n        /* \"https://github.com/transmissions11/solmate/blob/main/src/tokens/ERC20.sol\":3191:3236  uint256 allowed = allowance[from][msg.sender] */\n      swap1\n      pop\n        /* \"https://github.com/transmissions11/solmate/blob/main/src/tokens/ERC20.sol\":3298:3315  type(uint256).max */\n      0xffffffffffffffffffffffffffffffffffffffffffffffffffffffffffffffff\n        /* \"https://github.com/transmissions11/solmate/blob/main/src/tokens/ERC20.sol\":3287:3294  allowed */\n      dup2\n        /* \"https://github.com/transmissions11/solmate/blob/main/src/tokens/ERC20.sol\":3287:3315  allowed != type(uint256).max */\n      eq\n        /* \"https://github.com/transmissions11/solmate/blob/main/src/tokens/ERC20.sol\":3283:3363  if (allowed != type(uint256).max) allowance[from][msg.sender] = allowed - amount */\n      tag_203\n      jumpi\n        /* \"https://github.com/transmissions11/solmate/blob/main/src/tokens/ERC20.sol\":3357:3363  amount */\n      dup3\n        /* \"https://github.com/transmissions11/solmate/blob/main/src/tokens/ERC20.sol\":3347:3354  allowed */\n      dup2\n        /* \"https://github.com/transmissions11/solmate/blob/main/src/tokens/ERC20.sol\":3347:3363  allowed - amount */\n      tag_204\n      swap2\n      swap1\n      tag_205\n      jump\t// in\n    tag_204:\n        /* \"https://github.com/transmissions11/solmate/blob/main/src/tokens/ERC20.sol\":3317:3326  allowance */\n      0x04\n        /* \"https://github.com/transmissions11/solmate/blob/main/src/tokens/ERC20.sol\":3317:3332  allowance[from] */\n      0x00\n        /* \"https://github.com/transmissions11/solmate/blob/main/src/tokens/ERC20.sol\":3327:3331  from */\n      dup8\n        /* \"https://github.com/transmissions11/solmate/blob/main/src/tokens/ERC20.sol\":3317:3332  allowance[from] */\n      0xffffffffffffffffffffffffffffffffffffffff\n      and\n      0xffffffffffffffffffffffffffffffffffffffff\n      and\n      dup2\n      mstore\n      0x20\n      add\n      swap1\n      dup2\n      mstore\n      0x20\n      add\n      0x00\n      keccak256\n        /* \"https://github.com/transmissions11/solmate/blob/main/src/tokens/ERC20.sol\":3317:3344  allowance[from][msg.sender] */\n      0x00\n        /* \"https://github.com/transmissions11/solmate/blob/main/src/tokens/ERC20.sol\":3333:3343  msg.sender */\n      caller\n        /* \"https://github.com/transmissions11/solmate/blob/main/src/tokens/ERC20.sol\":3317:3344  allowance[from][msg.sender] */\n      0xffffffffffffffffffffffffffffffffffffffff\n      and\n      0xffffffffffffffffffffffffffffffffffffffff\n      and\n      dup2\n      mstore\n      0x20\n      add\n      swap1\n      dup2\n      mstore\n      0x20\n      add\n      0x00\n      keccak256\n        /* \"https://github.com/transmissions11/solmate/blob/main/src/tokens/ERC20.sol\":3317:3363  allowance[from][msg.sender] = allowed - amount */\n      dup2\n      swap1\n      sstore\n      pop\n        /* \"https://github.com/transmissions11/solmate/blob/main/src/tokens/ERC20.sol\":3283:3363  if (allowed != type(uint256).max) allowance[from][msg.sender] = allowed - amount */\n    tag_203:\n        /* \"https://github.com/transmissions11/solmate/blob/main/src/tokens/ERC20.sol\":3393:3399  amount */\n      dup3\n        /* \"https://github.com/transmissions11/solmate/blob/main/src/tokens/ERC20.sol\":3374:3383  balanceOf */\n      0x03\n        /* \"https://github.com/transmissions11/solmate/blob/main/src/tokens/ERC20.sol\":3374:3389  balanceOf[from] */\n      0x00\n        /* \"https://github.com/transmissions11/solmate/blob/main/src/tokens/ERC20.sol\":3384:3388  from */\n      dup8\n        /* \"https://github.com/transmissions11/solmate/blob/main/src/tokens/ERC20.sol\":3374:3389  balanceOf[from] */\n      0xffffffffffffffffffffffffffffffffffffffff\n      and\n      0xffffffffffffffffffffffffffffffffffffffff\n      and\n      dup2\n      mstore\n      0x20\n      add\n      swap1\n      dup2\n      mstore\n      0x20\n      add\n      0x00\n      keccak256\n      0x00\n        /* \"https://github.com/transmissions11/solmate/blob/main/src/tokens/ERC20.sol\":3374:3399  balanceOf[from] -= amount */\n      dup3\n      dup3\n      sload\n      tag_206\n      swap2\n      swap1\n      tag_205\n      jump\t// in\n    tag_206:\n      swap3\n      pop\n      pop\n      dup2\n      swap1\n      sstore\n      pop\n        /* \"https://github.com/transmissions11/solmate/blob/main/src/tokens/ERC20.sol\":3562:3568  amount */\n      dup3\n        /* \"https://github.com/transmissions11/solmate/blob/main/src/tokens/ERC20.sol\":3545:3554  balanceOf */\n      0x03\n        /* \"https://github.com/transmissions11/solmate/blob/main/src/tokens/ERC20.sol\":3545:3558  balanceOf[to] */\n      0x00\n        /* \"https://github.com/transmissions11/solmate/blob/main/src/tokens/ERC20.sol\":3555:3557  to */\n      dup7\n        /* \"https://github.com/transmissions11/solmate/blob/main/src/tokens/ERC20.sol\":3545:3558  balanceOf[to] */\n      0xffffffffffffffffffffffffffffffffffffffff\n      and\n      0xffffffffffffffffffffffffffffffffffffffff\n      and\n      dup2\n      mstore\n      0x20\n      add\n      swap1\n      dup2\n      mstore\n      0x20\n      add\n      0x00\n      keccak256\n      0x00\n        /* \"https://github.com/transmissions11/solmate/blob/main/src/tokens/ERC20.sol\":3545:3568  balanceOf[to] += amount */\n      dup3\n      dup3\n      sload\n      add\n      swap3\n      pop\n      pop\n      dup2\n      swap1\n      sstore\n      pop\n        /* \"https://github.com/transmissions11/solmate/blob/main/src/tokens/ERC20.sol\":3609:3611  to */\n      dup4\n        /* \"https://github.com/transmissions11/solmate/blob/main/src/tokens/ERC20.sol\":3594:3620  Transfer(from, to, amount) */\n      0xffffffffffffffffffffffffffffffffffffffff\n      and\n        /* \"https://github.com/transmissions11/solmate/blob/main/src/tokens/ERC20.sol\":3603:3607  from */\n      dup6\n        /* \"https://github.com/transmissions11/solmate/blob/main/src/tokens/ERC20.sol\":3594:3620  Transfer(from, to, amount) */\n      0xffffffffffffffffffffffffffffffffffffffff\n      and\n      0xddf252ad1be2c89b69c2b068fc378daa952ba7f163c4a11628f55a4df523b3ef\n        /* \"https://github.com/transmissions11/solmate/blob/main/src/tokens/ERC20.sol\":3613:3619  amount */\n      dup6\n        /* \"https://github.com/transmissions11/solmate/blob/main/src/tokens/ERC20.sol\":3594:3620  Transfer(from, to, amount) */\n      mload(0x40)\n      tag_207\n      swap2\n      swap1\n      tag_45\n      jump\t// in\n    tag_207:\n      mload(0x40)\n      dup1\n      swap2\n      sub\n      swap1\n      log3\n        /* \"https://github.com/transmissions11/solmate/blob/main/src/tokens/ERC20.sol\":3638:3642  true */\n      0x01\n        /* \"https://github.com/transmissions11/solmate/blob/main/src/tokens/ERC20.sol\":3631:3642  return true */\n      swap2\n      pop\n      pop\n        /* \"https://github.com/transmissions11/solmate/blob/main/src/tokens/ERC20.sol\":3057:3649  function transferFrom(... */\n      swap4\n      swap3\n      pop\n      pop\n      pop\n      jump\t// out\n        /* \"TokenVault.sol\":1230:2317  function _withdraw(uint _shares, address _receiver) public {... */\n    tag_76:\n        /* \"TokenVault.sol\":1383:1384  0 */\n      0x00\n        /* \"TokenVault.sol\":1373:1380  _shares */\n      dup3\n        /* \"TokenVault.sol\":1373:1384  _shares > 0 */\n      gt\n        /* \"TokenVault.sol\":1365:1423  require(_shares > 0, \"withdraw must be greater than Zero\") */\n      tag_209\n      jumpi\n      mload(0x40)\n      0x08c379a000000000000000000000000000000000000000000000000000000000\n      dup2\n      mstore\n      0x04\n      add\n      tag_210\n      swap1\n      tag_211\n      jump\t// in\n    tag_210:\n      mload(0x40)\n      dup1\n      swap2\n      sub\n      swap1\n      revert\n    tag_209:\n        /* \"TokenVault.sol\":1520:1521  0 */\n      0x00\n        /* \"TokenVault.sol\":1499:1522  _receiver != address(0) */\n      0xffffffffffffffffffffffffffffffffffffffff\n      and\n        /* \"TokenVault.sol\":1499:1508  _receiver */\n      dup2\n        /* \"TokenVault.sol\":1499:1522  _receiver != address(0) */\n      0xffffffffffffffffffffffffffffffffffffffff\n      and\n      eq\n      iszero\n        /* \"TokenVault.sol\":1491:1539  require(_receiver != address(0), \"Zero Address\") */\n      tag_212\n      jumpi\n      mload(0x40)\n      0x08c379a000000000000000000000000000000000000000000000000000000000\n      dup2\n      mstore\n      0x04\n      add\n      tag_213\n      swap1\n      tag_214\n      jump\t// in\n    tag_213:\n      mload(0x40)\n      dup1\n      swap2\n      sub\n      swap1\n      revert\n    tag_212:\n        /* \"TokenVault.sol\":1634:1635  0 */\n      0x00\n        /* \"TokenVault.sol\":1608:1619  shareHolder */\n      0x06\n        /* \"TokenVault.sol\":1608:1631  shareHolder[msg.sender] */\n      0x00\n        /* \"TokenVault.sol\":1620:1630  msg.sender */\n      caller\n        /* \"TokenVault.sol\":1608:1631  shareHolder[msg.sender] */\n      0xffffffffffffffffffffffffffffffffffffffff\n      and\n      0xffffffffffffffffffffffffffffffffffffffff\n      and\n      dup2\n      mstore\n      0x20\n      add\n      swap1\n      dup2\n      mstore\n      0x20\n      add\n      0x00\n      keccak256\n      sload\n        /* \"TokenVault.sol\":1608:1635  shareHolder[msg.sender] > 0 */\n      gt\n        /* \"TokenVault.sol\":1600:1658  require(shareHolder[msg.sender] > 0, \"Not a share holder\") */\n      tag_215\n      jumpi\n      mload(0x40)\n      0x08c379a000000000000000000000000000000000000000000000000000000000\n      dup2\n      mstore\n      0x04\n      add\n      tag_216\n      swap1\n      tag_217\n      jump\t// in\n    tag_216:\n      mload(0x40)\n      dup1\n      swap2\n      sub\n      swap1\n      revert\n    tag_215:\n        /* \"TokenVault.sol\":1787:1794  _shares */\n      dup2\n        /* \"TokenVault.sol\":1760:1771  shareHolder */\n      0x06\n        /* \"TokenVault.sol\":1760:1783  shareHolder[msg.sender] */\n      0x00\n        /* \"TokenVault.sol\":1772:1782  msg.sender */\n      caller\n        /* \"TokenVault.sol\":1760:1783  shareHolder[msg.sender] */\n      0xffffffffffffffffffffffffffffffffffffffff\n      and\n      0xffffffffffffffffffffffffffffffffffffffff\n      and\n      dup2\n      mstore\n      0x20\n      add\n      swap1\n      dup2\n      mstore\n      0x20\n      add\n      0x00\n      keccak256\n      sload\n        /* \"TokenVault.sol\":1760:1794  shareHolder[msg.sender] >= _shares */\n      lt\n      iszero\n        /* \"TokenVault.sol\":1752:1816  require(shareHolder[msg.sender] >= _shares, \"Not enough shares\") */\n      tag_218\n      jumpi\n      mload(0x40)\n      0x08c379a000000000000000000000000000000000000000000000000000000000\n      dup2\n      mstore\n      0x04\n      add\n      tag_219\n      swap1\n      tag_220\n      jump\t// in\n    tag_219:\n      mload(0x40)\n      dup1\n      swap2\n      sub\n      swap1\n      revert\n    tag_218:\n        /* \"TokenVault.sol\":1882:1897  uint256 percent */\n      0x00\n        /* \"TokenVault.sol\":1917:1920  100 */\n      0x64\n        /* \"TokenVault.sol\":1906:1913  _shares */\n      dup4\n        /* \"TokenVault.sol\":1901:1903  10 */\n      0x0a\n        /* \"TokenVault.sol\":1901:1913  10 * _shares */\n      tag_221\n      swap2\n      swap1\n      tag_222\n      jump\t// in\n    tag_221:\n        /* \"TokenVault.sol\":1900:1920  (10 * _shares) / 100 */\n      tag_223\n      swap2\n      swap1\n      tag_224\n      jump\t// in\n    tag_223:\n        /* \"TokenVault.sol\":1882:1920  uint256 percent = (10 * _shares) / 100 */\n      swap1\n      pop\n        /* \"TokenVault.sol\":2035:2049  uint256 assets */\n      0x00\n        /* \"TokenVault.sol\":2062:2069  percent */\n      dup2\n        /* \"TokenVault.sol\":2052:2059  _shares */\n      dup5\n        /* \"TokenVault.sol\":2052:2069  _shares + percent */\n      tag_225\n      swap2\n      swap1\n      tag_226\n      jump\t// in\n    tag_225:\n        /* \"TokenVault.sol\":2035:2069  uint256 assets = _shares + percent */\n      swap1\n      pop\n        /* \"TokenVault.sol\":2187:2224  redeem(assets, _receiver, msg.sender) */\n      tag_227\n        /* \"TokenVault.sol\":2194:2200  assets */\n      dup2\n        /* \"TokenVault.sol\":2202:2211  _receiver */\n      dup5\n        /* \"TokenVault.sol\":2213:2223  msg.sender */\n      caller\n        /* \"TokenVault.sol\":2187:2193  redeem */\n      tag_139\n        /* \"TokenVault.sol\":2187:2224  redeem(assets, _receiver, msg.sender) */\n      jump\t// in\n    tag_227:\n      pop\n        /* \"TokenVault.sol\":2303:2310  _shares */\n      dup4\n        /* \"TokenVault.sol\":2276:2287  shareHolder */\n      0x06\n        /* \"TokenVault.sol\":2276:2299  shareHolder[msg.sender] */\n      0x00\n        /* \"TokenVault.sol\":2288:2298  msg.sender */\n      caller\n        /* \"TokenVault.sol\":2276:2299  shareHolder[msg.sender] */\n      0xffffffffffffffffffffffffffffffffffffffff\n      and\n      0xffffffffffffffffffffffffffffffffffffffff\n      and\n      dup2\n      mstore\n      0x20\n      add\n      swap1\n      dup2\n      mstore\n      0x20\n      add\n      0x00\n      keccak256\n      0x00\n        /* \"TokenVault.sol\":2276:2310  shareHolder[msg.sender] -= _shares */\n      dup3\n      dup3\n      sload\n      tag_228\n      swap2\n      swap1\n      tag_205\n      jump\t// in\n    tag_228:\n      swap3\n      pop\n      pop\n      dup2\n      swap1\n      sstore\n      pop\n        /* \"TokenVault.sol\":1289:2317  {... */\n      pop\n      pop\n        /* \"TokenVault.sol\":1230:2317  function _withdraw(uint _shares, address _receiver) public {... */\n      pop\n      pop\n      jump\t// out\n        /* \"https://github.com/transmissions11/solmate/blob/main/src/tokens/ERC20.sol\":1083:1114  uint8 public immutable decimals */\n    tag_78:\n      immutable(\"0x26fde711c36747908dcce028baf2d3e8303b2122f2368e04f010a3f01eaa4df4\")\n      dup2\n      jump\t// out\n        /* \"https://github.com/transmissions11/solmate/blob/main/src/tokens/ERC20.sol\":5327:5504  function DOMAIN_SEPARATOR() public view virtual returns (bytes32) {... */\n    tag_82:\n        /* \"https://github.com/transmissions11/solmate/blob/main/src/tokens/ERC20.sol\":5384:5391  bytes32 */\n      0x00\n        /* \"https://github.com/transmissions11/solmate/blob/main/src/tokens/ERC20.sol\":5427:5443  INITIAL_CHAIN_ID */\n      immutable(\"0xb82689a7170af4bc238cea9f5ed91ccb0509ae7759ce9b8df7ae215c4191abd7\")\n        /* \"https://github.com/transmissions11/solmate/blob/main/src/tokens/ERC20.sol\":5410:5423  block.chainid */\n      chainid\n        /* \"https://github.com/transmissions11/solmate/blob/main/src/tokens/ERC20.sol\":5410:5443  block.chainid == INITIAL_CHAIN_ID */\n      eq\n        /* \"https://github.com/transmissions11/solmate/blob/main/src/tokens/ERC20.sol\":5410:5497  block.chainid == INITIAL_CHAIN_ID ? INITIAL_DOMAIN_SEPARATOR : computeDomainSeparator() */\n      tag_230\n      jumpi\n        /* \"https://github.com/transmissions11/solmate/blob/main/src/tokens/ERC20.sol\":5473:5497  computeDomainSeparator() */\n      tag_231\n        /* \"https://github.com/transmissions11/solmate/blob/main/src/tokens/ERC20.sol\":5473:5495  computeDomainSeparator */\n      tag_232\n        /* \"https://github.com/transmissions11/solmate/blob/main/src/tokens/ERC20.sol\":5473:5497  computeDomainSeparator() */\n      jump\t// in\n    tag_231:\n        /* \"https://github.com/transmissions11/solmate/blob/main/src/tokens/ERC20.sol\":5410:5497  block.chainid == INITIAL_CHAIN_ID ? INITIAL_DOMAIN_SEPARATOR : computeDomainSeparator() */\n      jump(tag_233)\n    tag_230:\n        /* \"https://github.com/transmissions11/solmate/blob/main/src/tokens/ERC20.sol\":5446:5470  INITIAL_DOMAIN_SEPARATOR */\n      immutable(\"0x9fedcbae656b90e3e39f47fe3fd17358f7efaa811276fa71a4f7681cc9e0c00a\")\n        /* \"https://github.com/transmissions11/solmate/blob/main/src/tokens/ERC20.sol\":5410:5497  block.chainid == INITIAL_CHAIN_ID ? INITIAL_DOMAIN_SEPARATOR : computeDomainSeparator() */\n    tag_233:\n        /* \"https://github.com/transmissions11/solmate/blob/main/src/tokens/ERC20.sol\":5403:5497  return block.chainid == INITIAL_CHAIN_ID ? INITIAL_DOMAIN_SEPARATOR : computeDomainSeparator() */\n      swap1\n      pop\n        /* \"https://github.com/transmissions11/solmate/blob/main/src/tokens/ERC20.sol\":5327:5504  function DOMAIN_SEPARATOR() public view virtual returns (bytes32) {... */\n      swap1\n      jump\t// out\n        /* \"https://github.com/transmissions11/solmate/blob/main/src/tokens/ERC4626.sol\":1149:1177  ERC20 public immutable asset */\n    tag_86:\n      immutable(\"0xaafd67d8fa30a8ba2b905b339486b92f083802c04238abb7dce3d527c0a4c750\")\n      dup2\n      jump\t// out\n        /* \"https://github.com/transmissions11/solmate/blob/main/src/tokens/ERC4626.sol\":5696:5804  function maxDeposit(address) public view virtual returns (uint256) {... */\n    tag_92:\n        /* \"https://github.com/transmissions11/solmate/blob/main/src/tokens/ERC4626.sol\":5754:5761  uint256 */\n      0x00\n        /* \"https://github.com/transmissions11/solmate/blob/main/src/tokens/ERC4626.sol\":5780:5797  type(uint256).max */\n      0xffffffffffffffffffffffffffffffffffffffffffffffffffffffffffffffff\n        /* \"https://github.com/transmissions11/solmate/blob/main/src/tokens/ERC4626.sol\":5773:5797  return type(uint256).max */\n      swap1\n      pop\n        /* \"https://github.com/transmissions11/solmate/blob/main/src/tokens/ERC4626.sol\":5696:5804  function maxDeposit(address) public view virtual returns (uint256) {... */\n      swap2\n      swap1\n      pop\n      jump\t// out\n        /* \"TokenVault.sol\":2520:2638  function totalAssetsOfUser(address _user) public view returns (uint256) {... */\n    tag_96:\n        /* \"TokenVault.sol\":2583:2590  uint256 */\n      0x00\n        /* \"TokenVault.sol\":2609:2614  asset */\n      immutable(\"0xaafd67d8fa30a8ba2b905b339486b92f083802c04238abb7dce3d527c0a4c750\")\n        /* \"TokenVault.sol\":2609:2624  asset.balanceOf */\n      0xffffffffffffffffffffffffffffffffffffffff\n      and\n      0x70a08231\n        /* \"TokenVault.sol\":2625:2630  _user */\n      dup4\n        /* \"TokenVault.sol\":2609:2631  asset.balanceOf(_user) */\n      mload(0x40)\n      dup3\n      0xffffffff\n      and\n      0xe0\n      shl\n      dup2\n      mstore\n      0x04\n      add\n      tag_236\n      swap2\n      swap1\n      tag_176\n      jump\t// in\n    tag_236:\n      0x20\n      mload(0x40)\n      dup1\n      dup4\n      sub\n      dup2\n      dup7\n      dup1\n      extcodesize\n      iszero\n      dup1\n      iszero\n      tag_237\n      jumpi\n      0x00\n      dup1\n      revert\n    tag_237:\n      pop\n      gas\n      staticcall\n      iszero\n      dup1\n      iszero\n      tag_239\n      jumpi\n      returndatasize\n      0x00\n      dup1\n      returndatacopy\n      revert(0x00, returndatasize)\n    tag_239:\n      pop\n      pop\n      pop\n      pop\n      mload(0x40)\n      returndatasize\n      not(0x1f)\n      0x1f\n      dup3\n      add\n      and\n      dup3\n      add\n      dup1\n      0x40\n      mstore\n      pop\n      dup2\n      add\n      swap1\n      tag_240\n      swap2\n      swap1\n      tag_181\n      jump\t// in\n    tag_240:\n        /* \"TokenVault.sol\":2602:2631  return asset.balanceOf(_user) */\n      swap1\n      pop\n        /* \"TokenVault.sol\":2520:2638  function totalAssetsOfUser(address _user) public view returns (uint256) {... */\n      swap2\n      swap1\n      pop\n      jump\t// out\n        /* \"https://github.com/transmissions11/solmate/blob/main/src/tokens/ERC4626.sol\":5375:5499  function previewRedeem(uint256 shares) public view virtual returns (uint256) {... */\n    tag_100:\n        /* \"https://github.com/transmissions11/solmate/blob/main/src/tokens/ERC4626.sol\":5443:5450  uint256 */\n      0x00\n        /* \"https://github.com/transmissions11/solmate/blob/main/src/tokens/ERC4626.sol\":5469:5492  convertToAssets(shares) */\n      tag_242\n        /* \"https://github.com/transmissions11/solmate/blob/main/src/tokens/ERC4626.sol\":5485:5491  shares */\n      dup3\n        /* \"https://github.com/transmissions11/solmate/blob/main/src/tokens/ERC4626.sol\":5469:5484  convertToAssets */\n      tag_53\n        /* \"https://github.com/transmissions11/solmate/blob/main/src/tokens/ERC4626.sol\":5469:5492  convertToAssets(shares) */\n      jump\t// in\n    tag_242:\n        /* \"https://github.com/transmissions11/solmate/blob/main/src/tokens/ERC4626.sol\":5462:5492  return convertToAssets(shares) */\n      swap1\n      pop\n        /* \"https://github.com/transmissions11/solmate/blob/main/src/tokens/ERC4626.sol\":5375:5499  function previewRedeem(uint256 shares) public view virtual returns (uint256) {... */\n      swap2\n      swap1\n      pop\n      jump\t// out\n        /* \"https://github.com/transmissions11/solmate/blob/main/src/tokens/ERC4626.sol\":1550:2066  function deposit(uint256 assets, address receiver) public virtual returns (uint256 shares) {... */\n    tag_104:\n        /* \"https://github.com/transmissions11/solmate/blob/main/src/tokens/ERC4626.sol\":1625:1639  uint256 shares */\n      0x00\n        /* \"https://github.com/transmissions11/solmate/blob/main/src/tokens/ERC4626.sol\":1771:1772  0 */\n      dup1\n        /* \"https://github.com/transmissions11/solmate/blob/main/src/tokens/ERC4626.sol\":1744:1766  previewDeposit(assets) */\n      tag_244\n        /* \"https://github.com/transmissions11/solmate/blob/main/src/tokens/ERC4626.sol\":1759:1765  assets */\n      dup5\n        /* \"https://github.com/transmissions11/solmate/blob/main/src/tokens/ERC4626.sol\":1744:1758  previewDeposit */\n      tag_168\n        /* \"https://github.com/transmissions11/solmate/blob/main/src/tokens/ERC4626.sol\":1744:1766  previewDeposit(assets) */\n      jump\t// in\n    tag_244:\n        /* \"https://github.com/transmissions11/solmate/blob/main/src/tokens/ERC4626.sol\":1735:1766  shares = previewDeposit(assets) */\n      swap2\n      pop\n      dup2\n        /* \"https://github.com/transmissions11/solmate/blob/main/src/tokens/ERC4626.sol\":1734:1772  (shares = previewDeposit(assets)) != 0 */\n      eq\n      iszero\n        /* \"https://github.com/transmissions11/solmate/blob/main/src/tokens/ERC4626.sol\":1726:1788  require((shares = previewDeposit(assets)) != 0, \"ZERO_SHARES\") */\n      tag_245\n      jumpi\n      mload(0x40)\n      0x08c379a000000000000000000000000000000000000000000000000000000000\n      dup2\n      mstore\n      0x04\n      add\n      tag_246\n      swap1\n      tag_247\n      jump\t// in\n    tag_246:\n      mload(0x40)\n      dup1\n      swap2\n      sub\n      swap1\n      revert\n    tag_245:\n        /* \"https://github.com/transmissions11/solmate/blob/main/src/tokens/ERC4626.sol\":1868:1925  asset.safeTransferFrom(msg.sender, address(this), assets) */\n      tag_248\n        /* \"https://github.com/transmissions11/solmate/blob/main/src/tokens/ERC4626.sol\":1891:1901  msg.sender */\n      caller\n        /* \"https://github.com/transmissions11/solmate/blob/main/src/tokens/ERC4626.sol\":1911:1915  this */\n      address\n        /* \"https://github.com/transmissions11/solmate/blob/main/src/tokens/ERC4626.sol\":1918:1924  assets */\n      dup6\n        /* \"https://github.com/transmissions11/solmate/blob/main/src/tokens/ERC4626.sol\":1868:1873  asset */\n      immutable(\"0xaafd67d8fa30a8ba2b905b339486b92f083802c04238abb7dce3d527c0a4c750\")\n        /* \"https://github.com/transmissions11/solmate/blob/main/src/tokens/ERC4626.sol\":1868:1890  asset.safeTransferFrom */\n      0xffffffffffffffffffffffffffffffffffffffff\n      and\n      tag_249\n      swap1\n        /* \"https://github.com/transmissions11/solmate/blob/main/src/tokens/ERC4626.sol\":1868:1925  asset.safeTransferFrom(msg.sender, address(this), assets) */\n      swap4\n      swap3\n      swap2\n      swap1\n      0xffffffff\n      and\n      jump\t// in\n    tag_248:\n        /* \"https://github.com/transmissions11/solmate/blob/main/src/tokens/ERC4626.sol\":1936:1959  _mint(receiver, shares) */\n      tag_250\n        /* \"https://github.com/transmissions11/solmate/blob/main/src/tokens/ERC4626.sol\":1942:1950  receiver */\n      dup3\n        /* \"https://github.com/transmissions11/solmate/blob/main/src/tokens/ERC4626.sol\":1952:1958  shares */\n      dup3\n        /* \"https://github.com/transmissions11/solmate/blob/main/src/tokens/ERC4626.sol\":1936:1941  _mint */\n      tag_251\n        /* \"https://github.com/transmissions11/solmate/blob/main/src/tokens/ERC4626.sol\":1936:1959  _mint(receiver, shares) */\n      jump\t// in\n    tag_250:\n        /* \"https://github.com/transmissions11/solmate/blob/main/src/tokens/ERC4626.sol\":1995:2003  receiver */\n      dup2\n        /* \"https://github.com/transmissions11/solmate/blob/main/src/tokens/ERC4626.sol\":1975:2020  Deposit(msg.sender, receiver, assets, shares) */\n      0xffffffffffffffffffffffffffffffffffffffff\n      and\n        /* \"https://github.com/transmissions11/solmate/blob/main/src/tokens/ERC4626.sol\":1983:1993  msg.sender */\n      caller\n        /* \"https://github.com/transmissions11/solmate/blob/main/src/tokens/ERC4626.sol\":1975:2020  Deposit(msg.sender, receiver, assets, shares) */\n      0xffffffffffffffffffffffffffffffffffffffff\n      and\n      0xdcbc1c05240f31ff3ad067ef1ee35ce4997762752e3a095284754544f4c709d7\n        /* \"https://github.com/transmissions11/solmate/blob/main/src/tokens/ERC4626.sol\":2005:2011  assets */\n      dup6\n        /* \"https://github.com/transmissions11/solmate/blob/main/src/tokens/ERC4626.sol\":2013:2019  shares */\n      dup5\n        /* \"https://github.com/transmissions11/solmate/blob/main/src/tokens/ERC4626.sol\":1975:2020  Deposit(msg.sender, receiver, assets, shares) */\n      mload(0x40)\n      tag_252\n      swap3\n      swap2\n      swap1\n      tag_253\n      jump\t// in\n    tag_252:\n      mload(0x40)\n      dup1\n      swap2\n      sub\n      swap1\n      log3\n        /* \"https://github.com/transmissions11/solmate/blob/main/src/tokens/ERC4626.sol\":2031:2059  afterDeposit(assets, shares) */\n      tag_254\n        /* \"https://github.com/transmissions11/solmate/blob/main/src/tokens/ERC4626.sol\":2044:2050  assets */\n      dup4\n        /* \"https://github.com/transmissions11/solmate/blob/main/src/tokens/ERC4626.sol\":2052:2058  shares */\n      dup3\n        /* \"https://github.com/transmissions11/solmate/blob/main/src/tokens/ERC4626.sol\":2031:2043  afterDeposit */\n      tag_255\n        /* \"https://github.com/transmissions11/solmate/blob/main/src/tokens/ERC4626.sol\":2031:2059  afterDeposit(assets, shares) */\n      jump\t// in\n    tag_254:\n        /* \"https://github.com/transmissions11/solmate/blob/main/src/tokens/ERC4626.sol\":1550:2066  function deposit(uint256 assets, address receiver) public virtual returns (uint256 shares) {... */\n      swap3\n      swap2\n      pop\n      pop\n      jump\t// out\n        /* \"https://github.com/transmissions11/solmate/blob/main/src/tokens/ERC20.sol\":1337:1381  mapping(address => uint256) public balanceOf */\n    tag_108:\n      mstore(0x20, 0x03)\n      dup1\n      0x00\n      mstore\n      keccak256(0x00, 0x40)\n      0x00\n      swap2\n      pop\n      swap1\n      pop\n      sload\n      dup2\n      jump\t// out\n        /* \"https://github.com/transmissions11/solmate/blob/main/src/tokens/ERC20.sol\":1751:1792  mapping(address => uint256) public nonces */\n    tag_112:\n      mstore(0x20, 0x05)\n      dup1\n      0x00\n      mstore\n      keccak256(0x00, 0x40)\n      0x00\n      swap2\n      pop\n      swap1\n      pop\n      sload\n      dup2\n      jump\t// out\n        /* \"TokenVault.sol\":578:979  function _deposit(uint _assets) public {... */\n    tag_116:\n        /* \"TokenVault.sol\":711:712  0 */\n      0x00\n        /* \"TokenVault.sol\":701:708  _assets */\n      dup2\n        /* \"TokenVault.sol\":701:712  _assets > 0 */\n      gt\n        /* \"TokenVault.sol\":693:739  require(_assets > 0, \"Deposit less than Zero\") */\n      tag_257\n      jumpi\n      mload(0x40)\n      0x08c379a000000000000000000000000000000000000000000000000000000000\n      dup2\n      mstore\n      0x04\n      add\n      tag_258\n      swap1\n      tag_259\n      jump\t// in\n    tag_258:\n      mload(0x40)\n      dup1\n      swap2\n      sub\n      swap1\n      revert\n    tag_257:\n        /* \"TokenVault.sol\":858:886  deposit(_assets, msg.sender) */\n      tag_260\n        /* \"TokenVault.sol\":866:873  _assets */\n      dup2\n        /* \"TokenVault.sol\":875:885  msg.sender */\n      caller\n        /* \"TokenVault.sol\":858:865  deposit */\n      tag_104\n        /* \"TokenVault.sol\":858:886  deposit(_assets, msg.sender) */\n      jump\t// in\n    tag_260:\n      pop\n        /* \"TokenVault.sol\":965:972  _assets */\n      dup1\n        /* \"TokenVault.sol\":938:949  shareHolder */\n      0x06\n        /* \"TokenVault.sol\":938:961  shareHolder[msg.sender] */\n      0x00\n        /* \"TokenVault.sol\":950:960  msg.sender */\n      caller\n        /* \"TokenVault.sol\":938:961  shareHolder[msg.sender] */\n      0xffffffffffffffffffffffffffffffffffffffff\n      and\n      0xffffffffffffffffffffffffffffffffffffffff\n      and\n      dup2\n      mstore\n      0x20\n      add\n      swap1\n      dup2\n      mstore\n      0x20\n      add\n      0x00\n      keccak256\n      0x00\n        /* \"TokenVault.sol\":938:972  shareHolder[msg.sender] += _assets */\n      dup3\n      dup3\n      sload\n      tag_261\n      swap2\n      swap1\n      tag_226\n      jump\t// in\n    tag_261:\n      swap3\n      pop\n      pop\n      dup2\n      swap1\n      sstore\n      pop\n        /* \"TokenVault.sol\":578:979  function _deposit(uint _assets) public {... */\n      pop\n      jump\t// out\n        /* \"https://github.com/transmissions11/solmate/blob/main/src/tokens/ERC4626.sol\":2072:2539  function mint(uint256 shares, address receiver) public virtual returns (uint256 assets) {... */\n    tag_119:\n        /* \"https://github.com/transmissions11/solmate/blob/main/src/tokens/ERC4626.sol\":2144:2158  uint256 assets */\n      0x00\n        /* \"https://github.com/transmissions11/solmate/blob/main/src/tokens/ERC4626.sol\":2179:2198  previewMint(shares) */\n      tag_263\n        /* \"https://github.com/transmissions11/solmate/blob/main/src/tokens/ERC4626.sol\":2191:2197  shares */\n      dup4\n        /* \"https://github.com/transmissions11/solmate/blob/main/src/tokens/ERC4626.sol\":2179:2190  previewMint */\n      tag_130\n        /* \"https://github.com/transmissions11/solmate/blob/main/src/tokens/ERC4626.sol\":2179:2198  previewMint(shares) */\n      jump\t// in\n    tag_263:\n        /* \"https://github.com/transmissions11/solmate/blob/main/src/tokens/ERC4626.sol\":2170:2198  assets = previewMint(shares) */\n      swap1\n      pop\n        /* \"https://github.com/transmissions11/solmate/blob/main/src/tokens/ERC4626.sol\":2341:2398  asset.safeTransferFrom(msg.sender, address(this), assets) */\n      tag_264\n        /* \"https://github.com/transmissions11/solmate/blob/main/src/tokens/ERC4626.sol\":2364:2374  msg.sender */\n      caller\n        /* \"https://github.com/transmissions11/solmate/blob/main/src/tokens/ERC4626.sol\":2384:2388  this */\n      address\n        /* \"https://github.com/transmissions11/solmate/blob/main/src/tokens/ERC4626.sol\":2391:2397  assets */\n      dup4\n        /* \"https://github.com/transmissions11/solmate/blob/main/src/tokens/ERC4626.sol\":2341:2346  asset */\n      immutable(\"0xaafd67d8fa30a8ba2b905b339486b92f083802c04238abb7dce3d527c0a4c750\")\n        /* \"https://github.com/transmissions11/solmate/blob/main/src/tokens/ERC4626.sol\":2341:2363  asset.safeTransferFrom */\n      0xffffffffffffffffffffffffffffffffffffffff\n      and\n      tag_249\n      swap1\n        /* \"https://github.com/transmissions11/solmate/blob/main/src/tokens/ERC4626.sol\":2341:2398  asset.safeTransferFrom(msg.sender, address(this), assets) */\n      swap4\n      swap3\n      swap2\n      swap1\n      0xffffffff\n      and\n      jump\t// in\n    tag_264:\n        /* \"https://github.com/transmissions11/solmate/blob/main/src/tokens/ERC4626.sol\":2409:2432  _mint(receiver, shares) */\n      tag_265\n        /* \"https://github.com/transmissions11/solmate/blob/main/src/tokens/ERC4626.sol\":2415:2423  receiver */\n      dup3\n        /* \"https://github.com/transmissions11/solmate/blob/main/src/tokens/ERC4626.sol\":2425:2431  shares */\n      dup5\n        /* \"https://github.com/transmissions11/solmate/blob/main/src/tokens/ERC4626.sol\":2409:2414  _mint */\n      tag_251\n        /* \"https://github.com/transmissions11/solmate/blob/main/src/tokens/ERC4626.sol\":2409:2432  _mint(receiver, shares) */\n      jump\t// in\n    tag_265:\n        /* \"https://github.com/transmissions11/solmate/blob/main/src/tokens/ERC4626.sol\":2468:2476  receiver */\n      dup2\n        /* \"https://github.com/transmissions11/solmate/blob/main/src/tokens/ERC4626.sol\":2448:2493  Deposit(msg.sender, receiver, assets, shares) */\n      0xffffffffffffffffffffffffffffffffffffffff\n      and\n        /* \"https://github.com/transmissions11/solmate/blob/main/src/tokens/ERC4626.sol\":2456:2466  msg.sender */\n      caller\n        /* \"https://github.com/transmissions11/solmate/blob/main/src/tokens/ERC4626.sol\":2448:2493  Deposit(msg.sender, receiver, assets, shares) */\n      0xffffffffffffffffffffffffffffffffffffffff\n      and\n      0xdcbc1c05240f31ff3ad067ef1ee35ce4997762752e3a095284754544f4c709d7\n        /* \"https://github.com/transmissions11/solmate/blob/main/src/tokens/ERC4626.sol\":2478:2484  assets */\n      dup4\n        /* \"https://github.com/transmissions11/solmate/blob/main/src/tokens/ERC4626.sol\":2486:2492  shares */\n      dup7\n        /* \"https://github.com/transmissions11/solmate/blob/main/src/tokens/ERC4626.sol\":2448:2493  Deposit(msg.sender, receiver, assets, shares) */\n      mload(0x40)\n      tag_266\n      swap3\n      swap2\n      swap1\n      tag_253\n      jump\t// in\n    tag_266:\n      mload(0x40)\n      dup1\n      swap2\n      sub\n      swap1\n      log3\n        /* \"https://github.com/transmissions11/solmate/blob/main/src/tokens/ERC4626.sol\":2504:2532  afterDeposit(assets, shares) */\n      tag_267\n        /* \"https://github.com/transmissions11/solmate/blob/main/src/tokens/ERC4626.sol\":2517:2523  assets */\n      dup2\n        /* \"https://github.com/transmissions11/solmate/blob/main/src/tokens/ERC4626.sol\":2525:2531  shares */\n      dup5\n        /* \"https://github.com/transmissions11/solmate/blob/main/src/tokens/ERC4626.sol\":2504:2516  afterDeposit */\n      tag_255\n        /* \"https://github.com/transmissions11/solmate/blob/main/src/tokens/ERC4626.sol\":2504:2532  afterDeposit(assets, shares) */\n      jump\t// in\n    tag_267:\n        /* \"https://github.com/transmissions11/solmate/blob/main/src/tokens/ERC4626.sol\":2072:2539  function mint(uint256 shares, address receiver) public virtual returns (uint256 assets) {... */\n      swap3\n      swap2\n      pop\n      pop\n      jump\t// out\n        /* \"https://github.com/transmissions11/solmate/blob/main/src/tokens/ERC20.sol\":1056:1076  string public symbol */\n    tag_122:\n      0x01\n      dup1\n      sload\n      tag_268\n      swap1\n      tag_183\n      jump\t// in\n    tag_268:\n      dup1\n      0x1f\n      add\n      0x20\n      dup1\n      swap2\n      div\n      mul\n      0x20\n      add\n      mload(0x40)\n      swap1\n      dup2\n      add\n      0x40\n      mstore\n      dup1\n      swap3\n      swap2\n      swap1\n      dup2\n      dup2\n      mstore\n      0x20\n      add\n      dup3\n      dup1\n      sload\n      tag_269\n      swap1\n      tag_183\n      jump\t// in\n    tag_269:\n      dup1\n      iszero\n      tag_270\n      jumpi\n      dup1\n      0x1f\n      lt\n      tag_271\n      jumpi\n      0x0100\n      dup1\n      dup4\n      sload\n      div\n      mul\n      dup4\n      mstore\n      swap2\n      0x20\n      add\n      swap2\n      jump(tag_270)\n    tag_271:\n      dup3\n      add\n      swap2\n      swap1\n      0x00\n      mstore\n      keccak256(0x00, 0x20)\n      swap1\n    tag_272:\n      dup2\n      sload\n      dup2\n      mstore\n      swap1\n      0x01\n      add\n      swap1\n      0x20\n      add\n      dup1\n      dup4\n      gt\n      tag_272\n      jumpi\n      dup3\n      swap1\n      sub\n      0x1f\n      and\n      dup3\n      add\n      swap2\n    tag_270:\n      pop\n      pop\n      pop\n      pop\n      pop\n      dup2\n      jump\t// out\n        /* \"https://github.com/transmissions11/solmate/blob/main/src/tokens/ERC20.sol\":2678:3051  function transfer(address to, uint256 amount) public virtual returns (bool) {... */\n    tag_126:\n        /* \"https://github.com/transmissions11/solmate/blob/main/src/tokens/ERC20.sol\":2748:2752  bool */\n      0x00\n        /* \"https://github.com/transmissions11/solmate/blob/main/src/tokens/ERC20.sol\":2789:2795  amount */\n      dup2\n        /* \"https://github.com/transmissions11/solmate/blob/main/src/tokens/ERC20.sol\":2764:2773  balanceOf */\n      0x03\n        /* \"https://github.com/transmissions11/solmate/blob/main/src/tokens/ERC20.sol\":2764:2785  balanceOf[msg.sender] */\n      0x00\n        /* \"https://github.com/transmissions11/solmate/blob/main/src/tokens/ERC20.sol\":2774:2784  msg.sender */\n      caller\n        /* \"https://github.com/transmissions11/solmate/blob/main/src/tokens/ERC20.sol\":2764:2785  balanceOf[msg.sender] */\n      0xffffffffffffffffffffffffffffffffffffffff\n      and\n      0xffffffffffffffffffffffffffffffffffffffff\n      and\n      dup2\n      mstore\n      0x20\n      add\n      swap1\n      dup2\n      mstore\n      0x20\n      add\n      0x00\n      keccak256\n      0x00\n        /* \"https://github.com/transmissions11/solmate/blob/main/src/tokens/ERC20.sol\":2764:2795  balanceOf[msg.sender] -= amount */\n      dup3\n      dup3\n      sload\n      tag_274\n      swap2\n      swap1\n      tag_205\n      jump\t// in\n    tag_274:\n      swap3\n      pop\n      pop\n      dup2\n      swap1\n      sstore\n      pop\n        /* \"https://github.com/transmissions11/solmate/blob/main/src/tokens/ERC20.sol\":2958:2964  amount */\n      dup2\n        /* \"https://github.com/transmissions11/solmate/blob/main/src/tokens/ERC20.sol\":2941:2950  balanceOf */\n      0x03\n        /* \"https://github.com/transmissions11/solmate/blob/main/src/tokens/ERC20.sol\":2941:2954  balanceOf[to] */\n      0x00\n        /* \"https://github.com/transmissions11/solmate/blob/main/src/tokens/ERC20.sol\":2951:2953  to */\n      dup6\n        /* \"https://github.com/transmissions11/solmate/blob/main/src/tokens/ERC20.sol\":2941:2954  balanceOf[to] */\n      0xffffffffffffffffffffffffffffffffffffffff\n      and\n      0xffffffffffffffffffffffffffffffffffffffff\n      and\n      dup2\n      mstore\n      0x20\n      add\n      swap1\n      dup2\n      mstore\n      0x20\n      add\n      0x00\n      keccak256\n      0x00\n        /* \"https://github.com/transmissions11/solmate/blob/main/src/tokens/ERC20.sol\":2941:2964  balanceOf[to] += amount */\n      dup3\n      dup3\n      sload\n      add\n      swap3\n      pop\n      pop\n      dup2\n      swap1\n      sstore\n      pop\n        /* \"https://github.com/transmissions11/solmate/blob/main/src/tokens/ERC20.sol\":3011:3013  to */\n      dup3\n        /* \"https://github.com/transmissions11/solmate/blob/main/src/tokens/ERC20.sol\":2990:3022  Transfer(msg.sender, to, amount) */\n      0xffffffffffffffffffffffffffffffffffffffff\n      and\n        /* \"https://github.com/transmissions11/solmate/blob/main/src/tokens/ERC20.sol\":2999:3009  msg.sender */\n      caller\n        /* \"https://github.com/transmissions11/solmate/blob/main/src/tokens/ERC20.sol\":2990:3022  Transfer(msg.sender, to, amount) */\n      0xffffffffffffffffffffffffffffffffffffffff\n      and\n      0xddf252ad1be2c89b69c2b068fc378daa952ba7f163c4a11628f55a4df523b3ef\n        /* \"https://github.com/transmissions11/solmate/blob/main/src/tokens/ERC20.sol\":3015:3021  amount */\n      dup5\n        /* \"https://github.com/transmissions11/solmate/blob/main/src/tokens/ERC20.sol\":2990:3022  Transfer(msg.sender, to, amount) */\n      mload(0x40)\n      tag_275\n      swap2\n      swap1\n      tag_45\n      jump\t// in\n    tag_275:\n      mload(0x40)\n      dup1\n      swap2\n      sub\n      swap1\n      log3\n        /* \"https://github.com/transmissions11/solmate/blob/main/src/tokens/ERC20.sol\":3040:3044  true */\n      0x01\n        /* \"https://github.com/transmissions11/solmate/blob/main/src/tokens/ERC20.sol\":3033:3044  return true */\n      swap1\n      pop\n        /* \"https://github.com/transmissions11/solmate/blob/main/src/tokens/ERC20.sol\":2678:3051  function transfer(address to, uint256 amount) public virtual returns (bool) {... */\n      swap3\n      swap2\n      pop\n      pop\n      jump\t// out\n        /* \"https://github.com/transmissions11/solmate/blob/main/src/tokens/ERC4626.sol\":4857:5108  function previewMint(uint256 shares) public view virtual returns (uint256) {... */\n    tag_130:\n        /* \"https://github.com/transmissions11/solmate/blob/main/src/tokens/ERC4626.sol\":4923:4930  uint256 */\n      0x00\n        /* \"https://github.com/transmissions11/solmate/blob/main/src/tokens/ERC4626.sol\":4942:4956  uint256 supply */\n      dup1\n        /* \"https://github.com/transmissions11/solmate/blob/main/src/tokens/ERC4626.sol\":4959:4970  totalSupply */\n      sload(0x02)\n        /* \"https://github.com/transmissions11/solmate/blob/main/src/tokens/ERC4626.sol\":4942:4970  uint256 supply = totalSupply */\n      swap1\n      pop\n        /* \"https://github.com/transmissions11/solmate/blob/main/src/tokens/ERC4626.sol\":5050:5051  0 */\n      0x00\n        /* \"https://github.com/transmissions11/solmate/blob/main/src/tokens/ERC4626.sol\":5040:5046  supply */\n      dup2\n        /* \"https://github.com/transmissions11/solmate/blob/main/src/tokens/ERC4626.sol\":5040:5051  supply == 0 */\n      eq\n        /* \"https://github.com/transmissions11/solmate/blob/main/src/tokens/ERC4626.sol\":5040:5101  supply == 0 ? shares : shares.mulDivUp(totalAssets(), supply) */\n      tag_277\n      jumpi\n        /* \"https://github.com/transmissions11/solmate/blob/main/src/tokens/ERC4626.sol\":5063:5101  shares.mulDivUp(totalAssets(), supply) */\n      tag_278\n        /* \"https://github.com/transmissions11/solmate/blob/main/src/tokens/ERC4626.sol\":5079:5092  totalAssets() */\n      tag_279\n        /* \"https://github.com/transmissions11/solmate/blob/main/src/tokens/ERC4626.sol\":5079:5090  totalAssets */\n      tag_43\n        /* \"https://github.com/transmissions11/solmate/blob/main/src/tokens/ERC4626.sol\":5079:5092  totalAssets() */\n      jump\t// in\n    tag_279:\n        /* \"https://github.com/transmissions11/solmate/blob/main/src/tokens/ERC4626.sol\":5094:5100  supply */\n      dup3\n        /* \"https://github.com/transmissions11/solmate/blob/main/src/tokens/ERC4626.sol\":5063:5069  shares */\n      dup6\n        /* \"https://github.com/transmissions11/solmate/blob/main/src/tokens/ERC4626.sol\":5063:5078  shares.mulDivUp */\n      tag_200\n      swap1\n        /* \"https://github.com/transmissions11/solmate/blob/main/src/tokens/ERC4626.sol\":5063:5101  shares.mulDivUp(totalAssets(), supply) */\n      swap3\n      swap2\n      swap1\n      0xffffffff\n      and\n      jump\t// in\n    tag_278:\n        /* \"https://github.com/transmissions11/solmate/blob/main/src/tokens/ERC4626.sol\":5040:5101  supply == 0 ? shares : shares.mulDivUp(totalAssets(), supply) */\n      jump(tag_280)\n    tag_277:\n        /* \"https://github.com/transmissions11/solmate/blob/main/src/tokens/ERC4626.sol\":5054:5060  shares */\n      dup3\n        /* \"https://github.com/transmissions11/solmate/blob/main/src/tokens/ERC4626.sol\":5040:5101  supply == 0 ? shares : shares.mulDivUp(totalAssets(), supply) */\n    tag_280:\n        /* \"https://github.com/transmissions11/solmate/blob/main/src/tokens/ERC4626.sol\":5033:5101  return supply == 0 ? shares : shares.mulDivUp(totalAssets(), supply) */\n      swap2\n      pop\n      pop\n        /* \"https://github.com/transmissions11/solmate/blob/main/src/tokens/ERC4626.sol\":4857:5108  function previewMint(uint256 shares) public view virtual returns (uint256) {... */\n      swap2\n      swap1\n      pop\n      jump\t// out\n        /* \"https://github.com/transmissions11/solmate/blob/main/src/tokens/ERC4626.sol\":2545:3224  function withdraw(... */\n    tag_135:\n        /* \"https://github.com/transmissions11/solmate/blob/main/src/tokens/ERC4626.sol\":2666:2680  uint256 shares */\n      0x00\n        /* \"https://github.com/transmissions11/solmate/blob/main/src/tokens/ERC4626.sol\":2701:2724  previewWithdraw(assets) */\n      tag_282\n        /* \"https://github.com/transmissions11/solmate/blob/main/src/tokens/ERC4626.sol\":2717:2723  assets */\n      dup5\n        /* \"https://github.com/transmissions11/solmate/blob/main/src/tokens/ERC4626.sol\":2701:2716  previewWithdraw */\n      tag_63\n        /* \"https://github.com/transmissions11/solmate/blob/main/src/tokens/ERC4626.sol\":2701:2724  previewWithdraw(assets) */\n      jump\t// in\n    tag_282:\n        /* \"https://github.com/transmissions11/solmate/blob/main/src/tokens/ERC4626.sol\":2692:2724  shares = previewWithdraw(assets) */\n      swap1\n      pop\n        /* \"https://github.com/transmissions11/solmate/blob/main/src/tokens/ERC4626.sol\":2820:2825  owner */\n      dup2\n        /* \"https://github.com/transmissions11/solmate/blob/main/src/tokens/ERC4626.sol\":2806:2825  msg.sender != owner */\n      0xffffffffffffffffffffffffffffffffffffffff\n      and\n        /* \"https://github.com/transmissions11/solmate/blob/main/src/tokens/ERC4626.sol\":2806:2816  msg.sender */\n      caller\n        /* \"https://github.com/transmissions11/solmate/blob/main/src/tokens/ERC4626.sol\":2806:2825  msg.sender != owner */\n      0xffffffffffffffffffffffffffffffffffffffff\n      and\n      eq\n        /* \"https://github.com/transmissions11/solmate/blob/main/src/tokens/ERC4626.sol\":2802:3030  if (msg.sender != owner) {... */\n      tag_283\n      jumpi\n        /* \"https://github.com/transmissions11/solmate/blob/main/src/tokens/ERC4626.sol\":2841:2856  uint256 allowed */\n      0x00\n        /* \"https://github.com/transmissions11/solmate/blob/main/src/tokens/ERC4626.sol\":2859:2868  allowance */\n      0x04\n        /* \"https://github.com/transmissions11/solmate/blob/main/src/tokens/ERC4626.sol\":2859:2875  allowance[owner] */\n      0x00\n        /* \"https://github.com/transmissions11/solmate/blob/main/src/tokens/ERC4626.sol\":2869:2874  owner */\n      dup5\n        /* \"https://github.com/transmissions11/solmate/blob/main/src/tokens/ERC4626.sol\":2859:2875  allowance[owner] */\n      0xffffffffffffffffffffffffffffffffffffffff\n      and\n      0xffffffffffffffffffffffffffffffffffffffff\n      and\n      dup2\n      mstore\n      0x20\n      add\n      swap1\n      dup2\n      mstore\n      0x20\n      add\n      0x00\n      keccak256\n        /* \"https://github.com/transmissions11/solmate/blob/main/src/tokens/ERC4626.sol\":2859:2887  allowance[owner][msg.sender] */\n      0x00\n        /* \"https://github.com/transmissions11/solmate/blob/main/src/tokens/ERC4626.sol\":2876:2886  msg.sender */\n      caller\n        /* \"https://github.com/transmissions11/solmate/blob/main/src/tokens/ERC4626.sol\":2859:2887  allowance[owner][msg.sender] */\n      0xffffffffffffffffffffffffffffffffffffffff\n      and\n      0xffffffffffffffffffffffffffffffffffffffff\n      and\n      dup2\n      mstore\n      0x20\n      add\n      swap1\n      dup2\n      mstore\n      0x20\n      add\n      0x00\n      keccak256\n      sload\n        /* \"https://github.com/transmissions11/solmate/blob/main/src/tokens/ERC4626.sol\":2841:2887  uint256 allowed = allowance[owner][msg.sender] */\n      swap1\n      pop\n        /* \"https://github.com/transmissions11/solmate/blob/main/src/tokens/ERC4626.sol\":2953:2970  type(uint256).max */\n      0xffffffffffffffffffffffffffffffffffffffffffffffffffffffffffffffff\n        /* \"https://github.com/transmissions11/solmate/blob/main/src/tokens/ERC4626.sol\":2942:2949  allowed */\n      dup2\n        /* \"https://github.com/transmissions11/solmate/blob/main/src/tokens/ERC4626.sol\":2942:2970  allowed != type(uint256).max */\n      eq\n        /* \"https://github.com/transmissions11/solmate/blob/main/src/tokens/ERC4626.sol\":2938:3019  if (allowed != type(uint256).max) allowance[owner][msg.sender] = allowed - shares */\n      tag_284\n      jumpi\n        /* \"https://github.com/transmissions11/solmate/blob/main/src/tokens/ERC4626.sol\":3013:3019  shares */\n      dup2\n        /* \"https://github.com/transmissions11/solmate/blob/main/src/tokens/ERC4626.sol\":3003:3010  allowed */\n      dup2\n        /* \"https://github.com/transmissions11/solmate/blob/main/src/tokens/ERC4626.sol\":3003:3019  allowed - shares */\n      tag_285\n      swap2\n      swap1\n      tag_205\n      jump\t// in\n    tag_285:\n        /* \"https://github.com/transmissions11/solmate/blob/main/src/tokens/ERC4626.sol\":2972:2981  allowance */\n      0x04\n        /* \"https://github.com/transmissions11/solmate/blob/main/src/tokens/ERC4626.sol\":2972:2988  allowance[owner] */\n      0x00\n        /* \"https://github.com/transmissions11/solmate/blob/main/src/tokens/ERC4626.sol\":2982:2987  owner */\n      dup6\n        /* \"https://github.com/transmissions11/solmate/blob/main/src/tokens/ERC4626.sol\":2972:2988  allowance[owner] */\n      0xffffffffffffffffffffffffffffffffffffffff\n      and\n      0xffffffffffffffffffffffffffffffffffffffff\n      and\n      dup2\n      mstore\n      0x20\n      add\n      swap1\n      dup2\n      mstore\n      0x20\n      add\n      0x00\n      keccak256\n        /* \"https://github.com/transmissions11/solmate/blob/main/src/tokens/ERC4626.sol\":2972:3000  allowance[owner][msg.sender] */\n      0x00\n        /* \"https://github.com/transmissions11/solmate/blob/main/src/tokens/ERC4626.sol\":2989:2999  msg.sender */\n      caller\n        /* \"https://github.com/transmissions11/solmate/blob/main/src/tokens/ERC4626.sol\":2972:3000  allowance[owner][msg.sender] */\n      0xffffffffffffffffffffffffffffffffffffffff\n      and\n      0xffffffffffffffffffffffffffffffffffffffff\n      and\n      dup2\n      mstore\n      0x20\n      add\n      swap1\n      dup2\n      mstore\n      0x20\n      add\n      0x00\n      keccak256\n        /* \"https://github.com/transmissions11/solmate/blob/main/src/tokens/ERC4626.sol\":2972:3019  allowance[owner][msg.sender] = allowed - shares */\n      dup2\n      swap1\n      sstore\n      pop\n        /* \"https://github.com/transmissions11/solmate/blob/main/src/tokens/ERC4626.sol\":2938:3019  if (allowed != type(uint256).max) allowance[owner][msg.sender] = allowed - shares */\n    tag_284:\n        /* \"https://github.com/transmissions11/solmate/blob/main/src/tokens/ERC4626.sol\":2827:3030  {... */\n      pop\n        /* \"https://github.com/transmissions11/solmate/blob/main/src/tokens/ERC4626.sol\":2802:3030  if (msg.sender != owner) {... */\n    tag_283:\n        /* \"https://github.com/transmissions11/solmate/blob/main/src/tokens/ERC4626.sol\":3040:3070  beforeWithdraw(assets, shares) */\n      tag_286\n        /* \"https://github.com/transmissions11/solmate/blob/main/src/tokens/ERC4626.sol\":3055:3061  assets */\n      dup5\n        /* \"https://github.com/transmissions11/solmate/blob/main/src/tokens/ERC4626.sol\":3063:3069  shares */\n      dup3\n        /* \"https://github.com/transmissions11/solmate/blob/main/src/tokens/ERC4626.sol\":3040:3054  beforeWithdraw */\n      tag_287\n        /* \"https://github.com/transmissions11/solmate/blob/main/src/tokens/ERC4626.sol\":3040:3070  beforeWithdraw(assets, shares) */\n      jump\t// in\n    tag_286:\n        /* \"https://github.com/transmissions11/solmate/blob/main/src/tokens/ERC4626.sol\":3081:3101  _burn(owner, shares) */\n      tag_288\n        /* \"https://github.com/transmissions11/solmate/blob/main/src/tokens/ERC4626.sol\":3087:3092  owner */\n      dup3\n        /* \"https://github.com/transmissions11/solmate/blob/main/src/tokens/ERC4626.sol\":3094:3100  shares */\n      dup3\n        /* \"https://github.com/transmissions11/solmate/blob/main/src/tokens/ERC4626.sol\":3081:3086  _burn */\n      tag_289\n        /* \"https://github.com/transmissions11/solmate/blob/main/src/tokens/ERC4626.sol\":3081:3101  _burn(owner, shares) */\n      jump\t// in\n    tag_288:\n        /* \"https://github.com/transmissions11/solmate/blob/main/src/tokens/ERC4626.sol\":3148:3153  owner */\n      dup2\n        /* \"https://github.com/transmissions11/solmate/blob/main/src/tokens/ERC4626.sol\":3117:3170  Withdraw(msg.sender, receiver, owner, assets, shares) */\n      0xffffffffffffffffffffffffffffffffffffffff\n      and\n        /* \"https://github.com/transmissions11/solmate/blob/main/src/tokens/ERC4626.sol\":3138:3146  receiver */\n      dup4\n        /* \"https://github.com/transmissions11/solmate/blob/main/src/tokens/ERC4626.sol\":3117:3170  Withdraw(msg.sender, receiver, owner, assets, shares) */\n      0xffffffffffffffffffffffffffffffffffffffff\n      and\n        /* \"https://github.com/transmissions11/solmate/blob/main/src/tokens/ERC4626.sol\":3126:3136  msg.sender */\n      caller\n        /* \"https://github.com/transmissions11/solmate/blob/main/src/tokens/ERC4626.sol\":3117:3170  Withdraw(msg.sender, receiver, owner, assets, shares) */\n      0xffffffffffffffffffffffffffffffffffffffff\n      and\n      0xfbde797d201c681b91056529119e0b02407c7bb96a4a2c75c01fc9667232c8db\n        /* \"https://github.com/transmissions11/solmate/blob/main/src/tokens/ERC4626.sol\":3155:3161  assets */\n      dup8\n        /* \"https://github.com/transmissions11/solmate/blob/main/src/tokens/ERC4626.sol\":3163:3169  shares */\n      dup6\n        /* \"https://github.com/transmissions11/solmate/blob/main/src/tokens/ERC4626.sol\":3117:3170  Withdraw(msg.sender, receiver, owner, assets, shares) */\n      mload(0x40)\n      tag_290\n      swap3\n      swap2\n      swap1\n      tag_253\n      jump\t// in\n    tag_290:\n      mload(0x40)\n      dup1\n      swap2\n      sub\n      swap1\n      log4\n        /* \"https://github.com/transmissions11/solmate/blob/main/src/tokens/ERC4626.sol\":3181:3217  asset.safeTransfer(receiver, assets) */\n      tag_291\n        /* \"https://github.com/transmissions11/solmate/blob/main/src/tokens/ERC4626.sol\":3200:3208  receiver */\n      dup4\n        /* \"https://github.com/transmissions11/solmate/blob/main/src/tokens/ERC4626.sol\":3210:3216  assets */\n      dup6\n        /* \"https://github.com/transmissions11/solmate/blob/main/src/tokens/ERC4626.sol\":3181:3186  asset */\n      immutable(\"0xaafd67d8fa30a8ba2b905b339486b92f083802c04238abb7dce3d527c0a4c750\")\n        /* \"https://github.com/transmissions11/solmate/blob/main/src/tokens/ERC4626.sol\":3181:3199  asset.safeTransfer */\n      0xffffffffffffffffffffffffffffffffffffffff\n      and\n      tag_292\n      swap1\n        /* \"https://github.com/transmissions11/solmate/blob/main/src/tokens/ERC4626.sol\":3181:3217  asset.safeTransfer(receiver, assets) */\n      swap3\n      swap2\n      swap1\n      0xffffffff\n      and\n      jump\t// in\n    tag_291:\n        /* \"https://github.com/transmissions11/solmate/blob/main/src/tokens/ERC4626.sol\":2545:3224  function withdraw(... */\n      swap4\n      swap3\n      pop\n      pop\n      pop\n      jump\t// out\n        /* \"https://github.com/transmissions11/solmate/blob/main/src/tokens/ERC4626.sol\":3230:3943  function redeem(... */\n    tag_139:\n        /* \"https://github.com/transmissions11/solmate/blob/main/src/tokens/ERC4626.sol\":3349:3363  uint256 assets */\n      0x00\n        /* \"https://github.com/transmissions11/solmate/blob/main/src/tokens/ERC4626.sol\":3393:3398  owner */\n      dup2\n        /* \"https://github.com/transmissions11/solmate/blob/main/src/tokens/ERC4626.sol\":3379:3398  msg.sender != owner */\n      0xffffffffffffffffffffffffffffffffffffffff\n      and\n        /* \"https://github.com/transmissions11/solmate/blob/main/src/tokens/ERC4626.sol\":3379:3389  msg.sender */\n      caller\n        /* \"https://github.com/transmissions11/solmate/blob/main/src/tokens/ERC4626.sol\":3379:3398  msg.sender != owner */\n      0xffffffffffffffffffffffffffffffffffffffff\n      and\n      eq\n        /* \"https://github.com/transmissions11/solmate/blob/main/src/tokens/ERC4626.sol\":3375:3603  if (msg.sender != owner) {... */\n      tag_294\n      jumpi\n        /* \"https://github.com/transmissions11/solmate/blob/main/src/tokens/ERC4626.sol\":3414:3429  uint256 allowed */\n      0x00\n        /* \"https://github.com/transmissions11/solmate/blob/main/src/tokens/ERC4626.sol\":3432:3441  allowance */\n      0x04\n        /* \"https://github.com/transmissions11/solmate/blob/main/src/tokens/ERC4626.sol\":3432:3448  allowance[owner] */\n      0x00\n        /* \"https://github.com/transmissions11/solmate/blob/main/src/tokens/ERC4626.sol\":3442:3447  owner */\n      dup5\n        /* \"https://github.com/transmissions11/solmate/blob/main/src/tokens/ERC4626.sol\":3432:3448  allowance[owner] */\n      0xffffffffffffffffffffffffffffffffffffffff\n      and\n      0xffffffffffffffffffffffffffffffffffffffff\n      and\n      dup2\n      mstore\n      0x20\n      add\n      swap1\n      dup2\n      mstore\n      0x20\n      add\n      0x00\n      keccak256\n        /* \"https://github.com/transmissions11/solmate/blob/main/src/tokens/ERC4626.sol\":3432:3460  allowance[owner][msg.sender] */\n      0x00\n        /* \"https://github.com/transmissions11/solmate/blob/main/src/tokens/ERC4626.sol\":3449:3459  msg.sender */\n      caller\n        /* \"https://github.com/transmissions11/solmate/blob/main/src/tokens/ERC4626.sol\":3432:3460  allowance[owner][msg.sender] */\n      0xffffffffffffffffffffffffffffffffffffffff\n      and\n      0xffffffffffffffffffffffffffffffffffffffff\n      and\n      dup2\n      mstore\n      0x20\n      add\n      swap1\n      dup2\n      mstore\n      0x20\n      add\n      0x00\n      keccak256\n      sload\n        /* \"https://github.com/transmissions11/solmate/blob/main/src/tokens/ERC4626.sol\":3414:3460  uint256 allowed = allowance[owner][msg.sender] */\n      swap1\n      pop\n        /* \"https://github.com/transmissions11/solmate/blob/main/src/tokens/ERC4626.sol\":3526:3543  type(uint256).max */\n      0xffffffffffffffffffffffffffffffffffffffffffffffffffffffffffffffff\n        /* \"https://github.com/transmissions11/solmate/blob/main/src/tokens/ERC4626.sol\":3515:3522  allowed */\n      dup2\n        /* \"https://github.com/transmissions11/solmate/blob/main/src/tokens/ERC4626.sol\":3515:3543  allowed != type(uint256).max */\n      eq\n        /* \"https://github.com/transmissions11/solmate/blob/main/src/tokens/ERC4626.sol\":3511:3592  if (allowed != type(uint256).max) allowance[owner][msg.sender] = allowed - shares */\n      tag_295\n      jumpi\n        /* \"https://github.com/transmissions11/solmate/blob/main/src/tokens/ERC4626.sol\":3586:3592  shares */\n      dup5\n        /* \"https://github.com/transmissions11/solmate/blob/main/src/tokens/ERC4626.sol\":3576:3583  allowed */\n      dup2\n        /* \"https://github.com/transmissions11/solmate/blob/main/src/tokens/ERC4626.sol\":3576:3592  allowed - shares */\n      tag_296\n      swap2\n      swap1\n      tag_205\n      jump\t// in\n    tag_296:\n        /* \"https://github.com/transmissions11/solmate/blob/main/src/tokens/ERC4626.sol\":3545:3554  allowance */\n      0x04\n        /* \"https://github.com/transmissions11/solmate/blob/main/src/tokens/ERC4626.sol\":3545:3561  allowance[owner] */\n      0x00\n        /* \"https://github.com/transmissions11/solmate/blob/main/src/tokens/ERC4626.sol\":3555:3560  owner */\n      dup6\n        /* \"https://github.com/transmissions11/solmate/blob/main/src/tokens/ERC4626.sol\":3545:3561  allowance[owner] */\n      0xffffffffffffffffffffffffffffffffffffffff\n      and\n      0xffffffffffffffffffffffffffffffffffffffff\n      and\n      dup2\n      mstore\n      0x20\n      add\n      swap1\n      dup2\n      mstore\n      0x20\n      add\n      0x00\n      keccak256\n        /* \"https://github.com/transmissions11/solmate/blob/main/src/tokens/ERC4626.sol\":3545:3573  allowance[owner][msg.sender] */\n      0x00\n        /* \"https://github.com/transmissions11/solmate/blob/main/src/tokens/ERC4626.sol\":3562:3572  msg.sender */\n      caller\n        /* \"https://github.com/transmissions11/solmate/blob/main/src/tokens/ERC4626.sol\":3545:3573  allowance[owner][msg.sender] */\n      0xffffffffffffffffffffffffffffffffffffffff\n      and\n      0xffffffffffffffffffffffffffffffffffffffff\n      and\n      dup2\n      mstore\n      0x20\n      add\n      swap1\n      dup2\n      mstore\n      0x20\n      add\n      0x00\n      keccak256\n        /* \"https://github.com/transmissions11/solmate/blob/main/src/tokens/ERC4626.sol\":3545:3592  allowance[owner][msg.sender] = allowed - shares */\n      dup2\n      swap1\n      sstore\n      pop\n        /* \"https://github.com/transmissions11/solmate/blob/main/src/tokens/ERC4626.sol\":3511:3592  if (allowed != type(uint256).max) allowance[owner][msg.sender] = allowed - shares */\n    tag_295:\n        /* \"https://github.com/transmissions11/solmate/blob/main/src/tokens/ERC4626.sol\":3400:3603  {... */\n      pop\n        /* \"https://github.com/transmissions11/solmate/blob/main/src/tokens/ERC4626.sol\":3375:3603  if (msg.sender != owner) {... */\n    tag_294:\n        /* \"https://github.com/transmissions11/solmate/blob/main/src/tokens/ERC4626.sol\":3731:3732  0 */\n      0x00\n        /* \"https://github.com/transmissions11/solmate/blob/main/src/tokens/ERC4626.sol\":3705:3726  previewRedeem(shares) */\n      tag_297\n        /* \"https://github.com/transmissions11/solmate/blob/main/src/tokens/ERC4626.sol\":3719:3725  shares */\n      dup6\n        /* \"https://github.com/transmissions11/solmate/blob/main/src/tokens/ERC4626.sol\":3705:3718  previewRedeem */\n      tag_100\n        /* \"https://github.com/transmissions11/solmate/blob/main/src/tokens/ERC4626.sol\":3705:3726  previewRedeem(shares) */\n      jump\t// in\n    tag_297:\n        /* \"https://github.com/transmissions11/solmate/blob/main/src/tokens/ERC4626.sol\":3696:3726  assets = previewRedeem(shares) */\n      swap2\n      pop\n      dup2\n        /* \"https://github.com/transmissions11/solmate/blob/main/src/tokens/ERC4626.sol\":3695:3732  (assets = previewRedeem(shares)) != 0 */\n      eq\n      iszero\n        /* \"https://github.com/transmissions11/solmate/blob/main/src/tokens/ERC4626.sol\":3687:3748  require((assets = previewRedeem(shares)) != 0, \"ZERO_ASSETS\") */\n      tag_298\n      jumpi\n      mload(0x40)\n      0x08c379a000000000000000000000000000000000000000000000000000000000\n      dup2\n      mstore\n      0x04\n      add\n      tag_299\n      swap1\n      tag_300\n      jump\t// in\n    tag_299:\n      mload(0x40)\n      dup1\n      swap2\n      sub\n      swap1\n      revert\n    tag_298:\n        /* \"https://github.com/transmissions11/solmate/blob/main/src/tokens/ERC4626.sol\":3759:3789  beforeWithdraw(assets, shares) */\n      tag_301\n        /* \"https://github.com/transmissions11/solmate/blob/main/src/tokens/ERC4626.sol\":3774:3780  assets */\n      dup2\n        /* \"https://github.com/transmissions11/solmate/blob/main/src/tokens/ERC4626.sol\":3782:3788  shares */\n      dup6\n        /* \"https://github.com/transmissions11/solmate/blob/main/src/tokens/ERC4626.sol\":3759:3773  beforeWithdraw */\n      tag_287\n        /* \"https://github.com/transmissions11/solmate/blob/main/src/tokens/ERC4626.sol\":3759:3789  beforeWithdraw(assets, shares) */\n      jump\t// in\n    tag_301:\n        /* \"https://github.com/transmissions11/solmate/blob/main/src/tokens/ERC4626.sol\":3800:3820  _burn(owner, shares) */\n      tag_302\n        /* \"https://github.com/transmissions11/solmate/blob/main/src/tokens/ERC4626.sol\":3806:3811  owner */\n      dup3\n        /* \"https://github.com/transmissions11/solmate/blob/main/src/tokens/ERC4626.sol\":3813:3819  shares */\n      dup6\n        /* \"https://github.com/transmissions11/solmate/blob/main/src/tokens/ERC4626.sol\":3800:3805  _burn */\n      tag_289\n        /* \"https://github.com/transmissions11/solmate/blob/main/src/tokens/ERC4626.sol\":3800:3820  _burn(owner, shares) */\n      jump\t// in\n    tag_302:\n        /* \"https://github.com/transmissions11/solmate/blob/main/src/tokens/ERC4626.sol\":3867:3872  owner */\n      dup2\n        /* \"https://github.com/transmissions11/solmate/blob/main/src/tokens/ERC4626.sol\":3836:3889  Withdraw(msg.sender, receiver, owner, assets, shares) */\n      0xffffffffffffffffffffffffffffffffffffffff\n      and\n        /* \"https://github.com/transmissions11/solmate/blob/main/src/tokens/ERC4626.sol\":3857:3865  receiver */\n      dup4\n        /* \"https://github.com/transmissions11/solmate/blob/main/src/tokens/ERC4626.sol\":3836:3889  Withdraw(msg.sender, receiver, owner, assets, shares) */\n      0xffffffffffffffffffffffffffffffffffffffff\n      and\n        /* \"https://github.com/transmissions11/solmate/blob/main/src/tokens/ERC4626.sol\":3845:3855  msg.sender */\n      caller\n        /* \"https://github.com/transmissions11/solmate/blob/main/src/tokens/ERC4626.sol\":3836:3889  Withdraw(msg.sender, receiver, owner, assets, shares) */\n      0xffffffffffffffffffffffffffffffffffffffff\n      and\n      0xfbde797d201c681b91056529119e0b02407c7bb96a4a2c75c01fc9667232c8db\n        /* \"https://github.com/transmissions11/solmate/blob/main/src/tokens/ERC4626.sol\":3874:3880  assets */\n      dup5\n        /* \"https://github.com/transmissions11/solmate/blob/main/src/tokens/ERC4626.sol\":3882:3888  shares */\n      dup9\n        /* \"https://github.com/transmissions11/solmate/blob/main/src/tokens/ERC4626.sol\":3836:3889  Withdraw(msg.sender, receiver, owner, assets, shares) */\n      mload(0x40)\n      tag_303\n      swap3\n      swap2\n      swap1\n      tag_253\n      jump\t// in\n    tag_303:\n      mload(0x40)\n      dup1\n      swap2\n      sub\n      swap1\n      log4\n        /* \"https://github.com/transmissions11/solmate/blob/main/src/tokens/ERC4626.sol\":3900:3936  asset.safeTransfer(receiver, assets) */\n      tag_304\n        /* \"https://github.com/transmissions11/solmate/blob/main/src/tokens/ERC4626.sol\":3919:3927  receiver */\n      dup4\n        /* \"https://github.com/transmissions11/solmate/blob/main/src/tokens/ERC4626.sol\":3929:3935  assets */\n      dup3\n        /* \"https://github.com/transmissions11/solmate/blob/main/src/tokens/ERC4626.sol\":3900:3905  asset */\n      immutable(\"0xaafd67d8fa30a8ba2b905b339486b92f083802c04238abb7dce3d527c0a4c750\")\n        /* \"https://github.com/transmissions11/solmate/blob/main/src/tokens/ERC4626.sol\":3900:3918  asset.safeTransfer */\n      0xffffffffffffffffffffffffffffffffffffffff\n      and\n      tag_292\n      swap1\n        /* \"https://github.com/transmissions11/solmate/blob/main/src/tokens/ERC4626.sol\":3900:3936  asset.safeTransfer(receiver, assets) */\n      swap3\n      swap2\n      swap1\n      0xffffffff\n      and\n      jump\t// in\n    tag_304:\n        /* \"https://github.com/transmissions11/solmate/blob/main/src/tokens/ERC4626.sol\":3230:3943  function redeem(... */\n      swap4\n      swap3\n      pop\n      pop\n      pop\n      jump\t// out\n        /* \"https://github.com/transmissions11/solmate/blob/main/src/tokens/ERC4626.sol\":5810:5915  function maxMint(address) public view virtual returns (uint256) {... */\n    tag_143:\n        /* \"https://github.com/transmissions11/solmate/blob/main/src/tokens/ERC4626.sol\":5865:5872  uint256 */\n      0x00\n        /* \"https://github.com/transmissions11/solmate/blob/main/src/tokens/ERC4626.sol\":5891:5908  type(uint256).max */\n      0xffffffffffffffffffffffffffffffffffffffffffffffffffffffffffffffff\n        /* \"https://github.com/transmissions11/solmate/blob/main/src/tokens/ERC4626.sol\":5884:5908  return type(uint256).max */\n      swap1\n      pop\n        /* \"https://github.com/transmissions11/solmate/blob/main/src/tokens/ERC4626.sol\":5810:5915  function maxMint(address) public view virtual returns (uint256) {... */\n      swap2\n      swap1\n      pop\n      jump\t// out\n        /* \"https://github.com/transmissions11/solmate/blob/main/src/tokens/ERC4626.sol\":4200:4457  function convertToShares(uint256 assets) public view virtual returns (uint256) {... */\n    tag_147:\n        /* \"https://github.com/transmissions11/solmate/blob/main/src/tokens/ERC4626.sol\":4270:4277  uint256 */\n      0x00\n        /* \"https://github.com/transmissions11/solmate/blob/main/src/tokens/ERC4626.sol\":4289:4303  uint256 supply */\n      dup1\n        /* \"https://github.com/transmissions11/solmate/blob/main/src/tokens/ERC4626.sol\":4306:4317  totalSupply */\n      sload(0x02)\n        /* \"https://github.com/transmissions11/solmate/blob/main/src/tokens/ERC4626.sol\":4289:4317  uint256 supply = totalSupply */\n      swap1\n      pop\n        /* \"https://github.com/transmissions11/solmate/blob/main/src/tokens/ERC4626.sol\":4397:4398  0 */\n      0x00\n        /* \"https://github.com/transmissions11/solmate/blob/main/src/tokens/ERC4626.sol\":4387:4393  supply */\n      dup2\n        /* \"https://github.com/transmissions11/solmate/blob/main/src/tokens/ERC4626.sol\":4387:4398  supply == 0 */\n      eq\n        /* \"https://github.com/transmissions11/solmate/blob/main/src/tokens/ERC4626.sol\":4387:4450  supply == 0 ? assets : assets.mulDivDown(supply, totalAssets()) */\n      tag_307\n      jumpi\n        /* \"https://github.com/transmissions11/solmate/blob/main/src/tokens/ERC4626.sol\":4410:4450  assets.mulDivDown(supply, totalAssets()) */\n      tag_308\n        /* \"https://github.com/transmissions11/solmate/blob/main/src/tokens/ERC4626.sol\":4428:4434  supply */\n      dup2\n        /* \"https://github.com/transmissions11/solmate/blob/main/src/tokens/ERC4626.sol\":4436:4449  totalAssets() */\n      tag_309\n        /* \"https://github.com/transmissions11/solmate/blob/main/src/tokens/ERC4626.sol\":4436:4447  totalAssets */\n      tag_43\n        /* \"https://github.com/transmissions11/solmate/blob/main/src/tokens/ERC4626.sol\":4436:4449  totalAssets() */\n      jump\t// in\n    tag_309:\n        /* \"https://github.com/transmissions11/solmate/blob/main/src/tokens/ERC4626.sol\":4410:4416  assets */\n      dup6\n        /* \"https://github.com/transmissions11/solmate/blob/main/src/tokens/ERC4626.sol\":4410:4427  assets.mulDivDown */\n      tag_192\n      swap1\n        /* \"https://github.com/transmissions11/solmate/blob/main/src/tokens/ERC4626.sol\":4410:4450  assets.mulDivDown(supply, totalAssets()) */\n      swap3\n      swap2\n      swap1\n      0xffffffff\n      and\n      jump\t// in\n    tag_308:\n        /* \"https://github.com/transmissions11/solmate/blob/main/src/tokens/ERC4626.sol\":4387:4450  supply == 0 ? assets : assets.mulDivDown(supply, totalAssets()) */\n      jump(tag_310)\n    tag_307:\n        /* \"https://github.com/transmissions11/solmate/blob/main/src/tokens/ERC4626.sol\":4401:4407  assets */\n      dup3\n        /* \"https://github.com/transmissions11/solmate/blob/main/src/tokens/ERC4626.sol\":4387:4450  supply == 0 ? assets : assets.mulDivDown(supply, totalAssets()) */\n    tag_310:\n        /* \"https://github.com/transmissions11/solmate/blob/main/src/tokens/ERC4626.sol\":4380:4450  return supply == 0 ? assets : assets.mulDivDown(supply, totalAssets()) */\n      swap2\n      pop\n      pop\n        /* \"https://github.com/transmissions11/solmate/blob/main/src/tokens/ERC4626.sol\":4200:4457  function convertToShares(uint256 assets) public view virtual returns (uint256) {... */\n      swap2\n      swap1\n      pop\n      jump\t// out\n        /* \"https://github.com/transmissions11/solmate/blob/main/src/tokens/ERC4626.sol\":5921:6052  function maxWithdraw(address owner) public view virtual returns (uint256) {... */\n    tag_151:\n        /* \"https://github.com/transmissions11/solmate/blob/main/src/tokens/ERC4626.sol\":5986:5993  uint256 */\n      0x00\n        /* \"https://github.com/transmissions11/solmate/blob/main/src/tokens/ERC4626.sol\":6012:6045  convertToAssets(balanceOf[owner]) */\n      tag_312\n        /* \"https://github.com/transmissions11/solmate/blob/main/src/tokens/ERC4626.sol\":6028:6037  balanceOf */\n      0x03\n        /* \"https://github.com/transmissions11/solmate/blob/main/src/tokens/ERC4626.sol\":6028:6044  balanceOf[owner] */\n      0x00\n        /* \"https://github.com/transmissions11/solmate/blob/main/src/tokens/ERC4626.sol\":6038:6043  owner */\n      dup5\n        /* \"https://github.com/transmissions11/solmate/blob/main/src/tokens/ERC4626.sol\":6028:6044  balanceOf[owner] */\n      0xffffffffffffffffffffffffffffffffffffffff\n      and\n      0xffffffffffffffffffffffffffffffffffffffff\n      and\n      dup2\n      mstore\n      0x20\n      add\n      swap1\n      dup2\n      mstore\n      0x20\n      add\n      0x00\n      keccak256\n      sload\n        /* \"https://github.com/transmissions11/solmate/blob/main/src/tokens/ERC4626.sol\":6012:6027  convertToAssets */\n      tag_53\n        /* \"https://github.com/transmissions11/solmate/blob/main/src/tokens/ERC4626.sol\":6012:6045  convertToAssets(balanceOf[owner]) */\n      jump\t// in\n    tag_312:\n        /* \"https://github.com/transmissions11/solmate/blob/main/src/tokens/ERC4626.sol\":6005:6045  return convertToAssets(balanceOf[owner]) */\n      swap1\n      pop\n        /* \"https://github.com/transmissions11/solmate/blob/main/src/tokens/ERC4626.sol\":5921:6052  function maxWithdraw(address owner) public view virtual returns (uint256) {... */\n      swap2\n      swap1\n      pop\n      jump\t// out\n        /* \"https://github.com/transmissions11/solmate/blob/main/src/tokens/ERC20.sol\":3838:5321  function permit(... */\n    tag_156:\n        /* \"https://github.com/transmissions11/solmate/blob/main/src/tokens/ERC20.sol\":4057:4072  block.timestamp */\n      timestamp\n        /* \"https://github.com/transmissions11/solmate/blob/main/src/tokens/ERC20.sol\":4045:4053  deadline */\n      dup5\n        /* \"https://github.com/transmissions11/solmate/blob/main/src/tokens/ERC20.sol\":4045:4072  deadline >= block.timestamp */\n      lt\n      iszero\n        /* \"https://github.com/transmissions11/solmate/blob/main/src/tokens/ERC20.sol\":4037:4100  require(deadline >= block.timestamp, \"PERMIT_DEADLINE_EXPIRED\") */\n      tag_314\n      jumpi\n      mload(0x40)\n      0x08c379a000000000000000000000000000000000000000000000000000000000\n      dup2\n      mstore\n      0x04\n      add\n      tag_315\n      swap1\n      tag_316\n      jump\t// in\n    tag_315:\n      mload(0x40)\n      dup1\n      swap2\n      sub\n      swap1\n      revert\n    tag_314:\n        /* \"https://github.com/transmissions11/solmate/blob/main/src/tokens/ERC20.sol\":4265:4289  address recoveredAddress */\n      0x00\n        /* \"https://github.com/transmissions11/solmate/blob/main/src/tokens/ERC20.sol\":4292:5097  ecrecover(... */\n      0x01\n        /* \"https://github.com/transmissions11/solmate/blob/main/src/tokens/ERC20.sol\":4428:4446  DOMAIN_SEPARATOR() */\n      tag_317\n        /* \"https://github.com/transmissions11/solmate/blob/main/src/tokens/ERC20.sol\":4428:4444  DOMAIN_SEPARATOR */\n      tag_82\n        /* \"https://github.com/transmissions11/solmate/blob/main/src/tokens/ERC20.sol\":4428:4446  DOMAIN_SEPARATOR() */\n      jump\t// in\n    tag_317:\n        /* \"https://github.com/transmissions11/solmate/blob/main/src/tokens/ERC20.sol\":4555:4720  keccak256(... */\n      0x6e71edae12b1b97f4d1f60370fef10105fa2faae0126114a169c64845d6126c9\n        /* \"https://github.com/transmissions11/solmate/blob/main/src/tokens/ERC20.sol\":4754:4759  owner */\n      dup11\n        /* \"https://github.com/transmissions11/solmate/blob/main/src/tokens/ERC20.sol\":4793:4800  spender */\n      dup11\n        /* \"https://github.com/transmissions11/solmate/blob/main/src/tokens/ERC20.sol\":4834:4839  value */\n      dup11\n        /* \"https://github.com/transmissions11/solmate/blob/main/src/tokens/ERC20.sol\":4873:4879  nonces */\n      0x05\n        /* \"https://github.com/transmissions11/solmate/blob/main/src/tokens/ERC20.sol\":4873:4886  nonces[owner] */\n      0x00\n        /* \"https://github.com/transmissions11/solmate/blob/main/src/tokens/ERC20.sol\":4880:4885  owner */\n      dup16\n        /* \"https://github.com/transmissions11/solmate/blob/main/src/tokens/ERC20.sol\":4873:4886  nonces[owner] */\n      0xffffffffffffffffffffffffffffffffffffffff\n      and\n      0xffffffffffffffffffffffffffffffffffffffff\n      and\n      dup2\n      mstore\n      0x20\n      add\n      swap1\n      dup2\n      mstore\n      0x20\n      add\n      0x00\n      keccak256\n      0x00\n        /* \"https://github.com/transmissions11/solmate/blob/main/src/tokens/ERC20.sol\":4873:4888  nonces[owner]++ */\n      dup2\n      sload\n      dup1\n      swap3\n      swap2\n      swap1\n      0x01\n      add\n      swap2\n      swap1\n      pop\n      sstore\n        /* \"https://github.com/transmissions11/solmate/blob/main/src/tokens/ERC20.sol\":4922:4930  deadline */\n      dup12\n        /* \"https://github.com/transmissions11/solmate/blob/main/src/tokens/ERC20.sol\":4511:4960  abi.encode(... */\n      add(0x20, mload(0x40))\n      tag_318\n      swap7\n      swap6\n      swap5\n      swap4\n      swap3\n      swap2\n      swap1\n      tag_319\n      jump\t// in\n    tag_318:\n      mload(0x40)\n      0x20\n      dup2\n      dup4\n      sub\n      sub\n      dup2\n      mstore\n      swap1\n      0x40\n      mstore\n        /* \"https://github.com/transmissions11/solmate/blob/main/src/tokens/ERC20.sol\":4472:4986  keccak256(... */\n      dup1\n      mload\n      swap1\n      0x20\n      add\n      keccak256\n        /* \"https://github.com/transmissions11/solmate/blob/main/src/tokens/ERC20.sol\":4350:5008  abi.encodePacked(... */\n      add(0x20, mload(0x40))\n      tag_320\n      swap3\n      swap2\n      swap1\n      tag_321\n      jump\t// in\n    tag_320:\n      mload(0x40)\n      0x20\n      dup2\n      dup4\n      sub\n      sub\n      dup2\n      mstore\n      swap1\n      0x40\n      mstore\n        /* \"https://github.com/transmissions11/solmate/blob/main/src/tokens/ERC20.sol\":4319:5026  keccak256(... */\n      dup1\n      mload\n      swap1\n      0x20\n      add\n      keccak256\n        /* \"https://github.com/transmissions11/solmate/blob/main/src/tokens/ERC20.sol\":5044:5045  v */\n      dup6\n        /* \"https://github.com/transmissions11/solmate/blob/main/src/tokens/ERC20.sol\":5063:5064  r */\n      dup6\n        /* \"https://github.com/transmissions11/solmate/blob/main/src/tokens/ERC20.sol\":5082:5083  s */\n      dup6\n        /* \"https://github.com/transmissions11/solmate/blob/main/src/tokens/ERC20.sol\":4292:5097  ecrecover(... */\n      mload(0x40)\n      0x00\n      dup2\n      mstore\n      0x20\n      add\n      0x40\n      mstore\n      mload(0x40)\n      tag_322\n      swap5\n      swap4\n      swap3\n      swap2\n      swap1\n      tag_323\n      jump\t// in\n    tag_322:\n      0x20\n      mload(0x40)\n      0x20\n      dup2\n      sub\n      swap1\n      dup1\n      dup5\n      sub\n      swap1\n      dup6\n      gas\n      staticcall\n      iszero\n      dup1\n      iszero\n      tag_325\n      jumpi\n      returndatasize\n      0x00\n      dup1\n      returndatacopy\n      revert(0x00, returndatasize)\n    tag_325:\n      pop\n      pop\n      pop\n      mload(sub(mload(0x40), 0x20))\n        /* \"https://github.com/transmissions11/solmate/blob/main/src/tokens/ERC20.sol\":4265:5097  address recoveredAddress = ecrecover(... */\n      swap1\n      pop\n        /* \"https://github.com/transmissions11/solmate/blob/main/src/tokens/ERC20.sol\":5148:5149  0 */\n      0x00\n        /* \"https://github.com/transmissions11/solmate/blob/main/src/tokens/ERC20.sol\":5120:5150  recoveredAddress != address(0) */\n      0xffffffffffffffffffffffffffffffffffffffff\n      and\n        /* \"https://github.com/transmissions11/solmate/blob/main/src/tokens/ERC20.sol\":5120:5136  recoveredAddress */\n      dup2\n        /* \"https://github.com/transmissions11/solmate/blob/main/src/tokens/ERC20.sol\":5120:5150  recoveredAddress != address(0) */\n      0xffffffffffffffffffffffffffffffffffffffff\n      and\n      eq\n      iszero\n        /* \"https://github.com/transmissions11/solmate/blob/main/src/tokens/ERC20.sol\":5120:5179  recoveredAddress != address(0) && recoveredAddress == owner */\n      dup1\n      iszero\n      tag_326\n      jumpi\n      pop\n        /* \"https://github.com/transmissions11/solmate/blob/main/src/tokens/ERC20.sol\":5174:5179  owner */\n      dup8\n        /* \"https://github.com/transmissions11/solmate/blob/main/src/tokens/ERC20.sol\":5154:5179  recoveredAddress == owner */\n      0xffffffffffffffffffffffffffffffffffffffff\n      and\n        /* \"https://github.com/transmissions11/solmate/blob/main/src/tokens/ERC20.sol\":5154:5170  recoveredAddress */\n      dup2\n        /* \"https://github.com/transmissions11/solmate/blob/main/src/tokens/ERC20.sol\":5154:5179  recoveredAddress == owner */\n      0xffffffffffffffffffffffffffffffffffffffff\n      and\n      eq\n        /* \"https://github.com/transmissions11/solmate/blob/main/src/tokens/ERC20.sol\":5120:5179  recoveredAddress != address(0) && recoveredAddress == owner */\n    tag_326:\n        /* \"https://github.com/transmissions11/solmate/blob/main/src/tokens/ERC20.sol\":5112:5198  require(recoveredAddress != address(0) && recoveredAddress == owner, \"INVALID_SIGNER\") */\n      tag_327\n      jumpi\n      mload(0x40)\n      0x08c379a000000000000000000000000000000000000000000000000000000000\n      dup2\n      mstore\n      0x04\n      add\n      tag_328\n      swap1\n      tag_329\n      jump\t// in\n    tag_328:\n      mload(0x40)\n      dup1\n      swap2\n      sub\n      swap1\n      revert\n    tag_327:\n        /* \"https://github.com/transmissions11/solmate/blob/main/src/tokens/ERC20.sol\":5252:5257  value */\n      dup6\n        /* \"https://github.com/transmissions11/solmate/blob/main/src/tokens/ERC20.sol\":5213:5222  allowance */\n      0x04\n        /* \"https://github.com/transmissions11/solmate/blob/main/src/tokens/ERC20.sol\":5213:5240  allowance[recoveredAddress] */\n      0x00\n        /* \"https://github.com/transmissions11/solmate/blob/main/src/tokens/ERC20.sol\":5223:5239  recoveredAddress */\n      dup4\n        /* \"https://github.com/transmissions11/solmate/blob/main/src/tokens/ERC20.sol\":5213:5240  allowance[recoveredAddress] */\n      0xffffffffffffffffffffffffffffffffffffffff\n      and\n      0xffffffffffffffffffffffffffffffffffffffff\n      and\n      dup2\n      mstore\n      0x20\n      add\n      swap1\n      dup2\n      mstore\n      0x20\n      add\n      0x00\n      keccak256\n        /* \"https://github.com/transmissions11/solmate/blob/main/src/tokens/ERC20.sol\":5213:5249  allowance[recoveredAddress][spender] */\n      0x00\n        /* \"https://github.com/transmissions11/solmate/blob/main/src/tokens/ERC20.sol\":5241:5248  spender */\n      dup10\n        /* \"https://github.com/transmissions11/solmate/blob/main/src/tokens/ERC20.sol\":5213:5249  allowance[recoveredAddress][spender] */\n      0xffffffffffffffffffffffffffffffffffffffff\n      and\n      0xffffffffffffffffffffffffffffffffffffffff\n      and\n      dup2\n      mstore\n      0x20\n      add\n      swap1\n      dup2\n      mstore\n      0x20\n      add\n      0x00\n      keccak256\n        /* \"https://github.com/transmissions11/solmate/blob/main/src/tokens/ERC20.sol\":5213:5257  allowance[recoveredAddress][spender] = value */\n      dup2\n      swap1\n      sstore\n      pop\n        /* \"https://github.com/transmissions11/solmate/blob/main/src/tokens/ERC20.sol\":4241:5268  unchecked {... */\n      pop\n        /* \"https://github.com/transmissions11/solmate/blob/main/src/tokens/ERC20.sol\":5299:5306  spender */\n      dup6\n        /* \"https://github.com/transmissions11/solmate/blob/main/src/tokens/ERC20.sol\":5283:5314  Approval(owner, spender, value) */\n      0xffffffffffffffffffffffffffffffffffffffff\n      and\n        /* \"https://github.com/transmissions11/solmate/blob/main/src/tokens/ERC20.sol\":5292:5297  owner */\n      dup8\n        /* \"https://github.com/transmissions11/solmate/blob/main/src/tokens/ERC20.sol\":5283:5314  Approval(owner, spender, value) */\n      0xffffffffffffffffffffffffffffffffffffffff\n      and\n      0x8c5be1e5ebec7d5bd14f71427d1e84f3dd0314c0f7b2291e5b200ac8c7c3b925\n        /* \"https://github.com/transmissions11/solmate/blob/main/src/tokens/ERC20.sol\":5308:5313  value */\n      dup8\n        /* \"https://github.com/transmissions11/solmate/blob/main/src/tokens/ERC20.sol\":5283:5314  Approval(owner, spender, value) */\n      mload(0x40)\n      tag_330\n      swap2\n      swap1\n      tag_45\n      jump\t// in\n    tag_330:\n      mload(0x40)\n      dup1\n      swap2\n      sub\n      swap1\n      log3\n        /* \"https://github.com/transmissions11/solmate/blob/main/src/tokens/ERC20.sol\":3838:5321  function permit(... */\n      pop\n      pop\n      pop\n      pop\n      pop\n      pop\n      pop\n      jump\t// out\n        /* \"https://github.com/transmissions11/solmate/blob/main/src/tokens/ERC4626.sol\":6058:6170  function maxRedeem(address owner) public view virtual returns (uint256) {... */\n    tag_159:\n        /* \"https://github.com/transmissions11/solmate/blob/main/src/tokens/ERC4626.sol\":6121:6128  uint256 */\n      0x00\n        /* \"https://github.com/transmissions11/solmate/blob/main/src/tokens/ERC4626.sol\":6147:6156  balanceOf */\n      0x03\n        /* \"https://github.com/transmissions11/solmate/blob/main/src/tokens/ERC4626.sol\":6147:6163  balanceOf[owner] */\n      0x00\n        /* \"https://github.com/transmissions11/solmate/blob/main/src/tokens/ERC4626.sol\":6157:6162  owner */\n      dup4\n        /* \"https://github.com/transmissions11/solmate/blob/main/src/tokens/ERC4626.sol\":6147:6163  balanceOf[owner] */\n      0xffffffffffffffffffffffffffffffffffffffff\n      and\n      0xffffffffffffffffffffffffffffffffffffffff\n      and\n      dup2\n      mstore\n      0x20\n      add\n      swap1\n      dup2\n      mstore\n      0x20\n      add\n      0x00\n      keccak256\n      sload\n        /* \"https://github.com/transmissions11/solmate/blob/main/src/tokens/ERC4626.sol\":6140:6163  return balanceOf[owner] */\n      swap1\n      pop\n        /* \"https://github.com/transmissions11/solmate/blob/main/src/tokens/ERC4626.sol\":6058:6170  function maxRedeem(address owner) public view virtual returns (uint256) {... */\n      swap2\n      swap1\n      pop\n      jump\t// out\n        /* \"https://github.com/transmissions11/solmate/blob/main/src/tokens/ERC20.sol\":1388:1452  mapping(address => mapping(address => uint256)) public allowance */\n    tag_164:\n      mstore(0x20, 0x04)\n      dup2\n      0x00\n      mstore\n      mstore(0x20, keccak256(0x00, 0x40))\n      dup1\n      0x00\n      mstore\n      keccak256(0x00, 0x40)\n      0x00\n      swap2\n      pop\n      swap2\n      pop\n      pop\n      sload\n      dup2\n      jump\t// out\n        /* \"https://github.com/transmissions11/solmate/blob/main/src/tokens/ERC4626.sol\":4726:4851  function previewDeposit(uint256 assets) public view virtual returns (uint256) {... */\n    tag_168:\n        /* \"https://github.com/transmissions11/solmate/blob/main/src/tokens/ERC4626.sol\":4795:4802  uint256 */\n      0x00\n        /* \"https://github.com/transmissions11/solmate/blob/main/src/tokens/ERC4626.sol\":4821:4844  convertToShares(assets) */\n      tag_333\n        /* \"https://github.com/transmissions11/solmate/blob/main/src/tokens/ERC4626.sol\":4837:4843  assets */\n      dup3\n        /* \"https://github.com/transmissions11/solmate/blob/main/src/tokens/ERC4626.sol\":4821:4836  convertToShares */\n      tag_147\n        /* \"https://github.com/transmissions11/solmate/blob/main/src/tokens/ERC4626.sol\":4821:4844  convertToShares(assets) */\n      jump\t// in\n    tag_333:\n        /* \"https://github.com/transmissions11/solmate/blob/main/src/tokens/ERC4626.sol\":4814:4844  return convertToShares(assets) */\n      swap1\n      pop\n        /* \"https://github.com/transmissions11/solmate/blob/main/src/tokens/ERC4626.sol\":4726:4851  function previewDeposit(uint256 assets) public view virtual returns (uint256) {... */\n      swap2\n      swap1\n      pop\n      jump\t// out\n        /* \"TokenVault.sol\":242:288  mapping(address => uint256) public shareHolder */\n    tag_172:\n      mstore(0x20, 0x06)\n      dup1\n      0x00\n      mstore\n      keccak256(0x00, 0x40)\n      0x00\n      swap2\n      pop\n      swap1\n      pop\n      sload\n      dup2\n      jump\t// out\n        /* \"https://github.com/transmissions11/solmate/blob/main/src/utils/FixedPointMathLib.sol\":1564:2090  function mulDivDown(... */\n    tag_192:\n        /* \"https://github.com/transmissions11/solmate/blob/main/src/utils/FixedPointMathLib.sol\":1680:1689  uint256 z */\n      0x00\n        /* \"https://github.com/transmissions11/solmate/blob/main/src/utils/FixedPointMathLib.sol\":1928:1929  y */\n      dup3\n        /* \"https://github.com/transmissions11/solmate/blob/main/src/utils/FixedPointMathLib.sol\":1915:1926  MAX_UINT256 */\n      0xffffffffffffffffffffffffffffffffffffffffffffffffffffffffffffffff\n        /* \"https://github.com/transmissions11/solmate/blob/main/src/utils/FixedPointMathLib.sol\":1911:1930  div(MAX_UINT256, y) */\n      div\n        /* \"https://github.com/transmissions11/solmate/blob/main/src/utils/FixedPointMathLib.sol\":1908:1909  x */\n      dup5\n        /* \"https://github.com/transmissions11/solmate/blob/main/src/utils/FixedPointMathLib.sol\":1905:1931  gt(x, div(MAX_UINT256, y)) */\n      gt\n        /* \"https://github.com/transmissions11/solmate/blob/main/src/utils/FixedPointMathLib.sol\":1902:1903  y */\n      dup4\n        /* \"https://github.com/transmissions11/solmate/blob/main/src/utils/FixedPointMathLib.sol\":1898:1932  mul(y, gt(x, div(MAX_UINT256, y))) */\n      mul\n        /* \"https://github.com/transmissions11/solmate/blob/main/src/utils/FixedPointMathLib.sol\":1891:1933  iszero(mul(y, gt(x, div(MAX_UINT256, y)))) */\n      iszero\n        /* \"https://github.com/transmissions11/solmate/blob/main/src/utils/FixedPointMathLib.sol\":1878:1889  denominator */\n      dup3\n        /* \"https://github.com/transmissions11/solmate/blob/main/src/utils/FixedPointMathLib.sol\":1874:1934  mul(denominator, iszero(mul(y, gt(x, div(MAX_UINT256, y))))) */\n      mul\n        /* \"https://github.com/transmissions11/solmate/blob/main/src/utils/FixedPointMathLib.sol\":1864:1980  if iszero(mul(denominator, iszero(mul(y, gt(x, div(MAX_UINT256, y)))))) {... */\n      tag_335\n      jumpi\n        /* \"https://github.com/transmissions11/solmate/blob/main/src/utils/FixedPointMathLib.sol\":1964:1965  0 */\n      0x00\n        /* \"https://github.com/transmissions11/solmate/blob/main/src/utils/FixedPointMathLib.sol\":1961:1962  0 */\n      dup1\n        /* \"https://github.com/transmissions11/solmate/blob/main/src/utils/FixedPointMathLib.sol\":1954:1966  revert(0, 0) */\n      revert\n        /* \"https://github.com/transmissions11/solmate/blob/main/src/utils/FixedPointMathLib.sol\":1864:1980  if iszero(mul(denominator, iszero(mul(y, gt(x, div(MAX_UINT256, y)))))) {... */\n    tag_335:\n        /* \"https://github.com/transmissions11/solmate/blob/main/src/utils/FixedPointMathLib.sol\":2062:2073  denominator */\n      dup2\n        /* \"https://github.com/transmissions11/solmate/blob/main/src/utils/FixedPointMathLib.sol\":2058:2059  y */\n      dup4\n        /* \"https://github.com/transmissions11/solmate/blob/main/src/utils/FixedPointMathLib.sol\":2055:2056  x */\n      dup6\n        /* \"https://github.com/transmissions11/solmate/blob/main/src/utils/FixedPointMathLib.sol\":2051:2060  mul(x, y) */\n      mul\n        /* \"https://github.com/transmissions11/solmate/blob/main/src/utils/FixedPointMathLib.sol\":2047:2074  div(mul(x, y), denominator) */\n      div\n        /* \"https://github.com/transmissions11/solmate/blob/main/src/utils/FixedPointMathLib.sol\":2042:2074  z := div(mul(x, y), denominator) */\n      swap1\n      pop\n        /* \"https://github.com/transmissions11/solmate/blob/main/src/utils/FixedPointMathLib.sol\":1564:2090  function mulDivDown(... */\n      swap4\n      swap3\n      pop\n      pop\n      pop\n      jump\t// out\n        /* \"https://github.com/transmissions11/solmate/blob/main/src/utils/FixedPointMathLib.sol\":2096:2768  function mulDivUp(... */\n    tag_200:\n        /* \"https://github.com/transmissions11/solmate/blob/main/src/utils/FixedPointMathLib.sol\":2210:2219  uint256 z */\n      0x00\n        /* \"https://github.com/transmissions11/solmate/blob/main/src/utils/FixedPointMathLib.sol\":2458:2459  y */\n      dup3\n        /* \"https://github.com/transmissions11/solmate/blob/main/src/utils/FixedPointMathLib.sol\":2445:2456  MAX_UINT256 */\n      0xffffffffffffffffffffffffffffffffffffffffffffffffffffffffffffffff\n        /* \"https://github.com/transmissions11/solmate/blob/main/src/utils/FixedPointMathLib.sol\":2441:2460  div(MAX_UINT256, y) */\n      div\n        /* \"https://github.com/transmissions11/solmate/blob/main/src/utils/FixedPointMathLib.sol\":2438:2439  x */\n      dup5\n        /* \"https://github.com/transmissions11/solmate/blob/main/src/utils/FixedPointMathLib.sol\":2435:2461  gt(x, div(MAX_UINT256, y)) */\n      gt\n        /* \"https://github.com/transmissions11/solmate/blob/main/src/utils/FixedPointMathLib.sol\":2432:2433  y */\n      dup4\n        /* \"https://github.com/transmissions11/solmate/blob/main/src/utils/FixedPointMathLib.sol\":2428:2462  mul(y, gt(x, div(MAX_UINT256, y))) */\n      mul\n        /* \"https://github.com/transmissions11/solmate/blob/main/src/utils/FixedPointMathLib.sol\":2421:2463  iszero(mul(y, gt(x, div(MAX_UINT256, y)))) */\n      iszero\n        /* \"https://github.com/transmissions11/solmate/blob/main/src/utils/FixedPointMathLib.sol\":2408:2419  denominator */\n      dup3\n        /* \"https://github.com/transmissions11/solmate/blob/main/src/utils/FixedPointMathLib.sol\":2404:2464  mul(denominator, iszero(mul(y, gt(x, div(MAX_UINT256, y))))) */\n      mul\n        /* \"https://github.com/transmissions11/solmate/blob/main/src/utils/FixedPointMathLib.sol\":2394:2510  if iszero(mul(denominator, iszero(mul(y, gt(x, div(MAX_UINT256, y)))))) {... */\n      tag_337\n      jumpi\n        /* \"https://github.com/transmissions11/solmate/blob/main/src/utils/FixedPointMathLib.sol\":2494:2495  0 */\n      0x00\n        /* \"https://github.com/transmissions11/solmate/blob/main/src/utils/FixedPointMathLib.sol\":2491:2492  0 */\n      dup1\n        /* \"https://github.com/transmissions11/solmate/blob/main/src/utils/FixedPointMathLib.sol\":2484:2496  revert(0, 0) */\n      revert\n        /* \"https://github.com/transmissions11/solmate/blob/main/src/utils/FixedPointMathLib.sol\":2394:2510  if iszero(mul(denominator, iszero(mul(y, gt(x, div(MAX_UINT256, y)))))) {... */\n    tag_337:\n        /* \"https://github.com/transmissions11/solmate/blob/main/src/utils/FixedPointMathLib.sol\":2739:2750  denominator */\n      dup2\n        /* \"https://github.com/transmissions11/solmate/blob/main/src/utils/FixedPointMathLib.sol\":2735:2736  y */\n      dup4\n        /* \"https://github.com/transmissions11/solmate/blob/main/src/utils/FixedPointMathLib.sol\":2732:2733  x */\n      dup6\n        /* \"https://github.com/transmissions11/solmate/blob/main/src/utils/FixedPointMathLib.sol\":2728:2737  mul(x, y) */\n      mul\n        /* \"https://github.com/transmissions11/solmate/blob/main/src/utils/FixedPointMathLib.sol\":2724:2751  div(mul(x, y), denominator) */\n      div\n        /* \"https://github.com/transmissions11/solmate/blob/main/src/utils/FixedPointMathLib.sol\":2720:2721  0 */\n      0x00\n        /* \"https://github.com/transmissions11/solmate/blob/main/src/utils/FixedPointMathLib.sol\":2706:2717  denominator */\n      dup4\n        /* \"https://github.com/transmissions11/solmate/blob/main/src/utils/FixedPointMathLib.sol\":2702:2703  y */\n      dup6\n        /* \"https://github.com/transmissions11/solmate/blob/main/src/utils/FixedPointMathLib.sol\":2699:2700  x */\n      dup8\n        /* \"https://github.com/transmissions11/solmate/blob/main/src/utils/FixedPointMathLib.sol\":2695:2704  mul(x, y) */\n      mul\n        /* \"https://github.com/transmissions11/solmate/blob/main/src/utils/FixedPointMathLib.sol\":2691:2718  mod(mul(x, y), denominator) */\n      mod\n        /* \"https://github.com/transmissions11/solmate/blob/main/src/utils/FixedPointMathLib.sol\":2688:2722  gt(mod(mul(x, y), denominator), 0) */\n      gt\n        /* \"https://github.com/transmissions11/solmate/blob/main/src/utils/FixedPointMathLib.sol\":2684:2752  add(gt(mod(mul(x, y), denominator), 0), div(mul(x, y), denominator)) */\n      add\n        /* \"https://github.com/transmissions11/solmate/blob/main/src/utils/FixedPointMathLib.sol\":2679:2752  z := add(gt(mod(mul(x, y), denominator), 0), div(mul(x, y), denominator)) */\n      swap1\n      pop\n        /* \"https://github.com/transmissions11/solmate/blob/main/src/utils/FixedPointMathLib.sol\":2096:2768  function mulDivUp(... */\n      swap4\n      swap3\n      pop\n      pop\n      pop\n      jump\t// out\n        /* \"https://github.com/transmissions11/solmate/blob/main/src/tokens/ERC20.sol\":5510:5956  function computeDomainSeparator() internal view virtual returns (bytes32) {... */\n    tag_232:\n        /* \"https://github.com/transmissions11/solmate/blob/main/src/tokens/ERC20.sol\":5575:5582  bytes32 */\n      0x00\n        /* \"https://github.com/transmissions11/solmate/blob/main/src/tokens/ERC20.sol\":5672:5767  keccak256(\"EIP712Domain(string name,string version,uint256 chainId,address verifyingContract)\") */\n      0x8b73c3c69bb8fe3d512ecc4cf759cc79239f7b179b0ffacaa9a75d522b39400f\n        /* \"https://github.com/transmissions11/solmate/blob/main/src/tokens/ERC20.sol\":5805:5809  name */\n      0x00\n        /* \"https://github.com/transmissions11/solmate/blob/main/src/tokens/ERC20.sol\":5789:5811  keccak256(bytes(name)) */\n      mload(0x40)\n      tag_339\n      swap2\n      swap1\n      tag_340\n      jump\t// in\n    tag_339:\n      mload(0x40)\n      dup1\n      swap2\n      sub\n      swap1\n      keccak256\n        /* \"https://github.com/transmissions11/solmate/blob/main/src/tokens/ERC20.sol\":5833:5847  keccak256(\"1\") */\n      0xc89efdaa54c0f20c7adf612882df0950f5a951637e0307cdcb4c672f298b8bc6\n        /* \"https://github.com/transmissions11/solmate/blob/main/src/tokens/ERC20.sol\":5869:5882  block.chainid */\n      chainid\n        /* \"https://github.com/transmissions11/solmate/blob/main/src/tokens/ERC20.sol\":5912:5916  this */\n      address\n        /* \"https://github.com/transmissions11/solmate/blob/main/src/tokens/ERC20.sol\":5640:5935  abi.encode(... */\n      add(0x20, mload(0x40))\n      tag_341\n      swap6\n      swap5\n      swap4\n      swap3\n      swap2\n      swap1\n      tag_342\n      jump\t// in\n    tag_341:\n      mload(0x40)\n      0x20\n      dup2\n      dup4\n      sub\n      sub\n      dup2\n      mstore\n      swap1\n      0x40\n      mstore\n        /* \"https://github.com/transmissions11/solmate/blob/main/src/tokens/ERC20.sol\":5613:5949  keccak256(... */\n      dup1\n      mload\n      swap1\n      0x20\n      add\n      keccak256\n        /* \"https://github.com/transmissions11/solmate/blob/main/src/tokens/ERC20.sol\":5594:5949  return... */\n      swap1\n      pop\n        /* \"https://github.com/transmissions11/solmate/blob/main/src/tokens/ERC20.sol\":5510:5956  function computeDomainSeparator() internal view virtual returns (bytes32) {... */\n      swap1\n      jump\t// out\n        /* \"https://github.com/transmissions11/solmate/blob/main/src/utils/SafeTransferLib.sol\":1187:2826  function safeTransferFrom(... */\n    tag_249:\n        /* \"https://github.com/transmissions11/solmate/blob/main/src/utils/SafeTransferLib.sol\":1325:1337  bool success */\n      0x00\n        /* \"https://github.com/transmissions11/solmate/blob/main/src/utils/SafeTransferLib.sol\":1495:1499  0x40 */\n      0x40\n        /* \"https://github.com/transmissions11/solmate/blob/main/src/utils/SafeTransferLib.sol\":1489:1500  mload(0x40) */\n      mload\n        /* \"https://github.com/transmissions11/solmate/blob/main/src/utils/SafeTransferLib.sol\":1637:1703  0x23b872dd00000000000000000000000000000000000000000000000000000000 */\n      0x23b872dd00000000000000000000000000000000000000000000000000000000\n        /* \"https://github.com/transmissions11/solmate/blob/main/src/utils/SafeTransferLib.sol\":1618:1635  freeMemoryPointer */\n      dup2\n        /* \"https://github.com/transmissions11/solmate/blob/main/src/utils/SafeTransferLib.sol\":1611:1704  mstore(freeMemoryPointer, 0x23b872dd00000000000000000000000000000000000000000000000000000000) */\n      mstore\n        /* \"https://github.com/transmissions11/solmate/blob/main/src/utils/SafeTransferLib.sol\":1761:1803  0xffffffffffffffffffffffffffffffffffffffff */\n      0xffffffffffffffffffffffffffffffffffffffff\n        /* \"https://github.com/transmissions11/solmate/blob/main/src/utils/SafeTransferLib.sol\":1755:1759  from */\n      dup6\n        /* \"https://github.com/transmissions11/solmate/blob/main/src/utils/SafeTransferLib.sol\":1751:1804  and(from, 0xffffffffffffffffffffffffffffffffffffffff) */\n      and\n        /* \"https://github.com/transmissions11/solmate/blob/main/src/utils/SafeTransferLib.sol\":1747:1748  4 */\n      0x04\n        /* \"https://github.com/transmissions11/solmate/blob/main/src/utils/SafeTransferLib.sol\":1728:1745  freeMemoryPointer */\n      dup3\n        /* \"https://github.com/transmissions11/solmate/blob/main/src/utils/SafeTransferLib.sol\":1724:1749  add(freeMemoryPointer, 4) */\n      add\n        /* \"https://github.com/transmissions11/solmate/blob/main/src/utils/SafeTransferLib.sol\":1717:1805  mstore(add(freeMemoryPointer, 4), and(from, 0xffffffffffffffffffffffffffffffffffffffff)) */\n      mstore\n        /* \"https://github.com/transmissions11/solmate/blob/main/src/utils/SafeTransferLib.sol\":1901:1943  0xffffffffffffffffffffffffffffffffffffffff */\n      0xffffffffffffffffffffffffffffffffffffffff\n        /* \"https://github.com/transmissions11/solmate/blob/main/src/utils/SafeTransferLib.sol\":1897:1899  to */\n      dup5\n        /* \"https://github.com/transmissions11/solmate/blob/main/src/utils/SafeTransferLib.sol\":1893:1944  and(to, 0xffffffffffffffffffffffffffffffffffffffff) */\n      and\n        /* \"https://github.com/transmissions11/solmate/blob/main/src/utils/SafeTransferLib.sol\":1888:1890  36 */\n      0x24\n        /* \"https://github.com/transmissions11/solmate/blob/main/src/utils/SafeTransferLib.sol\":1869:1886  freeMemoryPointer */\n      dup3\n        /* \"https://github.com/transmissions11/solmate/blob/main/src/utils/SafeTransferLib.sol\":1865:1891  add(freeMemoryPointer, 36) */\n      add\n        /* \"https://github.com/transmissions11/solmate/blob/main/src/utils/SafeTransferLib.sol\":1858:1945  mstore(add(freeMemoryPointer, 36), and(to, 0xffffffffffffffffffffffffffffffffffffffff)) */\n      mstore\n        /* \"https://github.com/transmissions11/solmate/blob/main/src/utils/SafeTransferLib.sol\":2031:2037  amount */\n      dup3\n        /* \"https://github.com/transmissions11/solmate/blob/main/src/utils/SafeTransferLib.sol\":2026:2028  68 */\n      0x44\n        /* \"https://github.com/transmissions11/solmate/blob/main/src/utils/SafeTransferLib.sol\":2007:2024  freeMemoryPointer */\n      dup3\n        /* \"https://github.com/transmissions11/solmate/blob/main/src/utils/SafeTransferLib.sol\":2003:2029  add(freeMemoryPointer, 68) */\n      add\n        /* \"https://github.com/transmissions11/solmate/blob/main/src/utils/SafeTransferLib.sol\":1996:2038  mstore(add(freeMemoryPointer, 68), amount) */\n      mstore\n        /* \"https://github.com/transmissions11/solmate/blob/main/src/utils/SafeTransferLib.sol\":2380:2382  32 */\n      0x20\n        /* \"https://github.com/transmissions11/solmate/blob/main/src/utils/SafeTransferLib.sol\":2377:2378  0 */\n      0x00\n        /* \"https://github.com/transmissions11/solmate/blob/main/src/utils/SafeTransferLib.sol\":2372:2375  100 */\n      0x64\n        /* \"https://github.com/transmissions11/solmate/blob/main/src/utils/SafeTransferLib.sol\":2353:2370  freeMemoryPointer */\n      dup4\n        /* \"https://github.com/transmissions11/solmate/blob/main/src/utils/SafeTransferLib.sol\":2350:2351  0 */\n      0x00\n        /* \"https://github.com/transmissions11/solmate/blob/main/src/utils/SafeTransferLib.sol\":2343:2348  token */\n      dup11\n        /* \"https://github.com/transmissions11/solmate/blob/main/src/utils/SafeTransferLib.sol\":2336:2341  gas() */\n      gas\n        /* \"https://github.com/transmissions11/solmate/blob/main/src/utils/SafeTransferLib.sol\":2331:2383  call(gas(), token, 0, freeMemoryPointer, 100, 0, 32) */\n      call\n        /* \"https://github.com/transmissions11/solmate/blob/main/src/utils/SafeTransferLib.sol\":2320:2383  success := call(gas(), token, 0, freeMemoryPointer, 100, 0, 32) */\n      swap2\n      pop\n        /* \"https://github.com/transmissions11/solmate/blob/main/src/utils/SafeTransferLib.sol\":2650:2657  success */\n      dup2\n        /* \"https://github.com/transmissions11/solmate/blob/main/src/utils/SafeTransferLib.sol\":2643:2645  31 */\n      0x1f\n        /* \"https://github.com/transmissions11/solmate/blob/main/src/utils/SafeTransferLib.sol\":2625:2641  returndatasize() */\n      returndatasize\n        /* \"https://github.com/transmissions11/solmate/blob/main/src/utils/SafeTransferLib.sol\":2622:2646  gt(returndatasize(), 31) */\n      gt\n        /* \"https://github.com/transmissions11/solmate/blob/main/src/utils/SafeTransferLib.sol\":2618:2619  1 */\n      0x01\n        /* \"https://github.com/transmissions11/solmate/blob/main/src/utils/SafeTransferLib.sol\":2614:2615  0 */\n      0x00\n        /* \"https://github.com/transmissions11/solmate/blob/main/src/utils/SafeTransferLib.sol\":2608:2616  mload(0) */\n      mload\n        /* \"https://github.com/transmissions11/solmate/blob/main/src/utils/SafeTransferLib.sol\":2605:2620  eq(mload(0), 1) */\n      eq\n        /* \"https://github.com/transmissions11/solmate/blob/main/src/utils/SafeTransferLib.sol\":2601:2647  and(eq(mload(0), 1), gt(returndatasize(), 31)) */\n      and\n        /* \"https://github.com/transmissions11/solmate/blob/main/src/utils/SafeTransferLib.sol\":2594:2648  iszero(and(eq(mload(0), 1), gt(returndatasize(), 31))) */\n      iszero\n        /* \"https://github.com/transmissions11/solmate/blob/main/src/utils/SafeTransferLib.sol\":2590:2658  and(iszero(and(eq(mload(0), 1), gt(returndatasize(), 31))), success) */\n      and\n        /* \"https://github.com/transmissions11/solmate/blob/main/src/utils/SafeTransferLib.sol\":2587:2759  if and(iszero(and(eq(mload(0), 1), gt(returndatasize(), 31))), success) {... */\n      iszero\n      tag_344\n      jumpi\n        /* \"https://github.com/transmissions11/solmate/blob/main/src/utils/SafeTransferLib.sol\":2726:2742  returndatasize() */\n      returndatasize\n        /* \"https://github.com/transmissions11/solmate/blob/main/src/utils/SafeTransferLib.sol\":2717:2722  token */\n      dup7\n        /* \"https://github.com/transmissions11/solmate/blob/main/src/utils/SafeTransferLib.sol\":2705:2723  extcodesize(token) */\n      extcodesize\n        /* \"https://github.com/transmissions11/solmate/blob/main/src/utils/SafeTransferLib.sol\":2698:2724  iszero(extcodesize(token)) */\n      iszero\n        /* \"https://github.com/transmissions11/solmate/blob/main/src/utils/SafeTransferLib.sol\":2695:2743  or(iszero(extcodesize(token)), returndatasize()) */\n      or\n        /* \"https://github.com/transmissions11/solmate/blob/main/src/utils/SafeTransferLib.sol\":2688:2744  iszero(or(iszero(extcodesize(token)), returndatasize())) */\n      iszero\n        /* \"https://github.com/transmissions11/solmate/blob/main/src/utils/SafeTransferLib.sol\":2677:2744  success := iszero(or(iszero(extcodesize(token)), returndatasize())) */\n      swap2\n      pop\n        /* \"https://github.com/transmissions11/solmate/blob/main/src/utils/SafeTransferLib.sol\":2587:2759  if and(iszero(and(eq(mload(0), 1), gt(returndatasize(), 31))), success) {... */\n    tag_344:\n        /* \"https://github.com/transmissions11/solmate/blob/main/src/utils/SafeTransferLib.sol\":1400:2769  {... */\n      pop\n        /* \"https://github.com/transmissions11/solmate/blob/main/src/utils/SafeTransferLib.sol\":2787:2794  success */\n      dup1\n        /* \"https://github.com/transmissions11/solmate/blob/main/src/utils/SafeTransferLib.sol\":2779:2819  require(success, \"TRANSFER_FROM_FAILED\") */\n      tag_345\n      jumpi\n      mload(0x40)\n      0x08c379a000000000000000000000000000000000000000000000000000000000\n      dup2\n      mstore\n      0x04\n      add\n      tag_346\n      swap1\n      tag_347\n      jump\t// in\n    tag_346:\n      mload(0x40)\n      dup1\n      swap2\n      sub\n      swap1\n      revert\n    tag_345:\n        /* \"https://github.com/transmissions11/solmate/blob/main/src/utils/SafeTransferLib.sol\":1315:2826  {... */\n      pop\n        /* \"https://github.com/transmissions11/solmate/blob/main/src/utils/SafeTransferLib.sol\":1187:2826  function safeTransferFrom(... */\n      pop\n      pop\n      pop\n      pop\n      jump\t// out\n        /* \"https://github.com/transmissions11/solmate/blob/main/src/tokens/ERC20.sol\":6150:6475  function _mint(address to, uint256 amount) internal virtual {... */\n    tag_251:\n        /* \"https://github.com/transmissions11/solmate/blob/main/src/tokens/ERC20.sol\":6235:6241  amount */\n      dup1\n        /* \"https://github.com/transmissions11/solmate/blob/main/src/tokens/ERC20.sol\":6220:6231  totalSupply */\n      0x02\n      0x00\n        /* \"https://github.com/transmissions11/solmate/blob/main/src/tokens/ERC20.sol\":6220:6241  totalSupply += amount */\n      dup3\n      dup3\n      sload\n      tag_349\n      swap2\n      swap1\n      tag_226\n      jump\t// in\n    tag_349:\n      swap3\n      pop\n      pop\n      dup2\n      swap1\n      sstore\n      pop\n        /* \"https://github.com/transmissions11/solmate/blob/main/src/tokens/ERC20.sol\":6404:6410  amount */\n      dup1\n        /* \"https://github.com/transmissions11/solmate/blob/main/src/tokens/ERC20.sol\":6387:6396  balanceOf */\n      0x03\n        /* \"https://github.com/transmissions11/solmate/blob/main/src/tokens/ERC20.sol\":6387:6400  balanceOf[to] */\n      0x00\n        /* \"https://github.com/transmissions11/solmate/blob/main/src/tokens/ERC20.sol\":6397:6399  to */\n      dup5\n        /* \"https://github.com/transmissions11/solmate/blob/main/src/tokens/ERC20.sol\":6387:6400  balanceOf[to] */\n      0xffffffffffffffffffffffffffffffffffffffff\n      and\n      0xffffffffffffffffffffffffffffffffffffffff\n      and\n      dup2\n      mstore\n      0x20\n      add\n      swap1\n      dup2\n      mstore\n      0x20\n      add\n      0x00\n      keccak256\n      0x00\n        /* \"https://github.com/transmissions11/solmate/blob/main/src/tokens/ERC20.sol\":6387:6410  balanceOf[to] += amount */\n      dup3\n      dup3\n      sload\n      add\n      swap3\n      pop\n      pop\n      dup2\n      swap1\n      sstore\n      pop\n        /* \"https://github.com/transmissions11/solmate/blob/main/src/tokens/ERC20.sol\":6457:6459  to */\n      dup2\n        /* \"https://github.com/transmissions11/solmate/blob/main/src/tokens/ERC20.sol\":6436:6468  Transfer(address(0), to, amount) */\n      0xffffffffffffffffffffffffffffffffffffffff\n      and\n        /* \"https://github.com/transmissions11/solmate/blob/main/src/tokens/ERC20.sol\":6453:6454  0 */\n      0x00\n        /* \"https://github.com/transmissions11/solmate/blob/main/src/tokens/ERC20.sol\":6436:6468  Transfer(address(0), to, amount) */\n      0xffffffffffffffffffffffffffffffffffffffff\n      and\n      0xddf252ad1be2c89b69c2b068fc378daa952ba7f163c4a11628f55a4df523b3ef\n        /* \"https://github.com/transmissions11/solmate/blob/main/src/tokens/ERC20.sol\":6461:6467  amount */\n      dup4\n        /* \"https://github.com/transmissions11/solmate/blob/main/src/tokens/ERC20.sol\":6436:6468  Transfer(address(0), to, amount) */\n      mload(0x40)\n      tag_350\n      swap2\n      swap1\n      tag_45\n      jump\t// in\n    tag_350:\n      mload(0x40)\n      dup1\n      swap2\n      sub\n      swap1\n      log3\n        /* \"https://github.com/transmissions11/solmate/blob/main/src/tokens/ERC20.sol\":6150:6475  function _mint(address to, uint256 amount) internal virtual {... */\n      pop\n      pop\n      jump\t// out\n        /* \"https://github.com/transmissions11/solmate/blob/main/src/tokens/ERC4626.sol\":6443:6516  function afterDeposit(uint256 assets, uint256 shares) internal virtual {} */\n    tag_255:\n      pop\n      pop\n      jump\t// out\n        /* \"https://github.com/transmissions11/solmate/blob/main/src/tokens/ERC4626.sol\":6362:6437  function beforeWithdraw(uint256 assets, uint256 shares) internal virtual {} */\n    tag_287:\n      pop\n      pop\n      jump\t// out\n        /* \"https://github.com/transmissions11/solmate/blob/main/src/tokens/ERC20.sol\":6481:6809  function _burn(address from, uint256 amount) internal virtual {... */\n    tag_289:\n        /* \"https://github.com/transmissions11/solmate/blob/main/src/tokens/ERC20.sol\":6572:6578  amount */\n      dup1\n        /* \"https://github.com/transmissions11/solmate/blob/main/src/tokens/ERC20.sol\":6553:6562  balanceOf */\n      0x03\n        /* \"https://github.com/transmissions11/solmate/blob/main/src/tokens/ERC20.sol\":6553:6568  balanceOf[from] */\n      0x00\n        /* \"https://github.com/transmissions11/solmate/blob/main/src/tokens/ERC20.sol\":6563:6567  from */\n      dup5\n        /* \"https://github.com/transmissions11/solmate/blob/main/src/tokens/ERC20.sol\":6553:6568  balanceOf[from] */\n      0xffffffffffffffffffffffffffffffffffffffff\n      and\n      0xffffffffffffffffffffffffffffffffffffffff\n      and\n      dup2\n      mstore\n      0x20\n      add\n      swap1\n      dup2\n      mstore\n      0x20\n      add\n      0x00\n      keccak256\n      0x00\n        /* \"https://github.com/transmissions11/solmate/blob/main/src/tokens/ERC20.sol\":6553:6578  balanceOf[from] -= amount */\n      dup3\n      dup3\n      sload\n      tag_354\n      swap2\n      swap1\n      tag_205\n      jump\t// in\n    tag_354:\n      swap3\n      pop\n      pop\n      dup2\n      swap1\n      sstore\n      pop\n        /* \"https://github.com/transmissions11/solmate/blob/main/src/tokens/ERC20.sol\":6736:6742  amount */\n      dup1\n        /* \"https://github.com/transmissions11/solmate/blob/main/src/tokens/ERC20.sol\":6721:6732  totalSupply */\n      0x02\n      0x00\n        /* \"https://github.com/transmissions11/solmate/blob/main/src/tokens/ERC20.sol\":6721:6742  totalSupply -= amount */\n      dup3\n      dup3\n      sload\n      sub\n      swap3\n      pop\n      pop\n      dup2\n      swap1\n      sstore\n      pop\n        /* \"https://github.com/transmissions11/solmate/blob/main/src/tokens/ERC20.sol\":6791:6792  0 */\n      0x00\n        /* \"https://github.com/transmissions11/solmate/blob/main/src/tokens/ERC20.sol\":6768:6802  Transfer(from, address(0), amount) */\n      0xffffffffffffffffffffffffffffffffffffffff\n      and\n        /* \"https://github.com/transmissions11/solmate/blob/main/src/tokens/ERC20.sol\":6777:6781  from */\n      dup3\n        /* \"https://github.com/transmissions11/solmate/blob/main/src/tokens/ERC20.sol\":6768:6802  Transfer(from, address(0), amount) */\n      0xffffffffffffffffffffffffffffffffffffffff\n      and\n      0xddf252ad1be2c89b69c2b068fc378daa952ba7f163c4a11628f55a4df523b3ef\n        /* \"https://github.com/transmissions11/solmate/blob/main/src/tokens/ERC20.sol\":6795:6801  amount */\n      dup4\n        /* \"https://github.com/transmissions11/solmate/blob/main/src/tokens/ERC20.sol\":6768:6802  Transfer(from, address(0), amount) */\n      mload(0x40)\n      tag_355\n      swap2\n      swap1\n      tag_45\n      jump\t// in\n    tag_355:\n      mload(0x40)\n      dup1\n      swap2\n      sub\n      swap1\n      log3\n        /* \"https://github.com/transmissions11/solmate/blob/main/src/tokens/ERC20.sol\":6481:6809  function _burn(address from, uint256 amount) internal virtual {... */\n      pop\n      pop\n      jump\t// out\n        /* \"https://github.com/transmissions11/solmate/blob/main/src/utils/SafeTransferLib.sol\":2832:4296  function safeTransfer(... */\n    tag_292:\n        /* \"https://github.com/transmissions11/solmate/blob/main/src/utils/SafeTransferLib.sol\":2944:2956  bool success */\n      0x00\n        /* \"https://github.com/transmissions11/solmate/blob/main/src/utils/SafeTransferLib.sol\":3114:3118  0x40 */\n      0x40\n        /* \"https://github.com/transmissions11/solmate/blob/main/src/utils/SafeTransferLib.sol\":3108:3119  mload(0x40) */\n      mload\n        /* \"https://github.com/transmissions11/solmate/blob/main/src/utils/SafeTransferLib.sol\":3256:3322  0xa9059cbb00000000000000000000000000000000000000000000000000000000 */\n      0xa9059cbb00000000000000000000000000000000000000000000000000000000\n        /* \"https://github.com/transmissions11/solmate/blob/main/src/utils/SafeTransferLib.sol\":3237:3254  freeMemoryPointer */\n      dup2\n        /* \"https://github.com/transmissions11/solmate/blob/main/src/utils/SafeTransferLib.sol\":3230:3323  mstore(freeMemoryPointer, 0xa9059cbb00000000000000000000000000000000000000000000000000000000) */\n      mstore\n        /* \"https://github.com/transmissions11/solmate/blob/main/src/utils/SafeTransferLib.sol\":3378:3420  0xffffffffffffffffffffffffffffffffffffffff */\n      0xffffffffffffffffffffffffffffffffffffffff\n        /* \"https://github.com/transmissions11/solmate/blob/main/src/utils/SafeTransferLib.sol\":3374:3376  to */\n      dup5\n        /* \"https://github.com/transmissions11/solmate/blob/main/src/utils/SafeTransferLib.sol\":3370:3421  and(to, 0xffffffffffffffffffffffffffffffffffffffff) */\n      and\n        /* \"https://github.com/transmissions11/solmate/blob/main/src/utils/SafeTransferLib.sol\":3366:3367  4 */\n      0x04\n        /* \"https://github.com/transmissions11/solmate/blob/main/src/utils/SafeTransferLib.sol\":3347:3364  freeMemoryPointer */\n      dup3\n        /* \"https://github.com/transmissions11/solmate/blob/main/src/utils/SafeTransferLib.sol\":3343:3368  add(freeMemoryPointer, 4) */\n      add\n        /* \"https://github.com/transmissions11/solmate/blob/main/src/utils/SafeTransferLib.sol\":3336:3422  mstore(add(freeMemoryPointer, 4), and(to, 0xffffffffffffffffffffffffffffffffffffffff)) */\n      mstore\n        /* \"https://github.com/transmissions11/solmate/blob/main/src/utils/SafeTransferLib.sol\":3508:3514  amount */\n      dup3\n        /* \"https://github.com/transmissions11/solmate/blob/main/src/utils/SafeTransferLib.sol\":3503:3505  36 */\n      0x24\n        /* \"https://github.com/transmissions11/solmate/blob/main/src/utils/SafeTransferLib.sol\":3484:3501  freeMemoryPointer */\n      dup3\n        /* \"https://github.com/transmissions11/solmate/blob/main/src/utils/SafeTransferLib.sol\":3480:3506  add(freeMemoryPointer, 36) */\n      add\n        /* \"https://github.com/transmissions11/solmate/blob/main/src/utils/SafeTransferLib.sol\":3473:3515  mstore(add(freeMemoryPointer, 36), amount) */\n      mstore\n        /* \"https://github.com/transmissions11/solmate/blob/main/src/utils/SafeTransferLib.sol\":3855:3857  32 */\n      0x20\n        /* \"https://github.com/transmissions11/solmate/blob/main/src/utils/SafeTransferLib.sol\":3852:3853  0 */\n      0x00\n        /* \"https://github.com/transmissions11/solmate/blob/main/src/utils/SafeTransferLib.sol\":3848:3850  68 */\n      0x44\n        /* \"https://github.com/transmissions11/solmate/blob/main/src/utils/SafeTransferLib.sol\":3829:3846  freeMemoryPointer */\n      dup4\n        /* \"https://github.com/transmissions11/solmate/blob/main/src/utils/SafeTransferLib.sol\":3826:3827  0 */\n      0x00\n        /* \"https://github.com/transmissions11/solmate/blob/main/src/utils/SafeTransferLib.sol\":3819:3824  token */\n      dup10\n        /* \"https://github.com/transmissions11/solmate/blob/main/src/utils/SafeTransferLib.sol\":3812:3817  gas() */\n      gas\n        /* \"https://github.com/transmissions11/solmate/blob/main/src/utils/SafeTransferLib.sol\":3807:3858  call(gas(), token, 0, freeMemoryPointer, 68, 0, 32) */\n      call\n        /* \"https://github.com/transmissions11/solmate/blob/main/src/utils/SafeTransferLib.sol\":3796:3858  success := call(gas(), token, 0, freeMemoryPointer, 68, 0, 32) */\n      swap2\n      pop\n        /* \"https://github.com/transmissions11/solmate/blob/main/src/utils/SafeTransferLib.sol\":4125:4132  success */\n      dup2\n        /* \"https://github.com/transmissions11/solmate/blob/main/src/utils/SafeTransferLib.sol\":4118:4120  31 */\n      0x1f\n        /* \"https://github.com/transmissions11/solmate/blob/main/src/utils/SafeTransferLib.sol\":4100:4116  returndatasize() */\n      returndatasize\n        /* \"https://github.com/transmissions11/solmate/blob/main/src/utils/SafeTransferLib.sol\":4097:4121  gt(returndatasize(), 31) */\n      gt\n        /* \"https://github.com/transmissions11/solmate/blob/main/src/utils/SafeTransferLib.sol\":4093:4094  1 */\n      0x01\n        /* \"https://github.com/transmissions11/solmate/blob/main/src/utils/SafeTransferLib.sol\":4089:4090  0 */\n      0x00\n        /* \"https://github.com/transmissions11/solmate/blob/main/src/utils/SafeTransferLib.sol\":4083:4091  mload(0) */\n      mload\n        /* \"https://github.com/transmissions11/solmate/blob/main/src/utils/SafeTransferLib.sol\":4080:4095  eq(mload(0), 1) */\n      eq\n        /* \"https://github.com/transmissions11/solmate/blob/main/src/utils/SafeTransferLib.sol\":4076:4122  and(eq(mload(0), 1), gt(returndatasize(), 31)) */\n      and\n        /* \"https://github.com/transmissions11/solmate/blob/main/src/utils/SafeTransferLib.sol\":4069:4123  iszero(and(eq(mload(0), 1), gt(returndatasize(), 31))) */\n      iszero\n        /* \"https://github.com/transmissions11/solmate/blob/main/src/utils/SafeTransferLib.sol\":4065:4133  and(iszero(and(eq(mload(0), 1), gt(returndatasize(), 31))), success) */\n      and\n        /* \"https://github.com/transmissions11/solmate/blob/main/src/utils/SafeTransferLib.sol\":4062:4234  if and(iszero(and(eq(mload(0), 1), gt(returndatasize(), 31))), success) {... */\n      iszero\n      tag_357\n      jumpi\n        /* \"https://github.com/transmissions11/solmate/blob/main/src/utils/SafeTransferLib.sol\":4201:4217  returndatasize() */\n      returndatasize\n        /* \"https://github.com/transmissions11/solmate/blob/main/src/utils/SafeTransferLib.sol\":4192:4197  token */\n      dup6\n        /* \"https://github.com/transmissions11/solmate/blob/main/src/utils/SafeTransferLib.sol\":4180:4198  extcodesize(token) */\n      extcodesize\n        /* \"https://github.com/transmissions11/solmate/blob/main/src/utils/SafeTransferLib.sol\":4173:4199  iszero(extcodesize(token)) */\n      iszero\n        /* \"https://github.com/transmissions11/solmate/blob/main/src/utils/SafeTransferLib.sol\":4170:4218  or(iszero(extcodesize(token)), returndatasize()) */\n      or\n        /* \"https://github.com/transmissions11/solmate/blob/main/src/utils/SafeTransferLib.sol\":4163:4219  iszero(or(iszero(extcodesize(token)), returndatasize())) */\n      iszero\n        /* \"https://github.com/transmissions11/solmate/blob/main/src/utils/SafeTransferLib.sol\":4152:4219  success := iszero(or(iszero(extcodesize(token)), returndatasize())) */\n      swap2\n      pop\n        /* \"https://github.com/transmissions11/solmate/blob/main/src/utils/SafeTransferLib.sol\":4062:4234  if and(iszero(and(eq(mload(0), 1), gt(returndatasize(), 31))), success) {... */\n    tag_357:\n        /* \"https://github.com/transmissions11/solmate/blob/main/src/utils/SafeTransferLib.sol\":3019:4244  {... */\n      pop\n        /* \"https://github.com/transmissions11/solmate/blob/main/src/utils/SafeTransferLib.sol\":4262:4269  success */\n      dup1\n        /* \"https://github.com/transmissions11/solmate/blob/main/src/utils/SafeTransferLib.sol\":4254:4289  require(success, \"TRANSFER_FAILED\") */\n      tag_358\n      jumpi\n      mload(0x40)\n      0x08c379a000000000000000000000000000000000000000000000000000000000\n      dup2\n      mstore\n      0x04\n      add\n      tag_359\n      swap1\n      tag_360\n      jump\t// in\n    tag_359:\n      mload(0x40)\n      dup1\n      swap2\n      sub\n      swap1\n      revert\n    tag_358:\n        /* \"https://github.com/transmissions11/solmate/blob/main/src/utils/SafeTransferLib.sol\":2934:4296  {... */\n      pop\n        /* \"https://github.com/transmissions11/solmate/blob/main/src/utils/SafeTransferLib.sol\":2832:4296  function safeTransfer(... */\n      pop\n      pop\n      pop\n      jump\t// out\n        /* \"#utility.yul\":7:146   */\n    tag_362:\n        /* \"#utility.yul\":53:58   */\n      0x00\n        /* \"#utility.yul\":91:97   */\n      dup2\n        /* \"#utility.yul\":78:98   */\n      calldataload\n        /* \"#utility.yul\":69:98   */\n      swap1\n      pop\n        /* \"#utility.yul\":107:140   */\n      tag_364\n        /* \"#utility.yul\":134:139   */\n      dup2\n        /* \"#utility.yul\":107:140   */\n      tag_365\n      jump\t// in\n    tag_364:\n        /* \"#utility.yul\":7:146   */\n      swap3\n      swap2\n      pop\n      pop\n      jump\t// out\n        /* \"#utility.yul\":152:291   */\n    tag_366:\n        /* \"#utility.yul\":198:203   */\n      0x00\n        /* \"#utility.yul\":236:242   */\n      dup2\n        /* \"#utility.yul\":223:243   */\n      calldataload\n        /* \"#utility.yul\":214:243   */\n      swap1\n      pop\n        /* \"#utility.yul\":252:285   */\n      tag_368\n        /* \"#utility.yul\":279:284   */\n      dup2\n        /* \"#utility.yul\":252:285   */\n      tag_369\n      jump\t// in\n    tag_368:\n        /* \"#utility.yul\":152:291   */\n      swap3\n      swap2\n      pop\n      pop\n      jump\t// out\n        /* \"#utility.yul\":297:436   */\n    tag_370:\n        /* \"#utility.yul\":343:348   */\n      0x00\n        /* \"#utility.yul\":381:387   */\n      dup2\n        /* \"#utility.yul\":368:388   */\n      calldataload\n        /* \"#utility.yul\":359:388   */\n      swap1\n      pop\n        /* \"#utility.yul\":397:430   */\n      tag_372\n        /* \"#utility.yul\":424:429   */\n      dup2\n        /* \"#utility.yul\":397:430   */\n      tag_373\n      jump\t// in\n    tag_372:\n        /* \"#utility.yul\":297:436   */\n      swap3\n      swap2\n      pop\n      pop\n      jump\t// out\n        /* \"#utility.yul\":442:585   */\n    tag_374:\n        /* \"#utility.yul\":499:504   */\n      0x00\n        /* \"#utility.yul\":530:536   */\n      dup2\n        /* \"#utility.yul\":524:537   */\n      mload\n        /* \"#utility.yul\":515:537   */\n      swap1\n      pop\n        /* \"#utility.yul\":546:579   */\n      tag_376\n        /* \"#utility.yul\":573:578   */\n      dup2\n        /* \"#utility.yul\":546:579   */\n      tag_373\n      jump\t// in\n    tag_376:\n        /* \"#utility.yul\":442:585   */\n      swap3\n      swap2\n      pop\n      pop\n      jump\t// out\n        /* \"#utility.yul\":591:726   */\n    tag_377:\n        /* \"#utility.yul\":635:640   */\n      0x00\n        /* \"#utility.yul\":673:679   */\n      dup2\n        /* \"#utility.yul\":660:680   */\n      calldataload\n        /* \"#utility.yul\":651:680   */\n      swap1\n      pop\n        /* \"#utility.yul\":689:720   */\n      tag_379\n        /* \"#utility.yul\":714:719   */\n      dup2\n        /* \"#utility.yul\":689:720   */\n      tag_380\n      jump\t// in\n    tag_379:\n        /* \"#utility.yul\":591:726   */\n      swap3\n      swap2\n      pop\n      pop\n      jump\t// out\n        /* \"#utility.yul\":732:1061   */\n    tag_91:\n        /* \"#utility.yul\":791:797   */\n      0x00\n        /* \"#utility.yul\":840:842   */\n      0x20\n        /* \"#utility.yul\":828:837   */\n      dup3\n        /* \"#utility.yul\":819:826   */\n      dup5\n        /* \"#utility.yul\":815:838   */\n      sub\n        /* \"#utility.yul\":811:843   */\n      slt\n        /* \"#utility.yul\":808:927   */\n      iszero\n      tag_382\n      jumpi\n        /* \"#utility.yul\":846:925   */\n      tag_383\n      tag_384\n      jump\t// in\n    tag_383:\n        /* \"#utility.yul\":808:927   */\n    tag_382:\n        /* \"#utility.yul\":966:967   */\n      0x00\n        /* \"#utility.yul\":991:1044   */\n      tag_385\n        /* \"#utility.yul\":1036:1043   */\n      dup5\n        /* \"#utility.yul\":1027:1033   */\n      dup3\n        /* \"#utility.yul\":1016:1025   */\n      dup6\n        /* \"#utility.yul\":1012:1034   */\n      add\n        /* \"#utility.yul\":991:1044   */\n      tag_362\n      jump\t// in\n    tag_385:\n        /* \"#utility.yul\":981:1044   */\n      swap2\n      pop\n        /* \"#utility.yul\":937:1054   */\n      pop\n        /* \"#utility.yul\":732:1061   */\n      swap3\n      swap2\n      pop\n      pop\n      jump\t// out\n        /* \"#utility.yul\":1067:1541   */\n    tag_163:\n        /* \"#utility.yul\":1135:1141   */\n      0x00\n        /* \"#utility.yul\":1143:1149   */\n      dup1\n        /* \"#utility.yul\":1192:1194   */\n      0x40\n        /* \"#utility.yul\":1180:1189   */\n      dup4\n        /* \"#utility.yul\":1171:1178   */\n      dup6\n        /* \"#utility.yul\":1167:1190   */\n      sub\n        /* \"#utility.yul\":1163:1195   */\n      slt\n        /* \"#utility.yul\":1160:1279   */\n      iszero\n      tag_387\n      jumpi\n        /* \"#utility.yul\":1198:1277   */\n      tag_388\n      tag_384\n      jump\t// in\n    tag_388:\n        /* \"#utility.yul\":1160:1279   */\n    tag_387:\n        /* \"#utility.yul\":1318:1319   */\n      0x00\n        /* \"#utility.yul\":1343:1396   */\n      tag_389\n        /* \"#utility.yul\":1388:1395   */\n      dup6\n        /* \"#utility.yul\":1379:1385   */\n      dup3\n        /* \"#utility.yul\":1368:1377   */\n      dup7\n        /* \"#utility.yul\":1364:1386   */\n      add\n        /* \"#utility.yul\":1343:1396   */\n      tag_362\n      jump\t// in\n    tag_389:\n        /* \"#utility.yul\":1333:1396   */\n      swap3\n      pop\n        /* \"#utility.yul\":1289:1406   */\n      pop\n        /* \"#utility.yul\":1445:1447   */\n      0x20\n        /* \"#utility.yul\":1471:1524   */\n      tag_390\n        /* \"#utility.yul\":1516:1523   */\n      dup6\n        /* \"#utility.yul\":1507:1513   */\n      dup3\n        /* \"#utility.yul\":1496:1505   */\n      dup7\n        /* \"#utility.yul\":1492:1514   */\n      add\n        /* \"#utility.yul\":1471:1524   */\n      tag_362\n      jump\t// in\n    tag_390:\n        /* \"#utility.yul\":1461:1524   */\n      swap2\n      pop\n        /* \"#utility.yul\":1416:1534   */\n      pop\n        /* \"#utility.yul\":1067:1541   */\n      swap3\n      pop\n      swap3\n      swap1\n      pop\n      jump\t// out\n        /* \"#utility.yul\":1547:2166   */\n    tag_70:\n        /* \"#utility.yul\":1624:1630   */\n      0x00\n        /* \"#utility.yul\":1632:1638   */\n      dup1\n        /* \"#utility.yul\":1640:1646   */\n      0x00\n        /* \"#utility.yul\":1689:1691   */\n      0x60\n        /* \"#utility.yul\":1677:1686   */\n      dup5\n        /* \"#utility.yul\":1668:1675   */\n      dup7\n        /* \"#utility.yul\":1664:1687   */\n      sub\n        /* \"#utility.yul\":1660:1692   */\n      slt\n        /* \"#utility.yul\":1657:1776   */\n      iszero\n      tag_392\n      jumpi\n        /* \"#utility.yul\":1695:1774   */\n      tag_393\n      tag_384\n      jump\t// in\n    tag_393:\n        /* \"#utility.yul\":1657:1776   */\n    tag_392:\n        /* \"#utility.yul\":1815:1816   */\n      0x00\n        /* \"#utility.yul\":1840:1893   */\n      tag_394\n        /* \"#utility.yul\":1885:1892   */\n      dup7\n        /* \"#utility.yul\":1876:1882   */\n      dup3\n        /* \"#utility.yul\":1865:1874   */\n      dup8\n        /* \"#utility.yul\":1861:1883   */\n      add\n        /* \"#utility.yul\":1840:1893   */\n      tag_362\n      jump\t// in\n    tag_394:\n        /* \"#utility.yul\":1830:1893   */\n      swap4\n      pop\n        /* \"#utility.yul\":1786:1903   */\n      pop\n        /* \"#utility.yul\":1942:1944   */\n      0x20\n        /* \"#utility.yul\":1968:2021   */\n      tag_395\n        /* \"#utility.yul\":2013:2020   */\n      dup7\n        /* \"#utility.yul\":2004:2010   */\n      dup3\n        /* \"#utility.yul\":1993:2002   */\n      dup8\n        /* \"#utility.yul\":1989:2011   */\n      add\n        /* \"#utility.yul\":1968:2021   */\n      tag_362\n      jump\t// in\n    tag_395:\n        /* \"#utility.yul\":1958:2021   */\n      swap3\n      pop\n        /* \"#utility.yul\":1913:2031   */\n      pop\n        /* \"#utility.yul\":2070:2072   */\n      0x40\n        /* \"#utility.yul\":2096:2149   */\n      tag_396\n        /* \"#utility.yul\":2141:2148   */\n      dup7\n        /* \"#utility.yul\":2132:2138   */\n      dup3\n        /* \"#utility.yul\":2121:2130   */\n      dup8\n        /* \"#utility.yul\":2117:2139   */\n      add\n        /* \"#utility.yul\":2096:2149   */\n      tag_370\n      jump\t// in\n    tag_396:\n        /* \"#utility.yul\":2086:2149   */\n      swap2\n      pop\n        /* \"#utility.yul\":2041:2159   */\n      pop\n        /* \"#utility.yul\":1547:2166   */\n      swap3\n      pop\n      swap3\n      pop\n      swap3\n      jump\t// out\n        /* \"#utility.yul\":2172:3371   */\n    tag_155:\n        /* \"#utility.yul\":2283:2289   */\n      0x00\n        /* \"#utility.yul\":2291:2297   */\n      dup1\n        /* \"#utility.yul\":2299:2305   */\n      0x00\n        /* \"#utility.yul\":2307:2313   */\n      dup1\n        /* \"#utility.yul\":2315:2321   */\n      0x00\n        /* \"#utility.yul\":2323:2329   */\n      dup1\n        /* \"#utility.yul\":2331:2337   */\n      0x00\n        /* \"#utility.yul\":2380:2383   */\n      0xe0\n        /* \"#utility.yul\":2368:2377   */\n      dup9\n        /* \"#utility.yul\":2359:2366   */\n      dup11\n        /* \"#utility.yul\":2355:2378   */\n      sub\n        /* \"#utility.yul\":2351:2384   */\n      slt\n        /* \"#utility.yul\":2348:2468   */\n      iszero\n      tag_398\n      jumpi\n        /* \"#utility.yul\":2387:2466   */\n      tag_399\n      tag_384\n      jump\t// in\n    tag_399:\n        /* \"#utility.yul\":2348:2468   */\n    tag_398:\n        /* \"#utility.yul\":2507:2508   */\n      0x00\n        /* \"#utility.yul\":2532:2585   */\n      tag_400\n        /* \"#utility.yul\":2577:2584   */\n      dup11\n        /* \"#utility.yul\":2568:2574   */\n      dup3\n        /* \"#utility.yul\":2557:2566   */\n      dup12\n        /* \"#utility.yul\":2553:2575   */\n      add\n        /* \"#utility.yul\":2532:2585   */\n      tag_362\n      jump\t// in\n    tag_400:\n        /* \"#utility.yul\":2522:2585   */\n      swap8\n      pop\n        /* \"#utility.yul\":2478:2595   */\n      pop\n        /* \"#utility.yul\":2634:2636   */\n      0x20\n        /* \"#utility.yul\":2660:2713   */\n      tag_401\n        /* \"#utility.yul\":2705:2712   */\n      dup11\n        /* \"#utility.yul\":2696:2702   */\n      dup3\n        /* \"#utility.yul\":2685:2694   */\n      dup12\n        /* \"#utility.yul\":2681:2703   */\n      add\n        /* \"#utility.yul\":2660:2713   */\n      tag_362\n      jump\t// in\n    tag_401:\n        /* \"#utility.yul\":2650:2713   */\n      swap7\n      pop\n        /* \"#utility.yul\":2605:2723   */\n      pop\n        /* \"#utility.yul\":2762:2764   */\n      0x40\n        /* \"#utility.yul\":2788:2841   */\n      tag_402\n        /* \"#utility.yul\":2833:2840   */\n      dup11\n        /* \"#utility.yul\":2824:2830   */\n      dup3\n        /* \"#utility.yul\":2813:2822   */\n      dup12\n        /* \"#utility.yul\":2809:2831   */\n      add\n        /* \"#utility.yul\":2788:2841   */\n      tag_370\n      jump\t// in\n    tag_402:\n        /* \"#utility.yul\":2778:2841   */\n      swap6\n      pop\n        /* \"#utility.yul\":2733:2851   */\n      pop\n        /* \"#utility.yul\":2890:2892   */\n      0x60\n        /* \"#utility.yul\":2916:2969   */\n      tag_403\n        /* \"#utility.yul\":2961:2968   */\n      dup11\n        /* \"#utility.yul\":2952:2958   */\n      dup3\n        /* \"#utility.yul\":2941:2950   */\n      dup12\n        /* \"#utility.yul\":2937:2959   */\n      add\n        /* \"#utility.yul\":2916:2969   */\n      tag_370\n      jump\t// in\n    tag_403:\n        /* \"#utility.yul\":2906:2969   */\n      swap5\n      pop\n        /* \"#utility.yul\":2861:2979   */\n      pop\n        /* \"#utility.yul\":3018:3021   */\n      0x80\n        /* \"#utility.yul\":3045:3096   */\n      tag_404\n        /* \"#utility.yul\":3088:3095   */\n      dup11\n        /* \"#utility.yul\":3079:3085   */\n      dup3\n        /* \"#utility.yul\":3068:3077   */\n      dup12\n        /* \"#utility.yul\":3064:3086   */\n      add\n        /* \"#utility.yul\":3045:3096   */\n      tag_377\n      jump\t// in\n    tag_404:\n        /* \"#utility.yul\":3035:3096   */\n      swap4\n      pop\n        /* \"#utility.yul\":2989:3106   */\n      pop\n        /* \"#utility.yul\":3145:3148   */\n      0xa0\n        /* \"#utility.yul\":3172:3225   */\n      tag_405\n        /* \"#utility.yul\":3217:3224   */\n      dup11\n        /* \"#utility.yul\":3208:3214   */\n      dup3\n        /* \"#utility.yul\":3197:3206   */\n      dup12\n        /* \"#utility.yul\":3193:3215   */\n      add\n        /* \"#utility.yul\":3172:3225   */\n      tag_366\n      jump\t// in\n    tag_405:\n        /* \"#utility.yul\":3162:3225   */\n      swap3\n      pop\n        /* \"#utility.yul\":3116:3235   */\n      pop\n        /* \"#utility.yul\":3274:3277   */\n      0xc0\n        /* \"#utility.yul\":3301:3354   */\n      tag_406\n        /* \"#utility.yul\":3346:3353   */\n      dup11\n        /* \"#utility.yul\":3337:3343   */\n      dup3\n        /* \"#utility.yul\":3326:3335   */\n      dup12\n        /* \"#utility.yul\":3322:3344   */\n      add\n        /* \"#utility.yul\":3301:3354   */\n      tag_366\n      jump\t// in\n    tag_406:\n        /* \"#utility.yul\":3291:3354   */\n      swap2\n      pop\n        /* \"#utility.yul\":3245:3364   */\n      pop\n        /* \"#utility.yul\":2172:3371   */\n      swap3\n      swap6\n      swap9\n      swap2\n      swap5\n      swap8\n      pop\n      swap3\n      swap6\n      pop\n      jump\t// out\n        /* \"#utility.yul\":3377:3851   */\n    tag_57:\n        /* \"#utility.yul\":3445:3451   */\n      0x00\n        /* \"#utility.yul\":3453:3459   */\n      dup1\n        /* \"#utility.yul\":3502:3504   */\n      0x40\n        /* \"#utility.yul\":3490:3499   */\n      dup4\n        /* \"#utility.yul\":3481:3488   */\n      dup6\n        /* \"#utility.yul\":3477:3500   */\n      sub\n        /* \"#utility.yul\":3473:3505   */\n      slt\n        /* \"#utility.yul\":3470:3589   */\n      iszero\n      tag_408\n      jumpi\n        /* \"#utility.yul\":3508:3587   */\n      tag_409\n      tag_384\n      jump\t// in\n    tag_409:\n        /* \"#utility.yul\":3470:3589   */\n    tag_408:\n        /* \"#utility.yul\":3628:3629   */\n      0x00\n        /* \"#utility.yul\":3653:3706   */\n      tag_410\n        /* \"#utility.yul\":3698:3705   */\n      dup6\n        /* \"#utility.yul\":3689:3695   */\n      dup3\n        /* \"#utility.yul\":3678:3687   */\n      dup7\n        /* \"#utility.yul\":3674:3696   */\n      add\n        /* \"#utility.yul\":3653:3706   */\n      tag_362\n      jump\t// in\n    tag_410:\n        /* \"#utility.yul\":3643:3706   */\n      swap3\n      pop\n        /* \"#utility.yul\":3599:3716   */\n      pop\n        /* \"#utility.yul\":3755:3757   */\n      0x20\n        /* \"#utility.yul\":3781:3834   */\n      tag_411\n        /* \"#utility.yul\":3826:3833   */\n      dup6\n        /* \"#utility.yul\":3817:3823   */\n      dup3\n        /* \"#utility.yul\":3806:3815   */\n      dup7\n        /* \"#utility.yul\":3802:3824   */\n      add\n        /* \"#utility.yul\":3781:3834   */\n      tag_370\n      jump\t// in\n    tag_411:\n        /* \"#utility.yul\":3771:3834   */\n      swap2\n      pop\n        /* \"#utility.yul\":3726:3844   */\n      pop\n        /* \"#utility.yul\":3377:3851   */\n      swap3\n      pop\n      swap3\n      swap1\n      pop\n      jump\t// out\n        /* \"#utility.yul\":3857:4186   */\n    tag_52:\n        /* \"#utility.yul\":3916:3922   */\n      0x00\n        /* \"#utility.yul\":3965:3967   */\n      0x20\n        /* \"#utility.yul\":3953:3962   */\n      dup3\n        /* \"#utility.yul\":3944:3951   */\n      dup5\n        /* \"#utility.yul\":3940:3963   */\n      sub\n        /* \"#utility.yul\":3936:3968   */\n      slt\n        /* \"#utility.yul\":3933:4052   */\n      iszero\n      tag_413\n      jumpi\n        /* \"#utility.yul\":3971:4050   */\n      tag_414\n      tag_384\n      jump\t// in\n    tag_414:\n        /* \"#utility.yul\":3933:4052   */\n    tag_413:\n        /* \"#utility.yul\":4091:4092   */\n      0x00\n        /* \"#utility.yul\":4116:4169   */\n      tag_415\n        /* \"#utility.yul\":4161:4168   */\n      dup5\n        /* \"#utility.yul\":4152:4158   */\n      dup3\n        /* \"#utility.yul\":4141:4150   */\n      dup6\n        /* \"#utility.yul\":4137:4159   */\n      add\n        /* \"#utility.yul\":4116:4169   */\n      tag_370\n      jump\t// in\n    tag_415:\n        /* \"#utility.yul\":4106:4169   */\n      swap2\n      pop\n        /* \"#utility.yul\":4062:4179   */\n      pop\n        /* \"#utility.yul\":3857:4186   */\n      swap3\n      swap2\n      pop\n      pop\n      jump\t// out\n        /* \"#utility.yul\":4192:4543   */\n    tag_181:\n        /* \"#utility.yul\":4262:4268   */\n      0x00\n        /* \"#utility.yul\":4311:4313   */\n      0x20\n        /* \"#utility.yul\":4299:4308   */\n      dup3\n        /* \"#utility.yul\":4290:4297   */\n      dup5\n        /* \"#utility.yul\":4286:4309   */\n      sub\n        /* \"#utility.yul\":4282:4314   */\n      slt\n        /* \"#utility.yul\":4279:4398   */\n      iszero\n      tag_417\n      jumpi\n        /* \"#utility.yul\":4317:4396   */\n      tag_418\n      tag_384\n      jump\t// in\n    tag_418:\n        /* \"#utility.yul\":4279:4398   */\n    tag_417:\n        /* \"#utility.yul\":4437:4438   */\n      0x00\n        /* \"#utility.yul\":4462:4526   */\n      tag_419\n        /* \"#utility.yul\":4518:4525   */\n      dup5\n        /* \"#utility.yul\":4509:4515   */\n      dup3\n        /* \"#utility.yul\":4498:4507   */\n      dup6\n        /* \"#utility.yul\":4494:4516   */\n      add\n        /* \"#utility.yul\":4462:4526   */\n      tag_374\n      jump\t// in\n    tag_419:\n        /* \"#utility.yul\":4452:4526   */\n      swap2\n      pop\n        /* \"#utility.yul\":4408:4536   */\n      pop\n        /* \"#utility.yul\":4192:4543   */\n      swap3\n      swap2\n      pop\n      pop\n      jump\t// out\n        /* \"#utility.yul\":4549:5023   */\n    tag_75:\n        /* \"#utility.yul\":4617:4623   */\n      0x00\n        /* \"#utility.yul\":4625:4631   */\n      dup1\n        /* \"#utility.yul\":4674:4676   */\n      0x40\n        /* \"#utility.yul\":4662:4671   */\n      dup4\n        /* \"#utility.yul\":4653:4660   */\n      dup6\n        /* \"#utility.yul\":4649:4672   */\n      sub\n        /* \"#utility.yul\":4645:4677   */\n      slt\n        /* \"#utility.yul\":4642:4761   */\n      iszero\n      tag_421\n      jumpi\n        /* \"#utility.yul\":4680:4759   */\n      tag_422\n      tag_384\n      jump\t// in\n    tag_422:\n        /* \"#utility.yul\":4642:4761   */\n    tag_421:\n        /* \"#utility.yul\":4800:4801   */\n      0x00\n        /* \"#utility.yul\":4825:4878   */\n      tag_423\n        /* \"#utility.yul\":4870:4877   */\n      dup6\n        /* \"#utility.yul\":4861:4867   */\n      dup3\n        /* \"#utility.yul\":4850:4859   */\n      dup7\n        /* \"#utility.yul\":4846:4868   */\n      add\n        /* \"#utility.yul\":4825:4878   */\n      tag_370\n      jump\t// in\n    tag_423:\n        /* \"#utility.yul\":4815:4878   */\n      swap3\n      pop\n        /* \"#utility.yul\":4771:4888   */\n      pop\n        /* \"#utility.yul\":4927:4929   */\n      0x20\n        /* \"#utility.yul\":4953:5006   */\n      tag_424\n        /* \"#utility.yul\":4998:5005   */\n      dup6\n        /* \"#utility.yul\":4989:4995   */\n      dup3\n        /* \"#utility.yul\":4978:4987   */\n      dup7\n        /* \"#utility.yul\":4974:4996   */\n      add\n        /* \"#utility.yul\":4953:5006   */\n      tag_362\n      jump\t// in\n    tag_424:\n        /* \"#utility.yul\":4943:5006   */\n      swap2\n      pop\n        /* \"#utility.yul\":4898:5016   */\n      pop\n        /* \"#utility.yul\":4549:5023   */\n      swap3\n      pop\n      swap3\n      swap1\n      pop\n      jump\t// out\n        /* \"#utility.yul\":5029:5648   */\n    tag_134:\n        /* \"#utility.yul\":5106:5112   */\n      0x00\n        /* \"#utility.yul\":5114:5120   */\n      dup1\n        /* \"#utility.yul\":5122:5128   */\n      0x00\n        /* \"#utility.yul\":5171:5173   */\n      0x60\n        /* \"#utility.yul\":5159:5168   */\n      dup5\n        /* \"#utility.yul\":5150:5157   */\n      dup7\n        /* \"#utility.yul\":5146:5169   */\n      sub\n        /* \"#utility.yul\":5142:5174   */\n      slt\n        /* \"#utility.yul\":5139:5258   */\n      iszero\n      tag_426\n      jumpi\n        /* \"#utility.yul\":5177:5256   */\n      tag_427\n      tag_384\n      jump\t// in\n    tag_427:\n        /* \"#utility.yul\":5139:5258   */\n    tag_426:\n        /* \"#utility.yul\":5297:5298   */\n      0x00\n        /* \"#utility.yul\":5322:5375   */\n      tag_428\n        /* \"#utility.yul\":5367:5374   */\n      dup7\n        /* \"#utility.yul\":5358:5364   */\n      dup3\n        /* \"#utility.yul\":5347:5356   */\n      dup8\n        /* \"#utility.yul\":5343:5365   */\n      add\n        /* \"#utility.yul\":5322:5375   */\n      tag_370\n      jump\t// in\n    tag_428:\n        /* \"#utility.yul\":5312:5375   */\n      swap4\n      pop\n        /* \"#utility.yul\":5268:5385   */\n      pop\n        /* \"#utility.yul\":5424:5426   */\n      0x20\n        /* \"#utility.yul\":5450:5503   */\n      tag_429\n        /* \"#utility.yul\":5495:5502   */\n      dup7\n        /* \"#utility.yul\":5486:5492   */\n      dup3\n        /* \"#utility.yul\":5475:5484   */\n      dup8\n        /* \"#utility.yul\":5471:5493   */\n      add\n        /* \"#utility.yul\":5450:5503   */\n      tag_362\n      jump\t// in\n    tag_429:\n        /* \"#utility.yul\":5440:5503   */\n      swap3\n      pop\n        /* \"#utility.yul\":5395:5513   */\n      pop\n        /* \"#utility.yul\":5552:5554   */\n      0x40\n        /* \"#utility.yul\":5578:5631   */\n      tag_430\n        /* \"#utility.yul\":5623:5630   */\n      dup7\n        /* \"#utility.yul\":5614:5620   */\n      dup3\n        /* \"#utility.yul\":5603:5612   */\n      dup8\n        /* \"#utility.yul\":5599:5621   */\n      add\n        /* \"#utility.yul\":5578:5631   */\n      tag_362\n      jump\t// in\n    tag_430:\n        /* \"#utility.yul\":5568:5631   */\n      swap2\n      pop\n        /* \"#utility.yul\":5523:5641   */\n      pop\n        /* \"#utility.yul\":5029:5648   */\n      swap3\n      pop\n      swap3\n      pop\n      swap3\n      jump\t// out\n        /* \"#utility.yul\":5654:5772   */\n    tag_431:\n        /* \"#utility.yul\":5741:5765   */\n      tag_433\n        /* \"#utility.yul\":5759:5764   */\n      dup2\n        /* \"#utility.yul\":5741:5765   */\n      tag_434\n      jump\t// in\n    tag_433:\n        /* \"#utility.yul\":5736:5739   */\n      dup3\n        /* \"#utility.yul\":5729:5766   */\n      mstore\n        /* \"#utility.yul\":5654:5772   */\n      pop\n      pop\n      jump\t// out\n        /* \"#utility.yul\":5778:5887   */\n    tag_435:\n        /* \"#utility.yul\":5859:5880   */\n      tag_437\n        /* \"#utility.yul\":5874:5879   */\n      dup2\n        /* \"#utility.yul\":5859:5880   */\n      tag_438\n      jump\t// in\n    tag_437:\n        /* \"#utility.yul\":5854:5857   */\n      dup3\n        /* \"#utility.yul\":5847:5881   */\n      mstore\n        /* \"#utility.yul\":5778:5887   */\n      pop\n      pop\n      jump\t// out\n        /* \"#utility.yul\":5893:6011   */\n    tag_439:\n        /* \"#utility.yul\":5980:6004   */\n      tag_441\n        /* \"#utility.yul\":5998:6003   */\n      dup2\n        /* \"#utility.yul\":5980:6004   */\n      tag_442\n      jump\t// in\n    tag_441:\n        /* \"#utility.yul\":5975:5978   */\n      dup3\n        /* \"#utility.yul\":5968:6005   */\n      mstore\n        /* \"#utility.yul\":5893:6011   */\n      pop\n      pop\n      jump\t// out\n        /* \"#utility.yul\":6017:6174   */\n    tag_443:\n        /* \"#utility.yul\":6122:6167   */\n      tag_445\n        /* \"#utility.yul\":6142:6166   */\n      tag_446\n        /* \"#utility.yul\":6160:6165   */\n      dup3\n        /* \"#utility.yul\":6142:6166   */\n      tag_442\n      jump\t// in\n    tag_446:\n        /* \"#utility.yul\":6122:6167   */\n      tag_447\n      jump\t// in\n    tag_445:\n        /* \"#utility.yul\":6117:6120   */\n      dup3\n        /* \"#utility.yul\":6110:6168   */\n      mstore\n        /* \"#utility.yul\":6017:6174   */\n      pop\n      pop\n      jump\t// out\n        /* \"#utility.yul\":6202:7051   */\n    tag_448:\n        /* \"#utility.yul\":6307:6310   */\n      0x00\n        /* \"#utility.yul\":6344:6349   */\n      dup2\n        /* \"#utility.yul\":6338:6350   */\n      sload\n        /* \"#utility.yul\":6373:6409   */\n      tag_450\n        /* \"#utility.yul\":6399:6408   */\n      dup2\n        /* \"#utility.yul\":6373:6409   */\n      tag_183\n      jump\t// in\n    tag_450:\n        /* \"#utility.yul\":6425:6513   */\n      tag_451\n        /* \"#utility.yul\":6506:6512   */\n      dup2\n        /* \"#utility.yul\":6501:6504   */\n      dup7\n        /* \"#utility.yul\":6425:6513   */\n      tag_452\n      jump\t// in\n    tag_451:\n        /* \"#utility.yul\":6418:6513   */\n      swap5\n      pop\n        /* \"#utility.yul\":6544:6545   */\n      0x01\n        /* \"#utility.yul\":6533:6542   */\n      dup3\n        /* \"#utility.yul\":6529:6546   */\n      and\n        /* \"#utility.yul\":6560:6561   */\n      0x00\n        /* \"#utility.yul\":6555:6692   */\n      dup2\n      eq\n      tag_454\n      jumpi\n        /* \"#utility.yul\":6706:6707   */\n      0x01\n        /* \"#utility.yul\":6701:7045   */\n      dup2\n      eq\n      tag_455\n      jumpi\n        /* \"#utility.yul\":6522:7045   */\n      jump(tag_453)\n        /* \"#utility.yul\":6555:6692   */\n    tag_454:\n        /* \"#utility.yul\":6639:6643   */\n      0xff\n        /* \"#utility.yul\":6635:6644   */\n      not\n        /* \"#utility.yul\":6624:6633   */\n      dup4\n        /* \"#utility.yul\":6620:6645   */\n      and\n        /* \"#utility.yul\":6615:6618   */\n      dup7\n        /* \"#utility.yul\":6608:6646   */\n      mstore\n        /* \"#utility.yul\":6675:6681   */\n      dup2\n        /* \"#utility.yul\":6670:6673   */\n      dup7\n        /* \"#utility.yul\":6666:6682   */\n      add\n        /* \"#utility.yul\":6659:6682   */\n      swap4\n      pop\n        /* \"#utility.yul\":6555:6692   */\n      jump(tag_453)\n        /* \"#utility.yul\":6701:7045   */\n    tag_455:\n        /* \"#utility.yul\":6768:6809   */\n      tag_456\n        /* \"#utility.yul\":6803:6808   */\n      dup6\n        /* \"#utility.yul\":6768:6809   */\n      tag_457\n      jump\t// in\n    tag_456:\n        /* \"#utility.yul\":6831:6832   */\n      0x00\n        /* \"#utility.yul\":6845:6999   */\n    tag_458:\n        /* \"#utility.yul\":6859:6865   */\n      dup4\n        /* \"#utility.yul\":6856:6857   */\n      dup2\n        /* \"#utility.yul\":6853:6866   */\n      lt\n        /* \"#utility.yul\":6845:6999   */\n      iszero\n      tag_460\n      jumpi\n        /* \"#utility.yul\":6933:6940   */\n      dup2\n        /* \"#utility.yul\":6927:6941   */\n      sload\n        /* \"#utility.yul\":6923:6924   */\n      dup2\n        /* \"#utility.yul\":6918:6921   */\n      dup10\n        /* \"#utility.yul\":6914:6925   */\n      add\n        /* \"#utility.yul\":6907:6942   */\n      mstore\n        /* \"#utility.yul\":6983:6984   */\n      0x01\n        /* \"#utility.yul\":6974:6981   */\n      dup3\n        /* \"#utility.yul\":6970:6985   */\n      add\n        /* \"#utility.yul\":6959:6985   */\n      swap2\n      pop\n        /* \"#utility.yul\":6881:6885   */\n      0x20\n        /* \"#utility.yul\":6878:6879   */\n      dup2\n        /* \"#utility.yul\":6874:6886   */\n      add\n        /* \"#utility.yul\":6869:6886   */\n      swap1\n      pop\n        /* \"#utility.yul\":6845:6999   */\n      jump(tag_458)\n    tag_460:\n        /* \"#utility.yul\":7028:7034   */\n      dup4\n        /* \"#utility.yul\":7023:7026   */\n      dup9\n        /* \"#utility.yul\":7019:7035   */\n      add\n        /* \"#utility.yul\":7012:7035   */\n      swap6\n      pop\n        /* \"#utility.yul\":6708:7045   */\n      pop\n      pop\n        /* \"#utility.yul\":6522:7045   */\n    tag_453:\n      pop\n        /* \"#utility.yul\":6311:7051   */\n      pop\n      pop\n        /* \"#utility.yul\":6202:7051   */\n      swap3\n      swap2\n      pop\n      pop\n      jump\t// out\n        /* \"#utility.yul\":7057:7214   */\n    tag_461:\n        /* \"#utility.yul\":7157:7207   */\n      tag_463\n        /* \"#utility.yul\":7201:7206   */\n      dup2\n        /* \"#utility.yul\":7157:7207   */\n      tag_464\n      jump\t// in\n    tag_463:\n        /* \"#utility.yul\":7152:7155   */\n      dup3\n        /* \"#utility.yul\":7145:7208   */\n      mstore\n        /* \"#utility.yul\":7057:7214   */\n      pop\n      pop\n      jump\t// out\n        /* \"#utility.yul\":7220:7584   */\n    tag_465:\n        /* \"#utility.yul\":7308:7311   */\n      0x00\n        /* \"#utility.yul\":7336:7375   */\n      tag_467\n        /* \"#utility.yul\":7369:7374   */\n      dup3\n        /* \"#utility.yul\":7336:7375   */\n      tag_468\n      jump\t// in\n    tag_467:\n        /* \"#utility.yul\":7391:7462   */\n      tag_469\n        /* \"#utility.yul\":7455:7461   */\n      dup2\n        /* \"#utility.yul\":7450:7453   */\n      dup6\n        /* \"#utility.yul\":7391:7462   */\n      tag_470\n      jump\t// in\n    tag_469:\n        /* \"#utility.yul\":7384:7462   */\n      swap4\n      pop\n        /* \"#utility.yul\":7471:7523   */\n      tag_471\n        /* \"#utility.yul\":7516:7522   */\n      dup2\n        /* \"#utility.yul\":7511:7514   */\n      dup6\n        /* \"#utility.yul\":7504:7508   */\n      0x20\n        /* \"#utility.yul\":7497:7502   */\n      dup7\n        /* \"#utility.yul\":7493:7509   */\n      add\n        /* \"#utility.yul\":7471:7523   */\n      tag_472\n      jump\t// in\n    tag_471:\n        /* \"#utility.yul\":7548:7577   */\n      tag_473\n        /* \"#utility.yul\":7570:7576   */\n      dup2\n        /* \"#utility.yul\":7548:7577   */\n      tag_474\n      jump\t// in\n    tag_473:\n        /* \"#utility.yul\":7543:7546   */\n      dup5\n        /* \"#utility.yul\":7539:7578   */\n      add\n        /* \"#utility.yul\":7532:7578   */\n      swap2\n      pop\n        /* \"#utility.yul\":7312:7584   */\n      pop\n        /* \"#utility.yul\":7220:7584   */\n      swap3\n      swap2\n      pop\n      pop\n      jump\t// out\n        /* \"#utility.yul\":7590:7956   */\n    tag_475:\n        /* \"#utility.yul\":7732:7735   */\n      0x00\n        /* \"#utility.yul\":7753:7820   */\n      tag_477\n        /* \"#utility.yul\":7817:7819   */\n      0x0b\n        /* \"#utility.yul\":7812:7815   */\n      dup4\n        /* \"#utility.yul\":7753:7820   */\n      tag_470\n      jump\t// in\n    tag_477:\n        /* \"#utility.yul\":7746:7820   */\n      swap2\n      pop\n        /* \"#utility.yul\":7829:7922   */\n      tag_478\n        /* \"#utility.yul\":7918:7921   */\n      dup3\n        /* \"#utility.yul\":7829:7922   */\n      tag_479\n      jump\t// in\n    tag_478:\n        /* \"#utility.yul\":7947:7949   */\n      0x20\n        /* \"#utility.yul\":7942:7945   */\n      dup3\n        /* \"#utility.yul\":7938:7950   */\n      add\n        /* \"#utility.yul\":7931:7950   */\n      swap1\n      pop\n        /* \"#utility.yul\":7590:7956   */\n      swap2\n      swap1\n      pop\n      jump\t// out\n        /* \"#utility.yul\":7962:8362   */\n    tag_480:\n        /* \"#utility.yul\":8122:8125   */\n      0x00\n        /* \"#utility.yul\":8143:8227   */\n      tag_482\n        /* \"#utility.yul\":8225:8226   */\n      0x02\n        /* \"#utility.yul\":8220:8223   */\n      dup4\n        /* \"#utility.yul\":8143:8227   */\n      tag_483\n      jump\t// in\n    tag_482:\n        /* \"#utility.yul\":8136:8227   */\n      swap2\n      pop\n        /* \"#utility.yul\":8236:8329   */\n      tag_484\n        /* \"#utility.yul\":8325:8328   */\n      dup3\n        /* \"#utility.yul\":8236:8329   */\n      tag_485\n      jump\t// in\n    tag_484:\n        /* \"#utility.yul\":8354:8355   */\n      0x02\n        /* \"#utility.yul\":8349:8352   */\n      dup3\n        /* \"#utility.yul\":8345:8356   */\n      add\n        /* \"#utility.yul\":8338:8356   */\n      swap1\n      pop\n        /* \"#utility.yul\":7962:8362   */\n      swap2\n      swap1\n      pop\n      jump\t// out\n        /* \"#utility.yul\":8368:8734   */\n    tag_486:\n        /* \"#utility.yul\":8510:8513   */\n      0x00\n        /* \"#utility.yul\":8531:8598   */\n      tag_488\n        /* \"#utility.yul\":8595:8597   */\n      0x12\n        /* \"#utility.yul\":8590:8593   */\n      dup4\n        /* \"#utility.yul\":8531:8598   */\n      tag_470\n      jump\t// in\n    tag_488:\n        /* \"#utility.yul\":8524:8598   */\n      swap2\n      pop\n        /* \"#utility.yul\":8607:8700   */\n      tag_489\n        /* \"#utility.yul\":8696:8699   */\n      dup3\n        /* \"#utility.yul\":8607:8700   */\n      tag_490\n      jump\t// in\n    tag_489:\n        /* \"#utility.yul\":8725:8727   */\n      0x20\n        /* \"#utility.yul\":8720:8723   */\n      dup3\n        /* \"#utility.yul\":8716:8728   */\n      add\n        /* \"#utility.yul\":8709:8728   */\n      swap1\n      pop\n        /* \"#utility.yul\":8368:8734   */\n      swap2\n      swap1\n      pop\n      jump\t// out\n        /* \"#utility.yul\":8740:9106   */\n    tag_491:\n        /* \"#utility.yul\":8882:8885   */\n      0x00\n        /* \"#utility.yul\":8903:8970   */\n      tag_493\n        /* \"#utility.yul\":8967:8969   */\n      0x14\n        /* \"#utility.yul\":8962:8965   */\n      dup4\n        /* \"#utility.yul\":8903:8970   */\n      tag_470\n      jump\t// in\n    tag_493:\n        /* \"#utility.yul\":8896:8970   */\n      swap2\n      pop\n        /* \"#utility.yul\":8979:9072   */\n      tag_494\n        /* \"#utility.yul\":9068:9071   */\n      dup3\n        /* \"#utility.yul\":8979:9072   */\n      tag_495\n      jump\t// in\n    tag_494:\n        /* \"#utility.yul\":9097:9099   */\n      0x20\n        /* \"#utility.yul\":9092:9095   */\n      dup3\n        /* \"#utility.yul\":9088:9100   */\n      add\n        /* \"#utility.yul\":9081:9100   */\n      swap1\n      pop\n        /* \"#utility.yul\":8740:9106   */\n      swap2\n      swap1\n      pop\n      jump\t// out\n        /* \"#utility.yul\":9112:9478   */\n    tag_496:\n        /* \"#utility.yul\":9254:9257   */\n      0x00\n        /* \"#utility.yul\":9275:9342   */\n      tag_498\n        /* \"#utility.yul\":9339:9341   */\n      0x22\n        /* \"#utility.yul\":9334:9337   */\n      dup4\n        /* \"#utility.yul\":9275:9342   */\n      tag_470\n      jump\t// in\n    tag_498:\n        /* \"#utility.yul\":9268:9342   */\n      swap2\n      pop\n        /* \"#utility.yul\":9351:9444   */\n      tag_499\n        /* \"#utility.yul\":9440:9443   */\n      dup3\n        /* \"#utility.yul\":9351:9444   */\n      tag_500\n      jump\t// in\n    tag_499:\n        /* \"#utility.yul\":9469:9471   */\n      0x40\n        /* \"#utility.yul\":9464:9467   */\n      dup3\n        /* \"#utility.yul\":9460:9472   */\n      add\n        /* \"#utility.yul\":9453:9472   */\n      swap1\n      pop\n        /* \"#utility.yul\":9112:9478   */\n      swap2\n      swap1\n      pop\n      jump\t// out\n        /* \"#utility.yul\":9484:9850   */\n    tag_501:\n        /* \"#utility.yul\":9626:9629   */\n      0x00\n        /* \"#utility.yul\":9647:9714   */\n      tag_503\n        /* \"#utility.yul\":9711:9713   */\n      0x0f\n        /* \"#utility.yul\":9706:9709   */\n      dup4\n        /* \"#utility.yul\":9647:9714   */\n      tag_470\n      jump\t// in\n    tag_503:\n        /* \"#utility.yul\":9640:9714   */\n      swap2\n      pop\n        /* \"#utility.yul\":9723:9816   */\n      tag_504\n        /* \"#utility.yul\":9812:9815   */\n      dup3\n        /* \"#utility.yul\":9723:9816   */\n      tag_505\n      jump\t// in\n    tag_504:\n        /* \"#utility.yul\":9841:9843   */\n      0x20\n        /* \"#utility.yul\":9836:9839   */\n      dup3\n        /* \"#utility.yul\":9832:9844   */\n      add\n        /* \"#utility.yul\":9825:9844   */\n      swap1\n      pop\n        /* \"#utility.yul\":9484:9850   */\n      swap2\n      swap1\n      pop\n      jump\t// out\n        /* \"#utility.yul\":9856:10222   */\n    tag_506:\n        /* \"#utility.yul\":9998:10001   */\n      0x00\n        /* \"#utility.yul\":10019:10086   */\n      tag_508\n        /* \"#utility.yul\":10083:10085   */\n      0x11\n        /* \"#utility.yul\":10078:10081   */\n      dup4\n        /* \"#utility.yul\":10019:10086   */\n      tag_470\n      jump\t// in\n    tag_508:\n        /* \"#utility.yul\":10012:10086   */\n      swap2\n      pop\n        /* \"#utility.yul\":10095:10188   */\n      tag_509\n        /* \"#utility.yul\":10184:10187   */\n      dup3\n        /* \"#utility.yul\":10095:10188   */\n      tag_510\n      jump\t// in\n    tag_509:\n        /* \"#utility.yul\":10213:10215   */\n      0x20\n        /* \"#utility.yul\":10208:10211   */\n      dup3\n        /* \"#utility.yul\":10204:10216   */\n      add\n        /* \"#utility.yul\":10197:10216   */\n      swap1\n      pop\n        /* \"#utility.yul\":9856:10222   */\n      swap2\n      swap1\n      pop\n      jump\t// out\n        /* \"#utility.yul\":10228:10594   */\n    tag_511:\n        /* \"#utility.yul\":10370:10373   */\n      0x00\n        /* \"#utility.yul\":10391:10458   */\n      tag_513\n        /* \"#utility.yul\":10455:10457   */\n      0x0c\n        /* \"#utility.yul\":10450:10453   */\n      dup4\n        /* \"#utility.yul\":10391:10458   */\n      tag_470\n      jump\t// in\n    tag_513:\n        /* \"#utility.yul\":10384:10458   */\n      swap2\n      pop\n        /* \"#utility.yul\":10467:10560   */\n      tag_514\n        /* \"#utility.yul\":10556:10559   */\n      dup3\n        /* \"#utility.yul\":10467:10560   */\n      tag_515\n      jump\t// in\n    tag_514:\n        /* \"#utility.yul\":10585:10587   */\n      0x20\n        /* \"#utility.yul\":10580:10583   */\n      dup3\n        /* \"#utility.yul\":10576:10588   */\n      add\n        /* \"#utility.yul\":10569:10588   */\n      swap1\n      pop\n        /* \"#utility.yul\":10228:10594   */\n      swap2\n      swap1\n      pop\n      jump\t// out\n        /* \"#utility.yul\":10600:10966   */\n    tag_516:\n        /* \"#utility.yul\":10742:10745   */\n      0x00\n        /* \"#utility.yul\":10763:10830   */\n      tag_518\n        /* \"#utility.yul\":10827:10829   */\n      0x0e\n        /* \"#utility.yul\":10822:10825   */\n      dup4\n        /* \"#utility.yul\":10763:10830   */\n      tag_470\n      jump\t// in\n    tag_518:\n        /* \"#utility.yul\":10756:10830   */\n      swap2\n      pop\n        /* \"#utility.yul\":10839:10932   */\n      tag_519\n        /* \"#utility.yul\":10928:10931   */\n      dup3\n        /* \"#utility.yul\":10839:10932   */\n      tag_520\n      jump\t// in\n    tag_519:\n        /* \"#utility.yul\":10957:10959   */\n      0x20\n        /* \"#utility.yul\":10952:10955   */\n      dup3\n        /* \"#utility.yul\":10948:10960   */\n      add\n        /* \"#utility.yul\":10941:10960   */\n      swap1\n      pop\n        /* \"#utility.yul\":10600:10966   */\n      swap2\n      swap1\n      pop\n      jump\t// out\n        /* \"#utility.yul\":10972:11338   */\n    tag_521:\n        /* \"#utility.yul\":11114:11117   */\n      0x00\n        /* \"#utility.yul\":11135:11202   */\n      tag_523\n        /* \"#utility.yul\":11199:11201   */\n      0x0b\n        /* \"#utility.yul\":11194:11197   */\n      dup4\n        /* \"#utility.yul\":11135:11202   */\n      tag_470\n      jump\t// in\n    tag_523:\n        /* \"#utility.yul\":11128:11202   */\n      swap2\n      pop\n        /* \"#utility.yul\":11211:11304   */\n      tag_524\n        /* \"#utility.yul\":11300:11303   */\n      dup3\n        /* \"#utility.yul\":11211:11304   */\n      tag_525\n      jump\t// in\n    tag_524:\n        /* \"#utility.yul\":11329:11331   */\n      0x20\n        /* \"#utility.yul\":11324:11327   */\n      dup3\n        /* \"#utility.yul\":11320:11332   */\n      add\n        /* \"#utility.yul\":11313:11332   */\n      swap1\n      pop\n        /* \"#utility.yul\":10972:11338   */\n      swap2\n      swap1\n      pop\n      jump\t// out\n        /* \"#utility.yul\":11344:11710   */\n    tag_526:\n        /* \"#utility.yul\":11486:11489   */\n      0x00\n        /* \"#utility.yul\":11507:11574   */\n      tag_528\n        /* \"#utility.yul\":11571:11573   */\n      0x16\n        /* \"#utility.yul\":11566:11569   */\n      dup4\n        /* \"#utility.yul\":11507:11574   */\n      tag_470\n      jump\t// in\n    tag_528:\n        /* \"#utility.yul\":11500:11574   */\n      swap2\n      pop\n        /* \"#utility.yul\":11583:11676   */\n      tag_529\n        /* \"#utility.yul\":11672:11675   */\n      dup3\n        /* \"#utility.yul\":11583:11676   */\n      tag_530\n      jump\t// in\n    tag_529:\n        /* \"#utility.yul\":11701:11703   */\n      0x20\n        /* \"#utility.yul\":11696:11699   */\n      dup3\n        /* \"#utility.yul\":11692:11704   */\n      add\n        /* \"#utility.yul\":11685:11704   */\n      swap1\n      pop\n        /* \"#utility.yul\":11344:11710   */\n      swap2\n      swap1\n      pop\n      jump\t// out\n        /* \"#utility.yul\":11716:12082   */\n    tag_531:\n        /* \"#utility.yul\":11858:11861   */\n      0x00\n        /* \"#utility.yul\":11879:11946   */\n      tag_533\n        /* \"#utility.yul\":11943:11945   */\n      0x17\n        /* \"#utility.yul\":11938:11941   */\n      dup4\n        /* \"#utility.yul\":11879:11946   */\n      tag_470\n      jump\t// in\n    tag_533:\n        /* \"#utility.yul\":11872:11946   */\n      swap2\n      pop\n        /* \"#utility.yul\":11955:12048   */\n      tag_534\n        /* \"#utility.yul\":12044:12047   */\n      dup3\n        /* \"#utility.yul\":11955:12048   */\n      tag_535\n      jump\t// in\n    tag_534:\n        /* \"#utility.yul\":12073:12075   */\n      0x20\n        /* \"#utility.yul\":12068:12071   */\n      dup3\n        /* \"#utility.yul\":12064:12076   */\n      add\n        /* \"#utility.yul\":12057:12076   */\n      swap1\n      pop\n        /* \"#utility.yul\":11716:12082   */\n      swap2\n      swap1\n      pop\n      jump\t// out\n        /* \"#utility.yul\":12088:12206   */\n    tag_536:\n        /* \"#utility.yul\":12175:12199   */\n      tag_538\n        /* \"#utility.yul\":12193:12198   */\n      dup2\n        /* \"#utility.yul\":12175:12199   */\n      tag_539\n      jump\t// in\n    tag_538:\n        /* \"#utility.yul\":12170:12173   */\n      dup3\n        /* \"#utility.yul\":12163:12200   */\n      mstore\n        /* \"#utility.yul\":12088:12206   */\n      pop\n      pop\n      jump\t// out\n        /* \"#utility.yul\":12212:12324   */\n    tag_540:\n        /* \"#utility.yul\":12295:12317   */\n      tag_542\n        /* \"#utility.yul\":12311:12316   */\n      dup2\n        /* \"#utility.yul\":12295:12317   */\n      tag_543\n      jump\t// in\n    tag_542:\n        /* \"#utility.yul\":12290:12293   */\n      dup3\n        /* \"#utility.yul\":12283:12318   */\n      mstore\n        /* \"#utility.yul\":12212:12324   */\n      pop\n      pop\n      jump\t// out\n        /* \"#utility.yul\":12330:12603   */\n    tag_340:\n        /* \"#utility.yul\":12461:12464   */\n      0x00\n        /* \"#utility.yul\":12483:12577   */\n      tag_545\n        /* \"#utility.yul\":12573:12576   */\n      dup3\n        /* \"#utility.yul\":12564:12570   */\n      dup5\n        /* \"#utility.yul\":12483:12577   */\n      tag_448\n      jump\t// in\n    tag_545:\n        /* \"#utility.yul\":12476:12577   */\n      swap2\n      pop\n        /* \"#utility.yul\":12594:12597   */\n      dup2\n        /* \"#utility.yul\":12587:12597   */\n      swap1\n      pop\n        /* \"#utility.yul\":12330:12603   */\n      swap3\n      swap2\n      pop\n      pop\n      jump\t// out\n        /* \"#utility.yul\":12609:13272   */\n    tag_321:\n        /* \"#utility.yul\":12850:12853   */\n      0x00\n        /* \"#utility.yul\":12872:13020   */\n      tag_547\n        /* \"#utility.yul\":13016:13019   */\n      dup3\n        /* \"#utility.yul\":12872:13020   */\n      tag_480\n      jump\t// in\n    tag_547:\n        /* \"#utility.yul\":12865:13020   */\n      swap2\n      pop\n        /* \"#utility.yul\":13030:13105   */\n      tag_548\n        /* \"#utility.yul\":13101:13104   */\n      dup3\n        /* \"#utility.yul\":13092:13098   */\n      dup6\n        /* \"#utility.yul\":13030:13105   */\n      tag_443\n      jump\t// in\n    tag_548:\n        /* \"#utility.yul\":13130:13132   */\n      0x20\n        /* \"#utility.yul\":13125:13128   */\n      dup3\n        /* \"#utility.yul\":13121:13133   */\n      add\n        /* \"#utility.yul\":13114:13133   */\n      swap2\n      pop\n        /* \"#utility.yul\":13143:13218   */\n      tag_549\n        /* \"#utility.yul\":13214:13217   */\n      dup3\n        /* \"#utility.yul\":13205:13211   */\n      dup5\n        /* \"#utility.yul\":13143:13218   */\n      tag_443\n      jump\t// in\n    tag_549:\n        /* \"#utility.yul\":13243:13245   */\n      0x20\n        /* \"#utility.yul\":13238:13241   */\n      dup3\n        /* \"#utility.yul\":13234:13246   */\n      add\n        /* \"#utility.yul\":13227:13246   */\n      swap2\n      pop\n        /* \"#utility.yul\":13263:13266   */\n      dup2\n        /* \"#utility.yul\":13256:13266   */\n      swap1\n      pop\n        /* \"#utility.yul\":12609:13272   */\n      swap4\n      swap3\n      pop\n      pop\n      pop\n      jump\t// out\n        /* \"#utility.yul\":13278:13500   */\n    tag_176:\n        /* \"#utility.yul\":13371:13375   */\n      0x00\n        /* \"#utility.yul\":13409:13411   */\n      0x20\n        /* \"#utility.yul\":13398:13407   */\n      dup3\n        /* \"#utility.yul\":13394:13412   */\n      add\n        /* \"#utility.yul\":13386:13412   */\n      swap1\n      pop\n        /* \"#utility.yul\":13422:13493   */\n      tag_551\n        /* \"#utility.yul\":13490:13491   */\n      0x00\n        /* \"#utility.yul\":13479:13488   */\n      dup4\n        /* \"#utility.yul\":13475:13492   */\n      add\n        /* \"#utility.yul\":13466:13472   */\n      dup5\n        /* \"#utility.yul\":13422:13493   */\n      tag_431\n      jump\t// in\n    tag_551:\n        /* \"#utility.yul\":13278:13500   */\n      swap3\n      swap2\n      pop\n      pop\n      jump\t// out\n        /* \"#utility.yul\":13506:13716   */\n    tag_60:\n        /* \"#utility.yul\":13593:13597   */\n      0x00\n        /* \"#utility.yul\":13631:13633   */\n      0x20\n        /* \"#utility.yul\":13620:13629   */\n      dup3\n        /* \"#utility.yul\":13616:13634   */\n      add\n        /* \"#utility.yul\":13608:13634   */\n      swap1\n      pop\n        /* \"#utility.yul\":13644:13709   */\n      tag_553\n        /* \"#utility.yul\":13706:13707   */\n      0x00\n        /* \"#utility.yul\":13695:13704   */\n      dup4\n        /* \"#utility.yul\":13691:13708   */\n      add\n        /* \"#utility.yul\":13682:13688   */\n      dup5\n        /* \"#utility.yul\":13644:13709   */\n      tag_435\n      jump\t// in\n    tag_553:\n        /* \"#utility.yul\":13506:13716   */\n      swap3\n      swap2\n      pop\n      pop\n      jump\t// out\n        /* \"#utility.yul\":13722:13944   */\n    tag_84:\n        /* \"#utility.yul\":13815:13819   */\n      0x00\n        /* \"#utility.yul\":13853:13855   */\n      0x20\n        /* \"#utility.yul\":13842:13851   */\n      dup3\n        /* \"#utility.yul\":13838:13856   */\n      add\n        /* \"#utility.yul\":13830:13856   */\n      swap1\n      pop\n        /* \"#utility.yul\":13866:13937   */\n      tag_555\n        /* \"#utility.yul\":13934:13935   */\n      0x00\n        /* \"#utility.yul\":13923:13932   */\n      dup4\n        /* \"#utility.yul\":13919:13936   */\n      add\n        /* \"#utility.yul\":13910:13916   */\n      dup5\n        /* \"#utility.yul\":13866:13937   */\n      tag_439\n      jump\t// in\n    tag_555:\n        /* \"#utility.yul\":13722:13944   */\n      swap3\n      swap2\n      pop\n      pop\n      jump\t// out\n        /* \"#utility.yul\":13950:14725   */\n    tag_319:\n        /* \"#utility.yul\":14183:14187   */\n      0x00\n        /* \"#utility.yul\":14221:14224   */\n      0xc0\n        /* \"#utility.yul\":14210:14219   */\n      dup3\n        /* \"#utility.yul\":14206:14225   */\n      add\n        /* \"#utility.yul\":14198:14225   */\n      swap1\n      pop\n        /* \"#utility.yul\":14235:14306   */\n      tag_557\n        /* \"#utility.yul\":14303:14304   */\n      0x00\n        /* \"#utility.yul\":14292:14301   */\n      dup4\n        /* \"#utility.yul\":14288:14305   */\n      add\n        /* \"#utility.yul\":14279:14285   */\n      dup10\n        /* \"#utility.yul\":14235:14306   */\n      tag_439\n      jump\t// in\n    tag_557:\n        /* \"#utility.yul\":14316:14388   */\n      tag_558\n        /* \"#utility.yul\":14384:14386   */\n      0x20\n        /* \"#utility.yul\":14373:14382   */\n      dup4\n        /* \"#utility.yul\":14369:14387   */\n      add\n        /* \"#utility.yul\":14360:14366   */\n      dup9\n        /* \"#utility.yul\":14316:14388   */\n      tag_431\n      jump\t// in\n    tag_558:\n        /* \"#utility.yul\":14398:14470   */\n      tag_559\n        /* \"#utility.yul\":14466:14468   */\n      0x40\n        /* \"#utility.yul\":14455:14464   */\n      dup4\n        /* \"#utility.yul\":14451:14469   */\n      add\n        /* \"#utility.yul\":14442:14448   */\n      dup8\n        /* \"#utility.yul\":14398:14470   */\n      tag_431\n      jump\t// in\n    tag_559:\n        /* \"#utility.yul\":14480:14552   */\n      tag_560\n        /* \"#utility.yul\":14548:14550   */\n      0x60\n        /* \"#utility.yul\":14537:14546   */\n      dup4\n        /* \"#utility.yul\":14533:14551   */\n      add\n        /* \"#utility.yul\":14524:14530   */\n      dup7\n        /* \"#utility.yul\":14480:14552   */\n      tag_536\n      jump\t// in\n    tag_560:\n        /* \"#utility.yul\":14562:14635   */\n      tag_561\n        /* \"#utility.yul\":14630:14633   */\n      0x80\n        /* \"#utility.yul\":14619:14628   */\n      dup4\n        /* \"#utility.yul\":14615:14634   */\n      add\n        /* \"#utility.yul\":14606:14612   */\n      dup6\n        /* \"#utility.yul\":14562:14635   */\n      tag_536\n      jump\t// in\n    tag_561:\n        /* \"#utility.yul\":14645:14718   */\n      tag_562\n        /* \"#utility.yul\":14713:14716   */\n      0xa0\n        /* \"#utility.yul\":14702:14711   */\n      dup4\n        /* \"#utility.yul\":14698:14717   */\n      add\n        /* \"#utility.yul\":14689:14695   */\n      dup5\n        /* \"#utility.yul\":14645:14718   */\n      tag_536\n      jump\t// in\n    tag_562:\n        /* \"#utility.yul\":13950:14725   */\n      swap8\n      swap7\n      pop\n      pop\n      pop\n      pop\n      pop\n      pop\n      pop\n      jump\t// out\n        /* \"#utility.yul\":14731:15395   */\n    tag_342:\n        /* \"#utility.yul\":14936:14940   */\n      0x00\n        /* \"#utility.yul\":14974:14977   */\n      0xa0\n        /* \"#utility.yul\":14963:14972   */\n      dup3\n        /* \"#utility.yul\":14959:14978   */\n      add\n        /* \"#utility.yul\":14951:14978   */\n      swap1\n      pop\n        /* \"#utility.yul\":14988:15059   */\n      tag_564\n        /* \"#utility.yul\":15056:15057   */\n      0x00\n        /* \"#utility.yul\":15045:15054   */\n      dup4\n        /* \"#utility.yul\":15041:15058   */\n      add\n        /* \"#utility.yul\":15032:15038   */\n      dup9\n        /* \"#utility.yul\":14988:15059   */\n      tag_439\n      jump\t// in\n    tag_564:\n        /* \"#utility.yul\":15069:15141   */\n      tag_565\n        /* \"#utility.yul\":15137:15139   */\n      0x20\n        /* \"#utility.yul\":15126:15135   */\n      dup4\n        /* \"#utility.yul\":15122:15140   */\n      add\n        /* \"#utility.yul\":15113:15119   */\n      dup8\n        /* \"#utility.yul\":15069:15141   */\n      tag_439\n      jump\t// in\n    tag_565:\n        /* \"#utility.yul\":15151:15223   */\n      tag_566\n        /* \"#utility.yul\":15219:15221   */\n      0x40\n        /* \"#utility.yul\":15208:15217   */\n      dup4\n        /* \"#utility.yul\":15204:15222   */\n      add\n        /* \"#utility.yul\":15195:15201   */\n      dup7\n        /* \"#utility.yul\":15151:15223   */\n      tag_439\n      jump\t// in\n    tag_566:\n        /* \"#utility.yul\":15233:15305   */\n      tag_567\n        /* \"#utility.yul\":15301:15303   */\n      0x60\n        /* \"#utility.yul\":15290:15299   */\n      dup4\n        /* \"#utility.yul\":15286:15304   */\n      add\n        /* \"#utility.yul\":15277:15283   */\n      dup6\n        /* \"#utility.yul\":15233:15305   */\n      tag_536\n      jump\t// in\n    tag_567:\n        /* \"#utility.yul\":15315:15388   */\n      tag_568\n        /* \"#utility.yul\":15383:15386   */\n      0x80\n        /* \"#utility.yul\":15372:15381   */\n      dup4\n        /* \"#utility.yul\":15368:15387   */\n      add\n        /* \"#utility.yul\":15359:15365   */\n      dup5\n        /* \"#utility.yul\":15315:15388   */\n      tag_431\n      jump\t// in\n    tag_568:\n        /* \"#utility.yul\":14731:15395   */\n      swap7\n      swap6\n      pop\n      pop\n      pop\n      pop\n      pop\n      pop\n      jump\t// out\n        /* \"#utility.yul\":15401:15946   */\n    tag_323:\n        /* \"#utility.yul\":15574:15578   */\n      0x00\n        /* \"#utility.yul\":15612:15615   */\n      0x80\n        /* \"#utility.yul\":15601:15610   */\n      dup3\n        /* \"#utility.yul\":15597:15616   */\n      add\n        /* \"#utility.yul\":15589:15616   */\n      swap1\n      pop\n        /* \"#utility.yul\":15626:15697   */\n      tag_570\n        /* \"#utility.yul\":15694:15695   */\n      0x00\n        /* \"#utility.yul\":15683:15692   */\n      dup4\n        /* \"#utility.yul\":15679:15696   */\n      add\n        /* \"#utility.yul\":15670:15676   */\n      dup8\n        /* \"#utility.yul\":15626:15697   */\n      tag_439\n      jump\t// in\n    tag_570:\n        /* \"#utility.yul\":15707:15775   */\n      tag_571\n        /* \"#utility.yul\":15771:15773   */\n      0x20\n        /* \"#utility.yul\":15760:15769   */\n      dup4\n        /* \"#utility.yul\":15756:15774   */\n      add\n        /* \"#utility.yul\":15747:15753   */\n      dup7\n        /* \"#utility.yul\":15707:15775   */\n      tag_540\n      jump\t// in\n    tag_571:\n        /* \"#utility.yul\":15785:15857   */\n      tag_572\n        /* \"#utility.yul\":15853:15855   */\n      0x40\n        /* \"#utility.yul\":15842:15851   */\n      dup4\n        /* \"#utility.yul\":15838:15856   */\n      add\n        /* \"#utility.yul\":15829:15835   */\n      dup6\n        /* \"#utility.yul\":15785:15857   */\n      tag_439\n      jump\t// in\n    tag_572:\n        /* \"#utility.yul\":15867:15939   */\n      tag_573\n        /* \"#utility.yul\":15935:15937   */\n      0x60\n        /* \"#utility.yul\":15924:15933   */\n      dup4\n        /* \"#utility.yul\":15920:15938   */\n      add\n        /* \"#utility.yul\":15911:15917   */\n      dup5\n        /* \"#utility.yul\":15867:15939   */\n      tag_439\n      jump\t// in\n    tag_573:\n        /* \"#utility.yul\":15401:15946   */\n      swap6\n      swap5\n      pop\n      pop\n      pop\n      pop\n      pop\n      jump\t// out\n        /* \"#utility.yul\":15952:16200   */\n    tag_88:\n        /* \"#utility.yul\":16058:16062   */\n      0x00\n        /* \"#utility.yul\":16096:16098   */\n      0x20\n        /* \"#utility.yul\":16085:16094   */\n      dup3\n        /* \"#utility.yul\":16081:16099   */\n      add\n        /* \"#utility.yul\":16073:16099   */\n      swap1\n      pop\n        /* \"#utility.yul\":16109:16193   */\n      tag_575\n        /* \"#utility.yul\":16190:16191   */\n      0x00\n        /* \"#utility.yul\":16179:16188   */\n      dup4\n        /* \"#utility.yul\":16175:16192   */\n      add\n        /* \"#utility.yul\":16166:16172   */\n      dup5\n        /* \"#utility.yul\":16109:16193   */\n      tag_461\n      jump\t// in\n    tag_575:\n        /* \"#utility.yul\":15952:16200   */\n      swap3\n      swap2\n      pop\n      pop\n      jump\t// out\n        /* \"#utility.yul\":16206:16519   */\n    tag_49:\n        /* \"#utility.yul\":16319:16323   */\n      0x00\n        /* \"#utility.yul\":16357:16359   */\n      0x20\n        /* \"#utility.yul\":16346:16355   */\n      dup3\n        /* \"#utility.yul\":16342:16360   */\n      add\n        /* \"#utility.yul\":16334:16360   */\n      swap1\n      pop\n        /* \"#utility.yul\":16406:16415   */\n      dup2\n        /* \"#utility.yul\":16400:16404   */\n      dup2\n        /* \"#utility.yul\":16396:16416   */\n      sub\n        /* \"#utility.yul\":16392:16393   */\n      0x00\n        /* \"#utility.yul\":16381:16390   */\n      dup4\n        /* \"#utility.yul\":16377:16394   */\n      add\n        /* \"#utility.yul\":16370:16417   */\n      mstore\n        /* \"#utility.yul\":16434:16512   */\n      tag_577\n        /* \"#utility.yul\":16507:16511   */\n      dup2\n        /* \"#utility.yul\":16498:16504   */\n      dup5\n        /* \"#utility.yul\":16434:16512   */\n      tag_465\n      jump\t// in\n    tag_577:\n        /* \"#utility.yul\":16426:16512   */\n      swap1\n      pop\n        /* \"#utility.yul\":16206:16519   */\n      swap3\n      swap2\n      pop\n      pop\n      jump\t// out\n        /* \"#utility.yul\":16525:16944   */\n    tag_247:\n        /* \"#utility.yul\":16691:16695   */\n      0x00\n        /* \"#utility.yul\":16729:16731   */\n      0x20\n        /* \"#utility.yul\":16718:16727   */\n      dup3\n        /* \"#utility.yul\":16714:16732   */\n      add\n        /* \"#utility.yul\":16706:16732   */\n      swap1\n      pop\n        /* \"#utility.yul\":16778:16787   */\n      dup2\n        /* \"#utility.yul\":16772:16776   */\n      dup2\n        /* \"#utility.yul\":16768:16788   */\n      sub\n        /* \"#utility.yul\":16764:16765   */\n      0x00\n        /* \"#utility.yul\":16753:16762   */\n      dup4\n        /* \"#utility.yul\":16749:16766   */\n      add\n        /* \"#utility.yul\":16742:16789   */\n      mstore\n        /* \"#utility.yul\":16806:16937   */\n      tag_579\n        /* \"#utility.yul\":16932:16936   */\n      dup2\n        /* \"#utility.yul\":16806:16937   */\n      tag_475\n      jump\t// in\n    tag_579:\n        /* \"#utility.yul\":16798:16937   */\n      swap1\n      pop\n        /* \"#utility.yul\":16525:16944   */\n      swap2\n      swap1\n      pop\n      jump\t// out\n        /* \"#utility.yul\":16950:17369   */\n    tag_217:\n        /* \"#utility.yul\":17116:17120   */\n      0x00\n        /* \"#utility.yul\":17154:17156   */\n      0x20\n        /* \"#utility.yul\":17143:17152   */\n      dup3\n        /* \"#utility.yul\":17139:17157   */\n      add\n        /* \"#utility.yul\":17131:17157   */\n      swap1\n      pop\n        /* \"#utility.yul\":17203:17212   */\n      dup2\n        /* \"#utility.yul\":17197:17201   */\n      dup2\n        /* \"#utility.yul\":17193:17213   */\n      sub\n        /* \"#utility.yul\":17189:17190   */\n      0x00\n        /* \"#utility.yul\":17178:17187   */\n      dup4\n        /* \"#utility.yul\":17174:17191   */\n      add\n        /* \"#utility.yul\":17167:17214   */\n      mstore\n        /* \"#utility.yul\":17231:17362   */\n      tag_581\n        /* \"#utility.yul\":17357:17361   */\n      dup2\n        /* \"#utility.yul\":17231:17362   */\n      tag_486\n      jump\t// in\n    tag_581:\n        /* \"#utility.yul\":17223:17362   */\n      swap1\n      pop\n        /* \"#utility.yul\":16950:17369   */\n      swap2\n      swap1\n      pop\n      jump\t// out\n        /* \"#utility.yul\":17375:17794   */\n    tag_347:\n        /* \"#utility.yul\":17541:17545   */\n      0x00\n        /* \"#utility.yul\":17579:17581   */\n      0x20\n        /* \"#utility.yul\":17568:17577   */\n      dup3\n        /* \"#utility.yul\":17564:17582   */\n      add\n        /* \"#utility.yul\":17556:17582   */\n      swap1\n      pop\n        /* \"#utility.yul\":17628:17637   */\n      dup2\n        /* \"#utility.yul\":17622:17626   */\n      dup2\n        /* \"#utility.yul\":17618:17638   */\n      sub\n        /* \"#utility.yul\":17614:17615   */\n      0x00\n        /* \"#utility.yul\":17603:17612   */\n      dup4\n        /* \"#utility.yul\":17599:17616   */\n      add\n        /* \"#utility.yul\":17592:17639   */\n      mstore\n        /* \"#utility.yul\":17656:17787   */\n      tag_583\n        /* \"#utility.yul\":17782:17786   */\n      dup2\n        /* \"#utility.yul\":17656:17787   */\n      tag_491\n      jump\t// in\n    tag_583:\n        /* \"#utility.yul\":17648:17787   */\n      swap1\n      pop\n        /* \"#utility.yul\":17375:17794   */\n      swap2\n      swap1\n      pop\n      jump\t// out\n        /* \"#utility.yul\":17800:18219   */\n    tag_211:\n        /* \"#utility.yul\":17966:17970   */\n      0x00\n        /* \"#utility.yul\":18004:18006   */\n      0x20\n        /* \"#utility.yul\":17993:18002   */\n      dup3\n        /* \"#utility.yul\":17989:18007   */\n      add\n        /* \"#utility.yul\":17981:18007   */\n      swap1\n      pop\n        /* \"#utility.yul\":18053:18062   */\n      dup2\n        /* \"#utility.yul\":18047:18051   */\n      dup2\n        /* \"#utility.yul\":18043:18063   */\n      sub\n        /* \"#utility.yul\":18039:18040   */\n      0x00\n        /* \"#utility.yul\":18028:18037   */\n      dup4\n        /* \"#utility.yul\":18024:18041   */\n      add\n        /* \"#utility.yul\":18017:18064   */\n      mstore\n        /* \"#utility.yul\":18081:18212   */\n      tag_585\n        /* \"#utility.yul\":18207:18211   */\n      dup2\n        /* \"#utility.yul\":18081:18212   */\n      tag_496\n      jump\t// in\n    tag_585:\n        /* \"#utility.yul\":18073:18212   */\n      swap1\n      pop\n        /* \"#utility.yul\":17800:18219   */\n      swap2\n      swap1\n      pop\n      jump\t// out\n        /* \"#utility.yul\":18225:18644   */\n    tag_360:\n        /* \"#utility.yul\":18391:18395   */\n      0x00\n        /* \"#utility.yul\":18429:18431   */\n      0x20\n        /* \"#utility.yul\":18418:18427   */\n      dup3\n        /* \"#utility.yul\":18414:18432   */\n      add\n        /* \"#utility.yul\":18406:18432   */\n      swap1\n      pop\n        /* \"#utility.yul\":18478:18487   */\n      dup2\n        /* \"#utility.yul\":18472:18476   */\n      dup2\n        /* \"#utility.yul\":18468:18488   */\n      sub\n        /* \"#utility.yul\":18464:18465   */\n      0x00\n        /* \"#utility.yul\":18453:18462   */\n      dup4\n        /* \"#utility.yul\":18449:18466   */\n      add\n        /* \"#utility.yul\":18442:18489   */\n      mstore\n        /* \"#utility.yul\":18506:18637   */\n      tag_587\n        /* \"#utility.yul\":18632:18636   */\n      dup2\n        /* \"#utility.yul\":18506:18637   */\n      tag_501\n      jump\t// in\n    tag_587:\n        /* \"#utility.yul\":18498:18637   */\n      swap1\n      pop\n        /* \"#utility.yul\":18225:18644   */\n      swap2\n      swap1\n      pop\n      jump\t// out\n        /* \"#utility.yul\":18650:19069   */\n    tag_220:\n        /* \"#utility.yul\":18816:18820   */\n      0x00\n        /* \"#utility.yul\":18854:18856   */\n      0x20\n        /* \"#utility.yul\":18843:18852   */\n      dup3\n        /* \"#utility.yul\":18839:18857   */\n      add\n        /* \"#utility.yul\":18831:18857   */\n      swap1\n      pop\n        /* \"#utility.yul\":18903:18912   */\n      dup2\n        /* \"#utility.yul\":18897:18901   */\n      dup2\n        /* \"#utility.yul\":18893:18913   */\n      sub\n        /* \"#utility.yul\":18889:18890   */\n      0x00\n        /* \"#utility.yul\":18878:18887   */\n      dup4\n        /* \"#utility.yul\":18874:18891   */\n      add\n        /* \"#utility.yul\":18867:18914   */\n      mstore\n        /* \"#utility.yul\":18931:19062   */\n      tag_589\n        /* \"#utility.yul\":19057:19061   */\n      dup2\n        /* \"#utility.yul\":18931:19062   */\n      tag_506\n      jump\t// in\n    tag_589:\n        /* \"#utility.yul\":18923:19062   */\n      swap1\n      pop\n        /* \"#utility.yul\":18650:19069   */\n      swap2\n      swap1\n      pop\n      jump\t// out\n        /* \"#utility.yul\":19075:19494   */\n    tag_214:\n        /* \"#utility.yul\":19241:19245   */\n      0x00\n        /* \"#utility.yul\":19279:19281   */\n      0x20\n        /* \"#utility.yul\":19268:19277   */\n      dup3\n        /* \"#utility.yul\":19264:19282   */\n      add\n        /* \"#utility.yul\":19256:19282   */\n      swap1\n      pop\n        /* \"#utility.yul\":19328:19337   */\n      dup2\n        /* \"#utility.yul\":19322:19326   */\n      dup2\n        /* \"#utility.yul\":19318:19338   */\n      sub\n        /* \"#utility.yul\":19314:19315   */\n      0x00\n        /* \"#utility.yul\":19303:19312   */\n      dup4\n        /* \"#utility.yul\":19299:19316   */\n      add\n        /* \"#utility.yul\":19292:19339   */\n      mstore\n        /* \"#utility.yul\":19356:19487   */\n      tag_591\n        /* \"#utility.yul\":19482:19486   */\n      dup2\n        /* \"#utility.yul\":19356:19487   */\n      tag_511\n      jump\t// in\n    tag_591:\n        /* \"#utility.yul\":19348:19487   */\n      swap1\n      pop\n        /* \"#utility.yul\":19075:19494   */\n      swap2\n      swap1\n      pop\n      jump\t// out\n        /* \"#utility.yul\":19500:19919   */\n    tag_329:\n        /* \"#utility.yul\":19666:19670   */\n      0x00\n        /* \"#utility.yul\":19704:19706   */\n      0x20\n        /* \"#utility.yul\":19693:19702   */\n      dup3\n        /* \"#utility.yul\":19689:19707   */\n      add\n        /* \"#utility.yul\":19681:19707   */\n      swap1\n      pop\n        /* \"#utility.yul\":19753:19762   */\n      dup2\n        /* \"#utility.yul\":19747:19751   */\n      dup2\n        /* \"#utility.yul\":19743:19763   */\n      sub\n        /* \"#utility.yul\":19739:19740   */\n      0x00\n        /* \"#utility.yul\":19728:19737   */\n      dup4\n        /* \"#utility.yul\":19724:19741   */\n      add\n        /* \"#utility.yul\":19717:19764   */\n      mstore\n        /* \"#utility.yul\":19781:19912   */\n      tag_593\n        /* \"#utility.yul\":19907:19911   */\n      dup2\n        /* \"#utility.yul\":19781:19912   */\n      tag_516\n      jump\t// in\n    tag_593:\n        /* \"#utility.yul\":19773:19912   */\n      swap1\n      pop\n        /* \"#utility.yul\":19500:19919   */\n      swap2\n      swap1\n      pop\n      jump\t// out\n        /* \"#utility.yul\":19925:20344   */\n    tag_300:\n        /* \"#utility.yul\":20091:20095   */\n      0x00\n        /* \"#utility.yul\":20129:20131   */\n      0x20\n        /* \"#utility.yul\":20118:20127   */\n      dup3\n        /* \"#utility.yul\":20114:20132   */\n      add\n        /* \"#utility.yul\":20106:20132   */\n      swap1\n      pop\n        /* \"#utility.yul\":20178:20187   */\n      dup2\n        /* \"#utility.yul\":20172:20176   */\n      dup2\n        /* \"#utility.yul\":20168:20188   */\n      sub\n        /* \"#utility.yul\":20164:20165   */\n      0x00\n        /* \"#utility.yul\":20153:20162   */\n      dup4\n        /* \"#utility.yul\":20149:20166   */\n      add\n        /* \"#utility.yul\":20142:20189   */\n      mstore\n        /* \"#utility.yul\":20206:20337   */\n      tag_595\n        /* \"#utility.yul\":20332:20336   */\n      dup2\n        /* \"#utility.yul\":20206:20337   */\n      tag_521\n      jump\t// in\n    tag_595:\n        /* \"#utility.yul\":20198:20337   */\n      swap1\n      pop\n        /* \"#utility.yul\":19925:20344   */\n      swap2\n      swap1\n      pop\n      jump\t// out\n        /* \"#utility.yul\":20350:20769   */\n    tag_259:\n        /* \"#utility.yul\":20516:20520   */\n      0x00\n        /* \"#utility.yul\":20554:20556   */\n      0x20\n        /* \"#utility.yul\":20543:20552   */\n      dup3\n        /* \"#utility.yul\":20539:20557   */\n      add\n        /* \"#utility.yul\":20531:20557   */\n      swap1\n      pop\n        /* \"#utility.yul\":20603:20612   */\n      dup2\n        /* \"#utility.yul\":20597:20601   */\n      dup2\n        /* \"#utility.yul\":20593:20613   */\n      sub\n        /* \"#utility.yul\":20589:20590   */\n      0x00\n        /* \"#utility.yul\":20578:20587   */\n      dup4\n        /* \"#utility.yul\":20574:20591   */\n      add\n        /* \"#utility.yul\":20567:20614   */\n      mstore\n        /* \"#utility.yul\":20631:20762   */\n      tag_597\n        /* \"#utility.yul\":20757:20761   */\n      dup2\n        /* \"#utility.yul\":20631:20762   */\n      tag_526\n      jump\t// in\n    tag_597:\n        /* \"#utility.yul\":20623:20762   */\n      swap1\n      pop\n        /* \"#utility.yul\":20350:20769   */\n      swap2\n      swap1\n      pop\n      jump\t// out\n        /* \"#utility.yul\":20775:21194   */\n    tag_316:\n        /* \"#utility.yul\":20941:20945   */\n      0x00\n        /* \"#utility.yul\":20979:20981   */\n      0x20\n        /* \"#utility.yul\":20968:20977   */\n      dup3\n        /* \"#utility.yul\":20964:20982   */\n      add\n        /* \"#utility.yul\":20956:20982   */\n      swap1\n      pop\n        /* \"#utility.yul\":21028:21037   */\n      dup2\n        /* \"#utility.yul\":21022:21026   */\n      dup2\n        /* \"#utility.yul\":21018:21038   */\n      sub\n        /* \"#utility.yul\":21014:21015   */\n      0x00\n        /* \"#utility.yul\":21003:21012   */\n      dup4\n        /* \"#utility.yul\":20999:21016   */\n      add\n        /* \"#utility.yul\":20992:21039   */\n      mstore\n        /* \"#utility.yul\":21056:21187   */\n      tag_599\n        /* \"#utility.yul\":21182:21186   */\n      dup2\n        /* \"#utility.yul\":21056:21187   */\n      tag_531\n      jump\t// in\n    tag_599:\n        /* \"#utility.yul\":21048:21187   */\n      swap1\n      pop\n        /* \"#utility.yul\":20775:21194   */\n      swap2\n      swap1\n      pop\n      jump\t// out\n        /* \"#utility.yul\":21200:21422   */\n    tag_45:\n        /* \"#utility.yul\":21293:21297   */\n      0x00\n        /* \"#utility.yul\":21331:21333   */\n      0x20\n        /* \"#utility.yul\":21320:21329   */\n      dup3\n        /* \"#utility.yul\":21316:21334   */\n      add\n        /* \"#utility.yul\":21308:21334   */\n      swap1\n      pop\n        /* \"#utility.yul\":21344:21415   */\n      tag_601\n        /* \"#utility.yul\":21412:21413   */\n      0x00\n        /* \"#utility.yul\":21401:21410   */\n      dup4\n        /* \"#utility.yul\":21397:21414   */\n      add\n        /* \"#utility.yul\":21388:21394   */\n      dup5\n        /* \"#utility.yul\":21344:21415   */\n      tag_536\n      jump\t// in\n    tag_601:\n        /* \"#utility.yul\":21200:21422   */\n      swap3\n      swap2\n      pop\n      pop\n      jump\t// out\n        /* \"#utility.yul\":21428:21760   */\n    tag_253:\n        /* \"#utility.yul\":21549:21553   */\n      0x00\n        /* \"#utility.yul\":21587:21589   */\n      0x40\n        /* \"#utility.yul\":21576:21585   */\n      dup3\n        /* \"#utility.yul\":21572:21590   */\n      add\n        /* \"#utility.yul\":21564:21590   */\n      swap1\n      pop\n        /* \"#utility.yul\":21600:21671   */\n      tag_603\n        /* \"#utility.yul\":21668:21669   */\n      0x00\n        /* \"#utility.yul\":21657:21666   */\n      dup4\n        /* \"#utility.yul\":21653:21670   */\n      add\n        /* \"#utility.yul\":21644:21650   */\n      dup6\n        /* \"#utility.yul\":21600:21671   */\n      tag_536\n      jump\t// in\n    tag_603:\n        /* \"#utility.yul\":21681:21753   */\n      tag_604\n        /* \"#utility.yul\":21749:21751   */\n      0x20\n        /* \"#utility.yul\":21738:21747   */\n      dup4\n        /* \"#utility.yul\":21734:21752   */\n      add\n        /* \"#utility.yul\":21725:21731   */\n      dup5\n        /* \"#utility.yul\":21681:21753   */\n      tag_536\n      jump\t// in\n    tag_604:\n        /* \"#utility.yul\":21428:21760   */\n      swap4\n      swap3\n      pop\n      pop\n      pop\n      jump\t// out\n        /* \"#utility.yul\":21766:21980   */\n    tag_80:\n        /* \"#utility.yul\":21855:21859   */\n      0x00\n        /* \"#utility.yul\":21893:21895   */\n      0x20\n        /* \"#utility.yul\":21882:21891   */\n      dup3\n        /* \"#utility.yul\":21878:21896   */\n      add\n        /* \"#utility.yul\":21870:21896   */\n      swap1\n      pop\n        /* \"#utility.yul\":21906:21973   */\n      tag_606\n        /* \"#utility.yul\":21970:21971   */\n      0x00\n        /* \"#utility.yul\":21959:21968   */\n      dup4\n        /* \"#utility.yul\":21955:21972   */\n      add\n        /* \"#utility.yul\":21946:21952   */\n      dup5\n        /* \"#utility.yul\":21906:21973   */\n      tag_540\n      jump\t// in\n    tag_606:\n        /* \"#utility.yul\":21766:21980   */\n      swap3\n      swap2\n      pop\n      pop\n      jump\t// out\n        /* \"#utility.yul\":22067:22211   */\n    tag_457:\n        /* \"#utility.yul\":22119:22123   */\n      0x00\n        /* \"#utility.yul\":22142:22145   */\n      dup2\n        /* \"#utility.yul\":22134:22145   */\n      swap1\n      pop\n        /* \"#utility.yul\":22165:22168   */\n      dup2\n        /* \"#utility.yul\":22162:22163   */\n      0x00\n        /* \"#utility.yul\":22155:22169   */\n      mstore\n        /* \"#utility.yul\":22199:22203   */\n      0x20\n        /* \"#utility.yul\":22196:22197   */\n      0x00\n        /* \"#utility.yul\":22186:22204   */\n      keccak256\n        /* \"#utility.yul\":22178:22204   */\n      swap1\n      pop\n        /* \"#utility.yul\":22067:22211   */\n      swap2\n      swap1\n      pop\n      jump\t// out\n        /* \"#utility.yul\":22217:22316   */\n    tag_468:\n        /* \"#utility.yul\":22269:22275   */\n      0x00\n        /* \"#utility.yul\":22303:22308   */\n      dup2\n        /* \"#utility.yul\":22297:22309   */\n      mload\n        /* \"#utility.yul\":22287:22309   */\n      swap1\n      pop\n        /* \"#utility.yul\":22217:22316   */\n      swap2\n      swap1\n      pop\n      jump\t// out\n        /* \"#utility.yul\":22322:22469   */\n    tag_452:\n        /* \"#utility.yul\":22423:22434   */\n      0x00\n        /* \"#utility.yul\":22460:22463   */\n      dup2\n        /* \"#utility.yul\":22445:22463   */\n      swap1\n      pop\n        /* \"#utility.yul\":22322:22469   */\n      swap3\n      swap2\n      pop\n      pop\n      jump\t// out\n        /* \"#utility.yul\":22475:22644   */\n    tag_470:\n        /* \"#utility.yul\":22559:22570   */\n      0x00\n        /* \"#utility.yul\":22593:22599   */\n      dup3\n        /* \"#utility.yul\":22588:22591   */\n      dup3\n        /* \"#utility.yul\":22581:22600   */\n      mstore\n        /* \"#utility.yul\":22633:22637   */\n      0x20\n        /* \"#utility.yul\":22628:22631   */\n      dup3\n        /* \"#utility.yul\":22624:22638   */\n      add\n        /* \"#utility.yul\":22609:22638   */\n      swap1\n      pop\n        /* \"#utility.yul\":22475:22644   */\n      swap3\n      swap2\n      pop\n      pop\n      jump\t// out\n        /* \"#utility.yul\":22650:22798   */\n    tag_483:\n        /* \"#utility.yul\":22752:22763   */\n      0x00\n        /* \"#utility.yul\":22789:22792   */\n      dup2\n        /* \"#utility.yul\":22774:22792   */\n      swap1\n      pop\n        /* \"#utility.yul\":22650:22798   */\n      swap3\n      swap2\n      pop\n      pop\n      jump\t// out\n        /* \"#utility.yul\":22804:23109   */\n    tag_226:\n        /* \"#utility.yul\":22844:22847   */\n      0x00\n        /* \"#utility.yul\":22863:22883   */\n      tag_615\n        /* \"#utility.yul\":22881:22882   */\n      dup3\n        /* \"#utility.yul\":22863:22883   */\n      tag_539\n      jump\t// in\n    tag_615:\n        /* \"#utility.yul\":22858:22883   */\n      swap2\n      pop\n        /* \"#utility.yul\":22897:22917   */\n      tag_616\n        /* \"#utility.yul\":22915:22916   */\n      dup4\n        /* \"#utility.yul\":22897:22917   */\n      tag_539\n      jump\t// in\n    tag_616:\n        /* \"#utility.yul\":22892:22917   */\n      swap3\n      pop\n        /* \"#utility.yul\":23051:23052   */\n      dup3\n        /* \"#utility.yul\":22983:23049   */\n      0xffffffffffffffffffffffffffffffffffffffffffffffffffffffffffffffff\n        /* \"#utility.yul\":22979:23053   */\n      sub\n        /* \"#utility.yul\":22976:22977   */\n      dup3\n        /* \"#utility.yul\":22973:23054   */\n      gt\n        /* \"#utility.yul\":22970:23077   */\n      iszero\n      tag_617\n      jumpi\n        /* \"#utility.yul\":23057:23075   */\n      tag_618\n      tag_619\n      jump\t// in\n    tag_618:\n        /* \"#utility.yul\":22970:23077   */\n    tag_617:\n        /* \"#utility.yul\":23101:23102   */\n      dup3\n        /* \"#utility.yul\":23098:23099   */\n      dup3\n        /* \"#utility.yul\":23094:23103   */\n      add\n        /* \"#utility.yul\":23087:23103   */\n      swap1\n      pop\n        /* \"#utility.yul\":22804:23109   */\n      swap3\n      swap2\n      pop\n      pop\n      jump\t// out\n        /* \"#utility.yul\":23115:23300   */\n    tag_224:\n        /* \"#utility.yul\":23155:23156   */\n      0x00\n        /* \"#utility.yul\":23172:23192   */\n      tag_621\n        /* \"#utility.yul\":23190:23191   */\n      dup3\n        /* \"#utility.yul\":23172:23192   */\n      tag_539\n      jump\t// in\n    tag_621:\n        /* \"#utility.yul\":23167:23192   */\n      swap2\n      pop\n        /* \"#utility.yul\":23206:23226   */\n      tag_622\n        /* \"#utility.yul\":23224:23225   */\n      dup4\n        /* \"#utility.yul\":23206:23226   */\n      tag_539\n      jump\t// in\n    tag_622:\n        /* \"#utility.yul\":23201:23226   */\n      swap3\n      pop\n        /* \"#utility.yul\":23245:23246   */\n      dup3\n        /* \"#utility.yul\":23235:23270   */\n      tag_623\n      jumpi\n        /* \"#utility.yul\":23250:23268   */\n      tag_624\n      tag_625\n      jump\t// in\n    tag_624:\n        /* \"#utility.yul\":23235:23270   */\n    tag_623:\n        /* \"#utility.yul\":23292:23293   */\n      dup3\n        /* \"#utility.yul\":23289:23290   */\n      dup3\n        /* \"#utility.yul\":23285:23294   */\n      div\n        /* \"#utility.yul\":23280:23294   */\n      swap1\n      pop\n        /* \"#utility.yul\":23115:23300   */\n      swap3\n      swap2\n      pop\n      pop\n      jump\t// out\n        /* \"#utility.yul\":23306:23654   */\n    tag_222:\n        /* \"#utility.yul\":23346:23353   */\n      0x00\n        /* \"#utility.yul\":23369:23389   */\n      tag_627\n        /* \"#utility.yul\":23387:23388   */\n      dup3\n        /* \"#utility.yul\":23369:23389   */\n      tag_539\n      jump\t// in\n    tag_627:\n        /* \"#utility.yul\":23364:23389   */\n      swap2\n      pop\n        /* \"#utility.yul\":23403:23423   */\n      tag_628\n        /* \"#utility.yul\":23421:23422   */\n      dup4\n        /* \"#utility.yul\":23403:23423   */\n      tag_539\n      jump\t// in\n    tag_628:\n        /* \"#utility.yul\":23398:23423   */\n      swap3\n      pop\n        /* \"#utility.yul\":23591:23592   */\n      dup2\n        /* \"#utility.yul\":23523:23589   */\n      0xffffffffffffffffffffffffffffffffffffffffffffffffffffffffffffffff\n        /* \"#utility.yul\":23519:23593   */\n      div\n        /* \"#utility.yul\":23516:23517   */\n      dup4\n        /* \"#utility.yul\":23513:23594   */\n      gt\n        /* \"#utility.yul\":23508:23509   */\n      dup3\n        /* \"#utility.yul\":23501:23510   */\n      iszero\n        /* \"#utility.yul\":23494:23511   */\n      iszero\n        /* \"#utility.yul\":23490:23595   */\n      and\n        /* \"#utility.yul\":23487:23618   */\n      iszero\n      tag_629\n      jumpi\n        /* \"#utility.yul\":23598:23616   */\n      tag_630\n      tag_619\n      jump\t// in\n    tag_630:\n        /* \"#utility.yul\":23487:23618   */\n    tag_629:\n        /* \"#utility.yul\":23646:23647   */\n      dup3\n        /* \"#utility.yul\":23643:23644   */\n      dup3\n        /* \"#utility.yul\":23639:23648   */\n      mul\n        /* \"#utility.yul\":23628:23648   */\n      swap1\n      pop\n        /* \"#utility.yul\":23306:23654   */\n      swap3\n      swap2\n      pop\n      pop\n      jump\t// out\n        /* \"#utility.yul\":23660:23851   */\n    tag_205:\n        /* \"#utility.yul\":23700:23704   */\n      0x00\n        /* \"#utility.yul\":23720:23740   */\n      tag_632\n        /* \"#utility.yul\":23738:23739   */\n      dup3\n        /* \"#utility.yul\":23720:23740   */\n      tag_539\n      jump\t// in\n    tag_632:\n        /* \"#utility.yul\":23715:23740   */\n      swap2\n      pop\n        /* \"#utility.yul\":23754:23774   */\n      tag_633\n        /* \"#utility.yul\":23772:23773   */\n      dup4\n        /* \"#utility.yul\":23754:23774   */\n      tag_539\n      jump\t// in\n    tag_633:\n        /* \"#utility.yul\":23749:23774   */\n      swap3\n      pop\n        /* \"#utility.yul\":23793:23794   */\n      dup3\n        /* \"#utility.yul\":23790:23791   */\n      dup3\n        /* \"#utility.yul\":23787:23795   */\n      lt\n        /* \"#utility.yul\":23784:23818   */\n      iszero\n      tag_634\n      jumpi\n        /* \"#utility.yul\":23798:23816   */\n      tag_635\n      tag_619\n      jump\t// in\n    tag_635:\n        /* \"#utility.yul\":23784:23818   */\n    tag_634:\n        /* \"#utility.yul\":23843:23844   */\n      dup3\n        /* \"#utility.yul\":23840:23841   */\n      dup3\n        /* \"#utility.yul\":23836:23845   */\n      sub\n        /* \"#utility.yul\":23828:23845   */\n      swap1\n      pop\n        /* \"#utility.yul\":23660:23851   */\n      swap3\n      swap2\n      pop\n      pop\n      jump\t// out\n        /* \"#utility.yul\":23857:23953   */\n    tag_434:\n        /* \"#utility.yul\":23894:23901   */\n      0x00\n        /* \"#utility.yul\":23923:23947   */\n      tag_637\n        /* \"#utility.yul\":23941:23946   */\n      dup3\n        /* \"#utility.yul\":23923:23947   */\n      tag_638\n      jump\t// in\n    tag_637:\n        /* \"#utility.yul\":23912:23947   */\n      swap1\n      pop\n        /* \"#utility.yul\":23857:23953   */\n      swap2\n      swap1\n      pop\n      jump\t// out\n        /* \"#utility.yul\":23959:24049   */\n    tag_438:\n        /* \"#utility.yul\":23993:24000   */\n      0x00\n        /* \"#utility.yul\":24036:24041   */\n      dup2\n        /* \"#utility.yul\":24029:24042   */\n      iszero\n        /* \"#utility.yul\":24022:24043   */\n      iszero\n        /* \"#utility.yul\":24011:24043   */\n      swap1\n      pop\n        /* \"#utility.yul\":23959:24049   */\n      swap2\n      swap1\n      pop\n      jump\t// out\n        /* \"#utility.yul\":24055:24132   */\n    tag_442:\n        /* \"#utility.yul\":24092:24099   */\n      0x00\n        /* \"#utility.yul\":24121:24126   */\n      dup2\n        /* \"#utility.yul\":24110:24126   */\n      swap1\n      pop\n        /* \"#utility.yul\":24055:24132   */\n      swap2\n      swap1\n      pop\n      jump\t// out\n        /* \"#utility.yul\":24138:24264   */\n    tag_638:\n        /* \"#utility.yul\":24175:24182   */\n      0x00\n        /* \"#utility.yul\":24215:24257   */\n      0xffffffffffffffffffffffffffffffffffffffff\n        /* \"#utility.yul\":24208:24213   */\n      dup3\n        /* \"#utility.yul\":24204:24258   */\n      and\n        /* \"#utility.yul\":24193:24258   */\n      swap1\n      pop\n        /* \"#utility.yul\":24138:24264   */\n      swap2\n      swap1\n      pop\n      jump\t// out\n        /* \"#utility.yul\":24270:24347   */\n    tag_539:\n        /* \"#utility.yul\":24307:24314   */\n      0x00\n        /* \"#utility.yul\":24336:24341   */\n      dup2\n        /* \"#utility.yul\":24325:24341   */\n      swap1\n      pop\n        /* \"#utility.yul\":24270:24347   */\n      swap2\n      swap1\n      pop\n      jump\t// out\n        /* \"#utility.yul\":24353:24439   */\n    tag_543:\n        /* \"#utility.yul\":24388:24395   */\n      0x00\n        /* \"#utility.yul\":24428:24432   */\n      0xff\n        /* \"#utility.yul\":24421:24426   */\n      dup3\n        /* \"#utility.yul\":24417:24433   */\n      and\n        /* \"#utility.yul\":24406:24433   */\n      swap1\n      pop\n        /* \"#utility.yul\":24353:24439   */\n      swap2\n      swap1\n      pop\n      jump\t// out\n        /* \"#utility.yul\":24445:24584   */\n    tag_464:\n        /* \"#utility.yul\":24508:24517   */\n      0x00\n        /* \"#utility.yul\":24541:24578   */\n      tag_645\n        /* \"#utility.yul\":24572:24577   */\n      dup3\n        /* \"#utility.yul\":24541:24578   */\n      tag_646\n      jump\t// in\n    tag_645:\n        /* \"#utility.yul\":24528:24578   */\n      swap1\n      pop\n        /* \"#utility.yul\":24445:24584   */\n      swap2\n      swap1\n      pop\n      jump\t// out\n        /* \"#utility.yul\":24590:24716   */\n    tag_646:\n        /* \"#utility.yul\":24640:24649   */\n      0x00\n        /* \"#utility.yul\":24673:24710   */\n      tag_648\n        /* \"#utility.yul\":24704:24709   */\n      dup3\n        /* \"#utility.yul\":24673:24710   */\n      tag_649\n      jump\t// in\n    tag_648:\n        /* \"#utility.yul\":24660:24710   */\n      swap1\n      pop\n        /* \"#utility.yul\":24590:24716   */\n      swap2\n      swap1\n      pop\n      jump\t// out\n        /* \"#utility.yul\":24722:24835   */\n    tag_649:\n        /* \"#utility.yul\":24772:24781   */\n      0x00\n        /* \"#utility.yul\":24805:24829   */\n      tag_651\n        /* \"#utility.yul\":24823:24828   */\n      dup3\n        /* \"#utility.yul\":24805:24829   */\n      tag_638\n      jump\t// in\n    tag_651:\n        /* \"#utility.yul\":24792:24829   */\n      swap1\n      pop\n        /* \"#utility.yul\":24722:24835   */\n      swap2\n      swap1\n      pop\n      jump\t// out\n        /* \"#utility.yul\":24841:25148   */\n    tag_472:\n        /* \"#utility.yul\":24909:24910   */\n      0x00\n        /* \"#utility.yul\":24919:25032   */\n    tag_653:\n        /* \"#utility.yul\":24933:24939   */\n      dup4\n        /* \"#utility.yul\":24930:24931   */\n      dup2\n        /* \"#utility.yul\":24927:24940   */\n      lt\n        /* \"#utility.yul\":24919:25032   */\n      iszero\n      tag_655\n      jumpi\n        /* \"#utility.yul\":25018:25019   */\n      dup1\n        /* \"#utility.yul\":25013:25016   */\n      dup3\n        /* \"#utility.yul\":25009:25020   */\n      add\n        /* \"#utility.yul\":25003:25021   */\n      mload\n        /* \"#utility.yul\":24999:25000   */\n      dup2\n        /* \"#utility.yul\":24994:24997   */\n      dup5\n        /* \"#utility.yul\":24990:25001   */\n      add\n        /* \"#utility.yul\":24983:25022   */\n      mstore\n        /* \"#utility.yul\":24955:24957   */\n      0x20\n        /* \"#utility.yul\":24952:24953   */\n      dup2\n        /* \"#utility.yul\":24948:24958   */\n      add\n        /* \"#utility.yul\":24943:24958   */\n      swap1\n      pop\n        /* \"#utility.yul\":24919:25032   */\n      jump(tag_653)\n    tag_655:\n        /* \"#utility.yul\":25050:25056   */\n      dup4\n        /* \"#utility.yul\":25047:25048   */\n      dup2\n        /* \"#utility.yul\":25044:25057   */\n      gt\n        /* \"#utility.yul\":25041:25142   */\n      iszero\n      tag_656\n      jumpi\n        /* \"#utility.yul\":25130:25131   */\n      0x00\n        /* \"#utility.yul\":25121:25127   */\n      dup5\n        /* \"#utility.yul\":25116:25119   */\n      dup5\n        /* \"#utility.yul\":25112:25128   */\n      add\n        /* \"#utility.yul\":25105:25132   */\n      mstore\n        /* \"#utility.yul\":25041:25142   */\n    tag_656:\n        /* \"#utility.yul\":24890:25148   */\n      pop\n        /* \"#utility.yul\":24841:25148   */\n      pop\n      pop\n      pop\n      jump\t// out\n        /* \"#utility.yul\":25154:25474   */\n    tag_183:\n        /* \"#utility.yul\":25198:25204   */\n      0x00\n        /* \"#utility.yul\":25235:25236   */\n      0x02\n        /* \"#utility.yul\":25229:25233   */\n      dup3\n        /* \"#utility.yul\":25225:25237   */\n      div\n        /* \"#utility.yul\":25215:25237   */\n      swap1\n      pop\n        /* \"#utility.yul\":25282:25283   */\n      0x01\n        /* \"#utility.yul\":25276:25280   */\n      dup3\n        /* \"#utility.yul\":25272:25284   */\n      and\n        /* \"#utility.yul\":25303:25321   */\n      dup1\n        /* \"#utility.yul\":25293:25374   */\n      tag_658\n      jumpi\n        /* \"#utility.yul\":25359:25363   */\n      0x7f\n        /* \"#utility.yul\":25351:25357   */\n      dup3\n        /* \"#utility.yul\":25347:25364   */\n      and\n        /* \"#utility.yul\":25337:25364   */\n      swap2\n      pop\n        /* \"#utility.yul\":25293:25374   */\n    tag_658:\n        /* \"#utility.yul\":25421:25423   */\n      0x20\n        /* \"#utility.yul\":25413:25419   */\n      dup3\n        /* \"#utility.yul\":25410:25424   */\n      lt\n        /* \"#utility.yul\":25390:25408   */\n      dup2\n        /* \"#utility.yul\":25387:25425   */\n      eq\n        /* \"#utility.yul\":25384:25468   */\n      iszero\n      tag_659\n      jumpi\n        /* \"#utility.yul\":25440:25458   */\n      tag_660\n      tag_661\n      jump\t// in\n    tag_660:\n        /* \"#utility.yul\":25384:25468   */\n    tag_659:\n        /* \"#utility.yul\":25205:25474   */\n      pop\n        /* \"#utility.yul\":25154:25474   */\n      swap2\n      swap1\n      pop\n      jump\t// out\n        /* \"#utility.yul\":25480:25559   */\n    tag_447:\n        /* \"#utility.yul\":25519:25526   */\n      0x00\n        /* \"#utility.yul\":25548:25553   */\n      dup2\n        /* \"#utility.yul\":25537:25553   */\n      swap1\n      pop\n        /* \"#utility.yul\":25480:25559   */\n      swap2\n      swap1\n      pop\n      jump\t// out\n        /* \"#utility.yul\":25565:25745   */\n    tag_619:\n        /* \"#utility.yul\":25613:25690   */\n      0x4e487b7100000000000000000000000000000000000000000000000000000000\n        /* \"#utility.yul\":25610:25611   */\n      0x00\n        /* \"#utility.yul\":25603:25691   */\n      mstore\n        /* \"#utility.yul\":25710:25714   */\n      0x11\n        /* \"#utility.yul\":25707:25708   */\n      0x04\n        /* \"#utility.yul\":25700:25715   */\n      mstore\n        /* \"#utility.yul\":25734:25738   */\n      0x24\n        /* \"#utility.yul\":25731:25732   */\n      0x00\n        /* \"#utility.yul\":25724:25739   */\n      revert\n        /* \"#utility.yul\":25751:25931   */\n    tag_625:\n        /* \"#utility.yul\":25799:25876   */\n      0x4e487b7100000000000000000000000000000000000000000000000000000000\n        /* \"#utility.yul\":25796:25797   */\n      0x00\n        /* \"#utility.yul\":25789:25877   */\n      mstore\n        /* \"#utility.yul\":25896:25900   */\n      0x12\n        /* \"#utility.yul\":25893:25894   */\n      0x04\n        /* \"#utility.yul\":25886:25901   */\n      mstore\n        /* \"#utility.yul\":25920:25924   */\n      0x24\n        /* \"#utility.yul\":25917:25918   */\n      0x00\n        /* \"#utility.yul\":25910:25925   */\n      revert\n        /* \"#utility.yul\":25937:26117   */\n    tag_661:\n        /* \"#utility.yul\":25985:26062   */\n      0x4e487b7100000000000000000000000000000000000000000000000000000000\n        /* \"#utility.yul\":25982:25983   */\n      0x00\n        /* \"#utility.yul\":25975:26063   */\n      mstore\n        /* \"#utility.yul\":26082:26086   */\n      0x22\n        /* \"#utility.yul\":26079:26080   */\n      0x04\n        /* \"#utility.yul\":26072:26087   */\n      mstore\n        /* \"#utility.yul\":26106:26110   */\n      0x24\n        /* \"#utility.yul\":26103:26104   */\n      0x00\n        /* \"#utility.yul\":26096:26111   */\n      revert\n        /* \"#utility.yul\":26246:26363   */\n    tag_384:\n        /* \"#utility.yul\":26355:26356   */\n      0x00\n        /* \"#utility.yul\":26352:26353   */\n      dup1\n        /* \"#utility.yul\":26345:26357   */\n      revert\n        /* \"#utility.yul\":26369:26471   */\n    tag_474:\n        /* \"#utility.yul\":26410:26416   */\n      0x00\n        /* \"#utility.yul\":26461:26463   */\n      0x1f\n        /* \"#utility.yul\":26457:26464   */\n      not\n        /* \"#utility.yul\":26452:26454   */\n      0x1f\n        /* \"#utility.yul\":26445:26450   */\n      dup4\n        /* \"#utility.yul\":26441:26455   */\n      add\n        /* \"#utility.yul\":26437:26465   */\n      and\n        /* \"#utility.yul\":26427:26465   */\n      swap1\n      pop\n        /* \"#utility.yul\":26369:26471   */\n      swap2\n      swap1\n      pop\n      jump\t// out\n        /* \"#utility.yul\":26477:26638   */\n    tag_479:\n        /* \"#utility.yul\":26617:26630   */\n      0x5a45524f5f534841524553000000000000000000000000000000000000000000\n        /* \"#utility.yul\":26613:26614   */\n      0x00\n        /* \"#utility.yul\":26605:26611   */\n      dup3\n        /* \"#utility.yul\":26601:26615   */\n      add\n        /* \"#utility.yul\":26594:26631   */\n      mstore\n        /* \"#utility.yul\":26477:26638   */\n      pop\n      jump\t// out\n        /* \"#utility.yul\":26644:26858   */\n    tag_485:\n        /* \"#utility.yul\":26784:26850   */\n      0x1901000000000000000000000000000000000000000000000000000000000000\n        /* \"#utility.yul\":26780:26781   */\n      0x00\n        /* \"#utility.yul\":26772:26778   */\n      dup3\n        /* \"#utility.yul\":26768:26782   */\n      add\n        /* \"#utility.yul\":26761:26851   */\n      mstore\n        /* \"#utility.yul\":26644:26858   */\n      pop\n      jump\t// out\n        /* \"#utility.yul\":26864:27032   */\n    tag_490:\n        /* \"#utility.yul\":27004:27024   */\n      0x4e6f74206120736861726520686f6c6465720000000000000000000000000000\n        /* \"#utility.yul\":27000:27001   */\n      0x00\n        /* \"#utility.yul\":26992:26998   */\n      dup3\n        /* \"#utility.yul\":26988:27002   */\n      add\n        /* \"#utility.yul\":26981:27025   */\n      mstore\n        /* \"#utility.yul\":26864:27032   */\n      pop\n      jump\t// out\n        /* \"#utility.yul\":27038:27208   */\n    tag_495:\n        /* \"#utility.yul\":27178:27200   */\n      0x5452414e534645525f46524f4d5f4641494c4544000000000000000000000000\n        /* \"#utility.yul\":27174:27175   */\n      0x00\n        /* \"#utility.yul\":27166:27172   */\n      dup3\n        /* \"#utility.yul\":27162:27176   */\n      add\n        /* \"#utility.yul\":27155:27201   */\n      mstore\n        /* \"#utility.yul\":27038:27208   */\n      pop\n      jump\t// out\n        /* \"#utility.yul\":27214:27435   */\n    tag_500:\n        /* \"#utility.yul\":27354:27388   */\n      0x7769746864726177206d7573742062652067726561746572207468616e205a65\n        /* \"#utility.yul\":27350:27351   */\n      0x00\n        /* \"#utility.yul\":27342:27348   */\n      dup3\n        /* \"#utility.yul\":27338:27352   */\n      add\n        /* \"#utility.yul\":27331:27389   */\n      mstore\n        /* \"#utility.yul\":27423:27427   */\n      0x726f000000000000000000000000000000000000000000000000000000000000\n        /* \"#utility.yul\":27418:27420   */\n      0x20\n        /* \"#utility.yul\":27410:27416   */\n      dup3\n        /* \"#utility.yul\":27406:27421   */\n      add\n        /* \"#utility.yul\":27399:27428   */\n      mstore\n        /* \"#utility.yul\":27214:27435   */\n      pop\n      jump\t// out\n        /* \"#utility.yul\":27441:27606   */\n    tag_505:\n        /* \"#utility.yul\":27581:27598   */\n      0x5452414e534645525f4641494c45440000000000000000000000000000000000\n        /* \"#utility.yul\":27577:27578   */\n      0x00\n        /* \"#utility.yul\":27569:27575   */\n      dup3\n        /* \"#utility.yul\":27565:27579   */\n      add\n        /* \"#utility.yul\":27558:27599   */\n      mstore\n        /* \"#utility.yul\":27441:27606   */\n      pop\n      jump\t// out\n        /* \"#utility.yul\":27612:27779   */\n    tag_510:\n        /* \"#utility.yul\":27752:27771   */\n      0x4e6f7420656e6f75676820736861726573000000000000000000000000000000\n        /* \"#utility.yul\":27748:27749   */\n      0x00\n        /* \"#utility.yul\":27740:27746   */\n      dup3\n        /* \"#utility.yul\":27736:27750   */\n      add\n        /* \"#utility.yul\":27729:27772   */\n      mstore\n        /* \"#utility.yul\":27612:27779   */\n      pop\n      jump\t// out\n        /* \"#utility.yul\":27785:27947   */\n    tag_515:\n        /* \"#utility.yul\":27925:27939   */\n      0x5a65726f20416464726573730000000000000000000000000000000000000000\n        /* \"#utility.yul\":27921:27922   */\n      0x00\n        /* \"#utility.yul\":27913:27919   */\n      dup3\n        /* \"#utility.yul\":27909:27923   */\n      add\n        /* \"#utility.yul\":27902:27940   */\n      mstore\n        /* \"#utility.yul\":27785:27947   */\n      pop\n      jump\t// out\n        /* \"#utility.yul\":27953:28117   */\n    tag_520:\n        /* \"#utility.yul\":28093:28109   */\n      0x494e56414c49445f5349474e4552000000000000000000000000000000000000\n        /* \"#utility.yul\":28089:28090   */\n      0x00\n        /* \"#utility.yul\":28081:28087   */\n      dup3\n        /* \"#utility.yul\":28077:28091   */\n      add\n        /* \"#utility.yul\":28070:28110   */\n      mstore\n        /* \"#utility.yul\":27953:28117   */\n      pop\n      jump\t// out\n        /* \"#utility.yul\":28123:28284   */\n    tag_525:\n        /* \"#utility.yul\":28263:28276   */\n      0x5a45524f5f415353455453000000000000000000000000000000000000000000\n        /* \"#utility.yul\":28259:28260   */\n      0x00\n        /* \"#utility.yul\":28251:28257   */\n      dup3\n        /* \"#utility.yul\":28247:28261   */\n      add\n        /* \"#utility.yul\":28240:28277   */\n      mstore\n        /* \"#utility.yul\":28123:28284   */\n      pop\n      jump\t// out\n        /* \"#utility.yul\":28290:28462   */\n    tag_530:\n        /* \"#utility.yul\":28430:28454   */\n      0x4465706f736974206c657373207468616e205a65726f00000000000000000000\n        /* \"#utility.yul\":28426:28427   */\n      0x00\n        /* \"#utility.yul\":28418:28424   */\n      dup3\n        /* \"#utility.yul\":28414:28428   */\n      add\n        /* \"#utility.yul\":28407:28455   */\n      mstore\n        /* \"#utility.yul\":28290:28462   */\n      pop\n      jump\t// out\n        /* \"#utility.yul\":28468:28641   */\n    tag_535:\n        /* \"#utility.yul\":28608:28633   */\n      0x5045524d49545f444541444c494e455f45585049524544000000000000000000\n        /* \"#utility.yul\":28604:28605   */\n      0x00\n        /* \"#utility.yul\":28596:28602   */\n      dup3\n        /* \"#utility.yul\":28592:28606   */\n      add\n        /* \"#utility.yul\":28585:28634   */\n      mstore\n        /* \"#utility.yul\":28468:28641   */\n      pop\n      jump\t// out\n        /* \"#utility.yul\":28647:28769   */\n    tag_365:\n        /* \"#utility.yul\":28720:28744   */\n      tag_683\n        /* \"#utility.yul\":28738:28743   */\n      dup2\n        /* \"#utility.yul\":28720:28744   */\n      tag_434\n      jump\t// in\n    tag_683:\n        /* \"#utility.yul\":28713:28718   */\n      dup2\n        /* \"#utility.yul\":28710:28745   */\n      eq\n        /* \"#utility.yul\":28700:28763   */\n      tag_684\n      jumpi\n        /* \"#utility.yul\":28759:28760   */\n      0x00\n        /* \"#utility.yul\":28756:28757   */\n      dup1\n        /* \"#utility.yul\":28749:28761   */\n      revert\n        /* \"#utility.yul\":28700:28763   */\n    tag_684:\n        /* \"#utility.yul\":28647:28769   */\n      pop\n      jump\t// out\n        /* \"#utility.yul\":28775:28897   */\n    tag_369:\n        /* \"#utility.yul\":28848:28872   */\n      tag_686\n        /* \"#utility.yul\":28866:28871   */\n      dup2\n        /* \"#utility.yul\":28848:28872   */\n      tag_442\n      jump\t// in\n    tag_686:\n        /* \"#utility.yul\":28841:28846   */\n      dup2\n        /* \"#utility.yul\":28838:28873   */\n      eq\n        /* \"#utility.yul\":28828:28891   */\n      tag_687\n      jumpi\n        /* \"#utility.yul\":28887:28888   */\n      0x00\n        /* \"#utility.yul\":28884:28885   */\n      dup1\n        /* \"#utility.yul\":28877:28889   */\n      revert\n        /* \"#utility.yul\":28828:28891   */\n    tag_687:\n        /* \"#utility.yul\":28775:28897   */\n      pop\n      jump\t// out\n        /* \"#utility.yul\":28903:29025   */\n    tag_373:\n        /* \"#utility.yul\":28976:29000   */\n      tag_689\n        /* \"#utility.yul\":28994:28999   */\n      dup2\n        /* \"#utility.yul\":28976:29000   */\n      tag_539\n      jump\t// in\n    tag_689:\n        /* \"#utility.yul\":28969:28974   */\n      dup2\n        /* \"#utility.yul\":28966:29001   */\n      eq\n        /* \"#utility.yul\":28956:29019   */\n      tag_690\n      jumpi\n        /* \"#utility.yul\":29015:29016   */\n      0x00\n        /* \"#utility.yul\":29012:29013   */\n      dup1\n        /* \"#utility.yul\":29005:29017   */\n      revert\n        /* \"#utility.yul\":28956:29019   */\n    tag_690:\n        /* \"#utility.yul\":28903:29025   */\n      pop\n      jump\t// out\n        /* \"#utility.yul\":29031:29149   */\n    tag_380:\n        /* \"#utility.yul\":29102:29124   */\n      tag_692\n        /* \"#utility.yul\":29118:29123   */\n      dup2\n        /* \"#utility.yul\":29102:29124   */\n      tag_543\n      jump\t// in\n    tag_692:\n        /* \"#utility.yul\":29095:29100   */\n      dup2\n        /* \"#utility.yul\":29092:29125   */\n      eq\n        /* \"#utility.yul\":29082:29143   */\n      tag_693\n      jumpi\n        /* \"#utility.yul\":29139:29140   */\n      0x00\n        /* \"#utility.yul\":29136:29137   */\n      dup1\n        /* \"#utility.yul\":29129:29141   */\n      revert\n        /* \"#utility.yul\":29082:29143   */\n    tag_693:\n        /* \"#utility.yul\":29031:29149   */\n      pop\n      jump\t// out\n\n    auxdata: 0xa2646970667358221220c7ff10ea67080b12d8f4efdd8cb21b7ed60120211025d80b1094c0238d22ce5b64736f6c63430008070033\n}\n",
				"bytecode": {
					"linkReferences": {},
					"object": "6101006040523480156200001257600080fd5b506040516200395238038062003952833981810160405281019062000038919062000353565b82828281818473ffffffffffffffffffffffffffffffffffffffff1663313ce5676040518163ffffffff1660e01b815260040160206040518083038186803b1580156200008457600080fd5b505afa15801562000099573d6000803e3d6000fd5b505050506040513d601f19601f82011682018060405250810190620000bf9190620003ed565b8260009080519060200190620000d7929190620001f7565b508160019080519060200190620000f0929190620001f7565b508060ff1660808160ff1660f81b815250504660a081815250506200011a6200016760201b60201c565b60c081815250505050508273ffffffffffffffffffffffffffffffffffffffff1660e08173ffffffffffffffffffffffffffffffffffffffff1660601b8152505050505050505062000794565b60007f8b73c3c69bb8fe3d512ecc4cf759cc79239f7b179b0ffacaa9a75d522b39400f60006040516200019b9190620004dd565b60405180910390207fc89efdaa54c0f20c7adf612882df0950f5a951637e0307cdcb4c672f298b8bc64630604051602001620001dc959493929190620004f6565b60405160208183030381529060405280519060200120905090565b828054620002059062000671565b90600052602060002090601f01602090048101928262000229576000855562000275565b82601f106200024457805160ff191683800117855562000275565b8280016001018555821562000275579182015b828111156200027457825182559160200191906001019062000257565b5b50905062000284919062000288565b5090565b5b80821115620002a357600081600090555060010162000289565b5090565b6000620002be620002b8846200057c565b62000553565b905082815260208101848484011115620002dd57620002dc62000740565b5b620002ea8482856200063b565b509392505050565b600081519050620003038162000760565b92915050565b600082601f8301126200032157620003206200073b565b5b815162000333848260208601620002a7565b91505092915050565b6000815190506200034d816200077a565b92915050565b6000806000606084860312156200036f576200036e6200074a565b5b60006200037f86828701620002f2565b935050602084015167ffffffffffffffff811115620003a357620003a262000745565b5b620003b18682870162000309565b925050604084015167ffffffffffffffff811115620003d557620003d462000745565b5b620003e38682870162000309565b9150509250925092565b6000602082840312156200040657620004056200074a565b5b600062000416848285016200033c565b91505092915050565b6200042a81620005d2565b82525050565b6200043b81620005e6565b82525050565b60008154620004508162000671565b6200045c8186620005c7565b945060018216600081146200047a57600181146200048c57620004c3565b60ff19831686528186019350620004c3565b6200049785620005b2565b60005b83811015620004bb578154818901526001820191506020810190506200049a565b838801955050505b50505092915050565b620004d78162000624565b82525050565b6000620004eb828462000441565b915081905092915050565b600060a0820190506200050d600083018862000430565b6200051c602083018762000430565b6200052b604083018662000430565b6200053a6060830185620004cc565b6200054960808301846200041f565b9695505050505050565b60006200055f62000572565b90506200056d8282620006a7565b919050565b6000604051905090565b600067ffffffffffffffff8211156200059a57620005996200070c565b5b620005a5826200074f565b9050602081019050919050565b60008190508160005260206000209050919050565b600081905092915050565b6000620005df8262000604565b9050919050565b6000819050919050565b6000620005fd82620005d2565b9050919050565b600073ffffffffffffffffffffffffffffffffffffffff82169050919050565b6000819050919050565b600060ff82169050919050565b60005b838110156200065b5780820151818401526020810190506200063e565b838111156200066b576000848401525b50505050565b600060028204905060018216806200068a57607f821691505b60208210811415620006a157620006a0620006dd565b5b50919050565b620006b2826200074f565b810181811067ffffffffffffffff82111715620006d457620006d36200070c565b5b80604052505050565b7f4e487b7100000000000000000000000000000000000000000000000000000000600052602260045260246000fd5b7f4e487b7100000000000000000000000000000000000000000000000000000000600052604160045260246000fd5b600080fd5b600080fd5b600080fd5b600080fd5b6000601f19601f8301169050919050565b6200076b81620005f0565b81146200077757600080fd5b50565b62000785816200062e565b81146200079157600080fd5b50565b60805160f81c60a05160c05160e05160601c613154620007fe6000396000818161073f01528181610f0001528181610f50015281816110680152818161121a015281816116cd015261196c01526000610ed901526000610ea501526000610e7f01526131546000f3fe608060405234801561001057600080fd5b50600436106101f05760003560e01c80637ecebe001161010f578063c63d75b6116100a2578063d905777e11610071578063d905777e1461067b578063dd62ed3e146106ab578063ef8b30f7146106db578063f071f4fd1461070b576101f0565b8063c63d75b6146105cf578063c6e6f592146105ff578063ce96cb771461062f578063d505accf1461065f576101f0565b8063a9059cbb116100de578063a9059cbb1461050f578063b3d7f6b91461053f578063b460af941461056f578063ba0876521461059f576101f0565b80637ecebe00146104755780639213b124146104a557806394bf804d146104c157806395d89b41146104f1576101f0565b8063313ce5671161018757806345be27b61161015657806345be27b6146103b55780634cdad506146103e55780636e553f651461041557806370a0823114610445576101f0565b8063313ce5671461032b5780633644e5151461034957806338d52e0f14610367578063402d267d14610385576101f0565b80630a28a477116101c35780630a28a4771461029157806318160ddd146102c157806323b872dd146102df578063293311ab1461030f576101f0565b806301e1d114146101f557806306fdde031461021357806307a2d13a14610231578063095ea7b314610261575b600080fd5b6101fd61073b565b60405161020a9190612b4e565b60405180910390f35b61021b6107eb565b60405161022891906129cc565b60405180910390f35b61024b6004803603810190610246919061245f565b610879565b6040516102589190612b4e565b60405180910390f35b61027b6004803603810190610276919061241f565b6108b4565b6040516102889190612882565b60405180910390f35b6102ab60048036038101906102a6919061245f565b6109a6565b6040516102b89190612b4e565b60405180910390f35b6102c96109e1565b6040516102d69190612b4e565b60405180910390f35b6102f960048036038101906102f4919061232a565b6109e7565b6040516103069190612882565b60405180910390f35b610329600480360381019061032491906124b9565b610c31565b005b610333610e7d565b6040516103409190612b92565b60405180910390f35b610351610ea1565b60405161035e919061289d565b60405180910390f35b61036f610efe565b60405161037c91906129b1565b60405180910390f35b61039f600480360381019061039a91906122bd565b610f22565b6040516103ac9190612b4e565b60405180910390f35b6103cf60048036038101906103ca91906122bd565b610f4c565b6040516103dc9190612b4e565b60405180910390f35b6103ff60048036038101906103fa919061245f565b610ffe565b60405161040c9190612b4e565b60405180910390f35b61042f600480360381019061042a91906124b9565b611010565b60405161043c9190612b4e565b60405180910390f35b61045f600480360381019061045a91906122bd565b61112e565b60405161046c9190612b4e565b60405180910390f35b61048f600480360381019061048a91906122bd565b611146565b60405161049c9190612b4e565b60405180910390f35b6104bf60048036038101906104ba919061245f565b61115e565b005b6104db60048036038101906104d691906124b9565b611205565b6040516104e89190612b4e565b60405180910390f35b6104f96112e0565b60405161050691906129cc565b60405180910390f35b6105296004803603810190610524919061241f565b61136e565b6040516105369190612882565b60405180910390f35b6105596004803603810190610554919061245f565b611482565b6040516105669190612b4e565b60405180910390f35b610589600480360381019061058491906124f9565b6114bd565b6040516105969190612b4e565b60405180910390f35b6105b960048036038101906105b491906124f9565b611718565b6040516105c69190612b4e565b60405180910390f35b6105e960048036038101906105e491906122bd565b6119b7565b6040516105f69190612b4e565b60405180910390f35b6106196004803603810190610614919061245f565b6119e1565b6040516106269190612b4e565b60405180910390f35b610649600480360381019061064491906122bd565b611a1c565b6040516106569190612b4e565b60405180910390f35b6106796004803603810190610674919061237d565b611a6d565b005b610695600480360381019061069091906122bd565b611d66565b6040516106a29190612b4e565b60405180910390f35b6106c560048036038101906106c091906122ea565b611daf565b6040516106d29190612b4e565b60405180910390f35b6106f560048036038101906106f0919061245f565b611dd4565b6040516107029190612b4e565b60405180910390f35b610725600480360381019061072091906122bd565b611de6565b6040516107329190612b4e565b60405180910390f35b60007f000000000000000000000000000000000000000000000000000000000000000073ffffffffffffffffffffffffffffffffffffffff166370a08231306040518263ffffffff1660e01b81526004016107969190612867565b60206040518083038186803b1580156107ae57600080fd5b505afa1580156107c2573d6000803e3d6000fd5b505050506040513d601f19601f820116820180604052508101906107e6919061248c565b905090565b600080546107f890612dd1565b80601f016020809104026020016040519081016040528092919081815260200182805461082490612dd1565b80156108715780601f1061084657610100808354040283529160200191610871565b820191906000526020600020905b81548152906001019060200180831161085457829003601f168201915b505050505081565b6000806002549050600081146108aa576108a561089461073b565b8285611dfe9092919063ffffffff16565b6108ac565b825b915050919050565b600081600460003373ffffffffffffffffffffffffffffffffffffffff1673ffffffffffffffffffffffffffffffffffffffff16815260200190815260200160002060008573ffffffffffffffffffffffffffffffffffffffff1673ffffffffffffffffffffffffffffffffffffffff168152602001908152602001600020819055508273ffffffffffffffffffffffffffffffffffffffff163373ffffffffffffffffffffffffffffffffffffffff167f8c5be1e5ebec7d5bd14f71427d1e84f3dd0314c0f7b2291e5b200ac8c7c3b925846040516109949190612b4e565b60405180910390a36001905092915050565b6000806002549050600081146109d7576109d2816109c261073b565b85611e419092919063ffffffff16565b6109d9565b825b915050919050565b60025481565b600080600460008673ffffffffffffffffffffffffffffffffffffffff1673ffffffffffffffffffffffffffffffffffffffff16815260200190815260200160002060003373ffffffffffffffffffffffffffffffffffffffff1673ffffffffffffffffffffffffffffffffffffffff1681526020019081526020016000205490507fffffffffffffffffffffffffffffffffffffffffffffffffffffffffffffffff8114610b1d578281610a9c9190612cd5565b600460008773ffffffffffffffffffffffffffffffffffffffff1673ffffffffffffffffffffffffffffffffffffffff16815260200190815260200160002060003373ffffffffffffffffffffffffffffffffffffffff1673ffffffffffffffffffffffffffffffffffffffff168152602001908152602001600020819055505b82600360008773ffffffffffffffffffffffffffffffffffffffff1673ffffffffffffffffffffffffffffffffffffffff1681526020019081526020016000206000828254610b6c9190612cd5565b9250508190555082600360008673ffffffffffffffffffffffffffffffffffffffff1673ffffffffffffffffffffffffffffffffffffffff168152602001908152602001600020600082825401925050819055508373ffffffffffffffffffffffffffffffffffffffff168573ffffffffffffffffffffffffffffffffffffffff167fddf252ad1be2c89b69c2b068fc378daa952ba7f163c4a11628f55a4df523b3ef85604051610c1d9190612b4e565b60405180910390a360019150509392505050565b60008211610c74576040517f08c379a0000000000000000000000000000000000000000000000000000000008152600401610c6b90612a4e565b60405180910390fd5b600073ffffffffffffffffffffffffffffffffffffffff168173ffffffffffffffffffffffffffffffffffffffff161415610ce4576040517f08c379a0000000000000000000000000000000000000000000000000000000008152600401610cdb90612aae565b60405180910390fd5b6000600660003373ffffffffffffffffffffffffffffffffffffffff1673ffffffffffffffffffffffffffffffffffffffff1681526020019081526020016000205411610d66576040517f08c379a0000000000000000000000000000000000000000000000000000000008152600401610d5d90612a0e565b60405180910390fd5b81600660003373ffffffffffffffffffffffffffffffffffffffff1673ffffffffffffffffffffffffffffffffffffffff168152602001908152602001600020541015610de8576040517f08c379a0000000000000000000000000000000000000000000000000000000008152600401610ddf90612a8e565b60405180910390fd5b6000606483600a610df99190612c7b565b610e039190612c4a565b905060008184610e139190612bf4565b9050610e20818433611718565b5083600660003373ffffffffffffffffffffffffffffffffffffffff1673ffffffffffffffffffffffffffffffffffffffff1681526020019081526020016000206000828254610e709190612cd5565b9250508190555050505050565b7f000000000000000000000000000000000000000000000000000000000000000081565b60007f00000000000000000000000000000000000000000000000000000000000000004614610ed757610ed2611e8d565b610ef9565b7f00000000000000000000000000000000000000000000000000000000000000005b905090565b7f000000000000000000000000000000000000000000000000000000000000000081565b60007fffffffffffffffffffffffffffffffffffffffffffffffffffffffffffffffff9050919050565b60007f000000000000000000000000000000000000000000000000000000000000000073ffffffffffffffffffffffffffffffffffffffff166370a08231836040518263ffffffff1660e01b8152600401610fa79190612867565b60206040518083038186803b158015610fbf57600080fd5b505afa158015610fd3573d6000803e3d6000fd5b505050506040513d601f19601f82011682018060405250810190610ff7919061248c565b9050919050565b600061100982610879565b9050919050565b60008061101c84611dd4565b9150811415611060576040517f08c379a0000000000000000000000000000000000000000000000000000000008152600401611057906129ee565b60405180910390fd5b6110ad3330857f000000000000000000000000000000000000000000000000000000000000000073ffffffffffffffffffffffffffffffffffffffff16611f19909392919063ffffffff16565b6110b78282611ff1565b8173ffffffffffffffffffffffffffffffffffffffff163373ffffffffffffffffffffffffffffffffffffffff167fdcbc1c05240f31ff3ad067ef1ee35ce4997762752e3a095284754544f4c709d78584604051611116929190612b69565b60405180910390a361112883826120c1565b92915050565b60036020528060005260406000206000915090505481565b60056020528060005260406000206000915090505481565b600081116111a1576040517f08c379a000000000000000000000000000000000000000000000000000000000815260040161119890612b0e565b60405180910390fd5b6111ab8133611010565b5080600660003373ffffffffffffffffffffffffffffffffffffffff1673ffffffffffffffffffffffffffffffffffffffff16815260200190815260200160002060008282546111fb9190612bf4565b9250508190555050565b600061121083611482565b905061125f3330837f000000000000000000000000000000000000000000000000000000000000000073ffffffffffffffffffffffffffffffffffffffff16611f19909392919063ffffffff16565b6112698284611ff1565b8173ffffffffffffffffffffffffffffffffffffffff163373ffffffffffffffffffffffffffffffffffffffff167fdcbc1c05240f31ff3ad067ef1ee35ce4997762752e3a095284754544f4c709d783866040516112c8929190612b69565b60405180910390a36112da81846120c1565b92915050565b600180546112ed90612dd1565b80601f016020809104026020016040519081016040528092919081815260200182805461131990612dd1565b80156113665780601f1061133b57610100808354040283529160200191611366565b820191906000526020600020905b81548152906001019060200180831161134957829003601f168201915b505050505081565b600081600360003373ffffffffffffffffffffffffffffffffffffffff1673ffffffffffffffffffffffffffffffffffffffff16815260200190815260200160002060008282546113bf9190612cd5565b9250508190555081600360008573ffffffffffffffffffffffffffffffffffffffff1673ffffffffffffffffffffffffffffffffffffffff168152602001908152602001600020600082825401925050819055508273ffffffffffffffffffffffffffffffffffffffff163373ffffffffffffffffffffffffffffffffffffffff167fddf252ad1be2c89b69c2b068fc378daa952ba7f163c4a11628f55a4df523b3ef846040516114709190612b4e565b60405180910390a36001905092915050565b6000806002549050600081146114b3576114ae61149d61073b565b8285611e419092919063ffffffff16565b6114b5565b825b915050919050565b60006114c8846109a6565b90508173ffffffffffffffffffffffffffffffffffffffff163373ffffffffffffffffffffffffffffffffffffffff1614611634576000600460008473ffffffffffffffffffffffffffffffffffffffff1673ffffffffffffffffffffffffffffffffffffffff16815260200190815260200160002060003373ffffffffffffffffffffffffffffffffffffffff1673ffffffffffffffffffffffffffffffffffffffff1681526020019081526020016000205490507fffffffffffffffffffffffffffffffffffffffffffffffffffffffffffffffff81146116325781816115b19190612cd5565b600460008573ffffffffffffffffffffffffffffffffffffffff1673ffffffffffffffffffffffffffffffffffffffff16815260200190815260200160002060003373ffffffffffffffffffffffffffffffffffffffff1673ffffffffffffffffffffffffffffffffffffffff168152602001908152602001600020819055505b505b61163e84826120c5565b61164882826120c9565b8173ffffffffffffffffffffffffffffffffffffffff168373ffffffffffffffffffffffffffffffffffffffff163373ffffffffffffffffffffffffffffffffffffffff167ffbde797d201c681b91056529119e0b02407c7bb96a4a2c75c01fc9667232c8db87856040516116be929190612b69565b60405180910390a461171183857f000000000000000000000000000000000000000000000000000000000000000073ffffffffffffffffffffffffffffffffffffffff166121999092919063ffffffff16565b9392505050565b60008173ffffffffffffffffffffffffffffffffffffffff163373ffffffffffffffffffffffffffffffffffffffff1614611884576000600460008473ffffffffffffffffffffffffffffffffffffffff1673ffffffffffffffffffffffffffffffffffffffff16815260200190815260200160002060003373ffffffffffffffffffffffffffffffffffffffff1673ffffffffffffffffffffffffffffffffffffffff1681526020019081526020016000205490507fffffffffffffffffffffffffffffffffffffffffffffffffffffffffffffffff81146118825784816118019190612cd5565b600460008573ffffffffffffffffffffffffffffffffffffffff1673ffffffffffffffffffffffffffffffffffffffff16815260200190815260200160002060003373ffffffffffffffffffffffffffffffffffffffff1673ffffffffffffffffffffffffffffffffffffffff168152602001908152602001600020819055505b505b600061188f85610ffe565b91508114156118d3576040517f08c379a00000000000000000000000000000000000000000000000000000000081526004016118ca90612aee565b60405180910390fd5b6118dd81856120c5565b6118e782856120c9565b8173ffffffffffffffffffffffffffffffffffffffff168373ffffffffffffffffffffffffffffffffffffffff163373ffffffffffffffffffffffffffffffffffffffff167ffbde797d201c681b91056529119e0b02407c7bb96a4a2c75c01fc9667232c8db848860405161195d929190612b69565b60405180910390a46119b083827f000000000000000000000000000000000000000000000000000000000000000073ffffffffffffffffffffffffffffffffffffffff166121999092919063ffffffff16565b9392505050565b60007fffffffffffffffffffffffffffffffffffffffffffffffffffffffffffffffff9050919050565b600080600254905060008114611a1257611a0d816119fd61073b565b85611dfe9092919063ffffffff16565b611a14565b825b915050919050565b6000611a66600360008473ffffffffffffffffffffffffffffffffffffffff1673ffffffffffffffffffffffffffffffffffffffff16815260200190815260200160002054610879565b9050919050565b42841015611ab0576040517f08c379a0000000000000000000000000000000000000000000000000000000008152600401611aa790612b2e565b60405180910390fd5b60006001611abc610ea1565b7f6e71edae12b1b97f4d1f60370fef10105fa2faae0126114a169c64845d6126c98a8a8a600560008f73ffffffffffffffffffffffffffffffffffffffff1673ffffffffffffffffffffffffffffffffffffffff1681526020019081526020016000206000815480929190600101919050558b604051602001611b44969594939291906128b8565b60405160208183030381529060405280519060200120604051602001611b6b929190612830565b6040516020818303038152906040528051906020012085858560405160008152602001604052604051611ba1949392919061296c565b6020604051602081039080840390855afa158015611bc3573d6000803e3d6000fd5b505050602060405103519050600073ffffffffffffffffffffffffffffffffffffffff168173ffffffffffffffffffffffffffffffffffffffff1614158015611c3757508773ffffffffffffffffffffffffffffffffffffffff168173ffffffffffffffffffffffffffffffffffffffff16145b611c76576040517f08c379a0000000000000000000000000000000000000000000000000000000008152600401611c6d90612ace565b60405180910390fd5b85600460008373ffffffffffffffffffffffffffffffffffffffff1673ffffffffffffffffffffffffffffffffffffffff16815260200190815260200160002060008973ffffffffffffffffffffffffffffffffffffffff1673ffffffffffffffffffffffffffffffffffffffff16815260200190815260200160002081905550508573ffffffffffffffffffffffffffffffffffffffff168773ffffffffffffffffffffffffffffffffffffffff167f8c5be1e5ebec7d5bd14f71427d1e84f3dd0314c0f7b2291e5b200ac8c7c3b92587604051611d559190612b4e565b60405180910390a350505050505050565b6000600360008373ffffffffffffffffffffffffffffffffffffffff1673ffffffffffffffffffffffffffffffffffffffff168152602001908152602001600020549050919050565b6004602052816000526040600020602052806000526040600020600091509150505481565b6000611ddf826119e1565b9050919050565b60066020528060005260406000206000915090505481565b6000827fffffffffffffffffffffffffffffffffffffffffffffffffffffffffffffffff0484118302158202611e3357600080fd5b818385020490509392505050565b6000827fffffffffffffffffffffffffffffffffffffffffffffffffffffffffffffffff0484118302158202611e7657600080fd5b818385020460008385870206110190509392505050565b60007f8b73c3c69bb8fe3d512ecc4cf759cc79239f7b179b0ffacaa9a75d522b39400f6000604051611ebf9190612819565b60405180910390207fc89efdaa54c0f20c7adf612882df0950f5a951637e0307cdcb4c672f298b8bc64630604051602001611efe959493929190612919565b60405160208183030381529060405280519060200120905090565b60006040517f23b872dd00000000000000000000000000000000000000000000000000000000815273ffffffffffffffffffffffffffffffffffffffff8516600482015273ffffffffffffffffffffffffffffffffffffffff841660248201528260448201526020600060648360008a5af1915081601f3d1160016000511416151615611fa9573d863b15171591505b5080611fea576040517f08c379a0000000000000000000000000000000000000000000000000000000008152600401611fe190612a2e565b60405180910390fd5b5050505050565b80600260008282546120039190612bf4565b9250508190555080600360008473ffffffffffffffffffffffffffffffffffffffff1673ffffffffffffffffffffffffffffffffffffffff168152602001908152602001600020600082825401925050819055508173ffffffffffffffffffffffffffffffffffffffff16600073ffffffffffffffffffffffffffffffffffffffff167fddf252ad1be2c89b69c2b068fc378daa952ba7f163c4a11628f55a4df523b3ef836040516120b59190612b4e565b60405180910390a35050565b5050565b5050565b80600360008473ffffffffffffffffffffffffffffffffffffffff1673ffffffffffffffffffffffffffffffffffffffff16815260200190815260200160002060008282546121189190612cd5565b9250508190555080600260008282540392505081905550600073ffffffffffffffffffffffffffffffffffffffff168273ffffffffffffffffffffffffffffffffffffffff167fddf252ad1be2c89b69c2b068fc378daa952ba7f163c4a11628f55a4df523b3ef8360405161218d9190612b4e565b60405180910390a35050565b60006040517fa9059cbb00000000000000000000000000000000000000000000000000000000815273ffffffffffffffffffffffffffffffffffffffff84166004820152826024820152602060006044836000895af1915081601f3d116001600051141615161561220d573d853b15171591505b508061224e576040517f08c379a000000000000000000000000000000000000000000000000000000000815260040161224590612a6e565b60405180910390fd5b50505050565b600081359050612263816130c2565b92915050565b600081359050612278816130d9565b92915050565b60008135905061228d816130f0565b92915050565b6000815190506122a2816130f0565b92915050565b6000813590506122b781613107565b92915050565b6000602082840312156122d3576122d2612e9a565b5b60006122e184828501612254565b91505092915050565b6000806040838503121561230157612300612e9a565b5b600061230f85828601612254565b925050602061232085828601612254565b9150509250929050565b60008060006060848603121561234357612342612e9a565b5b600061235186828701612254565b935050602061236286828701612254565b92505060406123738682870161227e565b9150509250925092565b600080600080600080600060e0888a03121561239c5761239b612e9a565b5b60006123aa8a828b01612254565b97505060206123bb8a828b01612254565b96505060406123cc8a828b0161227e565b95505060606123dd8a828b0161227e565b94505060806123ee8a828b016122a8565b93505060a06123ff8a828b01612269565b92505060c06124108a828b01612269565b91505092959891949750929550565b6000806040838503121561243657612435612e9a565b5b600061244485828601612254565b92505060206124558582860161227e565b9150509250929050565b60006020828403121561247557612474612e9a565b5b60006124838482850161227e565b91505092915050565b6000602082840312156124a2576124a1612e9a565b5b60006124b084828501612293565b91505092915050565b600080604083850312156124d0576124cf612e9a565b5b60006124de8582860161227e565b92505060206124ef85828601612254565b9150509250929050565b60008060006060848603121561251257612511612e9a565b5b60006125208682870161227e565b935050602061253186828701612254565b925050604061254286828701612254565b9150509250925092565b61255581612d09565b82525050565b61256481612d1b565b82525050565b61257381612d27565b82525050565b61258a61258582612d27565b612e03565b82525050565b6000815461259d81612dd1565b6125a78186612bcd565b945060018216600081146125c257600181146125d357612606565b60ff19831686528186019350612606565b6125dc85612bad565b60005b838110156125fe578154818901526001820191506020810190506125df565b838801955050505b50505092915050565b61261881612d68565b82525050565b600061262982612bc2565b6126338185612bd8565b9350612643818560208601612d9e565b61264c81612e9f565b840191505092915050565b6000612664600b83612bd8565b915061266f82612eb0565b602082019050919050565b6000612687600283612be9565b915061269282612ed9565b600282019050919050565b60006126aa601283612bd8565b91506126b582612f02565b602082019050919050565b60006126cd601483612bd8565b91506126d882612f2b565b602082019050919050565b60006126f0602283612bd8565b91506126fb82612f54565b604082019050919050565b6000612713600f83612bd8565b915061271e82612fa3565b602082019050919050565b6000612736601183612bd8565b915061274182612fcc565b602082019050919050565b6000612759600c83612bd8565b915061276482612ff5565b602082019050919050565b600061277c600e83612bd8565b91506127878261301e565b602082019050919050565b600061279f600b83612bd8565b91506127aa82613047565b602082019050919050565b60006127c2601683612bd8565b91506127cd82613070565b602082019050919050565b60006127e5601783612bd8565b91506127f082613099565b602082019050919050565b61280481612d51565b82525050565b61281381612d5b565b82525050565b60006128258284612590565b915081905092915050565b600061283b8261267a565b91506128478285612579565b6020820191506128578284612579565b6020820191508190509392505050565b600060208201905061287c600083018461254c565b92915050565b6000602082019050612897600083018461255b565b92915050565b60006020820190506128b2600083018461256a565b92915050565b600060c0820190506128cd600083018961256a565b6128da602083018861254c565b6128e7604083018761254c565b6128f460608301866127fb565b61290160808301856127fb565b61290e60a08301846127fb565b979650505050505050565b600060a08201905061292e600083018861256a565b61293b602083018761256a565b612948604083018661256a565b61295560608301856127fb565b612962608083018461254c565b9695505050505050565b6000608082019050612981600083018761256a565b61298e602083018661280a565b61299b604083018561256a565b6129a8606083018461256a565b95945050505050565b60006020820190506129c6600083018461260f565b92915050565b600060208201905081810360008301526129e6818461261e565b905092915050565b60006020820190508181036000830152612a0781612657565b9050919050565b60006020820190508181036000830152612a278161269d565b9050919050565b60006020820190508181036000830152612a47816126c0565b9050919050565b60006020820190508181036000830152612a67816126e3565b9050919050565b60006020820190508181036000830152612a8781612706565b9050919050565b60006020820190508181036000830152612aa781612729565b9050919050565b60006020820190508181036000830152612ac78161274c565b9050919050565b60006020820190508181036000830152612ae78161276f565b9050919050565b60006020820190508181036000830152612b0781612792565b9050919050565b60006020820190508181036000830152612b27816127b5565b9050919050565b60006020820190508181036000830152612b47816127d8565b9050919050565b6000602082019050612b6360008301846127fb565b92915050565b6000604082019050612b7e60008301856127fb565b612b8b60208301846127fb565b9392505050565b6000602082019050612ba7600083018461280a565b92915050565b60008190508160005260206000209050919050565b600081519050919050565b600081905092915050565b600082825260208201905092915050565b600081905092915050565b6000612bff82612d51565b9150612c0a83612d51565b9250827fffffffffffffffffffffffffffffffffffffffffffffffffffffffffffffffff03821115612c3f57612c3e612e0d565b5b828201905092915050565b6000612c5582612d51565b9150612c6083612d51565b925082612c7057612c6f612e3c565b5b828204905092915050565b6000612c8682612d51565b9150612c9183612d51565b9250817fffffffffffffffffffffffffffffffffffffffffffffffffffffffffffffffff0483118215151615612cca57612cc9612e0d565b5b828202905092915050565b6000612ce082612d51565b9150612ceb83612d51565b925082821015612cfe57612cfd612e0d565b5b828203905092915050565b6000612d1482612d31565b9050919050565b60008115159050919050565b6000819050919050565b600073ffffffffffffffffffffffffffffffffffffffff82169050919050565b6000819050919050565b600060ff82169050919050565b6000612d7382612d7a565b9050919050565b6000612d8582612d8c565b9050919050565b6000612d9782612d31565b9050919050565b60005b83811015612dbc578082015181840152602081019050612da1565b83811115612dcb576000848401525b50505050565b60006002820490506001821680612de957607f821691505b60208210811415612dfd57612dfc612e6b565b5b50919050565b6000819050919050565b7f4e487b7100000000000000000000000000000000000000000000000000000000600052601160045260246000fd5b7f4e487b7100000000000000000000000000000000000000000000000000000000600052601260045260246000fd5b7f4e487b7100000000000000000000000000000000000000000000000000000000600052602260045260246000fd5b600080fd5b6000601f19601f8301169050919050565b7f5a45524f5f534841524553000000000000000000000000000000000000000000600082015250565b7f1901000000000000000000000000000000000000000000000000000000000000600082015250565b7f4e6f74206120736861726520686f6c6465720000000000000000000000000000600082015250565b7f5452414e534645525f46524f4d5f4641494c4544000000000000000000000000600082015250565b7f7769746864726177206d7573742062652067726561746572207468616e205a6560008201527f726f000000000000000000000000000000000000000000000000000000000000602082015250565b7f5452414e534645525f4641494c45440000000000000000000000000000000000600082015250565b7f4e6f7420656e6f75676820736861726573000000000000000000000000000000600082015250565b7f5a65726f20416464726573730000000000000000000000000000000000000000600082015250565b7f494e56414c49445f5349474e4552000000000000000000000000000000000000600082015250565b7f5a45524f5f415353455453000000000000000000000000000000000000000000600082015250565b7f4465706f736974206c657373207468616e205a65726f00000000000000000000600082015250565b7f5045524d49545f444541444c494e455f45585049524544000000000000000000600082015250565b6130cb81612d09565b81146130d657600080fd5b50565b6130e281612d27565b81146130ed57600080fd5b50565b6130f981612d51565b811461310457600080fd5b50565b61311081612d5b565b811461311b57600080fd5b5056fea2646970667358221220c7ff10ea67080b12d8f4efdd8cb21b7ed60120211025d80b1094c0238d22ce5b64736f6c63430008070033",
					"opcodes": "PUSH2 0x100 PUSH1 0x40 MSTORE CALLVALUE DUP1 ISZERO PUSH3 0x12 JUMPI PUSH1 0x0 DUP1 REVERT JUMPDEST POP PUSH1 0x40 MLOAD PUSH3 0x3952 CODESIZE SUB DUP1 PUSH3 0x3952 DUP4 CODECOPY DUP2 DUP2 ADD PUSH1 0x40 MSTORE DUP2 ADD SWAP1 PUSH3 0x38 SWAP2 SWAP1 PUSH3 0x353 JUMP JUMPDEST DUP3 DUP3 DUP3 DUP2 DUP2 DUP5 PUSH20 0xFFFFFFFFFFFFFFFFFFFFFFFFFFFFFFFFFFFFFFFF AND PUSH4 0x313CE567 PUSH1 0x40 MLOAD DUP2 PUSH4 0xFFFFFFFF AND PUSH1 0xE0 SHL DUP2 MSTORE PUSH1 0x4 ADD PUSH1 0x20 PUSH1 0x40 MLOAD DUP1 DUP4 SUB DUP2 DUP7 DUP1 EXTCODESIZE ISZERO DUP1 ISZERO PUSH3 0x84 JUMPI PUSH1 0x0 DUP1 REVERT JUMPDEST POP GAS STATICCALL ISZERO DUP1 ISZERO PUSH3 0x99 JUMPI RETURNDATASIZE PUSH1 0x0 DUP1 RETURNDATACOPY RETURNDATASIZE PUSH1 0x0 REVERT JUMPDEST POP POP POP POP PUSH1 0x40 MLOAD RETURNDATASIZE PUSH1 0x1F NOT PUSH1 0x1F DUP3 ADD AND DUP3 ADD DUP1 PUSH1 0x40 MSTORE POP DUP2 ADD SWAP1 PUSH3 0xBF SWAP2 SWAP1 PUSH3 0x3ED JUMP JUMPDEST DUP3 PUSH1 0x0 SWAP1 DUP1 MLOAD SWAP1 PUSH1 0x20 ADD SWAP1 PUSH3 0xD7 SWAP3 SWAP2 SWAP1 PUSH3 0x1F7 JUMP JUMPDEST POP DUP2 PUSH1 0x1 SWAP1 DUP1 MLOAD SWAP1 PUSH1 0x20 ADD SWAP1 PUSH3 0xF0 SWAP3 SWAP2 SWAP1 PUSH3 0x1F7 JUMP JUMPDEST POP DUP1 PUSH1 0xFF AND PUSH1 0x80 DUP2 PUSH1 0xFF AND PUSH1 0xF8 SHL DUP2 MSTORE POP POP CHAINID PUSH1 0xA0 DUP2 DUP2 MSTORE POP POP PUSH3 0x11A PUSH3 0x167 PUSH1 0x20 SHL PUSH1 0x20 SHR JUMP JUMPDEST PUSH1 0xC0 DUP2 DUP2 MSTORE POP POP POP POP POP DUP3 PUSH20 0xFFFFFFFFFFFFFFFFFFFFFFFFFFFFFFFFFFFFFFFF AND PUSH1 0xE0 DUP2 PUSH20 0xFFFFFFFFFFFFFFFFFFFFFFFFFFFFFFFFFFFFFFFF AND PUSH1 0x60 SHL DUP2 MSTORE POP POP POP POP POP POP POP POP PUSH3 0x794 JUMP JUMPDEST PUSH1 0x0 PUSH32 0x8B73C3C69BB8FE3D512ECC4CF759CC79239F7B179B0FFACAA9A75D522B39400F PUSH1 0x0 PUSH1 0x40 MLOAD PUSH3 0x19B SWAP2 SWAP1 PUSH3 0x4DD JUMP JUMPDEST PUSH1 0x40 MLOAD DUP1 SWAP2 SUB SWAP1 KECCAK256 PUSH32 0xC89EFDAA54C0F20C7ADF612882DF0950F5A951637E0307CDCB4C672F298B8BC6 CHAINID ADDRESS PUSH1 0x40 MLOAD PUSH1 0x20 ADD PUSH3 0x1DC SWAP6 SWAP5 SWAP4 SWAP3 SWAP2 SWAP1 PUSH3 0x4F6 JUMP JUMPDEST PUSH1 0x40 MLOAD PUSH1 0x20 DUP2 DUP4 SUB SUB DUP2 MSTORE SWAP1 PUSH1 0x40 MSTORE DUP1 MLOAD SWAP1 PUSH1 0x20 ADD KECCAK256 SWAP1 POP SWAP1 JUMP JUMPDEST DUP3 DUP1 SLOAD PUSH3 0x205 SWAP1 PUSH3 0x671 JUMP JUMPDEST SWAP1 PUSH1 0x0 MSTORE PUSH1 0x20 PUSH1 0x0 KECCAK256 SWAP1 PUSH1 0x1F ADD PUSH1 0x20 SWAP1 DIV DUP2 ADD SWAP3 DUP3 PUSH3 0x229 JUMPI PUSH1 0x0 DUP6 SSTORE PUSH3 0x275 JUMP JUMPDEST DUP3 PUSH1 0x1F LT PUSH3 0x244 JUMPI DUP1 MLOAD PUSH1 0xFF NOT AND DUP4 DUP1 ADD OR DUP6 SSTORE PUSH3 0x275 JUMP JUMPDEST DUP3 DUP1 ADD PUSH1 0x1 ADD DUP6 SSTORE DUP3 ISZERO PUSH3 0x275 JUMPI SWAP2 DUP3 ADD JUMPDEST DUP3 DUP2 GT ISZERO PUSH3 0x274 JUMPI DUP3 MLOAD DUP3 SSTORE SWAP2 PUSH1 0x20 ADD SWAP2 SWAP1 PUSH1 0x1 ADD SWAP1 PUSH3 0x257 JUMP JUMPDEST JUMPDEST POP SWAP1 POP PUSH3 0x284 SWAP2 SWAP1 PUSH3 0x288 JUMP JUMPDEST POP SWAP1 JUMP JUMPDEST JUMPDEST DUP1 DUP3 GT ISZERO PUSH3 0x2A3 JUMPI PUSH1 0x0 DUP2 PUSH1 0x0 SWAP1 SSTORE POP PUSH1 0x1 ADD PUSH3 0x289 JUMP JUMPDEST POP SWAP1 JUMP JUMPDEST PUSH1 0x0 PUSH3 0x2BE PUSH3 0x2B8 DUP5 PUSH3 0x57C JUMP JUMPDEST PUSH3 0x553 JUMP JUMPDEST SWAP1 POP DUP3 DUP2 MSTORE PUSH1 0x20 DUP2 ADD DUP5 DUP5 DUP5 ADD GT ISZERO PUSH3 0x2DD JUMPI PUSH3 0x2DC PUSH3 0x740 JUMP JUMPDEST JUMPDEST PUSH3 0x2EA DUP5 DUP3 DUP6 PUSH3 0x63B JUMP JUMPDEST POP SWAP4 SWAP3 POP POP POP JUMP JUMPDEST PUSH1 0x0 DUP2 MLOAD SWAP1 POP PUSH3 0x303 DUP2 PUSH3 0x760 JUMP JUMPDEST SWAP3 SWAP2 POP POP JUMP JUMPDEST PUSH1 0x0 DUP3 PUSH1 0x1F DUP4 ADD SLT PUSH3 0x321 JUMPI PUSH3 0x320 PUSH3 0x73B JUMP JUMPDEST JUMPDEST DUP2 MLOAD PUSH3 0x333 DUP5 DUP3 PUSH1 0x20 DUP7 ADD PUSH3 0x2A7 JUMP JUMPDEST SWAP2 POP POP SWAP3 SWAP2 POP POP JUMP JUMPDEST PUSH1 0x0 DUP2 MLOAD SWAP1 POP PUSH3 0x34D DUP2 PUSH3 0x77A JUMP JUMPDEST SWAP3 SWAP2 POP POP JUMP JUMPDEST PUSH1 0x0 DUP1 PUSH1 0x0 PUSH1 0x60 DUP5 DUP7 SUB SLT ISZERO PUSH3 0x36F JUMPI PUSH3 0x36E PUSH3 0x74A JUMP JUMPDEST JUMPDEST PUSH1 0x0 PUSH3 0x37F DUP7 DUP3 DUP8 ADD PUSH3 0x2F2 JUMP JUMPDEST SWAP4 POP POP PUSH1 0x20 DUP5 ADD MLOAD PUSH8 0xFFFFFFFFFFFFFFFF DUP2 GT ISZERO PUSH3 0x3A3 JUMPI PUSH3 0x3A2 PUSH3 0x745 JUMP JUMPDEST JUMPDEST PUSH3 0x3B1 DUP7 DUP3 DUP8 ADD PUSH3 0x309 JUMP JUMPDEST SWAP3 POP POP PUSH1 0x40 DUP5 ADD MLOAD PUSH8 0xFFFFFFFFFFFFFFFF DUP2 GT ISZERO PUSH3 0x3D5 JUMPI PUSH3 0x3D4 PUSH3 0x745 JUMP JUMPDEST JUMPDEST PUSH3 0x3E3 DUP7 DUP3 DUP8 ADD PUSH3 0x309 JUMP JUMPDEST SWAP2 POP POP SWAP3 POP SWAP3 POP SWAP3 JUMP JUMPDEST PUSH1 0x0 PUSH1 0x20 DUP3 DUP5 SUB SLT ISZERO PUSH3 0x406 JUMPI PUSH3 0x405 PUSH3 0x74A JUMP JUMPDEST JUMPDEST PUSH1 0x0 PUSH3 0x416 DUP5 DUP3 DUP6 ADD PUSH3 0x33C JUMP JUMPDEST SWAP2 POP POP SWAP3 SWAP2 POP POP JUMP JUMPDEST PUSH3 0x42A DUP2 PUSH3 0x5D2 JUMP JUMPDEST DUP3 MSTORE POP POP JUMP JUMPDEST PUSH3 0x43B DUP2 PUSH3 0x5E6 JUMP JUMPDEST DUP3 MSTORE POP POP JUMP JUMPDEST PUSH1 0x0 DUP2 SLOAD PUSH3 0x450 DUP2 PUSH3 0x671 JUMP JUMPDEST PUSH3 0x45C DUP2 DUP7 PUSH3 0x5C7 JUMP JUMPDEST SWAP5 POP PUSH1 0x1 DUP3 AND PUSH1 0x0 DUP2 EQ PUSH3 0x47A JUMPI PUSH1 0x1 DUP2 EQ PUSH3 0x48C JUMPI PUSH3 0x4C3 JUMP JUMPDEST PUSH1 0xFF NOT DUP4 AND DUP7 MSTORE DUP2 DUP7 ADD SWAP4 POP PUSH3 0x4C3 JUMP JUMPDEST PUSH3 0x497 DUP6 PUSH3 0x5B2 JUMP JUMPDEST PUSH1 0x0 JUMPDEST DUP4 DUP2 LT ISZERO PUSH3 0x4BB JUMPI DUP2 SLOAD DUP2 DUP10 ADD MSTORE PUSH1 0x1 DUP3 ADD SWAP2 POP PUSH1 0x20 DUP2 ADD SWAP1 POP PUSH3 0x49A JUMP JUMPDEST DUP4 DUP9 ADD SWAP6 POP POP POP JUMPDEST POP POP POP SWAP3 SWAP2 POP POP JUMP JUMPDEST PUSH3 0x4D7 DUP2 PUSH3 0x624 JUMP JUMPDEST DUP3 MSTORE POP POP JUMP JUMPDEST PUSH1 0x0 PUSH3 0x4EB DUP3 DUP5 PUSH3 0x441 JUMP JUMPDEST SWAP2 POP DUP2 SWAP1 POP SWAP3 SWAP2 POP POP JUMP JUMPDEST PUSH1 0x0 PUSH1 0xA0 DUP3 ADD SWAP1 POP PUSH3 0x50D PUSH1 0x0 DUP4 ADD DUP9 PUSH3 0x430 JUMP JUMPDEST PUSH3 0x51C PUSH1 0x20 DUP4 ADD DUP8 PUSH3 0x430 JUMP JUMPDEST PUSH3 0x52B PUSH1 0x40 DUP4 ADD DUP7 PUSH3 0x430 JUMP JUMPDEST PUSH3 0x53A PUSH1 0x60 DUP4 ADD DUP6 PUSH3 0x4CC JUMP JUMPDEST PUSH3 0x549 PUSH1 0x80 DUP4 ADD DUP5 PUSH3 0x41F JUMP JUMPDEST SWAP7 SWAP6 POP POP POP POP POP POP JUMP JUMPDEST PUSH1 0x0 PUSH3 0x55F PUSH3 0x572 JUMP JUMPDEST SWAP1 POP PUSH3 0x56D DUP3 DUP3 PUSH3 0x6A7 JUMP JUMPDEST SWAP2 SWAP1 POP JUMP JUMPDEST PUSH1 0x0 PUSH1 0x40 MLOAD SWAP1 POP SWAP1 JUMP JUMPDEST PUSH1 0x0 PUSH8 0xFFFFFFFFFFFFFFFF DUP3 GT ISZERO PUSH3 0x59A JUMPI PUSH3 0x599 PUSH3 0x70C JUMP JUMPDEST JUMPDEST PUSH3 0x5A5 DUP3 PUSH3 0x74F JUMP JUMPDEST SWAP1 POP PUSH1 0x20 DUP2 ADD SWAP1 POP SWAP2 SWAP1 POP JUMP JUMPDEST PUSH1 0x0 DUP2 SWAP1 POP DUP2 PUSH1 0x0 MSTORE PUSH1 0x20 PUSH1 0x0 KECCAK256 SWAP1 POP SWAP2 SWAP1 POP JUMP JUMPDEST PUSH1 0x0 DUP2 SWAP1 POP SWAP3 SWAP2 POP POP JUMP JUMPDEST PUSH1 0x0 PUSH3 0x5DF DUP3 PUSH3 0x604 JUMP JUMPDEST SWAP1 POP SWAP2 SWAP1 POP JUMP JUMPDEST PUSH1 0x0 DUP2 SWAP1 POP SWAP2 SWAP1 POP JUMP JUMPDEST PUSH1 0x0 PUSH3 0x5FD DUP3 PUSH3 0x5D2 JUMP JUMPDEST SWAP1 POP SWAP2 SWAP1 POP JUMP JUMPDEST PUSH1 0x0 PUSH20 0xFFFFFFFFFFFFFFFFFFFFFFFFFFFFFFFFFFFFFFFF DUP3 AND SWAP1 POP SWAP2 SWAP1 POP JUMP JUMPDEST PUSH1 0x0 DUP2 SWAP1 POP SWAP2 SWAP1 POP JUMP JUMPDEST PUSH1 0x0 PUSH1 0xFF DUP3 AND SWAP1 POP SWAP2 SWAP1 POP JUMP JUMPDEST PUSH1 0x0 JUMPDEST DUP4 DUP2 LT ISZERO PUSH3 0x65B JUMPI DUP1 DUP3 ADD MLOAD DUP2 DUP5 ADD MSTORE PUSH1 0x20 DUP2 ADD SWAP1 POP PUSH3 0x63E JUMP JUMPDEST DUP4 DUP2 GT ISZERO PUSH3 0x66B JUMPI PUSH1 0x0 DUP5 DUP5 ADD MSTORE JUMPDEST POP POP POP POP JUMP JUMPDEST PUSH1 0x0 PUSH1 0x2 DUP3 DIV SWAP1 POP PUSH1 0x1 DUP3 AND DUP1 PUSH3 0x68A JUMPI PUSH1 0x7F DUP3 AND SWAP2 POP JUMPDEST PUSH1 0x20 DUP3 LT DUP2 EQ ISZERO PUSH3 0x6A1 JUMPI PUSH3 0x6A0 PUSH3 0x6DD JUMP JUMPDEST JUMPDEST POP SWAP2 SWAP1 POP JUMP JUMPDEST PUSH3 0x6B2 DUP3 PUSH3 0x74F JUMP JUMPDEST DUP2 ADD DUP2 DUP2 LT PUSH8 0xFFFFFFFFFFFFFFFF DUP3 GT OR ISZERO PUSH3 0x6D4 JUMPI PUSH3 0x6D3 PUSH3 0x70C JUMP JUMPDEST JUMPDEST DUP1 PUSH1 0x40 MSTORE POP POP POP JUMP JUMPDEST PUSH32 0x4E487B7100000000000000000000000000000000000000000000000000000000 PUSH1 0x0 MSTORE PUSH1 0x22 PUSH1 0x4 MSTORE PUSH1 0x24 PUSH1 0x0 REVERT JUMPDEST PUSH32 0x4E487B7100000000000000000000000000000000000000000000000000000000 PUSH1 0x0 MSTORE PUSH1 0x41 PUSH1 0x4 MSTORE PUSH1 0x24 PUSH1 0x0 REVERT JUMPDEST PUSH1 0x0 DUP1 REVERT JUMPDEST PUSH1 0x0 DUP1 REVERT JUMPDEST PUSH1 0x0 DUP1 REVERT JUMPDEST PUSH1 0x0 DUP1 REVERT JUMPDEST PUSH1 0x0 PUSH1 0x1F NOT PUSH1 0x1F DUP4 ADD AND SWAP1 POP SWAP2 SWAP1 POP JUMP JUMPDEST PUSH3 0x76B DUP2 PUSH3 0x5F0 JUMP JUMPDEST DUP2 EQ PUSH3 0x777 JUMPI PUSH1 0x0 DUP1 REVERT JUMPDEST POP JUMP JUMPDEST PUSH3 0x785 DUP2 PUSH3 0x62E JUMP JUMPDEST DUP2 EQ PUSH3 0x791 JUMPI PUSH1 0x0 DUP1 REVERT JUMPDEST POP JUMP JUMPDEST PUSH1 0x80 MLOAD PUSH1 0xF8 SHR PUSH1 0xA0 MLOAD PUSH1 0xC0 MLOAD PUSH1 0xE0 MLOAD PUSH1 0x60 SHR PUSH2 0x3154 PUSH3 0x7FE PUSH1 0x0 CODECOPY PUSH1 0x0 DUP2 DUP2 PUSH2 0x73F ADD MSTORE DUP2 DUP2 PUSH2 0xF00 ADD MSTORE DUP2 DUP2 PUSH2 0xF50 ADD MSTORE DUP2 DUP2 PUSH2 0x1068 ADD MSTORE DUP2 DUP2 PUSH2 0x121A ADD MSTORE DUP2 DUP2 PUSH2 0x16CD ADD MSTORE PUSH2 0x196C ADD MSTORE PUSH1 0x0 PUSH2 0xED9 ADD MSTORE PUSH1 0x0 PUSH2 0xEA5 ADD MSTORE PUSH1 0x0 PUSH2 0xE7F ADD MSTORE PUSH2 0x3154 PUSH1 0x0 RETURN INVALID PUSH1 0x80 PUSH1 0x40 MSTORE CALLVALUE DUP1 ISZERO PUSH2 0x10 JUMPI PUSH1 0x0 DUP1 REVERT JUMPDEST POP PUSH1 0x4 CALLDATASIZE LT PUSH2 0x1F0 JUMPI PUSH1 0x0 CALLDATALOAD PUSH1 0xE0 SHR DUP1 PUSH4 0x7ECEBE00 GT PUSH2 0x10F JUMPI DUP1 PUSH4 0xC63D75B6 GT PUSH2 0xA2 JUMPI DUP1 PUSH4 0xD905777E GT PUSH2 0x71 JUMPI DUP1 PUSH4 0xD905777E EQ PUSH2 0x67B JUMPI DUP1 PUSH4 0xDD62ED3E EQ PUSH2 0x6AB JUMPI DUP1 PUSH4 0xEF8B30F7 EQ PUSH2 0x6DB JUMPI DUP1 PUSH4 0xF071F4FD EQ PUSH2 0x70B JUMPI PUSH2 0x1F0 JUMP JUMPDEST DUP1 PUSH4 0xC63D75B6 EQ PUSH2 0x5CF JUMPI DUP1 PUSH4 0xC6E6F592 EQ PUSH2 0x5FF JUMPI DUP1 PUSH4 0xCE96CB77 EQ PUSH2 0x62F JUMPI DUP1 PUSH4 0xD505ACCF EQ PUSH2 0x65F JUMPI PUSH2 0x1F0 JUMP JUMPDEST DUP1 PUSH4 0xA9059CBB GT PUSH2 0xDE JUMPI DUP1 PUSH4 0xA9059CBB EQ PUSH2 0x50F JUMPI DUP1 PUSH4 0xB3D7F6B9 EQ PUSH2 0x53F JUMPI DUP1 PUSH4 0xB460AF94 EQ PUSH2 0x56F JUMPI DUP1 PUSH4 0xBA087652 EQ PUSH2 0x59F JUMPI PUSH2 0x1F0 JUMP JUMPDEST DUP1 PUSH4 0x7ECEBE00 EQ PUSH2 0x475 JUMPI DUP1 PUSH4 0x9213B124 EQ PUSH2 0x4A5 JUMPI DUP1 PUSH4 0x94BF804D EQ PUSH2 0x4C1 JUMPI DUP1 PUSH4 0x95D89B41 EQ PUSH2 0x4F1 JUMPI PUSH2 0x1F0 JUMP JUMPDEST DUP1 PUSH4 0x313CE567 GT PUSH2 0x187 JUMPI DUP1 PUSH4 0x45BE27B6 GT PUSH2 0x156 JUMPI DUP1 PUSH4 0x45BE27B6 EQ PUSH2 0x3B5 JUMPI DUP1 PUSH4 0x4CDAD506 EQ PUSH2 0x3E5 JUMPI DUP1 PUSH4 0x6E553F65 EQ PUSH2 0x415 JUMPI DUP1 PUSH4 0x70A08231 EQ PUSH2 0x445 JUMPI PUSH2 0x1F0 JUMP JUMPDEST DUP1 PUSH4 0x313CE567 EQ PUSH2 0x32B JUMPI DUP1 PUSH4 0x3644E515 EQ PUSH2 0x349 JUMPI DUP1 PUSH4 0x38D52E0F EQ PUSH2 0x367 JUMPI DUP1 PUSH4 0x402D267D EQ PUSH2 0x385 JUMPI PUSH2 0x1F0 JUMP JUMPDEST DUP1 PUSH4 0xA28A477 GT PUSH2 0x1C3 JUMPI DUP1 PUSH4 0xA28A477 EQ PUSH2 0x291 JUMPI DUP1 PUSH4 0x18160DDD EQ PUSH2 0x2C1 JUMPI DUP1 PUSH4 0x23B872DD EQ PUSH2 0x2DF JUMPI DUP1 PUSH4 0x293311AB EQ PUSH2 0x30F JUMPI PUSH2 0x1F0 JUMP JUMPDEST DUP1 PUSH4 0x1E1D114 EQ PUSH2 0x1F5 JUMPI DUP1 PUSH4 0x6FDDE03 EQ PUSH2 0x213 JUMPI DUP1 PUSH4 0x7A2D13A EQ PUSH2 0x231 JUMPI DUP1 PUSH4 0x95EA7B3 EQ PUSH2 0x261 JUMPI JUMPDEST PUSH1 0x0 DUP1 REVERT JUMPDEST PUSH2 0x1FD PUSH2 0x73B JUMP JUMPDEST PUSH1 0x40 MLOAD PUSH2 0x20A SWAP2 SWAP1 PUSH2 0x2B4E JUMP JUMPDEST PUSH1 0x40 MLOAD DUP1 SWAP2 SUB SWAP1 RETURN JUMPDEST PUSH2 0x21B PUSH2 0x7EB JUMP JUMPDEST PUSH1 0x40 MLOAD PUSH2 0x228 SWAP2 SWAP1 PUSH2 0x29CC JUMP JUMPDEST PUSH1 0x40 MLOAD DUP1 SWAP2 SUB SWAP1 RETURN JUMPDEST PUSH2 0x24B PUSH1 0x4 DUP1 CALLDATASIZE SUB DUP2 ADD SWAP1 PUSH2 0x246 SWAP2 SWAP1 PUSH2 0x245F JUMP JUMPDEST PUSH2 0x879 JUMP JUMPDEST PUSH1 0x40 MLOAD PUSH2 0x258 SWAP2 SWAP1 PUSH2 0x2B4E JUMP JUMPDEST PUSH1 0x40 MLOAD DUP1 SWAP2 SUB SWAP1 RETURN JUMPDEST PUSH2 0x27B PUSH1 0x4 DUP1 CALLDATASIZE SUB DUP2 ADD SWAP1 PUSH2 0x276 SWAP2 SWAP1 PUSH2 0x241F JUMP JUMPDEST PUSH2 0x8B4 JUMP JUMPDEST PUSH1 0x40 MLOAD PUSH2 0x288 SWAP2 SWAP1 PUSH2 0x2882 JUMP JUMPDEST PUSH1 0x40 MLOAD DUP1 SWAP2 SUB SWAP1 RETURN JUMPDEST PUSH2 0x2AB PUSH1 0x4 DUP1 CALLDATASIZE SUB DUP2 ADD SWAP1 PUSH2 0x2A6 SWAP2 SWAP1 PUSH2 0x245F JUMP JUMPDEST PUSH2 0x9A6 JUMP JUMPDEST PUSH1 0x40 MLOAD PUSH2 0x2B8 SWAP2 SWAP1 PUSH2 0x2B4E JUMP JUMPDEST PUSH1 0x40 MLOAD DUP1 SWAP2 SUB SWAP1 RETURN JUMPDEST PUSH2 0x2C9 PUSH2 0x9E1 JUMP JUMPDEST PUSH1 0x40 MLOAD PUSH2 0x2D6 SWAP2 SWAP1 PUSH2 0x2B4E JUMP JUMPDEST PUSH1 0x40 MLOAD DUP1 SWAP2 SUB SWAP1 RETURN JUMPDEST PUSH2 0x2F9 PUSH1 0x4 DUP1 CALLDATASIZE SUB DUP2 ADD SWAP1 PUSH2 0x2F4 SWAP2 SWAP1 PUSH2 0x232A JUMP JUMPDEST PUSH2 0x9E7 JUMP JUMPDEST PUSH1 0x40 MLOAD PUSH2 0x306 SWAP2 SWAP1 PUSH2 0x2882 JUMP JUMPDEST PUSH1 0x40 MLOAD DUP1 SWAP2 SUB SWAP1 RETURN JUMPDEST PUSH2 0x329 PUSH1 0x4 DUP1 CALLDATASIZE SUB DUP2 ADD SWAP1 PUSH2 0x324 SWAP2 SWAP1 PUSH2 0x24B9 JUMP JUMPDEST PUSH2 0xC31 JUMP JUMPDEST STOP JUMPDEST PUSH2 0x333 PUSH2 0xE7D JUMP JUMPDEST PUSH1 0x40 MLOAD PUSH2 0x340 SWAP2 SWAP1 PUSH2 0x2B92 JUMP JUMPDEST PUSH1 0x40 MLOAD DUP1 SWAP2 SUB SWAP1 RETURN JUMPDEST PUSH2 0x351 PUSH2 0xEA1 JUMP JUMPDEST PUSH1 0x40 MLOAD PUSH2 0x35E SWAP2 SWAP1 PUSH2 0x289D JUMP JUMPDEST PUSH1 0x40 MLOAD DUP1 SWAP2 SUB SWAP1 RETURN JUMPDEST PUSH2 0x36F PUSH2 0xEFE JUMP JUMPDEST PUSH1 0x40 MLOAD PUSH2 0x37C SWAP2 SWAP1 PUSH2 0x29B1 JUMP JUMPDEST PUSH1 0x40 MLOAD DUP1 SWAP2 SUB SWAP1 RETURN JUMPDEST PUSH2 0x39F PUSH1 0x4 DUP1 CALLDATASIZE SUB DUP2 ADD SWAP1 PUSH2 0x39A SWAP2 SWAP1 PUSH2 0x22BD JUMP JUMPDEST PUSH2 0xF22 JUMP JUMPDEST PUSH1 0x40 MLOAD PUSH2 0x3AC SWAP2 SWAP1 PUSH2 0x2B4E JUMP JUMPDEST PUSH1 0x40 MLOAD DUP1 SWAP2 SUB SWAP1 RETURN JUMPDEST PUSH2 0x3CF PUSH1 0x4 DUP1 CALLDATASIZE SUB DUP2 ADD SWAP1 PUSH2 0x3CA SWAP2 SWAP1 PUSH2 0x22BD JUMP JUMPDEST PUSH2 0xF4C JUMP JUMPDEST PUSH1 0x40 MLOAD PUSH2 0x3DC SWAP2 SWAP1 PUSH2 0x2B4E JUMP JUMPDEST PUSH1 0x40 MLOAD DUP1 SWAP2 SUB SWAP1 RETURN JUMPDEST PUSH2 0x3FF PUSH1 0x4 DUP1 CALLDATASIZE SUB DUP2 ADD SWAP1 PUSH2 0x3FA SWAP2 SWAP1 PUSH2 0x245F JUMP JUMPDEST PUSH2 0xFFE JUMP JUMPDEST PUSH1 0x40 MLOAD PUSH2 0x40C SWAP2 SWAP1 PUSH2 0x2B4E JUMP JUMPDEST PUSH1 0x40 MLOAD DUP1 SWAP2 SUB SWAP1 RETURN JUMPDEST PUSH2 0x42F PUSH1 0x4 DUP1 CALLDATASIZE SUB DUP2 ADD SWAP1 PUSH2 0x42A SWAP2 SWAP1 PUSH2 0x24B9 JUMP JUMPDEST PUSH2 0x1010 JUMP JUMPDEST PUSH1 0x40 MLOAD PUSH2 0x43C SWAP2 SWAP1 PUSH2 0x2B4E JUMP JUMPDEST PUSH1 0x40 MLOAD DUP1 SWAP2 SUB SWAP1 RETURN JUMPDEST PUSH2 0x45F PUSH1 0x4 DUP1 CALLDATASIZE SUB DUP2 ADD SWAP1 PUSH2 0x45A SWAP2 SWAP1 PUSH2 0x22BD JUMP JUMPDEST PUSH2 0x112E JUMP JUMPDEST PUSH1 0x40 MLOAD PUSH2 0x46C SWAP2 SWAP1 PUSH2 0x2B4E JUMP JUMPDEST PUSH1 0x40 MLOAD DUP1 SWAP2 SUB SWAP1 RETURN JUMPDEST PUSH2 0x48F PUSH1 0x4 DUP1 CALLDATASIZE SUB DUP2 ADD SWAP1 PUSH2 0x48A SWAP2 SWAP1 PUSH2 0x22BD JUMP JUMPDEST PUSH2 0x1146 JUMP JUMPDEST PUSH1 0x40 MLOAD PUSH2 0x49C SWAP2 SWAP1 PUSH2 0x2B4E JUMP JUMPDEST PUSH1 0x40 MLOAD DUP1 SWAP2 SUB SWAP1 RETURN JUMPDEST PUSH2 0x4BF PUSH1 0x4 DUP1 CALLDATASIZE SUB DUP2 ADD SWAP1 PUSH2 0x4BA SWAP2 SWAP1 PUSH2 0x245F JUMP JUMPDEST PUSH2 0x115E JUMP JUMPDEST STOP JUMPDEST PUSH2 0x4DB PUSH1 0x4 DUP1 CALLDATASIZE SUB DUP2 ADD SWAP1 PUSH2 0x4D6 SWAP2 SWAP1 PUSH2 0x24B9 JUMP JUMPDEST PUSH2 0x1205 JUMP JUMPDEST PUSH1 0x40 MLOAD PUSH2 0x4E8 SWAP2 SWAP1 PUSH2 0x2B4E JUMP JUMPDEST PUSH1 0x40 MLOAD DUP1 SWAP2 SUB SWAP1 RETURN JUMPDEST PUSH2 0x4F9 PUSH2 0x12E0 JUMP JUMPDEST PUSH1 0x40 MLOAD PUSH2 0x506 SWAP2 SWAP1 PUSH2 0x29CC JUMP JUMPDEST PUSH1 0x40 MLOAD DUP1 SWAP2 SUB SWAP1 RETURN JUMPDEST PUSH2 0x529 PUSH1 0x4 DUP1 CALLDATASIZE SUB DUP2 ADD SWAP1 PUSH2 0x524 SWAP2 SWAP1 PUSH2 0x241F JUMP JUMPDEST PUSH2 0x136E JUMP JUMPDEST PUSH1 0x40 MLOAD PUSH2 0x536 SWAP2 SWAP1 PUSH2 0x2882 JUMP JUMPDEST PUSH1 0x40 MLOAD DUP1 SWAP2 SUB SWAP1 RETURN JUMPDEST PUSH2 0x559 PUSH1 0x4 DUP1 CALLDATASIZE SUB DUP2 ADD SWAP1 PUSH2 0x554 SWAP2 SWAP1 PUSH2 0x245F JUMP JUMPDEST PUSH2 0x1482 JUMP JUMPDEST PUSH1 0x40 MLOAD PUSH2 0x566 SWAP2 SWAP1 PUSH2 0x2B4E JUMP JUMPDEST PUSH1 0x40 MLOAD DUP1 SWAP2 SUB SWAP1 RETURN JUMPDEST PUSH2 0x589 PUSH1 0x4 DUP1 CALLDATASIZE SUB DUP2 ADD SWAP1 PUSH2 0x584 SWAP2 SWAP1 PUSH2 0x24F9 JUMP JUMPDEST PUSH2 0x14BD JUMP JUMPDEST PUSH1 0x40 MLOAD PUSH2 0x596 SWAP2 SWAP1 PUSH2 0x2B4E JUMP JUMPDEST PUSH1 0x40 MLOAD DUP1 SWAP2 SUB SWAP1 RETURN JUMPDEST PUSH2 0x5B9 PUSH1 0x4 DUP1 CALLDATASIZE SUB DUP2 ADD SWAP1 PUSH2 0x5B4 SWAP2 SWAP1 PUSH2 0x24F9 JUMP JUMPDEST PUSH2 0x1718 JUMP JUMPDEST PUSH1 0x40 MLOAD PUSH2 0x5C6 SWAP2 SWAP1 PUSH2 0x2B4E JUMP JUMPDEST PUSH1 0x40 MLOAD DUP1 SWAP2 SUB SWAP1 RETURN JUMPDEST PUSH2 0x5E9 PUSH1 0x4 DUP1 CALLDATASIZE SUB DUP2 ADD SWAP1 PUSH2 0x5E4 SWAP2 SWAP1 PUSH2 0x22BD JUMP JUMPDEST PUSH2 0x19B7 JUMP JUMPDEST PUSH1 0x40 MLOAD PUSH2 0x5F6 SWAP2 SWAP1 PUSH2 0x2B4E JUMP JUMPDEST PUSH1 0x40 MLOAD DUP1 SWAP2 SUB SWAP1 RETURN JUMPDEST PUSH2 0x619 PUSH1 0x4 DUP1 CALLDATASIZE SUB DUP2 ADD SWAP1 PUSH2 0x614 SWAP2 SWAP1 PUSH2 0x245F JUMP JUMPDEST PUSH2 0x19E1 JUMP JUMPDEST PUSH1 0x40 MLOAD PUSH2 0x626 SWAP2 SWAP1 PUSH2 0x2B4E JUMP JUMPDEST PUSH1 0x40 MLOAD DUP1 SWAP2 SUB SWAP1 RETURN JUMPDEST PUSH2 0x649 PUSH1 0x4 DUP1 CALLDATASIZE SUB DUP2 ADD SWAP1 PUSH2 0x644 SWAP2 SWAP1 PUSH2 0x22BD JUMP JUMPDEST PUSH2 0x1A1C JUMP JUMPDEST PUSH1 0x40 MLOAD PUSH2 0x656 SWAP2 SWAP1 PUSH2 0x2B4E JUMP JUMPDEST PUSH1 0x40 MLOAD DUP1 SWAP2 SUB SWAP1 RETURN JUMPDEST PUSH2 0x679 PUSH1 0x4 DUP1 CALLDATASIZE SUB DUP2 ADD SWAP1 PUSH2 0x674 SWAP2 SWAP1 PUSH2 0x237D JUMP JUMPDEST PUSH2 0x1A6D JUMP JUMPDEST STOP JUMPDEST PUSH2 0x695 PUSH1 0x4 DUP1 CALLDATASIZE SUB DUP2 ADD SWAP1 PUSH2 0x690 SWAP2 SWAP1 PUSH2 0x22BD JUMP JUMPDEST PUSH2 0x1D66 JUMP JUMPDEST PUSH1 0x40 MLOAD PUSH2 0x6A2 SWAP2 SWAP1 PUSH2 0x2B4E JUMP JUMPDEST PUSH1 0x40 MLOAD DUP1 SWAP2 SUB SWAP1 RETURN JUMPDEST PUSH2 0x6C5 PUSH1 0x4 DUP1 CALLDATASIZE SUB DUP2 ADD SWAP1 PUSH2 0x6C0 SWAP2 SWAP1 PUSH2 0x22EA JUMP JUMPDEST PUSH2 0x1DAF JUMP JUMPDEST PUSH1 0x40 MLOAD PUSH2 0x6D2 SWAP2 SWAP1 PUSH2 0x2B4E JUMP JUMPDEST PUSH1 0x40 MLOAD DUP1 SWAP2 SUB SWAP1 RETURN JUMPDEST PUSH2 0x6F5 PUSH1 0x4 DUP1 CALLDATASIZE SUB DUP2 ADD SWAP1 PUSH2 0x6F0 SWAP2 SWAP1 PUSH2 0x245F JUMP JUMPDEST PUSH2 0x1DD4 JUMP JUMPDEST PUSH1 0x40 MLOAD PUSH2 0x702 SWAP2 SWAP1 PUSH2 0x2B4E JUMP JUMPDEST PUSH1 0x40 MLOAD DUP1 SWAP2 SUB SWAP1 RETURN JUMPDEST PUSH2 0x725 PUSH1 0x4 DUP1 CALLDATASIZE SUB DUP2 ADD SWAP1 PUSH2 0x720 SWAP2 SWAP1 PUSH2 0x22BD JUMP JUMPDEST PUSH2 0x1DE6 JUMP JUMPDEST PUSH1 0x40 MLOAD PUSH2 0x732 SWAP2 SWAP1 PUSH2 0x2B4E JUMP JUMPDEST PUSH1 0x40 MLOAD DUP1 SWAP2 SUB SWAP1 RETURN JUMPDEST PUSH1 0x0 PUSH32 0x0 PUSH20 0xFFFFFFFFFFFFFFFFFFFFFFFFFFFFFFFFFFFFFFFF AND PUSH4 0x70A08231 ADDRESS PUSH1 0x40 MLOAD DUP3 PUSH4 0xFFFFFFFF AND PUSH1 0xE0 SHL DUP2 MSTORE PUSH1 0x4 ADD PUSH2 0x796 SWAP2 SWAP1 PUSH2 0x2867 JUMP JUMPDEST PUSH1 0x20 PUSH1 0x40 MLOAD DUP1 DUP4 SUB DUP2 DUP7 DUP1 EXTCODESIZE ISZERO DUP1 ISZERO PUSH2 0x7AE JUMPI PUSH1 0x0 DUP1 REVERT JUMPDEST POP GAS STATICCALL ISZERO DUP1 ISZERO PUSH2 0x7C2 JUMPI RETURNDATASIZE PUSH1 0x0 DUP1 RETURNDATACOPY RETURNDATASIZE PUSH1 0x0 REVERT JUMPDEST POP POP POP POP PUSH1 0x40 MLOAD RETURNDATASIZE PUSH1 0x1F NOT PUSH1 0x1F DUP3 ADD AND DUP3 ADD DUP1 PUSH1 0x40 MSTORE POP DUP2 ADD SWAP1 PUSH2 0x7E6 SWAP2 SWAP1 PUSH2 0x248C JUMP JUMPDEST SWAP1 POP SWAP1 JUMP JUMPDEST PUSH1 0x0 DUP1 SLOAD PUSH2 0x7F8 SWAP1 PUSH2 0x2DD1 JUMP JUMPDEST DUP1 PUSH1 0x1F ADD PUSH1 0x20 DUP1 SWAP2 DIV MUL PUSH1 0x20 ADD PUSH1 0x40 MLOAD SWAP1 DUP2 ADD PUSH1 0x40 MSTORE DUP1 SWAP3 SWAP2 SWAP1 DUP2 DUP2 MSTORE PUSH1 0x20 ADD DUP3 DUP1 SLOAD PUSH2 0x824 SWAP1 PUSH2 0x2DD1 JUMP JUMPDEST DUP1 ISZERO PUSH2 0x871 JUMPI DUP1 PUSH1 0x1F LT PUSH2 0x846 JUMPI PUSH2 0x100 DUP1 DUP4 SLOAD DIV MUL DUP4 MSTORE SWAP2 PUSH1 0x20 ADD SWAP2 PUSH2 0x871 JUMP JUMPDEST DUP3 ADD SWAP2 SWAP1 PUSH1 0x0 MSTORE PUSH1 0x20 PUSH1 0x0 KECCAK256 SWAP1 JUMPDEST DUP2 SLOAD DUP2 MSTORE SWAP1 PUSH1 0x1 ADD SWAP1 PUSH1 0x20 ADD DUP1 DUP4 GT PUSH2 0x854 JUMPI DUP3 SWAP1 SUB PUSH1 0x1F AND DUP3 ADD SWAP2 JUMPDEST POP POP POP POP POP DUP2 JUMP JUMPDEST PUSH1 0x0 DUP1 PUSH1 0x2 SLOAD SWAP1 POP PUSH1 0x0 DUP2 EQ PUSH2 0x8AA JUMPI PUSH2 0x8A5 PUSH2 0x894 PUSH2 0x73B JUMP JUMPDEST DUP3 DUP6 PUSH2 0x1DFE SWAP1 SWAP3 SWAP2 SWAP1 PUSH4 0xFFFFFFFF AND JUMP JUMPDEST PUSH2 0x8AC JUMP JUMPDEST DUP3 JUMPDEST SWAP2 POP POP SWAP2 SWAP1 POP JUMP JUMPDEST PUSH1 0x0 DUP2 PUSH1 0x4 PUSH1 0x0 CALLER PUSH20 0xFFFFFFFFFFFFFFFFFFFFFFFFFFFFFFFFFFFFFFFF AND PUSH20 0xFFFFFFFFFFFFFFFFFFFFFFFFFFFFFFFFFFFFFFFF AND DUP2 MSTORE PUSH1 0x20 ADD SWAP1 DUP2 MSTORE PUSH1 0x20 ADD PUSH1 0x0 KECCAK256 PUSH1 0x0 DUP6 PUSH20 0xFFFFFFFFFFFFFFFFFFFFFFFFFFFFFFFFFFFFFFFF AND PUSH20 0xFFFFFFFFFFFFFFFFFFFFFFFFFFFFFFFFFFFFFFFF AND DUP2 MSTORE PUSH1 0x20 ADD SWAP1 DUP2 MSTORE PUSH1 0x20 ADD PUSH1 0x0 KECCAK256 DUP2 SWAP1 SSTORE POP DUP3 PUSH20 0xFFFFFFFFFFFFFFFFFFFFFFFFFFFFFFFFFFFFFFFF AND CALLER PUSH20 0xFFFFFFFFFFFFFFFFFFFFFFFFFFFFFFFFFFFFFFFF AND PUSH32 0x8C5BE1E5EBEC7D5BD14F71427D1E84F3DD0314C0F7B2291E5B200AC8C7C3B925 DUP5 PUSH1 0x40 MLOAD PUSH2 0x994 SWAP2 SWAP1 PUSH2 0x2B4E JUMP JUMPDEST PUSH1 0x40 MLOAD DUP1 SWAP2 SUB SWAP1 LOG3 PUSH1 0x1 SWAP1 POP SWAP3 SWAP2 POP POP JUMP JUMPDEST PUSH1 0x0 DUP1 PUSH1 0x2 SLOAD SWAP1 POP PUSH1 0x0 DUP2 EQ PUSH2 0x9D7 JUMPI PUSH2 0x9D2 DUP2 PUSH2 0x9C2 PUSH2 0x73B JUMP JUMPDEST DUP6 PUSH2 0x1E41 SWAP1 SWAP3 SWAP2 SWAP1 PUSH4 0xFFFFFFFF AND JUMP JUMPDEST PUSH2 0x9D9 JUMP JUMPDEST DUP3 JUMPDEST SWAP2 POP POP SWAP2 SWAP1 POP JUMP JUMPDEST PUSH1 0x2 SLOAD DUP2 JUMP JUMPDEST PUSH1 0x0 DUP1 PUSH1 0x4 PUSH1 0x0 DUP7 PUSH20 0xFFFFFFFFFFFFFFFFFFFFFFFFFFFFFFFFFFFFFFFF AND PUSH20 0xFFFFFFFFFFFFFFFFFFFFFFFFFFFFFFFFFFFFFFFF AND DUP2 MSTORE PUSH1 0x20 ADD SWAP1 DUP2 MSTORE PUSH1 0x20 ADD PUSH1 0x0 KECCAK256 PUSH1 0x0 CALLER PUSH20 0xFFFFFFFFFFFFFFFFFFFFFFFFFFFFFFFFFFFFFFFF AND PUSH20 0xFFFFFFFFFFFFFFFFFFFFFFFFFFFFFFFFFFFFFFFF AND DUP2 MSTORE PUSH1 0x20 ADD SWAP1 DUP2 MSTORE PUSH1 0x20 ADD PUSH1 0x0 KECCAK256 SLOAD SWAP1 POP PUSH32 0xFFFFFFFFFFFFFFFFFFFFFFFFFFFFFFFFFFFFFFFFFFFFFFFFFFFFFFFFFFFFFFFF DUP2 EQ PUSH2 0xB1D JUMPI DUP3 DUP2 PUSH2 0xA9C SWAP2 SWAP1 PUSH2 0x2CD5 JUMP JUMPDEST PUSH1 0x4 PUSH1 0x0 DUP8 PUSH20 0xFFFFFFFFFFFFFFFFFFFFFFFFFFFFFFFFFFFFFFFF AND PUSH20 0xFFFFFFFFFFFFFFFFFFFFFFFFFFFFFFFFFFFFFFFF AND DUP2 MSTORE PUSH1 0x20 ADD SWAP1 DUP2 MSTORE PUSH1 0x20 ADD PUSH1 0x0 KECCAK256 PUSH1 0x0 CALLER PUSH20 0xFFFFFFFFFFFFFFFFFFFFFFFFFFFFFFFFFFFFFFFF AND PUSH20 0xFFFFFFFFFFFFFFFFFFFFFFFFFFFFFFFFFFFFFFFF AND DUP2 MSTORE PUSH1 0x20 ADD SWAP1 DUP2 MSTORE PUSH1 0x20 ADD PUSH1 0x0 KECCAK256 DUP2 SWAP1 SSTORE POP JUMPDEST DUP3 PUSH1 0x3 PUSH1 0x0 DUP8 PUSH20 0xFFFFFFFFFFFFFFFFFFFFFFFFFFFFFFFFFFFFFFFF AND PUSH20 0xFFFFFFFFFFFFFFFFFFFFFFFFFFFFFFFFFFFFFFFF AND DUP2 MSTORE PUSH1 0x20 ADD SWAP1 DUP2 MSTORE PUSH1 0x20 ADD PUSH1 0x0 KECCAK256 PUSH1 0x0 DUP3 DUP3 SLOAD PUSH2 0xB6C SWAP2 SWAP1 PUSH2 0x2CD5 JUMP JUMPDEST SWAP3 POP POP DUP2 SWAP1 SSTORE POP DUP3 PUSH1 0x3 PUSH1 0x0 DUP7 PUSH20 0xFFFFFFFFFFFFFFFFFFFFFFFFFFFFFFFFFFFFFFFF AND PUSH20 0xFFFFFFFFFFFFFFFFFFFFFFFFFFFFFFFFFFFFFFFF AND DUP2 MSTORE PUSH1 0x20 ADD SWAP1 DUP2 MSTORE PUSH1 0x20 ADD PUSH1 0x0 KECCAK256 PUSH1 0x0 DUP3 DUP3 SLOAD ADD SWAP3 POP POP DUP2 SWAP1 SSTORE POP DUP4 PUSH20 0xFFFFFFFFFFFFFFFFFFFFFFFFFFFFFFFFFFFFFFFF AND DUP6 PUSH20 0xFFFFFFFFFFFFFFFFFFFFFFFFFFFFFFFFFFFFFFFF AND PUSH32 0xDDF252AD1BE2C89B69C2B068FC378DAA952BA7F163C4A11628F55A4DF523B3EF DUP6 PUSH1 0x40 MLOAD PUSH2 0xC1D SWAP2 SWAP1 PUSH2 0x2B4E JUMP JUMPDEST PUSH1 0x40 MLOAD DUP1 SWAP2 SUB SWAP1 LOG3 PUSH1 0x1 SWAP2 POP POP SWAP4 SWAP3 POP POP POP JUMP JUMPDEST PUSH1 0x0 DUP3 GT PUSH2 0xC74 JUMPI PUSH1 0x40 MLOAD PUSH32 0x8C379A000000000000000000000000000000000000000000000000000000000 DUP2 MSTORE PUSH1 0x4 ADD PUSH2 0xC6B SWAP1 PUSH2 0x2A4E JUMP JUMPDEST PUSH1 0x40 MLOAD DUP1 SWAP2 SUB SWAP1 REVERT JUMPDEST PUSH1 0x0 PUSH20 0xFFFFFFFFFFFFFFFFFFFFFFFFFFFFFFFFFFFFFFFF AND DUP2 PUSH20 0xFFFFFFFFFFFFFFFFFFFFFFFFFFFFFFFFFFFFFFFF AND EQ ISZERO PUSH2 0xCE4 JUMPI PUSH1 0x40 MLOAD PUSH32 0x8C379A000000000000000000000000000000000000000000000000000000000 DUP2 MSTORE PUSH1 0x4 ADD PUSH2 0xCDB SWAP1 PUSH2 0x2AAE JUMP JUMPDEST PUSH1 0x40 MLOAD DUP1 SWAP2 SUB SWAP1 REVERT JUMPDEST PUSH1 0x0 PUSH1 0x6 PUSH1 0x0 CALLER PUSH20 0xFFFFFFFFFFFFFFFFFFFFFFFFFFFFFFFFFFFFFFFF AND PUSH20 0xFFFFFFFFFFFFFFFFFFFFFFFFFFFFFFFFFFFFFFFF AND DUP2 MSTORE PUSH1 0x20 ADD SWAP1 DUP2 MSTORE PUSH1 0x20 ADD PUSH1 0x0 KECCAK256 SLOAD GT PUSH2 0xD66 JUMPI PUSH1 0x40 MLOAD PUSH32 0x8C379A000000000000000000000000000000000000000000000000000000000 DUP2 MSTORE PUSH1 0x4 ADD PUSH2 0xD5D SWAP1 PUSH2 0x2A0E JUMP JUMPDEST PUSH1 0x40 MLOAD DUP1 SWAP2 SUB SWAP1 REVERT JUMPDEST DUP2 PUSH1 0x6 PUSH1 0x0 CALLER PUSH20 0xFFFFFFFFFFFFFFFFFFFFFFFFFFFFFFFFFFFFFFFF AND PUSH20 0xFFFFFFFFFFFFFFFFFFFFFFFFFFFFFFFFFFFFFFFF AND DUP2 MSTORE PUSH1 0x20 ADD SWAP1 DUP2 MSTORE PUSH1 0x20 ADD PUSH1 0x0 KECCAK256 SLOAD LT ISZERO PUSH2 0xDE8 JUMPI PUSH1 0x40 MLOAD PUSH32 0x8C379A000000000000000000000000000000000000000000000000000000000 DUP2 MSTORE PUSH1 0x4 ADD PUSH2 0xDDF SWAP1 PUSH2 0x2A8E JUMP JUMPDEST PUSH1 0x40 MLOAD DUP1 SWAP2 SUB SWAP1 REVERT JUMPDEST PUSH1 0x0 PUSH1 0x64 DUP4 PUSH1 0xA PUSH2 0xDF9 SWAP2 SWAP1 PUSH2 0x2C7B JUMP JUMPDEST PUSH2 0xE03 SWAP2 SWAP1 PUSH2 0x2C4A JUMP JUMPDEST SWAP1 POP PUSH1 0x0 DUP2 DUP5 PUSH2 0xE13 SWAP2 SWAP1 PUSH2 0x2BF4 JUMP JUMPDEST SWAP1 POP PUSH2 0xE20 DUP2 DUP5 CALLER PUSH2 0x1718 JUMP JUMPDEST POP DUP4 PUSH1 0x6 PUSH1 0x0 CALLER PUSH20 0xFFFFFFFFFFFFFFFFFFFFFFFFFFFFFFFFFFFFFFFF AND PUSH20 0xFFFFFFFFFFFFFFFFFFFFFFFFFFFFFFFFFFFFFFFF AND DUP2 MSTORE PUSH1 0x20 ADD SWAP1 DUP2 MSTORE PUSH1 0x20 ADD PUSH1 0x0 KECCAK256 PUSH1 0x0 DUP3 DUP3 SLOAD PUSH2 0xE70 SWAP2 SWAP1 PUSH2 0x2CD5 JUMP JUMPDEST SWAP3 POP POP DUP2 SWAP1 SSTORE POP POP POP POP POP JUMP JUMPDEST PUSH32 0x0 DUP2 JUMP JUMPDEST PUSH1 0x0 PUSH32 0x0 CHAINID EQ PUSH2 0xED7 JUMPI PUSH2 0xED2 PUSH2 0x1E8D JUMP JUMPDEST PUSH2 0xEF9 JUMP JUMPDEST PUSH32 0x0 JUMPDEST SWAP1 POP SWAP1 JUMP JUMPDEST PUSH32 0x0 DUP2 JUMP JUMPDEST PUSH1 0x0 PUSH32 0xFFFFFFFFFFFFFFFFFFFFFFFFFFFFFFFFFFFFFFFFFFFFFFFFFFFFFFFFFFFFFFFF SWAP1 POP SWAP2 SWAP1 POP JUMP JUMPDEST PUSH1 0x0 PUSH32 0x0 PUSH20 0xFFFFFFFFFFFFFFFFFFFFFFFFFFFFFFFFFFFFFFFF AND PUSH4 0x70A08231 DUP4 PUSH1 0x40 MLOAD DUP3 PUSH4 0xFFFFFFFF AND PUSH1 0xE0 SHL DUP2 MSTORE PUSH1 0x4 ADD PUSH2 0xFA7 SWAP2 SWAP1 PUSH2 0x2867 JUMP JUMPDEST PUSH1 0x20 PUSH1 0x40 MLOAD DUP1 DUP4 SUB DUP2 DUP7 DUP1 EXTCODESIZE ISZERO DUP1 ISZERO PUSH2 0xFBF JUMPI PUSH1 0x0 DUP1 REVERT JUMPDEST POP GAS STATICCALL ISZERO DUP1 ISZERO PUSH2 0xFD3 JUMPI RETURNDATASIZE PUSH1 0x0 DUP1 RETURNDATACOPY RETURNDATASIZE PUSH1 0x0 REVERT JUMPDEST POP POP POP POP PUSH1 0x40 MLOAD RETURNDATASIZE PUSH1 0x1F NOT PUSH1 0x1F DUP3 ADD AND DUP3 ADD DUP1 PUSH1 0x40 MSTORE POP DUP2 ADD SWAP1 PUSH2 0xFF7 SWAP2 SWAP1 PUSH2 0x248C JUMP JUMPDEST SWAP1 POP SWAP2 SWAP1 POP JUMP JUMPDEST PUSH1 0x0 PUSH2 0x1009 DUP3 PUSH2 0x879 JUMP JUMPDEST SWAP1 POP SWAP2 SWAP1 POP JUMP JUMPDEST PUSH1 0x0 DUP1 PUSH2 0x101C DUP5 PUSH2 0x1DD4 JUMP JUMPDEST SWAP2 POP DUP2 EQ ISZERO PUSH2 0x1060 JUMPI PUSH1 0x40 MLOAD PUSH32 0x8C379A000000000000000000000000000000000000000000000000000000000 DUP2 MSTORE PUSH1 0x4 ADD PUSH2 0x1057 SWAP1 PUSH2 0x29EE JUMP JUMPDEST PUSH1 0x40 MLOAD DUP1 SWAP2 SUB SWAP1 REVERT JUMPDEST PUSH2 0x10AD CALLER ADDRESS DUP6 PUSH32 0x0 PUSH20 0xFFFFFFFFFFFFFFFFFFFFFFFFFFFFFFFFFFFFFFFF AND PUSH2 0x1F19 SWAP1 SWAP4 SWAP3 SWAP2 SWAP1 PUSH4 0xFFFFFFFF AND JUMP JUMPDEST PUSH2 0x10B7 DUP3 DUP3 PUSH2 0x1FF1 JUMP JUMPDEST DUP2 PUSH20 0xFFFFFFFFFFFFFFFFFFFFFFFFFFFFFFFFFFFFFFFF AND CALLER PUSH20 0xFFFFFFFFFFFFFFFFFFFFFFFFFFFFFFFFFFFFFFFF AND PUSH32 0xDCBC1C05240F31FF3AD067EF1EE35CE4997762752E3A095284754544F4C709D7 DUP6 DUP5 PUSH1 0x40 MLOAD PUSH2 0x1116 SWAP3 SWAP2 SWAP1 PUSH2 0x2B69 JUMP JUMPDEST PUSH1 0x40 MLOAD DUP1 SWAP2 SUB SWAP1 LOG3 PUSH2 0x1128 DUP4 DUP3 PUSH2 0x20C1 JUMP JUMPDEST SWAP3 SWAP2 POP POP JUMP JUMPDEST PUSH1 0x3 PUSH1 0x20 MSTORE DUP1 PUSH1 0x0 MSTORE PUSH1 0x40 PUSH1 0x0 KECCAK256 PUSH1 0x0 SWAP2 POP SWAP1 POP SLOAD DUP2 JUMP JUMPDEST PUSH1 0x5 PUSH1 0x20 MSTORE DUP1 PUSH1 0x0 MSTORE PUSH1 0x40 PUSH1 0x0 KECCAK256 PUSH1 0x0 SWAP2 POP SWAP1 POP SLOAD DUP2 JUMP JUMPDEST PUSH1 0x0 DUP2 GT PUSH2 0x11A1 JUMPI PUSH1 0x40 MLOAD PUSH32 0x8C379A000000000000000000000000000000000000000000000000000000000 DUP2 MSTORE PUSH1 0x4 ADD PUSH2 0x1198 SWAP1 PUSH2 0x2B0E JUMP JUMPDEST PUSH1 0x40 MLOAD DUP1 SWAP2 SUB SWAP1 REVERT JUMPDEST PUSH2 0x11AB DUP2 CALLER PUSH2 0x1010 JUMP JUMPDEST POP DUP1 PUSH1 0x6 PUSH1 0x0 CALLER PUSH20 0xFFFFFFFFFFFFFFFFFFFFFFFFFFFFFFFFFFFFFFFF AND PUSH20 0xFFFFFFFFFFFFFFFFFFFFFFFFFFFFFFFFFFFFFFFF AND DUP2 MSTORE PUSH1 0x20 ADD SWAP1 DUP2 MSTORE PUSH1 0x20 ADD PUSH1 0x0 KECCAK256 PUSH1 0x0 DUP3 DUP3 SLOAD PUSH2 0x11FB SWAP2 SWAP1 PUSH2 0x2BF4 JUMP JUMPDEST SWAP3 POP POP DUP2 SWAP1 SSTORE POP POP JUMP JUMPDEST PUSH1 0x0 PUSH2 0x1210 DUP4 PUSH2 0x1482 JUMP JUMPDEST SWAP1 POP PUSH2 0x125F CALLER ADDRESS DUP4 PUSH32 0x0 PUSH20 0xFFFFFFFFFFFFFFFFFFFFFFFFFFFFFFFFFFFFFFFF AND PUSH2 0x1F19 SWAP1 SWAP4 SWAP3 SWAP2 SWAP1 PUSH4 0xFFFFFFFF AND JUMP JUMPDEST PUSH2 0x1269 DUP3 DUP5 PUSH2 0x1FF1 JUMP JUMPDEST DUP2 PUSH20 0xFFFFFFFFFFFFFFFFFFFFFFFFFFFFFFFFFFFFFFFF AND CALLER PUSH20 0xFFFFFFFFFFFFFFFFFFFFFFFFFFFFFFFFFFFFFFFF AND PUSH32 0xDCBC1C05240F31FF3AD067EF1EE35CE4997762752E3A095284754544F4C709D7 DUP4 DUP7 PUSH1 0x40 MLOAD PUSH2 0x12C8 SWAP3 SWAP2 SWAP1 PUSH2 0x2B69 JUMP JUMPDEST PUSH1 0x40 MLOAD DUP1 SWAP2 SUB SWAP1 LOG3 PUSH2 0x12DA DUP2 DUP5 PUSH2 0x20C1 JUMP JUMPDEST SWAP3 SWAP2 POP POP JUMP JUMPDEST PUSH1 0x1 DUP1 SLOAD PUSH2 0x12ED SWAP1 PUSH2 0x2DD1 JUMP JUMPDEST DUP1 PUSH1 0x1F ADD PUSH1 0x20 DUP1 SWAP2 DIV MUL PUSH1 0x20 ADD PUSH1 0x40 MLOAD SWAP1 DUP2 ADD PUSH1 0x40 MSTORE DUP1 SWAP3 SWAP2 SWAP1 DUP2 DUP2 MSTORE PUSH1 0x20 ADD DUP3 DUP1 SLOAD PUSH2 0x1319 SWAP1 PUSH2 0x2DD1 JUMP JUMPDEST DUP1 ISZERO PUSH2 0x1366 JUMPI DUP1 PUSH1 0x1F LT PUSH2 0x133B JUMPI PUSH2 0x100 DUP1 DUP4 SLOAD DIV MUL DUP4 MSTORE SWAP2 PUSH1 0x20 ADD SWAP2 PUSH2 0x1366 JUMP JUMPDEST DUP3 ADD SWAP2 SWAP1 PUSH1 0x0 MSTORE PUSH1 0x20 PUSH1 0x0 KECCAK256 SWAP1 JUMPDEST DUP2 SLOAD DUP2 MSTORE SWAP1 PUSH1 0x1 ADD SWAP1 PUSH1 0x20 ADD DUP1 DUP4 GT PUSH2 0x1349 JUMPI DUP3 SWAP1 SUB PUSH1 0x1F AND DUP3 ADD SWAP2 JUMPDEST POP POP POP POP POP DUP2 JUMP JUMPDEST PUSH1 0x0 DUP2 PUSH1 0x3 PUSH1 0x0 CALLER PUSH20 0xFFFFFFFFFFFFFFFFFFFFFFFFFFFFFFFFFFFFFFFF AND PUSH20 0xFFFFFFFFFFFFFFFFFFFFFFFFFFFFFFFFFFFFFFFF AND DUP2 MSTORE PUSH1 0x20 ADD SWAP1 DUP2 MSTORE PUSH1 0x20 ADD PUSH1 0x0 KECCAK256 PUSH1 0x0 DUP3 DUP3 SLOAD PUSH2 0x13BF SWAP2 SWAP1 PUSH2 0x2CD5 JUMP JUMPDEST SWAP3 POP POP DUP2 SWAP1 SSTORE POP DUP2 PUSH1 0x3 PUSH1 0x0 DUP6 PUSH20 0xFFFFFFFFFFFFFFFFFFFFFFFFFFFFFFFFFFFFFFFF AND PUSH20 0xFFFFFFFFFFFFFFFFFFFFFFFFFFFFFFFFFFFFFFFF AND DUP2 MSTORE PUSH1 0x20 ADD SWAP1 DUP2 MSTORE PUSH1 0x20 ADD PUSH1 0x0 KECCAK256 PUSH1 0x0 DUP3 DUP3 SLOAD ADD SWAP3 POP POP DUP2 SWAP1 SSTORE POP DUP3 PUSH20 0xFFFFFFFFFFFFFFFFFFFFFFFFFFFFFFFFFFFFFFFF AND CALLER PUSH20 0xFFFFFFFFFFFFFFFFFFFFFFFFFFFFFFFFFFFFFFFF AND PUSH32 0xDDF252AD1BE2C89B69C2B068FC378DAA952BA7F163C4A11628F55A4DF523B3EF DUP5 PUSH1 0x40 MLOAD PUSH2 0x1470 SWAP2 SWAP1 PUSH2 0x2B4E JUMP JUMPDEST PUSH1 0x40 MLOAD DUP1 SWAP2 SUB SWAP1 LOG3 PUSH1 0x1 SWAP1 POP SWAP3 SWAP2 POP POP JUMP JUMPDEST PUSH1 0x0 DUP1 PUSH1 0x2 SLOAD SWAP1 POP PUSH1 0x0 DUP2 EQ PUSH2 0x14B3 JUMPI PUSH2 0x14AE PUSH2 0x149D PUSH2 0x73B JUMP JUMPDEST DUP3 DUP6 PUSH2 0x1E41 SWAP1 SWAP3 SWAP2 SWAP1 PUSH4 0xFFFFFFFF AND JUMP JUMPDEST PUSH2 0x14B5 JUMP JUMPDEST DUP3 JUMPDEST SWAP2 POP POP SWAP2 SWAP1 POP JUMP JUMPDEST PUSH1 0x0 PUSH2 0x14C8 DUP5 PUSH2 0x9A6 JUMP JUMPDEST SWAP1 POP DUP2 PUSH20 0xFFFFFFFFFFFFFFFFFFFFFFFFFFFFFFFFFFFFFFFF AND CALLER PUSH20 0xFFFFFFFFFFFFFFFFFFFFFFFFFFFFFFFFFFFFFFFF AND EQ PUSH2 0x1634 JUMPI PUSH1 0x0 PUSH1 0x4 PUSH1 0x0 DUP5 PUSH20 0xFFFFFFFFFFFFFFFFFFFFFFFFFFFFFFFFFFFFFFFF AND PUSH20 0xFFFFFFFFFFFFFFFFFFFFFFFFFFFFFFFFFFFFFFFF AND DUP2 MSTORE PUSH1 0x20 ADD SWAP1 DUP2 MSTORE PUSH1 0x20 ADD PUSH1 0x0 KECCAK256 PUSH1 0x0 CALLER PUSH20 0xFFFFFFFFFFFFFFFFFFFFFFFFFFFFFFFFFFFFFFFF AND PUSH20 0xFFFFFFFFFFFFFFFFFFFFFFFFFFFFFFFFFFFFFFFF AND DUP2 MSTORE PUSH1 0x20 ADD SWAP1 DUP2 MSTORE PUSH1 0x20 ADD PUSH1 0x0 KECCAK256 SLOAD SWAP1 POP PUSH32 0xFFFFFFFFFFFFFFFFFFFFFFFFFFFFFFFFFFFFFFFFFFFFFFFFFFFFFFFFFFFFFFFF DUP2 EQ PUSH2 0x1632 JUMPI DUP2 DUP2 PUSH2 0x15B1 SWAP2 SWAP1 PUSH2 0x2CD5 JUMP JUMPDEST PUSH1 0x4 PUSH1 0x0 DUP6 PUSH20 0xFFFFFFFFFFFFFFFFFFFFFFFFFFFFFFFFFFFFFFFF AND PUSH20 0xFFFFFFFFFFFFFFFFFFFFFFFFFFFFFFFFFFFFFFFF AND DUP2 MSTORE PUSH1 0x20 ADD SWAP1 DUP2 MSTORE PUSH1 0x20 ADD PUSH1 0x0 KECCAK256 PUSH1 0x0 CALLER PUSH20 0xFFFFFFFFFFFFFFFFFFFFFFFFFFFFFFFFFFFFFFFF AND PUSH20 0xFFFFFFFFFFFFFFFFFFFFFFFFFFFFFFFFFFFFFFFF AND DUP2 MSTORE PUSH1 0x20 ADD SWAP1 DUP2 MSTORE PUSH1 0x20 ADD PUSH1 0x0 KECCAK256 DUP2 SWAP1 SSTORE POP JUMPDEST POP JUMPDEST PUSH2 0x163E DUP5 DUP3 PUSH2 0x20C5 JUMP JUMPDEST PUSH2 0x1648 DUP3 DUP3 PUSH2 0x20C9 JUMP JUMPDEST DUP2 PUSH20 0xFFFFFFFFFFFFFFFFFFFFFFFFFFFFFFFFFFFFFFFF AND DUP4 PUSH20 0xFFFFFFFFFFFFFFFFFFFFFFFFFFFFFFFFFFFFFFFF AND CALLER PUSH20 0xFFFFFFFFFFFFFFFFFFFFFFFFFFFFFFFFFFFFFFFF AND PUSH32 0xFBDE797D201C681B91056529119E0B02407C7BB96A4A2C75C01FC9667232C8DB DUP8 DUP6 PUSH1 0x40 MLOAD PUSH2 0x16BE SWAP3 SWAP2 SWAP1 PUSH2 0x2B69 JUMP JUMPDEST PUSH1 0x40 MLOAD DUP1 SWAP2 SUB SWAP1 LOG4 PUSH2 0x1711 DUP4 DUP6 PUSH32 0x0 PUSH20 0xFFFFFFFFFFFFFFFFFFFFFFFFFFFFFFFFFFFFFFFF AND PUSH2 0x2199 SWAP1 SWAP3 SWAP2 SWAP1 PUSH4 0xFFFFFFFF AND JUMP JUMPDEST SWAP4 SWAP3 POP POP POP JUMP JUMPDEST PUSH1 0x0 DUP2 PUSH20 0xFFFFFFFFFFFFFFFFFFFFFFFFFFFFFFFFFFFFFFFF AND CALLER PUSH20 0xFFFFFFFFFFFFFFFFFFFFFFFFFFFFFFFFFFFFFFFF AND EQ PUSH2 0x1884 JUMPI PUSH1 0x0 PUSH1 0x4 PUSH1 0x0 DUP5 PUSH20 0xFFFFFFFFFFFFFFFFFFFFFFFFFFFFFFFFFFFFFFFF AND PUSH20 0xFFFFFFFFFFFFFFFFFFFFFFFFFFFFFFFFFFFFFFFF AND DUP2 MSTORE PUSH1 0x20 ADD SWAP1 DUP2 MSTORE PUSH1 0x20 ADD PUSH1 0x0 KECCAK256 PUSH1 0x0 CALLER PUSH20 0xFFFFFFFFFFFFFFFFFFFFFFFFFFFFFFFFFFFFFFFF AND PUSH20 0xFFFFFFFFFFFFFFFFFFFFFFFFFFFFFFFFFFFFFFFF AND DUP2 MSTORE PUSH1 0x20 ADD SWAP1 DUP2 MSTORE PUSH1 0x20 ADD PUSH1 0x0 KECCAK256 SLOAD SWAP1 POP PUSH32 0xFFFFFFFFFFFFFFFFFFFFFFFFFFFFFFFFFFFFFFFFFFFFFFFFFFFFFFFFFFFFFFFF DUP2 EQ PUSH2 0x1882 JUMPI DUP5 DUP2 PUSH2 0x1801 SWAP2 SWAP1 PUSH2 0x2CD5 JUMP JUMPDEST PUSH1 0x4 PUSH1 0x0 DUP6 PUSH20 0xFFFFFFFFFFFFFFFFFFFFFFFFFFFFFFFFFFFFFFFF AND PUSH20 0xFFFFFFFFFFFFFFFFFFFFFFFFFFFFFFFFFFFFFFFF AND DUP2 MSTORE PUSH1 0x20 ADD SWAP1 DUP2 MSTORE PUSH1 0x20 ADD PUSH1 0x0 KECCAK256 PUSH1 0x0 CALLER PUSH20 0xFFFFFFFFFFFFFFFFFFFFFFFFFFFFFFFFFFFFFFFF AND PUSH20 0xFFFFFFFFFFFFFFFFFFFFFFFFFFFFFFFFFFFFFFFF AND DUP2 MSTORE PUSH1 0x20 ADD SWAP1 DUP2 MSTORE PUSH1 0x20 ADD PUSH1 0x0 KECCAK256 DUP2 SWAP1 SSTORE POP JUMPDEST POP JUMPDEST PUSH1 0x0 PUSH2 0x188F DUP6 PUSH2 0xFFE JUMP JUMPDEST SWAP2 POP DUP2 EQ ISZERO PUSH2 0x18D3 JUMPI PUSH1 0x40 MLOAD PUSH32 0x8C379A000000000000000000000000000000000000000000000000000000000 DUP2 MSTORE PUSH1 0x4 ADD PUSH2 0x18CA SWAP1 PUSH2 0x2AEE JUMP JUMPDEST PUSH1 0x40 MLOAD DUP1 SWAP2 SUB SWAP1 REVERT JUMPDEST PUSH2 0x18DD DUP2 DUP6 PUSH2 0x20C5 JUMP JUMPDEST PUSH2 0x18E7 DUP3 DUP6 PUSH2 0x20C9 JUMP JUMPDEST DUP2 PUSH20 0xFFFFFFFFFFFFFFFFFFFFFFFFFFFFFFFFFFFFFFFF AND DUP4 PUSH20 0xFFFFFFFFFFFFFFFFFFFFFFFFFFFFFFFFFFFFFFFF AND CALLER PUSH20 0xFFFFFFFFFFFFFFFFFFFFFFFFFFFFFFFFFFFFFFFF AND PUSH32 0xFBDE797D201C681B91056529119E0B02407C7BB96A4A2C75C01FC9667232C8DB DUP5 DUP9 PUSH1 0x40 MLOAD PUSH2 0x195D SWAP3 SWAP2 SWAP1 PUSH2 0x2B69 JUMP JUMPDEST PUSH1 0x40 MLOAD DUP1 SWAP2 SUB SWAP1 LOG4 PUSH2 0x19B0 DUP4 DUP3 PUSH32 0x0 PUSH20 0xFFFFFFFFFFFFFFFFFFFFFFFFFFFFFFFFFFFFFFFF AND PUSH2 0x2199 SWAP1 SWAP3 SWAP2 SWAP1 PUSH4 0xFFFFFFFF AND JUMP JUMPDEST SWAP4 SWAP3 POP POP POP JUMP JUMPDEST PUSH1 0x0 PUSH32 0xFFFFFFFFFFFFFFFFFFFFFFFFFFFFFFFFFFFFFFFFFFFFFFFFFFFFFFFFFFFFFFFF SWAP1 POP SWAP2 SWAP1 POP JUMP JUMPDEST PUSH1 0x0 DUP1 PUSH1 0x2 SLOAD SWAP1 POP PUSH1 0x0 DUP2 EQ PUSH2 0x1A12 JUMPI PUSH2 0x1A0D DUP2 PUSH2 0x19FD PUSH2 0x73B JUMP JUMPDEST DUP6 PUSH2 0x1DFE SWAP1 SWAP3 SWAP2 SWAP1 PUSH4 0xFFFFFFFF AND JUMP JUMPDEST PUSH2 0x1A14 JUMP JUMPDEST DUP3 JUMPDEST SWAP2 POP POP SWAP2 SWAP1 POP JUMP JUMPDEST PUSH1 0x0 PUSH2 0x1A66 PUSH1 0x3 PUSH1 0x0 DUP5 PUSH20 0xFFFFFFFFFFFFFFFFFFFFFFFFFFFFFFFFFFFFFFFF AND PUSH20 0xFFFFFFFFFFFFFFFFFFFFFFFFFFFFFFFFFFFFFFFF AND DUP2 MSTORE PUSH1 0x20 ADD SWAP1 DUP2 MSTORE PUSH1 0x20 ADD PUSH1 0x0 KECCAK256 SLOAD PUSH2 0x879 JUMP JUMPDEST SWAP1 POP SWAP2 SWAP1 POP JUMP JUMPDEST TIMESTAMP DUP5 LT ISZERO PUSH2 0x1AB0 JUMPI PUSH1 0x40 MLOAD PUSH32 0x8C379A000000000000000000000000000000000000000000000000000000000 DUP2 MSTORE PUSH1 0x4 ADD PUSH2 0x1AA7 SWAP1 PUSH2 0x2B2E JUMP JUMPDEST PUSH1 0x40 MLOAD DUP1 SWAP2 SUB SWAP1 REVERT JUMPDEST PUSH1 0x0 PUSH1 0x1 PUSH2 0x1ABC PUSH2 0xEA1 JUMP JUMPDEST PUSH32 0x6E71EDAE12B1B97F4D1F60370FEF10105FA2FAAE0126114A169C64845D6126C9 DUP11 DUP11 DUP11 PUSH1 0x5 PUSH1 0x0 DUP16 PUSH20 0xFFFFFFFFFFFFFFFFFFFFFFFFFFFFFFFFFFFFFFFF AND PUSH20 0xFFFFFFFFFFFFFFFFFFFFFFFFFFFFFFFFFFFFFFFF AND DUP2 MSTORE PUSH1 0x20 ADD SWAP1 DUP2 MSTORE PUSH1 0x20 ADD PUSH1 0x0 KECCAK256 PUSH1 0x0 DUP2 SLOAD DUP1 SWAP3 SWAP2 SWAP1 PUSH1 0x1 ADD SWAP2 SWAP1 POP SSTORE DUP12 PUSH1 0x40 MLOAD PUSH1 0x20 ADD PUSH2 0x1B44 SWAP7 SWAP6 SWAP5 SWAP4 SWAP3 SWAP2 SWAP1 PUSH2 0x28B8 JUMP JUMPDEST PUSH1 0x40 MLOAD PUSH1 0x20 DUP2 DUP4 SUB SUB DUP2 MSTORE SWAP1 PUSH1 0x40 MSTORE DUP1 MLOAD SWAP1 PUSH1 0x20 ADD KECCAK256 PUSH1 0x40 MLOAD PUSH1 0x20 ADD PUSH2 0x1B6B SWAP3 SWAP2 SWAP1 PUSH2 0x2830 JUMP JUMPDEST PUSH1 0x40 MLOAD PUSH1 0x20 DUP2 DUP4 SUB SUB DUP2 MSTORE SWAP1 PUSH1 0x40 MSTORE DUP1 MLOAD SWAP1 PUSH1 0x20 ADD KECCAK256 DUP6 DUP6 DUP6 PUSH1 0x40 MLOAD PUSH1 0x0 DUP2 MSTORE PUSH1 0x20 ADD PUSH1 0x40 MSTORE PUSH1 0x40 MLOAD PUSH2 0x1BA1 SWAP5 SWAP4 SWAP3 SWAP2 SWAP1 PUSH2 0x296C JUMP JUMPDEST PUSH1 0x20 PUSH1 0x40 MLOAD PUSH1 0x20 DUP2 SUB SWAP1 DUP1 DUP5 SUB SWAP1 DUP6 GAS STATICCALL ISZERO DUP1 ISZERO PUSH2 0x1BC3 JUMPI RETURNDATASIZE PUSH1 0x0 DUP1 RETURNDATACOPY RETURNDATASIZE PUSH1 0x0 REVERT JUMPDEST POP POP POP PUSH1 0x20 PUSH1 0x40 MLOAD SUB MLOAD SWAP1 POP PUSH1 0x0 PUSH20 0xFFFFFFFFFFFFFFFFFFFFFFFFFFFFFFFFFFFFFFFF AND DUP2 PUSH20 0xFFFFFFFFFFFFFFFFFFFFFFFFFFFFFFFFFFFFFFFF AND EQ ISZERO DUP1 ISZERO PUSH2 0x1C37 JUMPI POP DUP8 PUSH20 0xFFFFFFFFFFFFFFFFFFFFFFFFFFFFFFFFFFFFFFFF AND DUP2 PUSH20 0xFFFFFFFFFFFFFFFFFFFFFFFFFFFFFFFFFFFFFFFF AND EQ JUMPDEST PUSH2 0x1C76 JUMPI PUSH1 0x40 MLOAD PUSH32 0x8C379A000000000000000000000000000000000000000000000000000000000 DUP2 MSTORE PUSH1 0x4 ADD PUSH2 0x1C6D SWAP1 PUSH2 0x2ACE JUMP JUMPDEST PUSH1 0x40 MLOAD DUP1 SWAP2 SUB SWAP1 REVERT JUMPDEST DUP6 PUSH1 0x4 PUSH1 0x0 DUP4 PUSH20 0xFFFFFFFFFFFFFFFFFFFFFFFFFFFFFFFFFFFFFFFF AND PUSH20 0xFFFFFFFFFFFFFFFFFFFFFFFFFFFFFFFFFFFFFFFF AND DUP2 MSTORE PUSH1 0x20 ADD SWAP1 DUP2 MSTORE PUSH1 0x20 ADD PUSH1 0x0 KECCAK256 PUSH1 0x0 DUP10 PUSH20 0xFFFFFFFFFFFFFFFFFFFFFFFFFFFFFFFFFFFFFFFF AND PUSH20 0xFFFFFFFFFFFFFFFFFFFFFFFFFFFFFFFFFFFFFFFF AND DUP2 MSTORE PUSH1 0x20 ADD SWAP1 DUP2 MSTORE PUSH1 0x20 ADD PUSH1 0x0 KECCAK256 DUP2 SWAP1 SSTORE POP POP DUP6 PUSH20 0xFFFFFFFFFFFFFFFFFFFFFFFFFFFFFFFFFFFFFFFF AND DUP8 PUSH20 0xFFFFFFFFFFFFFFFFFFFFFFFFFFFFFFFFFFFFFFFF AND PUSH32 0x8C5BE1E5EBEC7D5BD14F71427D1E84F3DD0314C0F7B2291E5B200AC8C7C3B925 DUP8 PUSH1 0x40 MLOAD PUSH2 0x1D55 SWAP2 SWAP1 PUSH2 0x2B4E JUMP JUMPDEST PUSH1 0x40 MLOAD DUP1 SWAP2 SUB SWAP1 LOG3 POP POP POP POP POP POP POP JUMP JUMPDEST PUSH1 0x0 PUSH1 0x3 PUSH1 0x0 DUP4 PUSH20 0xFFFFFFFFFFFFFFFFFFFFFFFFFFFFFFFFFFFFFFFF AND PUSH20 0xFFFFFFFFFFFFFFFFFFFFFFFFFFFFFFFFFFFFFFFF AND DUP2 MSTORE PUSH1 0x20 ADD SWAP1 DUP2 MSTORE PUSH1 0x20 ADD PUSH1 0x0 KECCAK256 SLOAD SWAP1 POP SWAP2 SWAP1 POP JUMP JUMPDEST PUSH1 0x4 PUSH1 0x20 MSTORE DUP2 PUSH1 0x0 MSTORE PUSH1 0x40 PUSH1 0x0 KECCAK256 PUSH1 0x20 MSTORE DUP1 PUSH1 0x0 MSTORE PUSH1 0x40 PUSH1 0x0 KECCAK256 PUSH1 0x0 SWAP2 POP SWAP2 POP POP SLOAD DUP2 JUMP JUMPDEST PUSH1 0x0 PUSH2 0x1DDF DUP3 PUSH2 0x19E1 JUMP JUMPDEST SWAP1 POP SWAP2 SWAP1 POP JUMP JUMPDEST PUSH1 0x6 PUSH1 0x20 MSTORE DUP1 PUSH1 0x0 MSTORE PUSH1 0x40 PUSH1 0x0 KECCAK256 PUSH1 0x0 SWAP2 POP SWAP1 POP SLOAD DUP2 JUMP JUMPDEST PUSH1 0x0 DUP3 PUSH32 0xFFFFFFFFFFFFFFFFFFFFFFFFFFFFFFFFFFFFFFFFFFFFFFFFFFFFFFFFFFFFFFFF DIV DUP5 GT DUP4 MUL ISZERO DUP3 MUL PUSH2 0x1E33 JUMPI PUSH1 0x0 DUP1 REVERT JUMPDEST DUP2 DUP4 DUP6 MUL DIV SWAP1 POP SWAP4 SWAP3 POP POP POP JUMP JUMPDEST PUSH1 0x0 DUP3 PUSH32 0xFFFFFFFFFFFFFFFFFFFFFFFFFFFFFFFFFFFFFFFFFFFFFFFFFFFFFFFFFFFFFFFF DIV DUP5 GT DUP4 MUL ISZERO DUP3 MUL PUSH2 0x1E76 JUMPI PUSH1 0x0 DUP1 REVERT JUMPDEST DUP2 DUP4 DUP6 MUL DIV PUSH1 0x0 DUP4 DUP6 DUP8 MUL MOD GT ADD SWAP1 POP SWAP4 SWAP3 POP POP POP JUMP JUMPDEST PUSH1 0x0 PUSH32 0x8B73C3C69BB8FE3D512ECC4CF759CC79239F7B179B0FFACAA9A75D522B39400F PUSH1 0x0 PUSH1 0x40 MLOAD PUSH2 0x1EBF SWAP2 SWAP1 PUSH2 0x2819 JUMP JUMPDEST PUSH1 0x40 MLOAD DUP1 SWAP2 SUB SWAP1 KECCAK256 PUSH32 0xC89EFDAA54C0F20C7ADF612882DF0950F5A951637E0307CDCB4C672F298B8BC6 CHAINID ADDRESS PUSH1 0x40 MLOAD PUSH1 0x20 ADD PUSH2 0x1EFE SWAP6 SWAP5 SWAP4 SWAP3 SWAP2 SWAP1 PUSH2 0x2919 JUMP JUMPDEST PUSH1 0x40 MLOAD PUSH1 0x20 DUP2 DUP4 SUB SUB DUP2 MSTORE SWAP1 PUSH1 0x40 MSTORE DUP1 MLOAD SWAP1 PUSH1 0x20 ADD KECCAK256 SWAP1 POP SWAP1 JUMP JUMPDEST PUSH1 0x0 PUSH1 0x40 MLOAD PUSH32 0x23B872DD00000000000000000000000000000000000000000000000000000000 DUP2 MSTORE PUSH20 0xFFFFFFFFFFFFFFFFFFFFFFFFFFFFFFFFFFFFFFFF DUP6 AND PUSH1 0x4 DUP3 ADD MSTORE PUSH20 0xFFFFFFFFFFFFFFFFFFFFFFFFFFFFFFFFFFFFFFFF DUP5 AND PUSH1 0x24 DUP3 ADD MSTORE DUP3 PUSH1 0x44 DUP3 ADD MSTORE PUSH1 0x20 PUSH1 0x0 PUSH1 0x64 DUP4 PUSH1 0x0 DUP11 GAS CALL SWAP2 POP DUP2 PUSH1 0x1F RETURNDATASIZE GT PUSH1 0x1 PUSH1 0x0 MLOAD EQ AND ISZERO AND ISZERO PUSH2 0x1FA9 JUMPI RETURNDATASIZE DUP7 EXTCODESIZE ISZERO OR ISZERO SWAP2 POP JUMPDEST POP DUP1 PUSH2 0x1FEA JUMPI PUSH1 0x40 MLOAD PUSH32 0x8C379A000000000000000000000000000000000000000000000000000000000 DUP2 MSTORE PUSH1 0x4 ADD PUSH2 0x1FE1 SWAP1 PUSH2 0x2A2E JUMP JUMPDEST PUSH1 0x40 MLOAD DUP1 SWAP2 SUB SWAP1 REVERT JUMPDEST POP POP POP POP POP JUMP JUMPDEST DUP1 PUSH1 0x2 PUSH1 0x0 DUP3 DUP3 SLOAD PUSH2 0x2003 SWAP2 SWAP1 PUSH2 0x2BF4 JUMP JUMPDEST SWAP3 POP POP DUP2 SWAP1 SSTORE POP DUP1 PUSH1 0x3 PUSH1 0x0 DUP5 PUSH20 0xFFFFFFFFFFFFFFFFFFFFFFFFFFFFFFFFFFFFFFFF AND PUSH20 0xFFFFFFFFFFFFFFFFFFFFFFFFFFFFFFFFFFFFFFFF AND DUP2 MSTORE PUSH1 0x20 ADD SWAP1 DUP2 MSTORE PUSH1 0x20 ADD PUSH1 0x0 KECCAK256 PUSH1 0x0 DUP3 DUP3 SLOAD ADD SWAP3 POP POP DUP2 SWAP1 SSTORE POP DUP2 PUSH20 0xFFFFFFFFFFFFFFFFFFFFFFFFFFFFFFFFFFFFFFFF AND PUSH1 0x0 PUSH20 0xFFFFFFFFFFFFFFFFFFFFFFFFFFFFFFFFFFFFFFFF AND PUSH32 0xDDF252AD1BE2C89B69C2B068FC378DAA952BA7F163C4A11628F55A4DF523B3EF DUP4 PUSH1 0x40 MLOAD PUSH2 0x20B5 SWAP2 SWAP1 PUSH2 0x2B4E JUMP JUMPDEST PUSH1 0x40 MLOAD DUP1 SWAP2 SUB SWAP1 LOG3 POP POP JUMP JUMPDEST POP POP JUMP JUMPDEST POP POP JUMP JUMPDEST DUP1 PUSH1 0x3 PUSH1 0x0 DUP5 PUSH20 0xFFFFFFFFFFFFFFFFFFFFFFFFFFFFFFFFFFFFFFFF AND PUSH20 0xFFFFFFFFFFFFFFFFFFFFFFFFFFFFFFFFFFFFFFFF AND DUP2 MSTORE PUSH1 0x20 ADD SWAP1 DUP2 MSTORE PUSH1 0x20 ADD PUSH1 0x0 KECCAK256 PUSH1 0x0 DUP3 DUP3 SLOAD PUSH2 0x2118 SWAP2 SWAP1 PUSH2 0x2CD5 JUMP JUMPDEST SWAP3 POP POP DUP2 SWAP1 SSTORE POP DUP1 PUSH1 0x2 PUSH1 0x0 DUP3 DUP3 SLOAD SUB SWAP3 POP POP DUP2 SWAP1 SSTORE POP PUSH1 0x0 PUSH20 0xFFFFFFFFFFFFFFFFFFFFFFFFFFFFFFFFFFFFFFFF AND DUP3 PUSH20 0xFFFFFFFFFFFFFFFFFFFFFFFFFFFFFFFFFFFFFFFF AND PUSH32 0xDDF252AD1BE2C89B69C2B068FC378DAA952BA7F163C4A11628F55A4DF523B3EF DUP4 PUSH1 0x40 MLOAD PUSH2 0x218D SWAP2 SWAP1 PUSH2 0x2B4E JUMP JUMPDEST PUSH1 0x40 MLOAD DUP1 SWAP2 SUB SWAP1 LOG3 POP POP JUMP JUMPDEST PUSH1 0x0 PUSH1 0x40 MLOAD PUSH32 0xA9059CBB00000000000000000000000000000000000000000000000000000000 DUP2 MSTORE PUSH20 0xFFFFFFFFFFFFFFFFFFFFFFFFFFFFFFFFFFFFFFFF DUP5 AND PUSH1 0x4 DUP3 ADD MSTORE DUP3 PUSH1 0x24 DUP3 ADD MSTORE PUSH1 0x20 PUSH1 0x0 PUSH1 0x44 DUP4 PUSH1 0x0 DUP10 GAS CALL SWAP2 POP DUP2 PUSH1 0x1F RETURNDATASIZE GT PUSH1 0x1 PUSH1 0x0 MLOAD EQ AND ISZERO AND ISZERO PUSH2 0x220D JUMPI RETURNDATASIZE DUP6 EXTCODESIZE ISZERO OR ISZERO SWAP2 POP JUMPDEST POP DUP1 PUSH2 0x224E JUMPI PUSH1 0x40 MLOAD PUSH32 0x8C379A000000000000000000000000000000000000000000000000000000000 DUP2 MSTORE PUSH1 0x4 ADD PUSH2 0x2245 SWAP1 PUSH2 0x2A6E JUMP JUMPDEST PUSH1 0x40 MLOAD DUP1 SWAP2 SUB SWAP1 REVERT JUMPDEST POP POP POP POP JUMP JUMPDEST PUSH1 0x0 DUP2 CALLDATALOAD SWAP1 POP PUSH2 0x2263 DUP2 PUSH2 0x30C2 JUMP JUMPDEST SWAP3 SWAP2 POP POP JUMP JUMPDEST PUSH1 0x0 DUP2 CALLDATALOAD SWAP1 POP PUSH2 0x2278 DUP2 PUSH2 0x30D9 JUMP JUMPDEST SWAP3 SWAP2 POP POP JUMP JUMPDEST PUSH1 0x0 DUP2 CALLDATALOAD SWAP1 POP PUSH2 0x228D DUP2 PUSH2 0x30F0 JUMP JUMPDEST SWAP3 SWAP2 POP POP JUMP JUMPDEST PUSH1 0x0 DUP2 MLOAD SWAP1 POP PUSH2 0x22A2 DUP2 PUSH2 0x30F0 JUMP JUMPDEST SWAP3 SWAP2 POP POP JUMP JUMPDEST PUSH1 0x0 DUP2 CALLDATALOAD SWAP1 POP PUSH2 0x22B7 DUP2 PUSH2 0x3107 JUMP JUMPDEST SWAP3 SWAP2 POP POP JUMP JUMPDEST PUSH1 0x0 PUSH1 0x20 DUP3 DUP5 SUB SLT ISZERO PUSH2 0x22D3 JUMPI PUSH2 0x22D2 PUSH2 0x2E9A JUMP JUMPDEST JUMPDEST PUSH1 0x0 PUSH2 0x22E1 DUP5 DUP3 DUP6 ADD PUSH2 0x2254 JUMP JUMPDEST SWAP2 POP POP SWAP3 SWAP2 POP POP JUMP JUMPDEST PUSH1 0x0 DUP1 PUSH1 0x40 DUP4 DUP6 SUB SLT ISZERO PUSH2 0x2301 JUMPI PUSH2 0x2300 PUSH2 0x2E9A JUMP JUMPDEST JUMPDEST PUSH1 0x0 PUSH2 0x230F DUP6 DUP3 DUP7 ADD PUSH2 0x2254 JUMP JUMPDEST SWAP3 POP POP PUSH1 0x20 PUSH2 0x2320 DUP6 DUP3 DUP7 ADD PUSH2 0x2254 JUMP JUMPDEST SWAP2 POP POP SWAP3 POP SWAP3 SWAP1 POP JUMP JUMPDEST PUSH1 0x0 DUP1 PUSH1 0x0 PUSH1 0x60 DUP5 DUP7 SUB SLT ISZERO PUSH2 0x2343 JUMPI PUSH2 0x2342 PUSH2 0x2E9A JUMP JUMPDEST JUMPDEST PUSH1 0x0 PUSH2 0x2351 DUP7 DUP3 DUP8 ADD PUSH2 0x2254 JUMP JUMPDEST SWAP4 POP POP PUSH1 0x20 PUSH2 0x2362 DUP7 DUP3 DUP8 ADD PUSH2 0x2254 JUMP JUMPDEST SWAP3 POP POP PUSH1 0x40 PUSH2 0x2373 DUP7 DUP3 DUP8 ADD PUSH2 0x227E JUMP JUMPDEST SWAP2 POP POP SWAP3 POP SWAP3 POP SWAP3 JUMP JUMPDEST PUSH1 0x0 DUP1 PUSH1 0x0 DUP1 PUSH1 0x0 DUP1 PUSH1 0x0 PUSH1 0xE0 DUP9 DUP11 SUB SLT ISZERO PUSH2 0x239C JUMPI PUSH2 0x239B PUSH2 0x2E9A JUMP JUMPDEST JUMPDEST PUSH1 0x0 PUSH2 0x23AA DUP11 DUP3 DUP12 ADD PUSH2 0x2254 JUMP JUMPDEST SWAP8 POP POP PUSH1 0x20 PUSH2 0x23BB DUP11 DUP3 DUP12 ADD PUSH2 0x2254 JUMP JUMPDEST SWAP7 POP POP PUSH1 0x40 PUSH2 0x23CC DUP11 DUP3 DUP12 ADD PUSH2 0x227E JUMP JUMPDEST SWAP6 POP POP PUSH1 0x60 PUSH2 0x23DD DUP11 DUP3 DUP12 ADD PUSH2 0x227E JUMP JUMPDEST SWAP5 POP POP PUSH1 0x80 PUSH2 0x23EE DUP11 DUP3 DUP12 ADD PUSH2 0x22A8 JUMP JUMPDEST SWAP4 POP POP PUSH1 0xA0 PUSH2 0x23FF DUP11 DUP3 DUP12 ADD PUSH2 0x2269 JUMP JUMPDEST SWAP3 POP POP PUSH1 0xC0 PUSH2 0x2410 DUP11 DUP3 DUP12 ADD PUSH2 0x2269 JUMP JUMPDEST SWAP2 POP POP SWAP3 SWAP6 SWAP9 SWAP2 SWAP5 SWAP8 POP SWAP3 SWAP6 POP JUMP JUMPDEST PUSH1 0x0 DUP1 PUSH1 0x40 DUP4 DUP6 SUB SLT ISZERO PUSH2 0x2436 JUMPI PUSH2 0x2435 PUSH2 0x2E9A JUMP JUMPDEST JUMPDEST PUSH1 0x0 PUSH2 0x2444 DUP6 DUP3 DUP7 ADD PUSH2 0x2254 JUMP JUMPDEST SWAP3 POP POP PUSH1 0x20 PUSH2 0x2455 DUP6 DUP3 DUP7 ADD PUSH2 0x227E JUMP JUMPDEST SWAP2 POP POP SWAP3 POP SWAP3 SWAP1 POP JUMP JUMPDEST PUSH1 0x0 PUSH1 0x20 DUP3 DUP5 SUB SLT ISZERO PUSH2 0x2475 JUMPI PUSH2 0x2474 PUSH2 0x2E9A JUMP JUMPDEST JUMPDEST PUSH1 0x0 PUSH2 0x2483 DUP5 DUP3 DUP6 ADD PUSH2 0x227E JUMP JUMPDEST SWAP2 POP POP SWAP3 SWAP2 POP POP JUMP JUMPDEST PUSH1 0x0 PUSH1 0x20 DUP3 DUP5 SUB SLT ISZERO PUSH2 0x24A2 JUMPI PUSH2 0x24A1 PUSH2 0x2E9A JUMP JUMPDEST JUMPDEST PUSH1 0x0 PUSH2 0x24B0 DUP5 DUP3 DUP6 ADD PUSH2 0x2293 JUMP JUMPDEST SWAP2 POP POP SWAP3 SWAP2 POP POP JUMP JUMPDEST PUSH1 0x0 DUP1 PUSH1 0x40 DUP4 DUP6 SUB SLT ISZERO PUSH2 0x24D0 JUMPI PUSH2 0x24CF PUSH2 0x2E9A JUMP JUMPDEST JUMPDEST PUSH1 0x0 PUSH2 0x24DE DUP6 DUP3 DUP7 ADD PUSH2 0x227E JUMP JUMPDEST SWAP3 POP POP PUSH1 0x20 PUSH2 0x24EF DUP6 DUP3 DUP7 ADD PUSH2 0x2254 JUMP JUMPDEST SWAP2 POP POP SWAP3 POP SWAP3 SWAP1 POP JUMP JUMPDEST PUSH1 0x0 DUP1 PUSH1 0x0 PUSH1 0x60 DUP5 DUP7 SUB SLT ISZERO PUSH2 0x2512 JUMPI PUSH2 0x2511 PUSH2 0x2E9A JUMP JUMPDEST JUMPDEST PUSH1 0x0 PUSH2 0x2520 DUP7 DUP3 DUP8 ADD PUSH2 0x227E JUMP JUMPDEST SWAP4 POP POP PUSH1 0x20 PUSH2 0x2531 DUP7 DUP3 DUP8 ADD PUSH2 0x2254 JUMP JUMPDEST SWAP3 POP POP PUSH1 0x40 PUSH2 0x2542 DUP7 DUP3 DUP8 ADD PUSH2 0x2254 JUMP JUMPDEST SWAP2 POP POP SWAP3 POP SWAP3 POP SWAP3 JUMP JUMPDEST PUSH2 0x2555 DUP2 PUSH2 0x2D09 JUMP JUMPDEST DUP3 MSTORE POP POP JUMP JUMPDEST PUSH2 0x2564 DUP2 PUSH2 0x2D1B JUMP JUMPDEST DUP3 MSTORE POP POP JUMP JUMPDEST PUSH2 0x2573 DUP2 PUSH2 0x2D27 JUMP JUMPDEST DUP3 MSTORE POP POP JUMP JUMPDEST PUSH2 0x258A PUSH2 0x2585 DUP3 PUSH2 0x2D27 JUMP JUMPDEST PUSH2 0x2E03 JUMP JUMPDEST DUP3 MSTORE POP POP JUMP JUMPDEST PUSH1 0x0 DUP2 SLOAD PUSH2 0x259D DUP2 PUSH2 0x2DD1 JUMP JUMPDEST PUSH2 0x25A7 DUP2 DUP7 PUSH2 0x2BCD JUMP JUMPDEST SWAP5 POP PUSH1 0x1 DUP3 AND PUSH1 0x0 DUP2 EQ PUSH2 0x25C2 JUMPI PUSH1 0x1 DUP2 EQ PUSH2 0x25D3 JUMPI PUSH2 0x2606 JUMP JUMPDEST PUSH1 0xFF NOT DUP4 AND DUP7 MSTORE DUP2 DUP7 ADD SWAP4 POP PUSH2 0x2606 JUMP JUMPDEST PUSH2 0x25DC DUP6 PUSH2 0x2BAD JUMP JUMPDEST PUSH1 0x0 JUMPDEST DUP4 DUP2 LT ISZERO PUSH2 0x25FE JUMPI DUP2 SLOAD DUP2 DUP10 ADD MSTORE PUSH1 0x1 DUP3 ADD SWAP2 POP PUSH1 0x20 DUP2 ADD SWAP1 POP PUSH2 0x25DF JUMP JUMPDEST DUP4 DUP9 ADD SWAP6 POP POP POP JUMPDEST POP POP POP SWAP3 SWAP2 POP POP JUMP JUMPDEST PUSH2 0x2618 DUP2 PUSH2 0x2D68 JUMP JUMPDEST DUP3 MSTORE POP POP JUMP JUMPDEST PUSH1 0x0 PUSH2 0x2629 DUP3 PUSH2 0x2BC2 JUMP JUMPDEST PUSH2 0x2633 DUP2 DUP6 PUSH2 0x2BD8 JUMP JUMPDEST SWAP4 POP PUSH2 0x2643 DUP2 DUP6 PUSH1 0x20 DUP7 ADD PUSH2 0x2D9E JUMP JUMPDEST PUSH2 0x264C DUP2 PUSH2 0x2E9F JUMP JUMPDEST DUP5 ADD SWAP2 POP POP SWAP3 SWAP2 POP POP JUMP JUMPDEST PUSH1 0x0 PUSH2 0x2664 PUSH1 0xB DUP4 PUSH2 0x2BD8 JUMP JUMPDEST SWAP2 POP PUSH2 0x266F DUP3 PUSH2 0x2EB0 JUMP JUMPDEST PUSH1 0x20 DUP3 ADD SWAP1 POP SWAP2 SWAP1 POP JUMP JUMPDEST PUSH1 0x0 PUSH2 0x2687 PUSH1 0x2 DUP4 PUSH2 0x2BE9 JUMP JUMPDEST SWAP2 POP PUSH2 0x2692 DUP3 PUSH2 0x2ED9 JUMP JUMPDEST PUSH1 0x2 DUP3 ADD SWAP1 POP SWAP2 SWAP1 POP JUMP JUMPDEST PUSH1 0x0 PUSH2 0x26AA PUSH1 0x12 DUP4 PUSH2 0x2BD8 JUMP JUMPDEST SWAP2 POP PUSH2 0x26B5 DUP3 PUSH2 0x2F02 JUMP JUMPDEST PUSH1 0x20 DUP3 ADD SWAP1 POP SWAP2 SWAP1 POP JUMP JUMPDEST PUSH1 0x0 PUSH2 0x26CD PUSH1 0x14 DUP4 PUSH2 0x2BD8 JUMP JUMPDEST SWAP2 POP PUSH2 0x26D8 DUP3 PUSH2 0x2F2B JUMP JUMPDEST PUSH1 0x20 DUP3 ADD SWAP1 POP SWAP2 SWAP1 POP JUMP JUMPDEST PUSH1 0x0 PUSH2 0x26F0 PUSH1 0x22 DUP4 PUSH2 0x2BD8 JUMP JUMPDEST SWAP2 POP PUSH2 0x26FB DUP3 PUSH2 0x2F54 JUMP JUMPDEST PUSH1 0x40 DUP3 ADD SWAP1 POP SWAP2 SWAP1 POP JUMP JUMPDEST PUSH1 0x0 PUSH2 0x2713 PUSH1 0xF DUP4 PUSH2 0x2BD8 JUMP JUMPDEST SWAP2 POP PUSH2 0x271E DUP3 PUSH2 0x2FA3 JUMP JUMPDEST PUSH1 0x20 DUP3 ADD SWAP1 POP SWAP2 SWAP1 POP JUMP JUMPDEST PUSH1 0x0 PUSH2 0x2736 PUSH1 0x11 DUP4 PUSH2 0x2BD8 JUMP JUMPDEST SWAP2 POP PUSH2 0x2741 DUP3 PUSH2 0x2FCC JUMP JUMPDEST PUSH1 0x20 DUP3 ADD SWAP1 POP SWAP2 SWAP1 POP JUMP JUMPDEST PUSH1 0x0 PUSH2 0x2759 PUSH1 0xC DUP4 PUSH2 0x2BD8 JUMP JUMPDEST SWAP2 POP PUSH2 0x2764 DUP3 PUSH2 0x2FF5 JUMP JUMPDEST PUSH1 0x20 DUP3 ADD SWAP1 POP SWAP2 SWAP1 POP JUMP JUMPDEST PUSH1 0x0 PUSH2 0x277C PUSH1 0xE DUP4 PUSH2 0x2BD8 JUMP JUMPDEST SWAP2 POP PUSH2 0x2787 DUP3 PUSH2 0x301E JUMP JUMPDEST PUSH1 0x20 DUP3 ADD SWAP1 POP SWAP2 SWAP1 POP JUMP JUMPDEST PUSH1 0x0 PUSH2 0x279F PUSH1 0xB DUP4 PUSH2 0x2BD8 JUMP JUMPDEST SWAP2 POP PUSH2 0x27AA DUP3 PUSH2 0x3047 JUMP JUMPDEST PUSH1 0x20 DUP3 ADD SWAP1 POP SWAP2 SWAP1 POP JUMP JUMPDEST PUSH1 0x0 PUSH2 0x27C2 PUSH1 0x16 DUP4 PUSH2 0x2BD8 JUMP JUMPDEST SWAP2 POP PUSH2 0x27CD DUP3 PUSH2 0x3070 JUMP JUMPDEST PUSH1 0x20 DUP3 ADD SWAP1 POP SWAP2 SWAP1 POP JUMP JUMPDEST PUSH1 0x0 PUSH2 0x27E5 PUSH1 0x17 DUP4 PUSH2 0x2BD8 JUMP JUMPDEST SWAP2 POP PUSH2 0x27F0 DUP3 PUSH2 0x3099 JUMP JUMPDEST PUSH1 0x20 DUP3 ADD SWAP1 POP SWAP2 SWAP1 POP JUMP JUMPDEST PUSH2 0x2804 DUP2 PUSH2 0x2D51 JUMP JUMPDEST DUP3 MSTORE POP POP JUMP JUMPDEST PUSH2 0x2813 DUP2 PUSH2 0x2D5B JUMP JUMPDEST DUP3 MSTORE POP POP JUMP JUMPDEST PUSH1 0x0 PUSH2 0x2825 DUP3 DUP5 PUSH2 0x2590 JUMP JUMPDEST SWAP2 POP DUP2 SWAP1 POP SWAP3 SWAP2 POP POP JUMP JUMPDEST PUSH1 0x0 PUSH2 0x283B DUP3 PUSH2 0x267A JUMP JUMPDEST SWAP2 POP PUSH2 0x2847 DUP3 DUP6 PUSH2 0x2579 JUMP JUMPDEST PUSH1 0x20 DUP3 ADD SWAP2 POP PUSH2 0x2857 DUP3 DUP5 PUSH2 0x2579 JUMP JUMPDEST PUSH1 0x20 DUP3 ADD SWAP2 POP DUP2 SWAP1 POP SWAP4 SWAP3 POP POP POP JUMP JUMPDEST PUSH1 0x0 PUSH1 0x20 DUP3 ADD SWAP1 POP PUSH2 0x287C PUSH1 0x0 DUP4 ADD DUP5 PUSH2 0x254C JUMP JUMPDEST SWAP3 SWAP2 POP POP JUMP JUMPDEST PUSH1 0x0 PUSH1 0x20 DUP3 ADD SWAP1 POP PUSH2 0x2897 PUSH1 0x0 DUP4 ADD DUP5 PUSH2 0x255B JUMP JUMPDEST SWAP3 SWAP2 POP POP JUMP JUMPDEST PUSH1 0x0 PUSH1 0x20 DUP3 ADD SWAP1 POP PUSH2 0x28B2 PUSH1 0x0 DUP4 ADD DUP5 PUSH2 0x256A JUMP JUMPDEST SWAP3 SWAP2 POP POP JUMP JUMPDEST PUSH1 0x0 PUSH1 0xC0 DUP3 ADD SWAP1 POP PUSH2 0x28CD PUSH1 0x0 DUP4 ADD DUP10 PUSH2 0x256A JUMP JUMPDEST PUSH2 0x28DA PUSH1 0x20 DUP4 ADD DUP9 PUSH2 0x254C JUMP JUMPDEST PUSH2 0x28E7 PUSH1 0x40 DUP4 ADD DUP8 PUSH2 0x254C JUMP JUMPDEST PUSH2 0x28F4 PUSH1 0x60 DUP4 ADD DUP7 PUSH2 0x27FB JUMP JUMPDEST PUSH2 0x2901 PUSH1 0x80 DUP4 ADD DUP6 PUSH2 0x27FB JUMP JUMPDEST PUSH2 0x290E PUSH1 0xA0 DUP4 ADD DUP5 PUSH2 0x27FB JUMP JUMPDEST SWAP8 SWAP7 POP POP POP POP POP POP POP JUMP JUMPDEST PUSH1 0x0 PUSH1 0xA0 DUP3 ADD SWAP1 POP PUSH2 0x292E PUSH1 0x0 DUP4 ADD DUP9 PUSH2 0x256A JUMP JUMPDEST PUSH2 0x293B PUSH1 0x20 DUP4 ADD DUP8 PUSH2 0x256A JUMP JUMPDEST PUSH2 0x2948 PUSH1 0x40 DUP4 ADD DUP7 PUSH2 0x256A JUMP JUMPDEST PUSH2 0x2955 PUSH1 0x60 DUP4 ADD DUP6 PUSH2 0x27FB JUMP JUMPDEST PUSH2 0x2962 PUSH1 0x80 DUP4 ADD DUP5 PUSH2 0x254C JUMP JUMPDEST SWAP7 SWAP6 POP POP POP POP POP POP JUMP JUMPDEST PUSH1 0x0 PUSH1 0x80 DUP3 ADD SWAP1 POP PUSH2 0x2981 PUSH1 0x0 DUP4 ADD DUP8 PUSH2 0x256A JUMP JUMPDEST PUSH2 0x298E PUSH1 0x20 DUP4 ADD DUP7 PUSH2 0x280A JUMP JUMPDEST PUSH2 0x299B PUSH1 0x40 DUP4 ADD DUP6 PUSH2 0x256A JUMP JUMPDEST PUSH2 0x29A8 PUSH1 0x60 DUP4 ADD DUP5 PUSH2 0x256A JUMP JUMPDEST SWAP6 SWAP5 POP POP POP POP POP JUMP JUMPDEST PUSH1 0x0 PUSH1 0x20 DUP3 ADD SWAP1 POP PUSH2 0x29C6 PUSH1 0x0 DUP4 ADD DUP5 PUSH2 0x260F JUMP JUMPDEST SWAP3 SWAP2 POP POP JUMP JUMPDEST PUSH1 0x0 PUSH1 0x20 DUP3 ADD SWAP1 POP DUP2 DUP2 SUB PUSH1 0x0 DUP4 ADD MSTORE PUSH2 0x29E6 DUP2 DUP5 PUSH2 0x261E JUMP JUMPDEST SWAP1 POP SWAP3 SWAP2 POP POP JUMP JUMPDEST PUSH1 0x0 PUSH1 0x20 DUP3 ADD SWAP1 POP DUP2 DUP2 SUB PUSH1 0x0 DUP4 ADD MSTORE PUSH2 0x2A07 DUP2 PUSH2 0x2657 JUMP JUMPDEST SWAP1 POP SWAP2 SWAP1 POP JUMP JUMPDEST PUSH1 0x0 PUSH1 0x20 DUP3 ADD SWAP1 POP DUP2 DUP2 SUB PUSH1 0x0 DUP4 ADD MSTORE PUSH2 0x2A27 DUP2 PUSH2 0x269D JUMP JUMPDEST SWAP1 POP SWAP2 SWAP1 POP JUMP JUMPDEST PUSH1 0x0 PUSH1 0x20 DUP3 ADD SWAP1 POP DUP2 DUP2 SUB PUSH1 0x0 DUP4 ADD MSTORE PUSH2 0x2A47 DUP2 PUSH2 0x26C0 JUMP JUMPDEST SWAP1 POP SWAP2 SWAP1 POP JUMP JUMPDEST PUSH1 0x0 PUSH1 0x20 DUP3 ADD SWAP1 POP DUP2 DUP2 SUB PUSH1 0x0 DUP4 ADD MSTORE PUSH2 0x2A67 DUP2 PUSH2 0x26E3 JUMP JUMPDEST SWAP1 POP SWAP2 SWAP1 POP JUMP JUMPDEST PUSH1 0x0 PUSH1 0x20 DUP3 ADD SWAP1 POP DUP2 DUP2 SUB PUSH1 0x0 DUP4 ADD MSTORE PUSH2 0x2A87 DUP2 PUSH2 0x2706 JUMP JUMPDEST SWAP1 POP SWAP2 SWAP1 POP JUMP JUMPDEST PUSH1 0x0 PUSH1 0x20 DUP3 ADD SWAP1 POP DUP2 DUP2 SUB PUSH1 0x0 DUP4 ADD MSTORE PUSH2 0x2AA7 DUP2 PUSH2 0x2729 JUMP JUMPDEST SWAP1 POP SWAP2 SWAP1 POP JUMP JUMPDEST PUSH1 0x0 PUSH1 0x20 DUP3 ADD SWAP1 POP DUP2 DUP2 SUB PUSH1 0x0 DUP4 ADD MSTORE PUSH2 0x2AC7 DUP2 PUSH2 0x274C JUMP JUMPDEST SWAP1 POP SWAP2 SWAP1 POP JUMP JUMPDEST PUSH1 0x0 PUSH1 0x20 DUP3 ADD SWAP1 POP DUP2 DUP2 SUB PUSH1 0x0 DUP4 ADD MSTORE PUSH2 0x2AE7 DUP2 PUSH2 0x276F JUMP JUMPDEST SWAP1 POP SWAP2 SWAP1 POP JUMP JUMPDEST PUSH1 0x0 PUSH1 0x20 DUP3 ADD SWAP1 POP DUP2 DUP2 SUB PUSH1 0x0 DUP4 ADD MSTORE PUSH2 0x2B07 DUP2 PUSH2 0x2792 JUMP JUMPDEST SWAP1 POP SWAP2 SWAP1 POP JUMP JUMPDEST PUSH1 0x0 PUSH1 0x20 DUP3 ADD SWAP1 POP DUP2 DUP2 SUB PUSH1 0x0 DUP4 ADD MSTORE PUSH2 0x2B27 DUP2 PUSH2 0x27B5 JUMP JUMPDEST SWAP1 POP SWAP2 SWAP1 POP JUMP JUMPDEST PUSH1 0x0 PUSH1 0x20 DUP3 ADD SWAP1 POP DUP2 DUP2 SUB PUSH1 0x0 DUP4 ADD MSTORE PUSH2 0x2B47 DUP2 PUSH2 0x27D8 JUMP JUMPDEST SWAP1 POP SWAP2 SWAP1 POP JUMP JUMPDEST PUSH1 0x0 PUSH1 0x20 DUP3 ADD SWAP1 POP PUSH2 0x2B63 PUSH1 0x0 DUP4 ADD DUP5 PUSH2 0x27FB JUMP JUMPDEST SWAP3 SWAP2 POP POP JUMP JUMPDEST PUSH1 0x0 PUSH1 0x40 DUP3 ADD SWAP1 POP PUSH2 0x2B7E PUSH1 0x0 DUP4 ADD DUP6 PUSH2 0x27FB JUMP JUMPDEST PUSH2 0x2B8B PUSH1 0x20 DUP4 ADD DUP5 PUSH2 0x27FB JUMP JUMPDEST SWAP4 SWAP3 POP POP POP JUMP JUMPDEST PUSH1 0x0 PUSH1 0x20 DUP3 ADD SWAP1 POP PUSH2 0x2BA7 PUSH1 0x0 DUP4 ADD DUP5 PUSH2 0x280A JUMP JUMPDEST SWAP3 SWAP2 POP POP JUMP JUMPDEST PUSH1 0x0 DUP2 SWAP1 POP DUP2 PUSH1 0x0 MSTORE PUSH1 0x20 PUSH1 0x0 KECCAK256 SWAP1 POP SWAP2 SWAP1 POP JUMP JUMPDEST PUSH1 0x0 DUP2 MLOAD SWAP1 POP SWAP2 SWAP1 POP JUMP JUMPDEST PUSH1 0x0 DUP2 SWAP1 POP SWAP3 SWAP2 POP POP JUMP JUMPDEST PUSH1 0x0 DUP3 DUP3 MSTORE PUSH1 0x20 DUP3 ADD SWAP1 POP SWAP3 SWAP2 POP POP JUMP JUMPDEST PUSH1 0x0 DUP2 SWAP1 POP SWAP3 SWAP2 POP POP JUMP JUMPDEST PUSH1 0x0 PUSH2 0x2BFF DUP3 PUSH2 0x2D51 JUMP JUMPDEST SWAP2 POP PUSH2 0x2C0A DUP4 PUSH2 0x2D51 JUMP JUMPDEST SWAP3 POP DUP3 PUSH32 0xFFFFFFFFFFFFFFFFFFFFFFFFFFFFFFFFFFFFFFFFFFFFFFFFFFFFFFFFFFFFFFFF SUB DUP3 GT ISZERO PUSH2 0x2C3F JUMPI PUSH2 0x2C3E PUSH2 0x2E0D JUMP JUMPDEST JUMPDEST DUP3 DUP3 ADD SWAP1 POP SWAP3 SWAP2 POP POP JUMP JUMPDEST PUSH1 0x0 PUSH2 0x2C55 DUP3 PUSH2 0x2D51 JUMP JUMPDEST SWAP2 POP PUSH2 0x2C60 DUP4 PUSH2 0x2D51 JUMP JUMPDEST SWAP3 POP DUP3 PUSH2 0x2C70 JUMPI PUSH2 0x2C6F PUSH2 0x2E3C JUMP JUMPDEST JUMPDEST DUP3 DUP3 DIV SWAP1 POP SWAP3 SWAP2 POP POP JUMP JUMPDEST PUSH1 0x0 PUSH2 0x2C86 DUP3 PUSH2 0x2D51 JUMP JUMPDEST SWAP2 POP PUSH2 0x2C91 DUP4 PUSH2 0x2D51 JUMP JUMPDEST SWAP3 POP DUP2 PUSH32 0xFFFFFFFFFFFFFFFFFFFFFFFFFFFFFFFFFFFFFFFFFFFFFFFFFFFFFFFFFFFFFFFF DIV DUP4 GT DUP3 ISZERO ISZERO AND ISZERO PUSH2 0x2CCA JUMPI PUSH2 0x2CC9 PUSH2 0x2E0D JUMP JUMPDEST JUMPDEST DUP3 DUP3 MUL SWAP1 POP SWAP3 SWAP2 POP POP JUMP JUMPDEST PUSH1 0x0 PUSH2 0x2CE0 DUP3 PUSH2 0x2D51 JUMP JUMPDEST SWAP2 POP PUSH2 0x2CEB DUP4 PUSH2 0x2D51 JUMP JUMPDEST SWAP3 POP DUP3 DUP3 LT ISZERO PUSH2 0x2CFE JUMPI PUSH2 0x2CFD PUSH2 0x2E0D JUMP JUMPDEST JUMPDEST DUP3 DUP3 SUB SWAP1 POP SWAP3 SWAP2 POP POP JUMP JUMPDEST PUSH1 0x0 PUSH2 0x2D14 DUP3 PUSH2 0x2D31 JUMP JUMPDEST SWAP1 POP SWAP2 SWAP1 POP JUMP JUMPDEST PUSH1 0x0 DUP2 ISZERO ISZERO SWAP1 POP SWAP2 SWAP1 POP JUMP JUMPDEST PUSH1 0x0 DUP2 SWAP1 POP SWAP2 SWAP1 POP JUMP JUMPDEST PUSH1 0x0 PUSH20 0xFFFFFFFFFFFFFFFFFFFFFFFFFFFFFFFFFFFFFFFF DUP3 AND SWAP1 POP SWAP2 SWAP1 POP JUMP JUMPDEST PUSH1 0x0 DUP2 SWAP1 POP SWAP2 SWAP1 POP JUMP JUMPDEST PUSH1 0x0 PUSH1 0xFF DUP3 AND SWAP1 POP SWAP2 SWAP1 POP JUMP JUMPDEST PUSH1 0x0 PUSH2 0x2D73 DUP3 PUSH2 0x2D7A JUMP JUMPDEST SWAP1 POP SWAP2 SWAP1 POP JUMP JUMPDEST PUSH1 0x0 PUSH2 0x2D85 DUP3 PUSH2 0x2D8C JUMP JUMPDEST SWAP1 POP SWAP2 SWAP1 POP JUMP JUMPDEST PUSH1 0x0 PUSH2 0x2D97 DUP3 PUSH2 0x2D31 JUMP JUMPDEST SWAP1 POP SWAP2 SWAP1 POP JUMP JUMPDEST PUSH1 0x0 JUMPDEST DUP4 DUP2 LT ISZERO PUSH2 0x2DBC JUMPI DUP1 DUP3 ADD MLOAD DUP2 DUP5 ADD MSTORE PUSH1 0x20 DUP2 ADD SWAP1 POP PUSH2 0x2DA1 JUMP JUMPDEST DUP4 DUP2 GT ISZERO PUSH2 0x2DCB JUMPI PUSH1 0x0 DUP5 DUP5 ADD MSTORE JUMPDEST POP POP POP POP JUMP JUMPDEST PUSH1 0x0 PUSH1 0x2 DUP3 DIV SWAP1 POP PUSH1 0x1 DUP3 AND DUP1 PUSH2 0x2DE9 JUMPI PUSH1 0x7F DUP3 AND SWAP2 POP JUMPDEST PUSH1 0x20 DUP3 LT DUP2 EQ ISZERO PUSH2 0x2DFD JUMPI PUSH2 0x2DFC PUSH2 0x2E6B JUMP JUMPDEST JUMPDEST POP SWAP2 SWAP1 POP JUMP JUMPDEST PUSH1 0x0 DUP2 SWAP1 POP SWAP2 SWAP1 POP JUMP JUMPDEST PUSH32 0x4E487B7100000000000000000000000000000000000000000000000000000000 PUSH1 0x0 MSTORE PUSH1 0x11 PUSH1 0x4 MSTORE PUSH1 0x24 PUSH1 0x0 REVERT JUMPDEST PUSH32 0x4E487B7100000000000000000000000000000000000000000000000000000000 PUSH1 0x0 MSTORE PUSH1 0x12 PUSH1 0x4 MSTORE PUSH1 0x24 PUSH1 0x0 REVERT JUMPDEST PUSH32 0x4E487B7100000000000000000000000000000000000000000000000000000000 PUSH1 0x0 MSTORE PUSH1 0x22 PUSH1 0x4 MSTORE PUSH1 0x24 PUSH1 0x0 REVERT JUMPDEST PUSH1 0x0 DUP1 REVERT JUMPDEST PUSH1 0x0 PUSH1 0x1F NOT PUSH1 0x1F DUP4 ADD AND SWAP1 POP SWAP2 SWAP1 POP JUMP JUMPDEST PUSH32 0x5A45524F5F534841524553000000000000000000000000000000000000000000 PUSH1 0x0 DUP3 ADD MSTORE POP JUMP JUMPDEST PUSH32 0x1901000000000000000000000000000000000000000000000000000000000000 PUSH1 0x0 DUP3 ADD MSTORE POP JUMP JUMPDEST PUSH32 0x4E6F74206120736861726520686F6C6465720000000000000000000000000000 PUSH1 0x0 DUP3 ADD MSTORE POP JUMP JUMPDEST PUSH32 0x5452414E534645525F46524F4D5F4641494C4544000000000000000000000000 PUSH1 0x0 DUP3 ADD MSTORE POP JUMP JUMPDEST PUSH32 0x7769746864726177206D7573742062652067726561746572207468616E205A65 PUSH1 0x0 DUP3 ADD MSTORE PUSH32 0x726F000000000000000000000000000000000000000000000000000000000000 PUSH1 0x20 DUP3 ADD MSTORE POP JUMP JUMPDEST PUSH32 0x5452414E534645525F4641494C45440000000000000000000000000000000000 PUSH1 0x0 DUP3 ADD MSTORE POP JUMP JUMPDEST PUSH32 0x4E6F7420656E6F75676820736861726573000000000000000000000000000000 PUSH1 0x0 DUP3 ADD MSTORE POP JUMP JUMPDEST PUSH32 0x5A65726F20416464726573730000000000000000000000000000000000000000 PUSH1 0x0 DUP3 ADD MSTORE POP JUMP JUMPDEST PUSH32 0x494E56414C49445F5349474E4552000000000000000000000000000000000000 PUSH1 0x0 DUP3 ADD MSTORE POP JUMP JUMPDEST PUSH32 0x5A45524F5F415353455453000000000000000000000000000000000000000000 PUSH1 0x0 DUP3 ADD MSTORE POP JUMP JUMPDEST PUSH32 0x4465706F736974206C657373207468616E205A65726F00000000000000000000 PUSH1 0x0 DUP3 ADD MSTORE POP JUMP JUMPDEST PUSH32 0x5045524D49545F444541444C494E455F45585049524544000000000000000000 PUSH1 0x0 DUP3 ADD MSTORE POP JUMP JUMPDEST PUSH2 0x30CB DUP2 PUSH2 0x2D09 JUMP JUMPDEST DUP2 EQ PUSH2 0x30D6 JUMPI PUSH1 0x0 DUP1 REVERT JUMPDEST POP JUMP JUMPDEST PUSH2 0x30E2 DUP2 PUSH2 0x2D27 JUMP JUMPDEST DUP2 EQ PUSH2 0x30ED JUMPI PUSH1 0x0 DUP1 REVERT JUMPDEST POP JUMP JUMPDEST PUSH2 0x30F9 DUP2 PUSH2 0x2D51 JUMP JUMPDEST DUP2 EQ PUSH2 0x3104 JUMPI PUSH1 0x0 DUP1 REVERT JUMPDEST POP JUMP JUMPDEST PUSH2 0x3110 DUP2 PUSH2 0x2D5B JUMP JUMPDEST DUP2 EQ PUSH2 0x311B JUMPI PUSH1 0x0 DUP1 REVERT JUMPDEST POP JUMP INVALID LOG2 PUSH5 0x6970667358 0x22 SLT KECCAK256 0xC7 SELFDESTRUCT LT 0xEA PUSH8 0x80B12D8F4EFDD8C 0xB2 SHL PUSH31 0xD60120211025D80B1094C0238D22CE5B64736F6C6343000807003300000000 "
				},
				"gasEstimates": {
					"creation": {
						"codeDepositCost": "2525600",
						"executionCost": "infinite",
						"totalCost": "infinite"
					},
					"external": {
						"DOMAIN_SEPARATOR()": "infinite",
						"_deposit(uint256)": "infinite",
						"_withdraw(uint256,address)": "infinite",
						"allowance(address,address)": "infinite",
						"approve(address,uint256)": "infinite",
						"asset()": "infinite",
						"balanceOf(address)": "2925",
						"convertToAssets(uint256)": "infinite",
						"convertToShares(uint256)": "infinite",
						"decimals()": "infinite",
						"deposit(uint256,address)": "infinite",
						"maxDeposit(address)": "763",
						"maxMint(address)": "696",
						"maxRedeem(address)": "2885",
						"maxWithdraw(address)": "infinite",
						"mint(uint256,address)": "infinite",
						"name()": "infinite",
						"nonces(address)": "2860",
						"permit(address,address,uint256,uint256,uint8,bytes32,bytes32)": "infinite",
						"previewDeposit(uint256)": "infinite",
						"previewMint(uint256)": "infinite",
						"previewRedeem(uint256)": "infinite",
						"previewWithdraw(uint256)": "infinite",
						"redeem(uint256,address,address)": "infinite",
						"shareHolder(address)": "2924",
						"symbol()": "infinite",
						"totalAssets()": "infinite",
						"totalAssetsOfUser(address)": "infinite",
						"totalSupply()": "2497",
						"transfer(address,uint256)": "infinite",
						"transferFrom(address,address,uint256)": "infinite",
						"withdraw(uint256,address,address)": "infinite"
					}
				},
				"methodIdentifiers": {
					"DOMAIN_SEPARATOR()": "3644e515",
					"_deposit(uint256)": "9213b124",
					"_withdraw(uint256,address)": "293311ab",
					"allowance(address,address)": "dd62ed3e",
					"approve(address,uint256)": "095ea7b3",
					"asset()": "38d52e0f",
					"balanceOf(address)": "70a08231",
					"convertToAssets(uint256)": "07a2d13a",
					"convertToShares(uint256)": "c6e6f592",
					"decimals()": "313ce567",
					"deposit(uint256,address)": "6e553f65",
					"maxDeposit(address)": "402d267d",
					"maxMint(address)": "c63d75b6",
					"maxRedeem(address)": "d905777e",
					"maxWithdraw(address)": "ce96cb77",
					"mint(uint256,address)": "94bf804d",
					"name()": "06fdde03",
					"nonces(address)": "7ecebe00",
					"permit(address,address,uint256,uint256,uint8,bytes32,bytes32)": "d505accf",
					"previewDeposit(uint256)": "ef8b30f7",
					"previewMint(uint256)": "b3d7f6b9",
					"previewRedeem(uint256)": "4cdad506",
					"previewWithdraw(uint256)": "0a28a477",
					"redeem(uint256,address,address)": "ba087652",
					"shareHolder(address)": "f071f4fd",
					"symbol()": "95d89b41",
					"totalAssets()": "01e1d114",
					"totalAssetsOfUser(address)": "45be27b6",
					"totalSupply()": "18160ddd",
					"transfer(address,uint256)": "a9059cbb",
					"transferFrom(address,address,uint256)": "23b872dd",
					"withdraw(uint256,address,address)": "b460af94"
				}
			},
			"storageLayout": {
				"storage": [
					{
						"astId": 176,
						"contract": "TokenVault.sol:TokenVault",
						"label": "name",
						"offset": 0,
						"slot": "0",
						"type": "t_string_storage"
					},
					{
						"astId": 178,
						"contract": "TokenVault.sol:TokenVault",
						"label": "symbol",
						"offset": 0,
						"slot": "1",
						"type": "t_string_storage"
					},
					{
						"astId": 182,
						"contract": "TokenVault.sol:TokenVault",
						"label": "totalSupply",
						"offset": 0,
						"slot": "2",
						"type": "t_uint256"
					},
					{
						"astId": 186,
						"contract": "TokenVault.sol:TokenVault",
						"label": "balanceOf",
						"offset": 0,
						"slot": "3",
						"type": "t_mapping(t_address,t_uint256)"
					},
					{
						"astId": 192,
						"contract": "TokenVault.sol:TokenVault",
						"label": "allowance",
						"offset": 0,
						"slot": "4",
						"type": "t_mapping(t_address,t_mapping(t_address,t_uint256))"
					},
					{
						"astId": 200,
						"contract": "TokenVault.sol:TokenVault",
						"label": "nonces",
						"offset": 0,
						"slot": "5",
						"type": "t_mapping(t_address,t_uint256)"
					},
					{
						"astId": 8,
						"contract": "TokenVault.sol:TokenVault",
						"label": "shareHolder",
						"offset": 0,
						"slot": "6",
						"type": "t_mapping(t_address,t_uint256)"
					}
				],
				"types": {
					"t_address": {
						"encoding": "inplace",
						"label": "address",
						"numberOfBytes": "20"
					},
					"t_mapping(t_address,t_mapping(t_address,t_uint256))": {
						"encoding": "mapping",
						"key": "t_address",
						"label": "mapping(address => mapping(address => uint256))",
						"numberOfBytes": "32",
						"value": "t_mapping(t_address,t_uint256)"
					},
					"t_mapping(t_address,t_uint256)": {
						"encoding": "mapping",
						"key": "t_address",
						"label": "mapping(address => uint256)",
						"numberOfBytes": "32",
						"value": "t_uint256"
					},
					"t_string_storage": {
						"encoding": "bytes",
						"label": "string",
						"numberOfBytes": "32"
					},
					"t_uint256": {
						"encoding": "inplace",
						"label": "uint256",
						"numberOfBytes": "32"
					}
				}
			},
			"userdoc": {
				"kind": "user",
				"methods": {
					"_deposit(uint256)": {
						"notice": "function to deposit assets and receive vault tokens in exchange"
					},
					"_withdraw(uint256,address)": {
						"notice": "Function to allow msg.sender to withdraw their deposit plus accrued interest"
					}
				},
				"version": 1
			}
		}
	}
}